:100000000C94DD010C940E020C940E020C940E0262
:100010000C940E020C940E020C940E020C940E0220
:100020000C940E020C940E020C940E020C940E0210
:100030000C940E020C940E020C940E020C940E0200
:100040000C940E020C940E020C940E020C940E02F0
:100050000C940E020C940E020C940E020C943C0FA5
:100060000C940E020C94A60C0C94DC0C0C940E0256
:100070000C940E020C940E020C940E020C940E02C0
:100080000C940E020C940E020C940E020C940E02B0
:100090000C940E020C940E020C940E020C943F0B66
:1000A0000C940E020C940E020C940E020C940E0290
:1000B0000C940E020C940E020C940E020C940E0280
:1000C0000C940E020C940E020C940E020C940E0270
:1000D0000C940E020C940E020C940E020C940E0260
:1000E0000C940E0270107310621066106C10AA103F
:1000F00077107B108110851089108F109310971046
:10010000AA109D10A110A5106C1476147C14A714CD
:10011000B6140415121569157515A41BB81B941C8B
:10012000A31CB31CD41C121D6E1DF22EF62EFA2E2B
:10013000012F052F092F0D2F112F182F05A84CCD9A
:10014000B2D44EB93836A9020C50B9918688083C11
:10015000A6AAAA2ABE000000803F0C94B6140C94F4
:1001600070100C94052F0C9472320C946F320C9416
:1001700075320C94FA2E0C94A1100C9481040C94FA
:10018000F62E0C9412330C9481100C947A0D0C946E
:1001900066320C94F0040C946C320C9493040C941E
:1001A00076140C9493100C943D0D0C9404150C943F
:1001B00077100C94B31C0C942A020C9489100C94A4
:1001C0007B100C946B0D0C9473040C940D2F0C94F9
:1001D000D41C0C94012F0C94A7140C947E320C9414
:1001E00078320C9466100C94E6360C9414330C940C
:1001F000D9370C94112F0C94F22E0C9469150C9491
:100200007B320C94BD0E0C946F040C94100D0C9466
:100210007B040C946C100C9412150C94060D0C9429
:1002200069320C9497100C94182F0C9410020C94B3
:1002300075150C948F100C946E1D0C94D90D0C94A4
:10024000B0330C94A41B0C949D100C94B81B0C940C
:10025000260E0C94121D0C947C140C9411020C9418
:1002600062100C94092F0C94490D0C9473100C948B
:1002700075040C9417110C9492350C9463320C9401
:10028000A5100C946C140C94E7340C94A31C0C94DF
:100290003D360C947F040C944B340C9485100C94D4
:1002A000AA100C94941C0C94570D0C94120200008C
:1002B0000A0B02090C0D0E080703040100000000E0
:1002C000000000000000000000000000000000002E
:1002D00000000000000000000000121110000000EB
:1002E000000000000000000000000000000000000E
:1002F00000000000010210202008081020401020FB
:1003000040800201020108040201010204081020D9
:1003100040808040201008040201800402018040D7
:100320002010080402010804020101020408102040
:1003300040800102040810204080050505050705DE
:1003400008080808020202020A0A08080404040451
:10035000010101010101010103030303030303037D
:10036000040707070C0C0C0C0C0C0C0C020202020C
:1003700006060606060606060B0B0B0B0B0B0B0BF5
:1003800000002200250028002B002E003100340040
:1003900002010000050108010B01000021002400FA
:1003A00027002A002D003000330001010000040165
:1003B00007010A016F04F004100D11241FBECFEFD6
:1003C000D1E2DEBFCDBF00E00CBF12E0A0E0B2E0A2
:1003D000ECEFFEE700E00BBF02C007900D92A03BE0
:1003E000B107D9F727E1A0EBB2E001C01D92A73217
:1003F000B207E1F711E0CDEDD1E000E006C02197B2
:100400000109802FFE010E94B93BCA3DD10780E05F
:100410000807A9F70E94AE0E0C947C3F0C940000D4
:10042000089508950F931F93CF93DF93EC018B01F1
:1004300061E088E30E94E710A801BE018BEF92E023
:100440000E94B10560E088E3DF91CF911F910F9189
:100450000C94E71061E089E30E94E7108BEF92E0D3
:100460000E94CF0560E089E30C94E7108F929F9281
:10047000AF92BF92CF92DF92EF92FF924B015C015D
:100480006091D7027091D8028091D9029091DA02DE
:10049000C090D302D090D402E090D502F090D60262
:1004A0002BED3FE049EC50E40E946C3EA501940125
:1004B0000E946C3EA70196010E94443C6093D302C7
:1004C0007093D4028093D5029093D6026091D302A8
:1004D0007091D4028091D5029091D6022BED3FE02D
:1004E00049EC50E40E94673E87FD36C06091D3021C
:1004F0007091D4028091D5029091D60220E030E034
:1005000040E05FE30E946C3E2BED3FE049E450E4A5
:100510000E94B53C0E949A3DC090D302D090D40274
:10052000E090D502F090D6029B01AC010E94443CC1
:100530002BED3FE049E450E40E946C3E9B01AC018E
:10054000C701B6010E94433C6093D3027093D4026A
:100550008093D5029093D6026091D3027091D40219
:100560008091D5029091D6020E94D93E6093CF022D
:100570007093D0028093D1029093D2028091CF02E7
:100580009091D002A091D102B091D202FF90EF9051
:10059000DF90CF90BF90AF909F908F90089526E00E
:1005A00048E855ED61E070E08DE796E10E94480E65
:1005B0000E94BC0880E192E00E94000981E192E083
:1005C0000E94FB0882E192E00E940A098AE292E01E
:1005D0000E94050960E87AE186E090E00E94E70861
:1005E00061E08DE00E94AB1061E087E00E94AB10FB
:1005F00061E086E30E94AB1061E087E30E94AB10EC
:1006000061E088E30E94AB1061E089E30E94AB10D7
:1006100061E08AE30E94AB1061E087E00E94E7108E
:100620000E94B90468E28BEF92E00E94E40548EE74
:1006300053E060E070E08BEF92E00E9490068BEF59
:1006400092E00C94D70761E087E30E94E710809165
:10065000CB029091CC02A091CD02B091CE02019636
:10066000A11DB11D8093CB029093CC02A093CD022B
:10067000B093CE0260E08BEF92E00E9443086AE004
:1006800077ED83E29CE30E94360286E195E00E94CA
:100690004B1F60E087E30C94E7108091C7029091B4
:1006A000C802A091C902B091CA020196A11DB11D54
:1006B0008093C7029093C802A093C902B093CA0264
:1006C0006091C5028DE00E94E71081E090E02091EA
:1006D000C5023091C602232B11F080E090E0909388
:1006E000C6028093C50208958091C402882399F0C0
:1006F0008091C0029091C102A091C202B091C30248
:100700000196A11DB11D8093C0029093C102A093D8
:10071000C202B093C3028DEF94E00C944B1F8F92F2
:100720009F92AF92BF92CF92DF92EF92FF92809111
:10073000F30281110DC00E94920F6093BC0270936E
:10074000BD028093BE029093BF0281E08093F302CA
:100750008091EB0281110DC00E94920F6093B8024C
:100760007093B9028093BA029093BB0281E08093A8
:10077000EB028091E30281110DC00E94920F609301
:10078000B4027093B5028093B6029093B70281E0F1
:100790008093E3028091DB0281110DC00E94920FD1
:1007A0006093B0027093B1028093B2029093B3024F
:1007B00081E08093DB020E94920F6B017C018091AB
:1007C000B0029091B102A091B202B091B302A70120
:1007D0009601281B390B4A0B5B0BDA01C9018031EA
:1007E0009742A105B10550F00E942303C092B002C8
:1007F000D092B102E092B202F092B3028091B402C0
:100800009091B502A091B602B091B702A7019601EE
:10081000281B390B4A0B5B0BDA01C9018035934C5D
:10082000A105B10550F00E947403C092B402D092A9
:10083000B502E092B602F092B7028091B8029091B0
:10084000B902A091BA02B091BB02A7019601281B80
:10085000390B4A0B5B0BDA01C90180349244AF407B
:10086000B10550F00E944D03C092B802D092B90277
:10087000E092BA02F092BB028BEF92E00E9468080D
:100880008091BC029091BD02A091BE02B091BF02C6
:10089000A7019601281B390B4A0B5B0BAAE0B0E0BD
:1008A0000E94C83B4B015C01AB01BC018FE295E0AB
:1008B0000E94521FC501B4010E944C05C092BC02A7
:1008C000D092BD02E092BE02F092BF02FF90EF9084
:1008D000DF90CF90BF90AF909F908F9008958BEF57
:1008E00092E00C94A90580E00895FC016589768961
:1008F0008789908D089560E070E0CB01089581E0D4
:1009000008956115704169F4823159F488E796E5DC
:10091000A4E3B2E1FA0180839183A283B38381E0EF
:10092000089580E008950F931F9361157041E9F4D5
:100930008231D9F400912F031091300320913103BB
:1009400030913203FA0180819181A281B381800FBD
:10095000911FA21FB31F80932F0390933003A09386
:100960003103B093320381E001C080E01F910F9109
:1009700008950F931F9300E810E024E435E140E46C
:1009800050E064EC75E181ED94E00E94871F89E0FE
:1009900092E09093DA048093D90440E050E164E45B
:1009A00075E081ED94E00E94A81F43E063E072E0EF
:1009B00081ED94E00E94A31F03E914E021E834E0F4
:1009C00041E050E060E072E081ED94E00E94951F0C
:1009D00061ED74E083E393E01F910F910C94FD119E
:1009E000CF92DF92EF92FF92EFE2F5E01282138254
:1009F000148215821782168687E192E0908B878792
:100A0000128A118A138A81E0848B28E232E03183D2
:100A10002083E6E1F5E012821382148215821782A8
:100A200016864BE152E0508B4787128A118A138A4F
:100A3000848B20E232E03183208390EAC92E96E84D
:100A4000D92EEE24E394F12CC58AD68AE78AF08E5B
:100A5000EDEFF4E01282138214821582178216865B
:100A6000508B4787128A118A138A848B31832083A3
:100A700080E291EAA7E0B0E0858B968BA78BB08FE0
:100A800081ED94E00E94851F83E393E0FF90EF9057
:100A9000DF90CF900C942811CF92DF92EF92FF92CB
:100AA0000F931F93CF93DF93CDB7DEB760970FB649
:100AB000F894DEBF0FBECDBF6B017C018DE796E1E0
:100AC0000E943D0D8131910510F080E190E0AC0174
:100AD000BE016F5F7F4F8DE796E10E94170FAC015B
:100AE000BE016F5F7F4F87E393E00E946621B701ED
:100AF000A60183E393E00E94D01D87E393E00E9468
:100B00009B208C01419710F000E110E0A801BE018C
:100B10006F5F7F4F87E393E00E94F62283E393E0C9
:100B20000E94BF13A801BE016F5F7F4F8DE796E162
:100B30000E94BD0E60960FB6F894DEBF0FBECDBF0B
:100B4000DF91CF911F910F91FF90EF90DF90CF90A9
:100B50000895FC011082118281E082831586168639
:100B600008951F93CF93DF93EC018D859AA991117E
:100B700012C0142F9E0148E0849F200D311D1124C6
:100B8000C901412F82960E94683F81E08AAB1BAB6E
:100B90009D8589278D87DF91CF911F9108950F93B0
:100BA000FC018685813031F08685823019F086859A
:100BB000833041F400E021E046E060E070E08081B5
:100BC0000E943E090F910895CF93DF93FC0160834B
:100BD00082E0828311821686DF01179686E0ED019E
:100BE00019928A95E9F7158A148A138A128A118A4A
:100BF000108A138E128E118E108E178A168A11A2E9
:100C000010A2178E168E158E148E12AA13AADF91BB
:100C1000CF910895BF92CF92DF92EF92FF920F9300
:100C20001F93CF93DF931F921F92CDB7DEB76C0156
:100C3000B22E69834A8340E0C801B7010E941B09B4
:100C400001E02B2D42E0BE016F5F7F4FF6018081F6
:100C50000E94260A982FF601818381E0911180E09D
:100C60000F900F90DF91CF911F910F91FF90EF9018
:100C7000DF90CF90BF9008958F929F92AF92BF92D6
:100C8000CF92DF92EF92FF920F931F93CF93DF9358
:100C90001F92CDB7DEB76C0169834A015901C801C3
:100CA000B70140E00E941B0901E021E041E0BE01E4
:100CB0006F5F7F4FF60180810E94260AF6018183D3
:100CC000882321F00E94150980E00DC001E021E099
:100CD0004A2DB401F60180810E943E0990E0A816D9
:100CE000B90681F781E00F90DF91CF911F910F91AD
:100CF000FF90EF90DF90CF90BF90AF909F908F903C
:100D00000895EF92FF920F931F937801890121E0DC
:100D100030E00E943C061F910F91FF90EF900895E4
:100D20002F923F924F925F926F927F928F929F92FB
:100D3000AF92BF92CF92DF92EF92FF920F931F93E9
:100D4000CF93DF931F92CDB7DEB76C012A013B0131
:100D50000E94860F4B015C011982F601868588236B
:100D600011F084E08283F60182818D7F09F0F1C069
:100D700008EE13E020E030E0AE014F5F5F4F60E02F
:100D8000C6010E948106882309F4E7C08981803A60
:100D900009F0E3C01601F3E02F0E311C08EE13E05A
:100DA00020E030E0A10169E3C6010E9481068823AA
:100DB00009F4CFC0F6018381948182309105A0F0BF
:100DC0006AE070E080E090E00E94B70F0E94860F1A
:100DD000DC01CB0188199909AA09BB09841595057D
:100DE000A605B705D8F2B5C0019761F4A6014B5F1F
:100DF0005F4F08EE13E020E030E06AE3C6010E9496
:100E00008106A7C018EEE12E13E0F12E00E010E0FD
:100E100021E040E06DE3C6010E940A06882309F440
:100E200098C064E170E080E090E00E94B70F21E09C
:100E300041E86BE3C6010E940A06882309F489C0D1
:100E400021E040E06EE3C6010E940A06882309F40F
:100E500080C021E041E067E0C6010E940A068823C5
:100E600009F477C021E045E068E0C6010E940A0667
:100E7000882309F46EC021E04AE26AE0C6010E94BC
:100E80000A06882309F465C021E040E06BE0C60152
:100E90000E940A06882309F45CC021E04CE069E066
:100EA000C6010E940A06882309F453C021E040E0ED
:100EB00067E0C6010E940A06882309F44AC021E0BF
:100EC00047E06DE3C6010E940A06882309F441C089
:100ED0006AE070E080E090E00E94B70F08EE13E057
:100EE00020E030E0A10169E3C6010E948106F82EEE
:100EF000882379F1F601838194810097A1F46AE057
:100F000070E080E090E00E94B70F0E94860FDC0145
:100F1000CB0188199909AA09BB0984159505A6056D
:100F2000B705E0F216C0019739F0F601128261E0D0
:100F30008AE30E94E71026C008EE13E020E030E0CC
:100F4000A6014B5F5F4F6AE3C6010E9481068111D3
:100F5000ECCF0E941509F12C15C06AE070E080E02A
:100F600090E00E94B70F0E94860FDC01CB01881928
:100F70009909AA09BB0984159505A605B70508F4C2
:100F8000F7CEE7CF8F2D0F90DF91CF911F910F916B
:100F9000FF90EF90DF90CF90BF90AF909F908F9099
:100FA0007F906F905F904F903F902F900895CF92D9
:100FB000DF92EF92FF920F931F93CF93DF9300D0B6
:100FC00000D0CDB7DEB7FC018685882311F084E020
:100FD0008283828181112FC06F0118EEE12E13E010
:100FE000F12E00E010E021E040E067E0CF010E9438
:100FF0000A0618E8E12E13E1F12E00E010E026E0E9
:1010000030E0AE014F5F5F4F61E0C6010E943C06D9
:10101000882371F08981F60187838A8181878B819A
:1010200080878C819D81938782878E81848703C08E
:1010300083E0F601828326960FB6F894DEBF0FBEDA
:10104000CDBFDF91CF911F910F91FF90EF90DF9077
:10105000CF9008950F93CF93DF931F92CDB7DEB754
:1010600021E0FC01268728E0298300E020E041E020
:10107000BE016F5F7F4F80810E94260A0F90DF9133
:10108000CF910F910895FC012281211107C026857F
:10109000211104C0678715860C942A0808950F93C0
:1010A000CF93DF931F92CDB7DEB722E0FC012687F6
:1010B00024E1298300E020E041E0BE016F5F7F4F23
:1010C00080810E94260A0F90DF91CF910F910895A1
:1010D000CF93DF93FC0122A9222309F44AC0EC013B
:1010E000958581E0892798E0899FE00DF11D112405
:1010F000B2968E858130C9F48BA98630E1F42181C6
:10110000808190E0922B998B888B2381828190E063
:10111000922B9B8B8A8B2581848190E0922B9D8BD7
:101120008C8BCE010E944F0823C08E85823001F542
:101130008BA9863019F084E08E871AC021818081C6
:1011400090E0922B9F8B8E8B2381828190E0922B5B
:10115000998F888F2581848190E0922B9B8F8A8F35
:101160008F85813021F4CE010E942A0801C01E869D
:101170001AAADF91CF91089510927C1681E0809396
:101180007A161092791661E084E10E94E71061E01E
:1011900085E10E94E710E9EBF0E080818E7F80839B
:1011A00080818D7F808388E48093B80085E480937C
:1011B000BC000895ECEBF0E080818A7B808360E0E6
:1011C00084E10E94E71060E085E10C94E7109B0148
:1011D000AC0160E074E284EF90E00E94973BDA019A
:1011E000C9014097A109B109B695A795979587952B
:1011F0008093B800089590936F1680936E160895AB
:101200009093711680937016089590936D16809345
:101210006C16089590936B1680936A16089585ED69
:101220008093BC0010927C16089585EC8093BC00DE
:1012300010927C1608951092731660937416709332
:1012400075168093761690937716409372160895CC
:10125000CF93DF9391E090937316882361F0C09150
:10126000B800D091BA000E94DA080E94BC08D0935E
:10127000BA00C093B800DF91CF9108954F925F926A
:101280006F927F928F929F92AF92BF92FF920F9335
:101290001F93CF93DF93B82E162FF72EC42FA22EB5
:1012A000413208F0C1C00E94920F2B013C01D09145
:1012B0007C16DD2331F18091741690917516A09102
:1012C0007616B0917716892B8A2B8B2B81F30E948F
:1012D000920F2091741630917516409176165091A8
:1012E0007716DC01CB0184199509A609B7092817DF
:1012F00039074A075B07D8F6809172160E942809C1
:1013000093C081E080937C16A0927A1600937816A1
:101310009FEF90930416109249169C0F90934816D5
:1013200080937B1690917B168B2D880F892B809351
:101330007B1680917916813089F5109279160E947A
:10134000920F4B015C0180917B168093BB008091D2
:10135000741690917516A0917616B0917716892B18
:101360008A2B8B2BA9F00E94920F409074165090FC
:1013700075166090761670907716DC01CB0188198F
:101380009909AA09BB09481659066A067B06A8F1FD
:101390008091BC0083FDD7CF85EC01C085EE8093A2
:1013A000BC00002309F442C00E94920F4B015C0173
:1013B00080917C16813031F580917416909175166C
:1013C000A0917616B0917716892B8A2B8B2B81F3FF
:1013D0000E94920F40907416509075166090761689
:1013E00070907716DC01CB0188199909AA09BB090D
:1013F000481659066A067B06D8F6809172160E9436
:10140000280915C0809149168C1710F4C09149160F
:10141000AAE4B6E1912FE12FFF2D8E2F891B8C17A7
:1014200028F48D918193F9CFD0E001C0DC2F8D2F6E
:10143000DF91CF911F910F91FF90BF90AF909F9040
:101440008F907F906F905F904F9008954F925F9232
:101450006F927F928F929F92AF92BF92CF92DF92C4
:10146000EF92FF920F931F93CF93DF93413208F0D7
:10147000EFC0122FF42ED72EE62ED82F0E94920FF7
:101480004B015C0180917C16882371F18091741668
:1014900090917516A0917616B0917716892B8A2BAC
:1014A0008B2B81F30E94920F40907416509075160A
:1014B0006090761670907716DC01CB018819990937
:1014C000AA09BB09481659066A067B06D8F6ACC0BD
:1014D0008091741690917516A0917616B09177163A
:1014E000892B8A2B8B2B39F48091BC00C82FC071BB
:1014F00084FDEECF16C00E94920F4090741650905B
:1015000075166090761670907716DC01CB018819FD
:101510009909AA09BB09481659066A067B0620F7ED
:1015200083C082E080937C1600937A168FEF8093BD
:10153000041610924916F09248169E2DAAE4B6E1C0
:10154000EE2DFD2D8E2F891B8F1518F481918D9313
:10155000F9CF10927B1690917B16DD0FD92BD0938B
:101560007B1680917916813089F5109279160E9448
:10157000920F6B017C0180917B168093BB00809160
:10158000741690917516A0917616B0917716892BE6
:101590008A2B8B2BA9F00E94920F8090741690904A
:1015A0007516A0907616B0907716DC01CB018C19D9
:1015B0009D09AE09BF0988169906AA06BB06A0F1C7
:1015C0008091BC0083FDD7CF85EC01C085EE809370
:1015D000BC000E94920F6B017C01112359F1809194
:1015E0007C16823039F58091741690917516A09111
:1015F0007616B0917716892B8A2B8B2B71F30E946C
:10160000920F8090741690907516A0907616B090F8
:101610007716DC01CB018C199D09AE09BF0988162C
:101620009906AA06BB06C8F6809172160E94280980
:10163000C5E013C0809104168F3F79F080910416A5
:10164000803241F080910416803331F0C4E005C04F
:10165000C1E003C0C2E001C0C3E08C2FDF91CF9195
:101660001F910F91FF90EF90DF90CF90BF90AF90C0
:101670009F908F907F906F905F904F9008951F92F2
:101680000F920FB60F9211240BB60F922F933F9328
:101690004F935F936F937F938F939F93AF93BF937A
:1016A000EF93FF938091B900887F803609F4D4C00E
:1016B00078F5883209F45DC090F4803109F456C0A1
:1016C00038F4882309F42BC1883009F44FC02BC1AA
:1016D000883109F44EC0803209F478C024C18034C6
:1016E00009F483C058F4803309F470C0883309F0DA
:1016F0001AC1809304160E94150915C1803509F49A
:1017000068C0883509F476C0883409F00CC109C175
:10171000883909F4FAC0A8F4883709F49DC038F470
:10172000883609F499C0803709F496C0FCC088381F
:1017300009F4EBC0803909F495C0803809F0F3C092
:1017400091C0803B09F4B9C038F4803A09F49CC0D8
:10175000883A09F4B2C0E7C0803C09F4DAC0883C9A
:1017600009F4D7C0883B09F4BDC0DDC080917B1669
:1017700010C09091491680914816981770F4E09126
:10178000491681E08E0F80934916F0E0E65BF94E32
:1017900080818093BB0085ECB9C080917A16882344
:1017A00019F00E940F0908C081E08093791684EA3D
:1017B0008093BC0010927C1680917C168111B3C07E
:1017C000E0916C16F0916D161995ADC080930416DA
:1017D000A8C0E091491681E08E0F80934916809150
:1017E000BB00F0E0E65BF94E808390914916809152
:1017F000481688C0E091491681E08E0F8093491603
:101800008091BB00F0E0E65BF94E808380917A1610
:10181000882319F00E940F0908C081E0809379168F
:1018200084EA8093BC0010927C1680917816811116
:101830007AC080917C16811176C0809173168111D7
:1018400072C06091491670E0E0916A16F0916B16D3
:101850008AE496E1199567C083E080937C16109224
:10186000051699CF80910516803208F04EC0E091A0
:10187000051681E08E0F809305168091BB00F0E085
:10188000EA5FF94E808387CF0E9415098091051683
:10189000803230F4E0910516F0E0EA5FF94E1082F4
:1018A0006091051670E0E0916E16F0916F1686E07B
:1018B00096E119951092051636C084E080937C1647
:1018C0001092271610922616E0917016F09171165C
:1018D000199580912616811105C081E08093261606
:1018E00010922816E091271681E08E0F809327161C
:1018F000F0E0E85DF94E80818093BB00909127165F
:1019000080912616981708F446CF85E88093BC008E
:101910000AC085EC8093BC0010927C1604C0109223
:1019200004160E940F09FF91EF91BF91AF919F9113
:101930008F917F916F915F914F913F912F910F9078
:101940000BBE0F900FBE0F901F9018951F920F9215
:101950000FB60F9211240BB60F922F938F939F9374
:10196000EF93FF93E0918D16F0918E168081E091B8
:101970009316F091941682FD12C090818091961674
:101980008F5F8F7320919716821751F0E091961612
:10199000F0E0E358F94E958F8093961601C0808150
:1019A000FF91EF919F918F912F910F900BBE0F9010
:1019B0000FBE0F901F9018951F920F920FB60F92A7
:1019C00011240BB60F922F933F934F935F936F9316
:1019D0007F938F939F93AF93BF93EF93FF938DE785
:1019E00096E10E94B70DFF91EF91BF91AF919F914A
:1019F0008F917F916F915F914F913F912F910F90B8
:101A00000BBE0F900FBE0F901F9018958DE796E1BB
:101A10000E943D0D21E0892B09F420E0822F0895DA
:101A2000EDE7F6E11382128288EE93E0A0E0B0E0E9
:101A300084839583A683B78380E392E09183808338
:101A400085EC90E09587848784EC90E09787868783
:101A500080EC90E0918B808B81EC90E0938B828B7B
:101A600082EC90E0958B848B86EC90E0978B868B54
:101A7000118E128E138E148E0895FC01918D228D7D
:101A8000892F90E0805C9F4F821B91098F7399276B
:101A90000895FC01918D828D981731F0828DE80FA9
:101AA000F11D858D90E008958FEF9FEF0895FC0163
:101AB000918D828D981761F0828DDF01A80FB11D85
:101AC0005D968C91928D9F5F9F73928F90E00895A9
:101AD0008FEF9FEF0895FC01538D448D252F30E04B
:101AE000842F90E0821B930B541710F0CF9608952B
:101AF0000197089586E09DE0892B41F080E090E019
:101B0000892B21F00E94060D811125C080E090E014
:101B1000892B41F080E090E0892B21F00E940000A9
:101B200081111CC080E090E0892B41F080E090E0C2
:101B3000892B21F00E940000811113C080E090E009
:101B4000892BA1F080E090E0892B81F00E940000B9
:101B500081110AC008950E940000D8CF0E940000A1
:101B6000E1CF0E940000EACF0C9400000895FC0130
:101B7000848DDF01A80FB11DA35ABF4F2C91848D16
:101B800090E001968F739927848FA689B7892C934B
:101B9000A089B1898C91837080648C93938D848D9E
:101BA000981306C00288F389E02D80818F7D8083A1
:101BB0000895EF92FF920F931F93CF93DF93EC0161
:101BC00081E0888F9B8D8C8D981305C0E889F989F9
:101BD000808185FD26C0F62E0B8D10E00F5F1F4F14
:101BE0000F731127E02E8C8DE8120CC00FB607FC86
:101BF000FACFE889F989808185FFF5CFCE010E946F
:101C0000B70DF1CF8B8DFE01E80FF11DE35AFF4FA9
:101C1000F0829FB7F8940B8FEA89FB8980818062FC
:101C20000AC09FB7F894EE89FF896083E889F98933
:101C300080818370806480839FBF81E090E0DF912A
:101C4000CF911F910F91FF90EF900895CF93DF9365
:101C5000EC01888D8823C9F0EA89FB89808185FDA4
:101C600005C0A889B9898C9186FD0FC00FB607FC05
:101C7000F5CF808185FFF2CFA889B9898C9185FF46
:101C8000EDCFCE010E94B70DE7CFDF91CF91089540
:101C9000CF92DF92EF92FF921F93CF93DF93EC01ED
:101CA0006A017B01122FE889F98982E0808341155E
:101CB000514E61057105B1F060E079E08DE390E08F
:101CC000A70196010E94973BDA01C9010197A1097A
:101CD000B109B695A795979587959C01211580E147
:101CE0003807A8F0E889F989108260E874E88EE185
:101CF00090E0A70196010E94973BDA01C901019784
:101D0000A109B109B695A795979587959C01EC8592
:101D1000FD853083EE85FF852083188EEC89FD8953
:101D20001083EA89FB89808180618083EA89FB894D
:101D3000808188608083EA89FB89808180688083D4
:101D4000EA89FB8980818F7D8083DF91CF911F910C
:101D5000FF90EF90DF90CF90089508950E94F30FC9
:101D60000E94AD0E0E94CF02CAE7DDE00E948F0301
:101D70002097E1F30E947A0DF9CFCF92DF92EF9294
:101D8000FF920F931F93CF93DF936C017A018B0126
:101D9000C0E0D0E0CE15DF0581F0D8016D918D0156
:101DA000D601ED91FC910190F081E02DC6011995CD
:101DB000892B11F02196EECF7E01C701DF91CF91E3
:101DC0001F910F91FF90EF90DF90CF9008950F93A8
:101DD0001F93CF93DF93EC010E94860F688779876A
:101DE0008A879B87E881F9810284F385E02DCE0103
:101DF000199597FF17C00E94860F088519852A85B7
:101E00003B85DC01CB01801B910BA20BB30B0C813A
:101E10001D812E813F8180179107A207B30710F320
:101E20008FEF9FEFDF91CF911F910F910895CF9288
:101E3000DF92EF92FF920F931F93CF93DF936C018A
:101E40007A018B01C0E0D0E0CE15DF0559F0C60164
:101E50000E94E70E97FD05C0F80181938F0121963E
:101E6000F3CF7E01C701DF91CF911F910F91FF90BA
:101E7000EF90DF90CF9008951F920F920FB60F92C0
:101E800011242F933F938F939F93AF93BF93809190
:101E90001B1790911C17A0911D17B0911E17309120
:101EA0001A1723E0230F2D3720F40196A11DB11D31
:101EB00005C026E8230F0296A11DB11D20931A1715
:101EC00080931B1790931C17A0931D17B0931E1798
:101ED00080911F1790912017A0912117B091221780
:101EE0000196A11DB11D80931F1790932017A093F9
:101EF0002117B0932217BF91AF919F918F913F917E
:101F00002F910F900FBE0F901F9018952FB7F89438
:101F100060911B1770911C1780911D1790911E17CF
:101F20002FBF08953FB7F89480911F179091201705
:101F3000A0912117B091221726B5A89B05C02F3F6D
:101F400019F00196A11DB11D3FBFBA2FA92F982FDF
:101F50008827820F911DA11DB11DBC01CD0142E05A
:101F6000660F771F881F991F4A95D1F708958F92A2
:101F70009F92AF92BF92CF92DF92EF92FF926B014E
:101F80007C010E94920F4B015C01C114D104E10459
:101F9000F10401F10E9416110E94920FDC01CB01A5
:101FA00088199909AA09BB09883E9340A105B10582
:101FB00060F321E0C21AD108E108F10888EE880E2A
:101FC00083E0981EA11CB11CC114D104E104F104EA
:101FD00019F7DBCFFF90EF90DF90CF90BF90AF90DD
:101FE0009F908F900895789484B5826084BD84B565
:101FF000816084BD85B5826085BD85B5816085BD04
:10200000EEE6F0E0808181608083E1E8F0E010821C
:10201000808182608083808181608083E0E8F0E05D
:10202000808181608083E1EBF0E080818460808347
:10203000E0EBF0E0808181608083E1E9F0E0808185
:1020400082608083808181608083E0E9F0E080812C
:1020500081608083E1EAF0E080818260808380811A
:1020600081608083E0EAF0E0808181608083E1E24A
:10207000F1E0808182608083808181608083E0E202
:10208000F1E0808181608083EAE7F0E08081846014
:102090008083808182608083808181608083808171
:1020A000806880831092C100089590E0FC01319710
:1020B000E231F10508F04EC08827EE58FF4F8F4FF0
:1020C0000C94B93B809180008F7703C08091800091
:1020D0008F7D80938000089580918000877FF9CF65
:1020E00084B58F7702C084B58F7D84BD08958091BB
:1020F000B0008F7703C08091B0008F7D8093B000D7
:102100000895809190008F7707C0809190008F7D17
:1021100003C080919000877F809390000895809104
:10212000A0008F7707C08091A0008F7D03C08091B1
:10213000A000877F8093A0000895809120018F7771
:1021400007C0809120018F7D03C080912001877F8F
:10215000809320010895CF93DF9390E0FC01EC5031
:10216000FD4F2491FC01E65CFC4F8491882361F1D2
:1021700090E0880F991FFC01E656FC4FC591D49161
:10218000FC01E058FC4FA591B491611109C09FB7C3
:10219000F8948881209582238883EC912E230BC0AC
:1021A000623061F49FB7F8948881322F3095832391
:1021B0008883EC912E2B2C939FBF06C08FB7F89489
:1021C000E8812E2B28838FBFDF91CF9108951F9335
:1021D000CF93DF93282F30E0F901E255FD4F849132
:1021E000F901EC50FD4FD491F901E65CFC4FC4912C
:1021F000CC23C1F0162F81110E945510EC2FF0E076
:10220000EE0FFF1FE058FC4FA591B4919FB7F894D3
:10221000111104C08C91D095D82302C0EC91DE2B13
:10222000DC939FBFDF91CF911F910895089508958A
:10223000FC01858D968D892B49F0818D928D892B9E
:1022400029F081E0238D348D232B09F480E008955B
:10225000CF93DF93EC01FC01119211921192119234
:102260008FE3DF011D928A95E9F7FE01ED5BFF4FD9
:10227000108231961082CE018B5B9F4F0E94851F8A
:10228000FE01EF58FF4F1082319610823196108276
:10229000118212821382349684E1DF011D928A95A5
:1022A000E9F7749683E191E0DF019C011D922150D2
:1022B0003040E1F7CE018C5B9E4F0E949638FE01C4
:1022C000EF58FE4F8AE492E091838083329684E552
:1022D00092E09183808332968EE592E091838083B1
:1022E000329688E692E091838083329682E792E08C
:1022F0009183808332968CE792E09183808332963B
:1023000086E892E091838083329680E992E091831F
:102310008083CF57DE4F8AE992E099838883DF91EB
:10232000CF9108958F929F92AF92BF92CF92DF92FA
:10233000EF92FF920F931F93CF93DF93EC01CF584F
:10234000DF4F21E02883FC01E05BFF4F20813181DA
:10235000232B41F032962081318120523109203DDA
:102360003F4F08F01882FC01EC5AFF4F2081318169
:10237000232B41F032962081318120523109203DBA
:102380003F4F08F01882E12CF12C812C912C540144
:102390006C01B0E6CB0ED11C8C01025A1F4FF60126
:1023A00080819181A0E0B0E088169906AA06BB065C
:1023B000A0F4D801ED91FC91EE0DFF1D82810E94E9
:1023C000E41F811101C01882BFEF8B1A9B0AAB0A70
:1023D000BB0AE3E0EE0EF11CE2CF988181E0892791
:1023E000DF91CF911F910F91FF90EF90DF90CF90F1
:1023F000BF90AF909F908F9008958F929F92AF92D1
:10240000BF92CF92DF92EF92FF920F931F93CF93E1
:10241000DF93EC01FC01ED5BFF4F108231961082DF
:10242000BE961082DC01AB5BBF4F8CE2FB010190DA
:102430000D928A95E1F74E0184E0880E911CFE0111
:10244000E75BFF4FA080B180C280D3803D960081C2
:1024500011813297208131813297408151813297A9
:10246000608171817E01C4010E94DD23CE010E9442
:102470009211F82E882329F0C4010E94B7231F82ED
:1024800011C08F81882359F000E010E06E01A8E6AA
:10249000CA0ED11C5E01B6E6AB0EB11C17C0CF58F8
:1024A000DF4F1882FF24F3944DC0D501ED91FC91CC
:1024B000C801880F991FE80FF91FBE018081918123
:1024C0000E946E1E8111EECF0F5F1F4FF6018081BB
:1024D00090E00817190748F3FE01E159FF4F00810A
:1024E0001181329720813181329740815181BE0123
:1024F000CE0185579F4F0E94812E8111D3CFFE01BF
:10250000E157FE4F1182108232961182108232966C
:102510001082319610823196108232961082319755
:10252000108232961082319610823F97DE01AD56AE
:10253000BF4F8C918083319611821082C357DE4F3A
:10254000198218828F2DDF91CF911F910F91FF90EB
:10255000EF90DF90CF90BF90AF909F908F900895B5
:10256000CF93DF93FA012081213099F018F02330C6
:1025700039F13BC0FC01E157FE4F20813181232B13
:1025800029F0DC01AD56BE4F22E02C9371836083AD
:102590002CC0FC01E157FE4F408151816417750743
:1025A00021F0DC01AD56BE4F2C93EC01118210825C
:1025B00085579F4F0E945D2EC956DE4F188215C069
:1025C0002181DC01A657BE4F2C9342815381119685
:1025D0004D935C9344815581FC01E357FE4F518339
:1025E0004083243011F03B961082DF91CF91089503
:1025F000FC01ED56FE4F2081211152C03497A0817D
:10260000B1811097F1F4EC5FF1092081E950FF4F9F
:102610002083DC01AF56BE4FED91FC9111973097AE
:1026200051F02781211107C021E02683F8942783E8
:1026300078941D921C92FC01EC56FE4F108232964B
:102640002EC017962C91179721112AC0FC01EB562A
:10265000FE4F2081222361F016961C921697F89463
:1026600021E017962C937894108232962083089557
:10267000FC01EC56FE4F2081222311F082E007C0BE
:10268000FC01EA56FE4F8081882351F083E01696C4
:102690008C931697F89481E017968C937894108217
:1026A0000895AF92BF92CF92DF92EF92FF921F9365
:1026B000CF93DF93CDB7DEB762970FB6F894DEBF46
:1026C0000FBECDBF5C0110E06C0188E6C80ED11CC6
:1026D0007501E6E6EE0EF11CF6018081181708F090
:1026E0003EC0F70190818181E92FF82FE10FF11DA4
:1026F000E10FF11D60817181FB018685882369F1FD
:1027000086E03896DE011D9601900D928A95E1F7DC
:10271000F894FB011686789486E0FE013D96DE0172
:10272000119601900D928A95E1F786E0FE013196AF
:10273000DE01179601900D928A95E1F786E0FE0181
:102740003796DE011D9601900D928A95E1F7AE0154
:10275000435F5F4FC5010E94B0121F5FBDCF6296FD
:102760000FB6F894DEBF0FBECDBFDF91CF911F91A2
:10277000FF90EF90DF90CF90BF90AF900895EF92D1
:10278000FF920F931F93CF93DF937C0123E4E20E1C
:10279000F11CF70120812223C1F0FC0126812230A7
:1027A000A1F0EC018C010C5F1F4FC8010E94322187
:1027B000F7011082BF961082CC5BDF4F888188239F
:1027C00021F0C8010E9477241882DF91CF911F91D8
:1027D0000F91FF90EF900895CF93DF93FC01E05AA3
:1027E000FF4FA081B18140E050E020E030E0EC01FB
:1027F000C25ADF4F2A173B0779F0E881F981E40FCD
:10280000F51F0190F081E02D4D5F5F4FE617F70750
:1028100029F02F5F3F4FEECF80E001C081E0DF91D4
:10282000CF9108950F931F93CF93DF93FC01E05A4C
:10283000FF4FC081D181A0E0B0E020E030E0825ABB
:102840009F4F2C173D07C1F0FC0100811181F80159
:10285000EA0FFB1F1396008111810617170749F431
:1028600080819181A281FA0180839183A28381E09A
:1028700004C02F5F3F4FE5CF80E0DF91CF911F91E4
:102880000F9108958F929F92AF92BF92CF92DF9255
:10289000EF92FF920F931F93CF93DF93CDB7DEB7E5
:1028A0002B970FB6F894DEBF0FBECDBFDB0111969C
:1028B000EC91CE2ED12CF6013197E930F10508F0DC
:1028C00027C15A018C0189589F4F6C018827EC570A
:1028D000FF4F8F4F0C94B93B81E089831A82BE0170
:1028E0006F5F7F4FC6010E94422804C0BA01C60133
:1028F0000E945728F82E6FC1F801E15BFF4F8081DD
:102900008983C8018B5B9F4FDC0196962D913C918A
:102910009797232B39F098962D913C919997232BDB
:1029200009F0FFC080E08A83F801E759FF4F91E08A
:1029300020813181232B09F490E09B831C82A50127
:10294000BE016F5F7F4FC6010E94A928D3CFF80157
:10295000E35AFF4F80818983339780818A83BE0148
:102960006F5F7F4FC6010E946628C4CFAE014F5FE4
:102970005F4FC6010E94DD28F82E81112CC199817C
:10298000911118C0F801E55AFF4F0190F081E02D38
:10299000309719F455E0F52E1EC12A81D801A35AAB
:1029A000BF4F8C912817B0F7B4E02B9FE00DF11DBD
:1029B000112417C0913009F0AEC0F801E85AFF4F5A
:1029C0000190F081E02D309729F32A81D801A65A91
:1029D000BF4F8C912817F0F684E0289FE00DF11D81
:1029E0001124208131813E832D83228133813887D8
:1029F0002F839B838A818C83A501BE016D5F7F4FEE
:102A0000C6010E947B2876CFF801E05AFF4F8081F3
:102A100091819A838983BE016F5F7F4FC6010E94B7
:102A2000982968CFAE014D5F5F4FC6010E94EF2825
:102A3000F82E8111D0C0D8015A964D915C915B97C8
:102A4000B501C6010E942E2B98878F832B813C8174
:102A5000F801E05AFF4F408151812417350708F0F3
:102A600099CF8D819E81820F931F4817590708F4D3
:102A700091CF3297808191819A8389834901A12CDA
:102A8000B12C8901000F111F020F131F2B813C81F4
:102A90008D819E81820F931FA0E0B0E08816990679
:102AA000AA06BB060CF097C069817A81600F711F7E
:102AB0008F8198850E949A260D5F1F4FEF81F885C0
:102AC000808581112BC0BFEF8B1A9B0AAB0ABB0A12
:102AD000DDCFF801E859FF4F80818983BE016F5F28
:102AE0007F4FC6010E94AA2905CFAE014F5F5F4FFD
:102AF000C6010E941029F801EB5BFF4F81A192A152
:102B0000009709F447CF23A1222309F443CF0CC037
:102B100092E0F92E60C0FF24F3945DC083E0F82EAC
:102B20005AC00E94AE1FFFCE9980291508F432CFFB
:102B3000E92CF12CEE0CFF1CFC01EE0DFF1D808139
:102B40009181DC01ED91FC910190F081E02D1995CE
:102B50009A828B830A591F4FD801ED91FC91EE0D9B
:102B6000FF1DA081B18154969C919C8381110DC061
:102B700080819181DC01ED91FC910280F381E02D57
:102B800019956D837E838F839887F8018081918169
:102B9000FC01EE0DFF1D0190F081E02D27853089AD
:102BA0002115310561F0F90180E090E04191442365
:102BB00039F0019680329105C9F780E201C080E0CA
:102BC00089873B872A87A501BE016E5F7F4FC601BB
:102BD0000E9422298FCE8F2D2B960FB6F894DEBF40
:102BE0000FBECDBFDF91CF911F910F91FF90EF905E
:102BF000DF90CF90BF90AF909F908F900895CF922D
:102C0000DF92EF92FF920F931F93CF93DF93CDB795
:102C1000DEB761970FB6F894DEBF0FBECDBF8C0153
:102C20007A01FB018181833009F468C028F4813086
:102C300051F0823041F1E7C0843009F48FC0853013
:102C400009F4C0C0E0C06801F7E7CF0ED11CAE01A7
:102C50004F5F5F4FC6010E94842A8111D9C0F801DD
:102C6000E35BFF4F808191819F838E8360E470E0FE
:102C70000E94713F8D83A701BE016B5F7F4FC6012C
:102C80000E94B929C5C0680187E7C80ED11CAE01F2
:102C90004F5F5F4FC6010E94A22A8111B9C04981CE
:102CA0005A816B817C81F80180859185A285B385ED
:102CB000481759076A077B0711F081E0A9C06D81A9
:102CC0007E81C80104960E9477208823B1F3F80121
:102CD00080859185A285B3858F839887A987BA87D8
:102CE0008D819E81809590959C878B87A701BE01E1
:102CF000695F7F4FC6010E94F2298AC0F801EA5A33
:102D0000FF4F808191819C838B8334978081918157
:102D10009A8389833D9780819181A281B3818D833C
:102D20009E83AF83B88780E593ECA0E0B0E089870D
:102D30009A87AB87BC8780E49BE4ACE4B0E08D87E6
:102D40009E87AF87B88B82E0898BBE016F5F7F4F14
:102D5000C80189589F4F0E94162A5AC06801F7E798
:102D6000CF0ED11CAE014F5F5F4FC6010E94C52A36
:102D700081114EC0F8018485811147C0C8010496B5
:102D80000E943F24882309F442C0F8018085918580
:102D9000A285B38589879A87AB87BC8780913E02DD
:102DA00090913F02A0914002B09141028D839E8399
:102DB000AF83B887A701BE016B5F7F4FC6010E943A
:102DC0005F2A26C0AE014F5F5F4FC80189589F4FF1
:102DD0000E94DA2A81111CC0F80194859923C1F060
:102DE000C084D184E284F38449815A816B817C81DF
:102DF000C416D506E606F70609F05FCFEC5BFF4F79
:102E000091E0908305C082E003C084E001C085E0CA
:102E100061960FB6F894DEBF0FBECDBFDF91CF91A4
:102E20001F910F91FF90EF90DF90CF900895CF9377
:102E3000DF93FC01E85AFF4F0190F081E02D3097BD
:102E400009F1460F571FDC01A65ABF4F2C9130E005
:102E500080E090E082179307A8F4A081B1816A17FF
:102E60007B0728F0C281D381C617D70768F44A17B9
:102E70005B0728F0A281B381A417B50728F4019657
:102E80003496E8CF80E001C081E0DF91CF910895D2
:102E9000AF92BF92CF92DF92EF92FF920F931F9368
:102EA000CF93DF935B01EA0168017901A801BE01BC
:102EB0000E941717811107C0A601BE01C5010E941B
:102EC000683F81E001C080E0DF91CF911F910F91B9
:102ED000FF90EF90DF90CF90BF90AF9008950F9349
:102EE0001F93CF93DF934F3FD9F04F70E1E0F0E0B5
:102EF00001C0EE0F4A95EAF70E2FE150E43080F45E
:102F0000E901AB0110E020E030E0BE010E9448176B
:102F1000811107C094E0FE0111929A95E9F701C072
:102F200080E0DF91CF911F910F9108952F923F92F2
:102F30004F925F926F927F928F929F92AF92BF92C9
:102F4000CF92DF92EF92FF920F931F93CF93DF9375
:102F50005C014B01142F722EE701802F90E07C0161
:102F600021E0E21AF108870D911D019763E0959524
:102F700087956A95E1F78F5F0E94CA1F682EC70187
:102F800073E0959587957A95E1F78F5F0E94CA1F48
:102F9000582E8FE0681621F0962D9061392E02C0D0
:102FA00033243A94103329F451100BC050E3252EEA
:102FB0000AC0103F31F0EFE05E1619F0252C212AEF
:102FC00002C022242A94FFE06F1641F041E0862DD2
:102FD0008F7001C0440F8A95EAF701C040E050E0CD
:102FE000B401C5010E9417178111E2C0002309F442
:102FF000DFC0812F8F7E11F01033E1F59E01432D4C
:10300000B401C5010E946F17882309F4D1C0611073
:1030100009C0288130E002C0359527957A94E2F7FF
:1030200028832CC021E062120AC02881398102C0A5
:10303000369527957A94E2F7398328831FC092E06A
:103040006912B6C0488159816A817B8104C0769536
:103050006795579547957A94D2F7488359836A8341
:103060007B830CC09881922398831123D1F088230D
:1030700009F49EC0F601208281E0A3C051101EC059
:1030800040E050E021E0E1E0F0E04F5F5F4F4017AB
:1030900048F7BF01042E01C0660F0A94EAF7262BF9
:1030A000F4CF492F50E002C055954795EA94E2F7D6
:1030B000452BE9F22095922B9883D9CFE1E05E125F
:1030C0002CC029E030E04FEF51E0E1E0F0E02017C4
:1030D00060F4BF01022E02C0660F771F0A94E2F768
:1030E000462B572B2F5F3F4FF2CF28813981242366
:1030F0003523398328831111BACFB90102C07695DF
:103100006795EA94E2F7672B09F4B1CF40955095A3
:10311000242B352B39832883AACFF2E05F1248C0D5
:1031200021E130E088248A94982CAA24A394B12C1D
:10313000412C512C32014394201788F4B301A20191
:10314000022E04C0440F551F661F771F0A94D2F742
:10315000842A952AA62AB72A2F5F3F4FEDCF4881B0
:1031600059816A817B81482159216A217B214883C9
:1031700059836A837B8311117ACF8A019B0104C032
:103180003695279517950795EA94D2F7012B022BD0
:10319000032B09F46CCF80949094A094B0944829A8
:1031A00059296A297B29488359836A837B835FCFA6
:1031B0008FEFF601808384E0FE0111928A95E9F792
:1031C00080E0DF91CF911F910F91FF90EF90DF9002
:1031D000CF90BF90AF909F908F907F906F905F90B7
:1031E0004F903F902F900895FB0142815381608161
:1031F00071810C941717CF93DF93FC01E55AFF4FB1
:103200000190F081E02D309709F1460F571FDC0146
:10321000A35ABF4F2C9130E080E090E082179307D3
:10322000A8F4A081B1816A177B0728F0C281D381FD
:10323000C617D70768F44A175B0728F0A281B38145
:10324000A417B50728F401963496E8CF80E001C0B2
:1032500081E0DF91CF910895FB014281538160812C
:1032600071810C94FB188F929F92AF92BF92CF9274
:10327000DF92FF920F931F93CF93DF93CDB7DEB70B
:103280002D970FB6F894DEBF0FBECDBF8C016B013A
:103290005A01DB011196FC90B3E0BF1540F0E2E06B
:1032A000FE1608F05AC0F1E0FF1651F04BC184E061
:1032B000F81609F4D4C0A5E0FA1609F434C142C1E5
:1032C0006C01B7E7CB0ED11CC6010E94F02A9A838D
:1032D0008983F801428D538DB501C6010E94F92AF8
:1032E0009C838B83E981FA818185882311F081E0B9
:1032F00076C1D8015A962D913C915B978681978132
:103300002817390708F40DC189819A81FC012085AD
:10331000222311F080E063C1BE016B5F7F4F0E94EA
:10332000DB24E981FA8181858111E1CFBE016B5FE8
:103330007F4FC8010E94F418882311F086E04FC126
:10334000BE016B5F7F4F8B819C810E940426EB81C5
:10335000FC8180858823C1F2E4C0FC01E15BFF4F62
:103360008081882359F34801F7E78F0E911C41E0D3
:1033700083E0F81240E0B601C4010E940F2B9A8747
:103380008987D8015A964D915C915B97B501C4012C
:103390000E94182B9C878B87E985FA85818581118E
:1033A000A6CFD8015A962D913C915B978681978143
:1033B0002817390708F4B5C089859A85FC0120854E
:1033C0002111A8CFBE016F5F7F4F0E947725E9854D
:1033D000FA85818581118BCFBE016F5F7F4FC80158
:1033E0000E94F4188111AACFBE016F5F7F4FC80100
:1033F0000E942C198111A2CFBE016F5F7F4F8B8578
:103400009C850E946026F3E0FF1203C080E090E0FC
:1034100009C06D817E814B815C8189819A810E9486
:10342000683FCACF2B813C818217930728F6E98138
:10343000FA81E80FF91F3081AD81BE81A80FB91F55
:103440002C91AF81B885A80FB91F4C91542F50957E
:10345000522B2423232B252320830196E3CFC8015D
:103460008B5B9F4F0E941811882309F46BC0B60133
:10347000680187E7C80ED11CC6010E945A2B9A83A7
:103480008983D8015A964D915C915B97B501C6012D
:103490000E94442B9C838B83E981FA81878181116F
:1034A00026CF6801B2E6CB0ED11C89819A81FC013E
:1034B000268121112FCFBE01645F7F4F0E948B2791
:1034C000E981FA819781911112CF882371F36C857C
:1034D0007D85AE014B5F5F4FC8010E9412148111C0
:1034E00002C085E07CC06D817E818F81D601ED9127
:1034F000FC9120E030E0AE01485F5F4F19958823D2
:1035000081F3288539854A855B85BE016B5F7F4FD6
:103510008B819C810E94CC26EB81FC818085882355
:1035200021F283E05CC0F801EB5BFF4F878D90A137
:10353000892B41F0818D928D892B21F0838D948D83
:10354000892B11F482E04BC0A8016801B7E7CB0ECC
:10355000D11CC6010E94792B9A838983F801428D80
:10356000538DB501C6010E94632B9C838B83E98137
:10357000FA8187818111BBCE0C591F4F89819A81B5
:10358000FC0126812111C6CEAE01485F5F4FBE010E
:103590006B5F7F4F0E94BB27E981FA819781911170
:1035A000A6CE882359F36D817E818F81D801ED915C
:1035B000FC9120E030E0AE01485F5F4F1995882311
:1035C00009F48FCFBE016B5F7F4F8B819C810E947E
:1035D0003327EB81FC818085882381F2A2CF2D9651
:1035E0000FB6F894DEBF0FBECDBFDF91CF911F9114
:1035F0000F91FF90DF90CF90BF90AF909F908F90F2
:1036000008958F929F92AF92BF92CF92DF92EF92E6
:10361000FF920F931F93CF93DF931F921F92CDB70B
:10362000DEB7FC01E759FF4F80809180811491043F
:1036300049F15A01DB016C011A821982FC01E28C0A
:10364000F38CFA012781308512964D915C91139786
:1036500016966D917C9117978E010F5F1F4F1196F3
:103660008C91F401199589819A81F601228D338D0F
:103670002817390728F0F5019483838380E003C07D
:1036800083E001C082E00F900F90DF91CF911F91F6
:103690000F91FF90EF90DF90CF90BF90AF909F90F1
:1036A0008F9008952F923F924F925F926F927F92E8
:1036B0008F929F92AF92BF92CF92DF92EF92FF9242
:1036C0000F931F93CF93DF93CDB7DEB761970FB6FC
:1036D000F894DEBF0FBECDBF6C0125E4C20ED11C35
:1036E000D60196962D913C919797232B39F0989679
:1036F0002D913C9199972115310511F482E006C274
:103700007A012B018C01DB011196EC918E2F90E058
:10371000FC013197E830F10588F082E0782EF20163
:103720008181823049F48FEF870D8E3F28F4C801E4
:1037300085579F4F0E945D2E872DE8C18827E3574C
:10374000FF4F8F4F0C94B93BC901A0E0B0E08983D3
:103750009A83AB83BC831D8280E28E83A701BE0166
:103760006F5F7F4FC80189589F4F0E948F2B58C1B0
:10377000F801E856FE4F1082399780819181892B9C
:1037800051F0389680818111BEC181E0F801EB567D
:10379000FE4F8083B8C14801BBE88B0E911C940199
:1037A0002E5E3F4FAE014F5F5F4FB201C801895897
:1037B0009F4F0E94AE2C782E8111B1CF8981F801E4
:1037C000E859FF4F9081891708F085C1F801EA593F
:1037D000FF4F20819181E22FF92FE80FF11DE80FB3
:1037E000F11DA080B180F5018489882309F485C189
:1037F000F801EA5DFE4F30807801F5EDEF1AFEEF3B
:10380000FF0A612C22242394631409F444C0D701D5
:103810008C91813089F413968C918F3F39F08F70A1
:10382000422D01C0440F8A95EAF701C040E050E004
:10383000F7016181728110C08230A1F4D701149622
:103840008C91149715964C91159750E0480F511D87
:1038500011966D917C911297C8010E9417178823C9
:1038600081F014C0833069F4C6010E9418118823C6
:1038700081F0F70161817281C8010E94EC138823F5
:1038800041F06394F6E0EF0EF11CBECF46E0742EDB
:1038900002C035E0732EF801E35EFE4F30809801E0
:1038A00023563F4F7901612C631441F1D7018C916C
:1038B00081110EC013964C91139750E011966D91A3
:1038C0007C911297C8010E941717882391F015C1A7
:1038D000813079F4C6010E941811882309F4FBC0D5
:1038E000F70161817281C8010E94EC13882309F4F9
:1038F000F2C06394F4E0EF0EF11CD6CF71100FCF3D
:103900004A815B81B5016E5F7F4FC4010E94A92E81
:10391000F801ED5BFE4F8081882309F4F1C0E25B82
:10392000FF4FB182A082FBCEF801E157FE4F8081AC
:103930009181892B09F4CFC0389680818111CBC049
:1039400081E033970EC0F801E157FE4F80819181ED
:10395000892B09F4C0C0389680818111BCC081E0F8
:1039600031978083C8C0F801E657FE4F8081898374
:10397000319680819181A0E0B0E08A839B83AC8303
:10398000BD83329680819181A0E0B0E08E839F83D9
:10399000A887B987A701BE016F5F7F4FC80189580B
:1039A0009F4F0E94B52B3CC0F801E657FE4F808127
:1039B000843009F090C0B697808191819A83898381
:1039C0003296808191819C838B837C970190F081DA
:1039D000E02D828D938DA0E0B0E08D839E83AF8338
:1039E000B887C801865B9E4F0E946A38A0E0B0E0AD
:1039F00089879A87AB87BC87F801E859FE4F808199
:103A00009181A0E0B0E08D879E87AF87B88BA7013A
:103A1000BE016F5F7F4FC80189589F4F0E94E12B05
:103A2000782E7DCEF801E157FE4F80819181892B60
:103A300009F451C035978081980128563E4F69019D
:103A4000843009F046C0480136EB831A3EEF930AF2
:103A5000D6018C913F965F01980126563E4F390161
:103A600081110EC0C4010E947F3881E0D6018C9381
:103A7000F5011082D3011D921D921D921C92139785
:103A8000F801EC59FE4F808191819A8389839D8250
:103A90008C82F50180818B837F826E82198A9E01E0
:103AA0002F5E3F4FA701BE016F5F7F4FC80189584E
:103AB0009F4F0E94232C782ED5018C918F5F8C9381
:103AC000772019F0F60110822ACE89898111FACF68
:103AD00026CED9011C9225E0722E21CEF801E157A5
:103AE000FE4F80819181892B09F04BCEC80185570B
:103AF0009F4F0E945D2E712C12CE96E0792E0FCE34
:103B0000772473940CCE77247A9409CE61960FB6FD
:103B1000F894DEBF0FBECDBFDF91CF911F910F9103
:103B2000FF90EF90DF90CF90BF90AF909F908F90DD
:103B30007F906F905F904F903F902F900895CF931C
:103B4000DF93EA01188219821A821C821B82FB0110
:103B500020812883218129832081233091F038F42A
:103B6000213061F0223099F40E94FF1511C02430F9
:103B700059F0253061F40E94521B0AC00E94421481
:103B800007C00E94331904C00E94011B01C082E0DB
:103B90008A83882311F01C821B82DF91CF910895C4
:103BA000CF92DF92EF92FF920F931F93CF93DF9309
:103BB000EC01FC01EF58FF4F80819E012C5F3F4FCD
:103BC0006901811114C0BE97108231961082C9011B
:103BD0000E94B723CE0185579F4FDF91CF911F9150
:103BE0000F91FF90EF90DF90CF900C945D2E888125
:103BF0009981AA81BB81480F591F6A1F7B1F488387
:103C000059836A837B83C9010E941A24CE010E94D2
:103C10005113CE010E94F8128AA5882361F17E011A
:103C200033E4E30EF11CF7018081811124C0C60149
:103C30000E944C208C01AC01BE01645E7F4FCE011E
:103C40000E949F1DF80182818F3FD9F5F7011082F4
:103C50009E012E583F4FF901408188819981AA81A8
:103C6000BB813196411118C080839183A283B383B5
:103C700081E0F9018083CE010E94BF13CE010E9432
:103C80005113CE01DF91CF911F910F91FF90EF90D3
:103C9000DF90CF900C94F812408151816281738142
:103CA000841B950BA60BB70B80349244AF40B10533
:103CB00010F385E0F8018283B801C6010E94B822A2
:103CC00002C08E3F19F481E0F701D4CF81E0F70103
:103CD0008083B801C6010E94B822CDCFFC01F894C0
:103CE00017827894F89416867894138A65577F4FD4
:103CF000728B618B80E0089526E0FB01DC0101906E
:103D00000D922A95E1F7F89421E0FC01268378943E
:103D10000895EF92FF920F931F93CF93DF9300D0FC
:103D200000D0CDB7DEB78C01FC0182819381A481E4
:103D3000B581480F591F6A1F7B1F428353836483D9
:103D4000758387818823A1F08685811111C040C0C9
:103D5000213008F453C0223009F065C0FC01E15263
:103D6000FF4F208131810217130711F40E94573051
:103D7000D80151968D919C915297FC01E152FF4FD1
:103D8000208131810217130709F078C00E94223286
:103D9000F8018685811172C00188F289E02D908535
:103DA0009801285F3F4F7901943009F04BC0D8014A
:103DB00053968C91811146C082E08983BE016F5F6A
:103DC0007F4FC9010E947C1E81E0F801838B56C0A1
:103DD000D8012681F894F8011782789451968D9134
:103DE0009C915297213009F0B3CFFC01E152FF4F73
:103DF00011830083F801138A19820DC0FC01E1527E
:103E0000FF4F808191810817190709F0B1CF118206
:103E1000108281E08983BE016F5F7F4FC8010896E1
:103E20000E947C1EA5CF233009F0A2CFFC01E152F5
:103E3000FF4F208131810217130709F099CF0E94AB
:103E4000613096CF83E089839A83933069F4CF0100
:103E50000E9411319C838B83F801818992890E9491
:103E60001B319E838D8304C01C821B821E821D8297
:103E7000BE016F5F7F4FC7010E947C1E26960FB662
:103E8000F894DEBF0FBECDBFDF91CF911F910F9190
:103E9000FF90EF900895FC01458956896789708DE0
:103EA0000C94891E0C94891EFC01108A17861486B6
:103EB000138616861586128A118A148A138A158A21
:103EC000178A168A108E128E118E148E138E168EED
:103ED000158E10A2178E8BE192E091878087108259
:103EE00011821282138215A214A2148215821682E4
:103EF000178281E0828712A211A213A217A216A232
:103F000011A610A613A612A608950C94541F0F9381
:103F10001F93FC017487638756874587308B2787FB
:103F2000128B018B1F910F9108950F931F93FC012A
:103F3000728F618F548F438F368F258F10A3078F19
:103F40001F910F910895FC0172A361A343A30895EB
:103F5000FC0177A366A351A740A70895DC019396BF
:103F60009C91939720E030E0291790F4A901440F29
:103F7000551F9196ED91FC919297E40FF51F0190DA
:103F8000F081E02D84892F5F3F4F882369F30895E6
:103F900080E00895823060F0823061F0853060F01A
:103FA000893060F0813160F0813260F08FE00895F7
:103FB00080E0089581E0089582E0089583E0089507
:103FC00084E0089585E008958F3FE9F0982F9F7071
:103FD00021E030E001C0220F9A95EAF7322F2150FC
:103FE000243088F4982F907F81E0903319F4313099
:103FF00051F40BC0903219F4343029F406C09031DA
:1040000021F0992311F080E0089508958F929F92F6
:10401000AF92BF92EF92FF920F931F93CF930095B1
:10402000109520953095812C912C5401841695067D
:10403000A606B70609F1FC01A191CF01E8E0F0E086
:10404000B0E07D01E026F126369527951795079576
:10405000E0FE08C0C0E20C27C3E81C27C8EB2C27F1
:10406000CDEE3C27B595A795319751F7EFEF8E1A16
:104070009E0AAE0ABE0ADACFC901B80160957095F2
:1040800080959095CF911F910F91FF90EF90BF90E9
:10409000AF909F908F900895FC0115A616A617A6C5
:1040A00011AA10AA8D960895FC01808D823091F49A
:1040B000818D813079F4828D938D049758F0668DCF
:1040C000778D44E050E082E492E00E945B3F21E083
:1040D000892B09F020E0822F0895FC01808D823029
:1040E00021F481E0918D943009F080E008950F93E0
:1040F0001F93FC0180858823D9F083818823C1F038
:10410000258536852617370719F4978591110FC035
:1041100091E09787A081B1810D911D912D913C91E6
:1041200001871287238734877687658701C080E0FF
:104130001F910F910895FC018281823049F422ADD4
:1041400033AD84AD95ADA901481B590BCA01089543
:1041500080E090E00895EF92FF920F931F93CF932A
:10416000DF9300D01F92CDB7DEB77C01FC018081C8
:10417000898381818A83828193819B838C8300E000
:1041800010E0980144E050E060E070E0CE0101965C
:104190000E9406208B019C01F7014281538160E05F
:1041A00070E0868197810E94062041E0F70100853A
:1041B000118522853385061717072807390709F067
:1041C00040E0842F0F900F900F900F90DF91CF91D0
:1041D0001F910F91FF90EF900895EF92FF920F9330
:1041E0001F93CF93DF9300D01F921F92CDB7DEB7FE
:1041F000FB0123813481FC0186899789821793070B
:1042000028F17B01FB018081898381818A838281FE
:104210008B833C832D8300E010E0980145E050E063
:1042200060E070E0CE0101960E9406208B019C01A7
:10423000F7014381548160E070E0878190850E949E
:104240000620F70161877287838794870F900F900C
:104250000F900F900F90DF91CF911F910F91FF90D2
:10426000EF900895FC01108E118E138E128E14A201
:1042700016A215A2A081B1818D919D910D90BC9146
:10428000A02D81A792A7A3A7B4A78281813009F4AA
:1042900012820895CF93DF93EC01888581110AC0C3
:1042A000CE010E945420811105C0CE010E946D20D4
:1042B000882339F085E08CA381E08EA3DF91CF9134
:1042C0000895CE01DF91CF910C9432213F924F920D
:1042D0005F926F927F928F929F92AF92BF92CF9296
:1042E000DF92EF92FF920F931F93CF93DF93EC0136
:1042F0008B81811103C082E08DA318C18A81823035
:1043000009F414C16A017B01452B31F1E881F9817F
:1043100080819181A281B38149A55AA56BA57CA515
:10432000841B950BA60BB70B8032914AA105B105F2
:1043300020F0CE010E9432211A82E881F981808129
:104340009181A281B38189A79AA7ABA7BCA78A81D3
:10435000811102C081E08A8300E010E053E0652E05
:1043600064E0562E7724739476E0472E5E0188E150
:10437000A80EB11CE2E03E2E0C151D0508F0D6C0BB
:104380008EA18111D3C08CA1863009F4CFC08230B8
:1043900001F170F4882391F0813071F7F701E00F9B
:1043A000F11F8081898F3CA20F5F1F4F1FA2E4CFB6
:1043B0008330B1F1843009F463C0DECFF701E00F40
:1043C000F11F808187FF02C06DA232C0888F7CA25E
:1043D000A1C09FA1F701E00FF11F911117C0960135
:1043E000201B310B2130310561F0208130E0322F6C
:1043F00022279181292B3B8F2A8F8FA30E5F1F4F7E
:104400008CC080811A8E8B8F7FA284C090812A8D70
:104410003B8D292B3B8F2A8F8FA30F5F1F4F7DC0B2
:104420002A8D3B8D8A899B898217930718F47DA278
:104430004CA2A2CF8FA198A5281B390B4601801A48
:10444000910A2815390508F4490128893989B701E5
:10445000600F711FA401820F931F0E94683F8FA1FC
:1044600098A5880D991D98A78FA3080D191D2A8D51
:104470003B8D8217930708F47FCF1FA25CA27CCFED
:104480008FA181110CC0F701E00FF11F808190E036
:10449000A0E0B0E0B82FAA279927882717C081305D
:1044A00051F4F701E00FF11F208188A199A1AAA181
:1044B000BBA1A22B0BC0823071F4F701E00FF11FFA
:1044C000208188A199A1AAA1BBA1922B88A399A31D
:1044D000AAA3BBA31CC08330D1F4F701E00FF11FE6
:1044E000208188A199A1AAA1BBA1822B88A399A30D
:1044F000AAA3BBA31A82C5010E94AB20882321F086
:10450000CE010E944A2103C0CE010E9432218FA118
:104510008F5F8FA30F5F1F4F2FCF8A8D9B8D892BAE
:1045200009F4ABCF18A61FA26CA226CFDF91CF91C2
:104530001F910F91FF90EF90DF90CF90BF90AF90C1
:104540009F908F907F906F905F904F903F900895D5
:10455000FC0115A616A617A611AA10AA13AE12AE34
:1045600015AE14AE16AE8281823009F4128208951F
:104570001F93CF93DF93EC011EAE1B81111103C07B
:1045800083E08EAF2EC08A81882311F082E00CC0B8
:10459000FB01238134818E899F898217930738F428
:1045A000CE010E94A82281E08EAF10E01AC0808167
:1045B00080688DA781818EA782818FA739AB28ABB8
:1045C000878190859DAB8CABBE01635D7F4FCE0133
:1045D0000E94ED2088A999A909969BAF8AAF82E035
:1045E0008A83812FDF91CF911F910895AF92BF925F
:1045F000CF92DF92EF92FF920F931F93CF93DF93AF
:10460000EC018A81823009F05FC0CAACDBAC8CADB2
:104610009DADC81AD90A4C155D0508F46A017B01E5
:10462000FB0100E010E08CAD9DAD8530910500F5FB
:104630000C151D05D9F1009711F48DA50FC081301F
:10464000910511F48EA50AC08230910511F48FA551
:1046500005C0039711F489A901C088A980830F5F61
:104660001F4F8CAD9DAD01969DAF8CAF3196DBCFCA
:104670000C151D05D8F468A979A99C0125503109AC
:104680002617370730F188A999A9AC014B5F5F4F16
:10469000F701E00FF11FBC016A5F7F4FDC01179645
:1046A0009C01285F3F4F0C151D05B0F12CAD3DADB1
:1046B0008AAD9BAD2817390750F0CE010E94A82281
:1046C000CE010E94322103C080E090E045C0C801C5
:1046D00043C09B012B5F3F4FA901481B590BCA01E7
:1046E0005601A01AB10A4A155B0508F45A01681B65
:1046F000790B8CA99DA9680F791FA501C701800FAF
:10470000911F0E94683F0A0D1B1D8CAD9DADA80E28
:10471000B91EBDAEACAEB7CF8CAD9DAD4817590735
:1047200011F489AD0FC08617970711F488AD0AC040
:104730008A179B0711F48FA905C08217930709F008
:10474000B5CF8EA980838CAD9DAD01969DAF8CAF0A
:104750000F5F1F4F3196A7CFDF91CF911F910F9120
:10476000FF90EF90DF90CF90BF90AF900895CF93E0
:10477000DF93FC0112821686158617861482158235
:1047800016821782108683818823A1F0EF010190A1
:10479000F081E02D80819181A281B38189879A8700
:1047A000AB87BC87CE010E943221CE01DF91CF9131
:1047B0000C94A822DF91CF910895AF92BF92CF922F
:1047C000DF92EF92FF920F931F93FC01718B608B2E
:1047D000538B428B358B248B178B068BF182E082B7
:1047E000A0922317B0922417C0922517D0922617B3
:1047F000778F668F558F448F35AB24AB13AB02ABED
:1048000040525109403D5F4F18F481E0838301C05D
:10481000138200521109003D1F4F08F01382CF018F
:104820001F910F91FF90EF90DF90CF90BF90AF90CE
:104830000C94B7230F931F93DC0118962C911897B3
:104840002223D1F0ED91FC91119740815181628139
:10485000738119960D911D912D913C911C97401BD0
:10486000510B620B730B4038504F6A4F724020F06F
:104870001F910F910C94B7231F910F910895CF931F
:10488000FC01C381CC2381F1808581112CC08091F2
:10489000231790912417A0912517B0912617AC01EA
:1048A000BD014F5F5F4F6F4F7F4F40932317509372
:1048B0002417609325177093261784839583A68306
:1048C000B78381E080871786A081B1818D919D910A
:1048D0000D90BC91A02D81879287A387B487CF01CB
:1048E0000E94322101C0C0E08C2FCF910895CF9358
:1048F000DF93EC011C821D821E821F8218861F8698
:104900000E943221CE01DF91CF910C94A822FC01AC
:1049100060817181828193810E94C13B0895CF9211
:10492000DF92EF92FF92CF93DF93FC01A481B581D8
:104930006D01E12CF12C40E050E0BA01A430B1054A
:1049400018F481E0818719C0C081D181C40FD51FBF
:104950008A819B81382F292F4C5F5F4F6F4F7F4F8C
:10496000868197810496820F931F9783868314977D
:104970004C155D056E057F0509F7DF91CF91FF901E
:10498000EF90DF90CF900895FC01DB0116968D919A
:104990009C9117979183808312968D919C91139788
:1049A0009583848313821282118610861782168261
:1049B000CF010C948F24EF92FF920F931F93CF930C
:1049C000DF931F921F92CDB7DEB7FC018085811166
:1049D00040C0818581113DC08281938124813581D0
:1049E000281B390B2430310520F481E08087818732
:1049F00030C07B018F0120813181BE016F5F7F4F0D
:104A0000820F931F0E94953AF801828193819C0145
:104A10002E5F3F4F3383228340815181FA01E20FA1
:104A2000F31F208131813227232732270496F80192
:104A30009383828349815A81F70151834083338371
:104A40002283F801248135818217930711F481E0D4
:104A500080870F900F90DF91CF911F910F91FF9062
:104A6000EF900895FC014481558120E030E0CA01B7
:104A7000821B930B049718F481E081870895A0812D
:104A8000B181A20FB31F12968D919C911397982715
:104A9000892798272C5F3F4F280F391F628566238F
:104AA00011F0280F391F4217530730F38681978181
:104AB00004969783868324173507C9F60895FC0169
:104AC000DB0116968D919C911797918380831296A6
:104AD0008D919C91139795838483428713821282D0
:104AE0001186108617821682CF010C943225BF9250
:104AF000CF92DF92EF92FF920F931F93CF93DF93AA
:104B00001F921F92CDB7DEB7FC018085811170C066
:104B1000818581116DC08281938124813581281B1B
:104B2000390B2430310520F481E08087818760C013
:104B30007B018F0120813181BE016F5F7F4F820F2A
:104B4000931F0E94953AF801828193819C012E5F08
:104B50003F4F3383228340815181FA01E20FF31FDB
:104B6000208131813227232732270496F80193834D
:104B7000828364817581DB01A81BB90BA217B3077F
:104B800048F0B284BB2051F06901CC0CDD1CAC159F
:104B9000BD0520F481E0F801818729C0A981BA818F
:104BA000F701B183A083DA01A80FB91FB583A483ED
:104BB000820F931FF80193838283BB2059F0480F23
:104BC000591FF70157834683820F931FF801938380
:104BD000828303C0F70117821682F7013383228391
:104BE000F801828193816817790711F481E0808749
:104BF0000F900F90DF91CF911F910F91FF90EF9049
:104C0000DF90CF90BF9008950F931F93CF93DF93C2
:104C1000EC01DB0112968D919C9113978C3EBFEFB6
:104C20009B0718F081E0888746C02C813D8104965F
:104C30004E815F81421B530B4817590798F38B0134
:104C400068817981620F731FF801808191810E94D0
:104C5000A03AEC81FD81E80FF11DFD83EC83888192
:104C60009981E80FF91FD80112968C91129713962B
:104C70009C911397908381838C819D8102969D8363
:104C80008C83288139816D917C91119712964D9179
:104C90005C911397820F931F0E94683F2C813D8186
:104CA000F80182819381820F931F9D838C83EA8117
:104CB000FB8194838383DF91CF911F910F9108959E
:104CC0000F931F93CF93DF93EC012C813D818E8155
:104CD0009F81821B930B049718F481E0888725C07D
:104CE0008B0168817981620F731FD8018D919C912E
:104CF0000E94A03AEC81FD81E80FF11DFD83EC8359
:104D000088819981E80FF91FD80112968C9112972A
:104D100013969C91908381838C819D8102969D83C3
:104D20008C83EA81FB8194838383DF91CF911F91F0
:104D30000F910895CF93DF93FC01EB01848195815E
:104D400026813781281B390B2330310518F481E087
:104D500080871FC0A081B181A80FB91F8881998168
:104D60009C9311968C93848195810296958384837C
:104D70002A8140815181DA01A80FB91F2C938481C7
:104D800095810196958384830280F381E02D94833D
:104D90008383DF91CF9108950F931F93CF93DF9378
:104DA00000D01F92CDB7DEB7FC0129833A834B8335
:104DB0005C83DB0112968C918F3F39F08F7091E00C
:104DC00001C0990F8A95EAF701C090E024813581EE
:104DD000A92FB0E0129646815781421B530B4A1708
:104DE0005B0718F481E0808735C08FEF890F823030
:104DF00010F0943079F5DB018F0140815181FA0187
:104E0000E20FF31F8C9111962C9120838183F8017E
:104E1000448155814E5F5F4F5583448320813181AA
:104E2000420F531F692FCE0101960E94AA3AD80162
:104E300014962D913C911597F901E80FF11DCF01C2
:104E40001596FC93EE9314971296ED91FC9113979F
:104E5000948383830F900F900F900F90DF91CF91E9
:104E60001F910F910895CF93DF93FC01EB018A818D
:104E70008F3F39F08F7021E001C0220F8A95EAF749
:104E800001C020E08481958146815781481B590BE0
:104E90004330510518F481E080871EC0A081B181A4
:104EA000A80FB91F888199819C9311968C93848156
:104EB000958102969583848340815181DA01A80F00
:104EC000B91F2C93848195810196958384830280F8
:104ED000F381E02D94838383DF91CF910895FC01CA
:104EE000248120FF02C021E027830895FC01DB011B
:104EF00016968D919C9117979183808312968D9130
:104F00009C91139795838483138212821782168251
:104F1000CF010C946F27FC01868181112AC09781F3
:104F2000911128C02281338144815581421B530B4A
:104F30004230510518F491E0978308958081918162
:104F4000DC01A20FB31F8D919C9198278927982788
:104F5000DB018D939C93828193810296938382835C
:104F6000248135818217930711F481E0868381E0E3
:104F7000089580E00895EF92FF920F931F93CF93CF
:104F8000DF93EC019E81911174C08F81811172C0F9
:104F90008A017B018A819B812C813D81281B390BF1
:104FA0002230310518F481E08F8363C0E881F981F4
:104FB000E80FF91F608171817627672776270296AF
:104FC0009B838A83A701888599850E941214882370
:104FD00051F3F70182818F3F39F08F7091E001C06A
:104FE000990F8A95EAF701C090E0E92EF12C2A8109
:104FF0003B814C815D81421B530B4E155F0598F23E
:10500000923069F09430C9F0913021F5888199810E
:10501000FC01E20FF31F8081F801808319C08881B1
:105020009981FC01E20FF31F8081918198278927E4
:105030009827F801918380830BC088819981820F22
:10504000931F0E948724F801608371838283938376
:1050500091E001C090E02A813B81E20EF31EFB82C9
:10506000EA822C813D81E216F30621F481E08E83F1
:1050700001C090E0892FDF91CF911F910F91FF9098
:10508000EF900895CF93DF93FA0182E090E094834C
:105090008383A781B085EB0188818C930780F0859D
:1050A000E02D8981818380E0DF91CF91089580E1B7
:1050B00090E0FB0194838383A781B085E0EAF2E06E
:1050C00001900D928A95E1F780E00895CF93DF93E8
:1050D000FA01A781B085EB0188818C93A781B08507
:1050E000898111968C9382E090E09483838380E0A1
:1050F000DF91CF9108950F931F93CF93DF938B018F
:10510000EA01EF81F885DB018C918083EF81F885DE
:1051100011968C91119781836F8178856E5F7F4F97
:1051200012968D919C9113970E94A53A6F81788574
:105130006C5F7F4FF801848195810E94A53A86E0DB
:1051400090E09C838B8380E0DF91CF911F910F9142
:105150000895CF93DF93DB01FA01C781D0851882D0
:105160008C91882329F0C781D085888180688883C5
:1051700011968C911197882329F0C781D085888159
:105180008064888312968C911297882329F0C781B6
:10519000D08588818062888313968C91882329F03A
:1051A000A781B0858C9180618C9381E090E094839D
:1051B000838380E0DF91CF910895DB011696ED9116
:1051C000FC9117978081FA0180831696ED91FC91EE
:1051D00017978181DA0111968C9380E00895DB01A5
:1051E00012968D919C9113970497C1F41696ED91A8
:1051F000FC91179780819181982789279827DA0158
:1052000011969C938E938281938198278927982762
:1052100013969C938E93129780E0089581E00895F1
:10522000DB0112968D919C911397019749F4169684
:10523000ED91FC9117978081FA01808380E00895B9
:1052400081E00895EF92FF920F931F93CF93DF9326
:10525000FB01DA011796CD91DC9118978081888344
:105260001796CD91DC911897818189831796CD91FE
:10527000DC9118971A828281882339F01796CD9194
:10528000DC9118978A8180688A838181882331F034
:10529000813009F045C083E090E016C015968D91ED
:1052A0009C911697079710F483E03BC01796CD9119
:1052B000DC91189783819481258136813B832C83EF
:1052C0009D838E8387E090E02781022F213208F0B2
:1052D00000E210E0A8014F5F5F4F480F591F15967D
:1052E0006D917C91169764177507F0F2ED017C01C2
:1052F0003FEFE31AF30A4F815885DA01A80FB91F6F
:105300002C938F81988560857185A8018E0D9F1DD6
:105310000E94683F0E0D1F1D1C830B8380E001C09F
:1053200085E0DF91CF911F910F91FF90EF9008954D
:10533000DA011796ED91FC911897DB018C9111968B
:105340009C919083818382E090E0FA01948383832F
:1053500080E00895DA011796ED91FC911897DB0132
:105360008C91808381E090E0FA019483838380E0D4
:105370000895CF93DF93EA01FB018081813408F027
:1053800080E4482F50E09A012D5E3F4F21323105D5
:1053900028F0ED81FE81E217F30700F13C832B83B7
:1053A000EF81F88591E09083EF81F8851182AF81DC
:1053B000B88590E1E0EAF2E0129601900D929A959C
:1053C000E1F7EF81F885828B8F819885FB01618100
:1053D000728143960E94683F80E001C083E0DF91C4
:1053E000CF910895CF93DF93FB01EA0186E090E02F
:1053F0009C838B83AF81B8858081918122813381A9
:105400003C9311962C93119712969C931297139696
:105410008C93AF81B8858481958114969C93149761
:1054200015968C9380E0DF91CF910895CF93DF9311
:10543000FB01DA0181E190E014969C938E9313971F
:105440001796CD91DC9118978081918198838983FB
:105450001796CD91DC911897828193819A838B83E3
:105460001796CD91DC91189784819581268137819B
:105470003C832D839E838F831796CD91DC91189763
:105480008485958526853785388729879A878B87F0
:105490001796CD91DC91189780859185228533856B
:1054A0003C872D879E878F8717960D90BC91A02DE6
:1054B000808950968C9380E0DF91CF910895CF93AF
:1054C000DF93EB0188E090E0DA0114969C938E93D1
:1054D000139717960D90BC91A02D84E0FB010190CD
:1054E0000D928A95E1F7DA011796ED91FC911897E4
:1054F0008C819D812E813F81348325839683878390
:1055000080E0DF91CF910895FB0182819381049720
:10551000B1F4CA010680F781E02D24E0DA010190A0
:105520000D922A95E1F744E050E0BC0182E492E05C
:105530000E945B3F21E0892B19F420E001C021E0AB
:10554000822F08950F931F93CF93DF93FB018281E6
:1055500093810697A1F4EA0106811781C8010E9490
:105560008724688379838A839B83F801848195816A
:105570009827892798279D838C8380E001C081E04C
:10558000DF91CF911F910F910895DB0112968D91BC
:105590009C911397049761F41696ED91FC911797DF
:1055A00084E0DA0101900D928A95E1F780E0089598
:1055B00081E00895CF93DF93FB018281938104976B
:1055C00059F4EA01868197810E9487246883798350
:1055D0008A839B8380E001C081E0DF91CF910895B1
:1055E000CF93DF93EC010E94C424CE01DF91CF91D1
:1055F0000895FC01DB0114961C921E921397528BA6
:10560000418B17968D919C91189794878387768705
:105610006587108A1786138ACF010B960895CF935A
:10562000DF93EC010E945F25CE01DF91CF910895B9
:10563000FC01DB0114961C921E921397528B418B36
:1056400017968D919C9118979487838776876587A5
:10565000108A1786138ACF010B960895FC01DB018F
:1056600014961C921E921397528B418B17968D9114
:105670009C9118979487838776876587108A178609
:10568000138ACF010B960895FC01DB0114961C923E
:105690001E921397528B418B17968D919C91189760
:1056A0009487838776876587108A1786138ACF0148
:1056B0000B960895CF93DF93EC010E947627CE01DD
:1056C000DF91CF910895FC01DB0114961C921E928C
:1056D0001397528B418B17968D919C9118979487B5
:1056E000838776876587108A1786138ACF010B9682
:1056F0000895FC01DB0116968D919C91179791837B
:10570000808312968D919C91139795838483518702
:1057100040871382128217821682CF010895CF9399
:10572000DF93FB01DA011796CD91DC911897808108
:10573000918122813381388329839A838B831796C1
:10574000CD91DC91189784818C831796CD91DC9153
:10575000189785818D8386E090E014969C938E93B4
:10576000139780E0DF91CF910895CF93DF93FB01F2
:10577000DA011796CD91DC9118978081888317966E
:10578000CD91DC9118978181928123813481398375
:105790002A839B838C831796CD91DC911897858102
:1057A0009681278130853D832E839F83888789E07A
:1057B00090E014969C938E93139780E0DF91CF91A5
:1057C0000895CF93DF93FB01DA011796CD91DC9119
:1057D000189780819181988389831796CD91DC9168
:1057E0001897828193819A838B831796CD91DC9150
:1057F000189784819581268137813C832D839E83F0
:105800008F831796CD91DC9118978085918522859D
:105810003385388729879A878B871796CD91DC91B6
:10582000189784859585268537853C872D879E87A3
:105830008F8780E190E014969C938E93139780E07D
:10584000DF91CF910895AF92BF92CF92DF92EF9206
:10585000FF920F931F93CF93DF937B01EA016901BE
:10586000D9011C92EF81F885DB0112968C91129779
:105870008183EF81F8858C9111969C911197928389
:1058800083834D815E81445051096F8178856C5FBF
:105890007F4F13968D919C9114970E94E1379C0144
:1058A0002C5F3F4F3C832B83F701A580B680D50149
:1058B0000D911D912D913C91AC0160E070E08F81C4
:1058C000988504960E940620F50160837183828387
:1058D0009383D7011396ED91FC91149784818823CB
:1058E00061F18B819C812D813E81245031092817E3
:1058F000390718F1EF81F885AF01480F591FF701FB
:10590000A581B6818C9111969C91119712962C913C
:10591000129713963C91DA013C9311962C931197B0
:1059200012969C93129713968C938B819C8104966C
:105930009C838B8381E0F6018083EF81F885D6011B
:105940008C91808380E0DF91CF911F910F91FF9028
:10595000EF90DF90CF90BF90AF9008958F929F927D
:10596000AF92BF92CF92DF92EF92FF920F931F936D
:10597000CF93DF93DB0112968D919C911397409703
:1059800008F48DC18901FA017B01EB01AE81BF8171
:105990008C918083AE81BF8111968D919C911297DD
:1059A00098278927982792838183F901EF57FF4F22
:1059B00013968D919C911497982789279827918306
:1059C000808315968C91329680830E80DF81C02D66
:1059D000CE0106960E948724F801EC57FF4F6083A2
:1059E0007183828393838A8534968083CE010B965C
:1059F0000E948724F801E657FF4F608371838283FA
:105A000093838F854801D9E88D0E911CF401808322
:105A1000853030F4A12CC0E1D0E086E0B82E36C04D
:105A200083E03EC14817590708F439C12681378100
:105A3000F901EC0FFD1FA081CA2CD12CF601319683
:105A4000BE9EB001BF9E700D1124600F711FFB013F
:105A5000E857FF4FA083A13009F441C008F525960F
:105A60004C175D0708F41BC1820F931F0E94872407
:105A7000BC9CF001BD9CF00D1124E00FF11FE1571B
:105A8000FF4F6083718382839383A394D4012C910D
:105A9000F70142815381CE010196A21618F288C007
:105AA000A23009F443C0A33009F0F9C023964C1783
:105AB0005D0708F4F4C0BC9CF001BD9CF00D1124FE
:105AC000E00FF11FE157FF4FD901A80FB91F8D91CA
:105AD0009C9198278927982791838083D6CFBE01F0
