:100000000C94B1010C94E2010C94E2010C94E20115
:100010000C94E2010C94E2010C94E2010C94E201D4
:100020000C94E2010C94E2010C94E2010C94E201C4
:100030000C94E2010C94E2010C94E2010C94E201B4
:100040000C94E2010C94E2010C94E2010C94E201A4
:100050000C94E2010C94E2010C94E2010C94100F58
:100060000C94E2010C947A0C0C94B00C0C94E20108
:100070000C94E2010C94E2010C94E2010C94E20174
:100080000C94E2010C94E2010C94E2010C94E20164
:100090000C94E2010C94E2010C94E2010C94130B19
:1000A0000C94E2010C94E2010C94E2010C94E20144
:1000B0000C94E2010C94E2010C94E2010C94E20134
:1000C0000C94E2010C94E2010C94E2010C94E20124
:1000D0000C94E2010C94E2010C94E2010C94E20114
:1000E0000C94E2014410471036103A1040107E1074
:1000F0004B104F10551059105D10631067106B10A6
:100100007E10711075107910E614F014F5141615A0
:10011000F7151F152B15891593159719A919501A3D
:100120005F1A6F1A8F1AD01A291B05A84CCDB2D4AA
:100130004EB93836A9020C50B9918688083CA6AA57
:10014000AA2ABE000000803F0C9444100C94A91908
:100150000C9475100C9455040C942B150C9455109C
:100160000C944E0D0C941F150C94C4040C9467044D
:100170000C9467100C94F0140C9497190C94110DB6
:100180000C944B100C94FE010C945D100C944F10C9
:100190000C945F1A0C943F0D0C94291B0C9447048B
:1001A0000C9489150C946F1A0C9493320C943A1099
:1001B0000C9487320C948F1A0C94501A0C941615C8
:1001C0000C9484320C94910E0C948A320C94430457
:1001D0000C94E40C0C944F040C9440100C94DA2B07
:1001E0000C94DA0C0C949A2F0C948D320C94F71515
:1001F0000C946B100C94E4010C9429310C94631052
:100200000C94D01A0C94AD0D0C9498300C94A82F2B
:100210000C9471100C94FA0D0C94F5140C94E501E7
:100220000C9436100C941D0D0C9447100C9449043A
:100230000C9479100C9493150C94E6140C945304BC
:100240000C9459100C947E100C942B0D0C94E60118
:100250000C94903200000A0B02090C0D0E080703E3
:100260000401000000000000000000000000000089
:10027000000000000000000000000000000000007E
:10028000121110000000000000000000000000003B
:100290000000000000000000000001021020200803
:1002A00008102040102040800201020108040201D1
:1002B0000102040810204080804020100804020140
:1002C0008004020180402010080402010804020199
:1002D0000102040810204080010204081020408020
:1002E00005050505070508080808020202020A0AB2
:1002F00008080404040401010101010101010303D0
:10030000030303030303040707070C0C0C0C0C0C7A
:100310000C0C0202020206060606060606060B0B77
:100320000B0B0B0B0B0B00002200250028002B00F1
:100330002E003100340002010000050108010B010C
:1003400000002100240027002A002D003000330087
:1003500001010000040107010A014304C404E40C84
:100360009A2F11241FBECFEFD1E2DEBFCDBF00E038
:100370000CBF12E0A0E0B2E0EAE3F4E700E00BBF5C
:1003800002C007900D92A43CB107D9F726E1A4EC76
:10039000B2E001C01D92AB3CB207E1F711E0C1EB46
:1003A000D1E000E006C021970109802FFE010E94E4
:1003B0006336CD3AD10780E00807A9F70E94820E84
:1003C0000C941B3A0C940000089508950F931F930A
:1003D000CF93DF93EC018B0161E088E30E94BB10B7
:1003E000A801BE018FE093E00E94850560E088E3EC
:1003F000DF91CF911F910F910C94BB1061E089E3C5
:100400000E94BB108FE093E00E94A30560E089E3A7
:100410000C94BB108F929F92AF92BF92CF92DF92BB
:10042000EF92FF924B015C016091EB027091EC0244
:100430008091ED029091EE02C090E702D090E80228
:10044000E090E902F090EA022BED3FE049EC50E445
:100450000E941639A50194010E941639A701960140
:100460000E94EE366093E7027093E8028093E902FF
:100470009093EA026091E7027091E8028091E902AC
:100480009091EA022BED3FE049EC50E40E941139D3
:1004900087FD36C06091E7027091E8028091E90221
:1004A0009091EA0220E030E040E05FE30E941639DC
:1004B0002BED3FE049E450E40E945F370E9444384E
:1004C000C090E702D090E802E090E902F090EA02E2
:1004D0009B01AC010E94EE362BED3FE049E450E475
:1004E0000E9416399B01AC01C701B6010E94ED368E
:1004F0006093E7027093E8028093E9029093EA0226
:100500006091E7027091E8028091E9029091EA021D
:100510000E9483396093E3027093E4028093E502C2
:100520009093E6028091E3029091E402A091E502AB
:10053000B091E602FF90EF90DF90CF90BF90AF9028
:100540009F908F90089526E048E855ED61E070E0B7
:1005500081E296E10E941C0E0E94900884EE91E0D8
:100560000E94D40885EE91E00E94CF0886EE91E0CB
:100570000E94DE088EEF91E00E94D90860E87AE1DF
:1005800086E090E00E94BB0861E08DE00E947F1051
:1005900061E087E00E947F1061E086E30E947F10A7
:1005A00061E087E30E947F1061E088E30E947F1092
:1005B00061E089E30E947F1061E08AE30E947F107E
:1005C00061E087E00E94BB100E948D0468E28FE02A
:1005D00093E00E94B80548EE53E060E070E08FE0E1
:1005E00093E00E9464068FE093E00C94AB0761E017
:1005F00087E30E94BB108091DF029091E002A091FE
:10060000E102B091E2020196A11DB11D8093DF02CB
:100610009093E002A093E102B093E20260E08FE0E9
:1006200093E00E9417086AE077ED83E29CE30E9462
:100630000A028AEB94E00E94181D60E087E30C94A4
:10064000BB108091DB029091DC02A091DD02B091A1
:10065000DE020196A11DB11D8093DB029093DC02A6
:10066000A093DD02B093DE026091D9028DE00E947A
:10067000BB1081E090E02091D9023091DA02232B67
:1006800011F080E090E09093DA028093D90208950F
:100690008091D802882399F08091D4029091D5025C
:1006A000A091D602B091D7020196A11DB11D8093F1
:1006B000D4029093D502A093D602B093D70281EAD8
:1006C00094E00C94181D8F929F92AF92BF92CF929C
:1006D000DF92EF92FF928091070381110DC00E947B
:1006E000660F6093D0027093D1028093D2029093F0
:1006F000D30281E0809307038091FF0281110DC036
:100700000E94660F6093CC027093CD028093CE025C
:100710009093CF0281E08093FF028091F7028111D4
:100720000DC00E94660F6093C8027093C902809347
:10073000CA029093CB0281E08093F7028091EF028E
:1007400081110DC00E94660F6093C4027093C502B0
:100750008093C6029093C70281E08093EF020E94CB
:10076000660F6B017C018091C4029091C502A0913B
:10077000C602B091C702A7019601281B390B4A0B8C
:100780005B0BDA01C90180319742A105B10550F038
:100790000E94F702C092C402D092C502E092C60243
:1007A000F092C7028091C8029091C902A091CA023A
:1007B000B091CB02A7019601281B390B4A0B5B0BAA
:1007C000DA01C9018035934CA105B10550F00E94B2
:1007D0004803C092C802D092C902E092CA02F092C5
:1007E000CB028091CC029091CD02A091CE02B0912B
:1007F000CF02A7019601281B390B4A0B5B0BDA01CC
:10080000C90180349244AF40B10550F00E942103E9
:10081000C092CC02D092CD02E092CE02F092CF02F2
:100820008FE093E00E943C088091D0029091D10229
:10083000A091D202B091D302A7019601281B390BD7
:100840004A0B5B0BAAE0B0E00E9472364B015C01E0
:10085000AB01BC0183ED94E00E941F1DC501B401F2
:100860000E942005C092D002D092D102E092D20222
:10087000F092D302FF90EF90DF90CF90BF90AF90B7
:100880009F908F9008958FE093E00C947D0580E019
:100890000895FC01658976898789908D089560E0C7
:1008A00070E0CB01089581E008956115704169F40D
:1008B000823159F488E796E5A4E3B2E1FA01808336
:1008C0009183A283B38381E0089580E008950F931C
:1008D0001F9361157041E9F48231D9F4009143030B
:1008E000109144032091450330914603FA01808121
:1008F0009181A281B381800F911FA21FB31F8093AA
:10090000430390934403A0934503B093460381E0CF
:1009100001C080E01F910F9108950F931F9300E88D
:1009200010E028EE34E140E450E068E675E18BE742
:1009300094E00E944E1D86E392E09093840480939D
:10094000830440E050E168EE74E08BE794E00E949D
:100950006F1D43E063E072E08BE794E00E946A1D44
:1009600007E614E025E534E041E050E060E072E0A5
:100970008BE794E00E945C1D6BE774E087E493E0F2
:100980001F910F910C948811CF92DF92EF92FF92FA
:10099000E3EDF4E012821382148215821782168628
:1009A00084E492E0908B8787128A118A138A81E00F
:1009B000848B25E532E031832083EAEBF4E0128278
:1009C0001382148215821782168648E452E0508BF7
:1009D0004787128A118A138A848B2DE432E031838F
:1009E000208390EAC92E96E8D92EEE24E394F12CC8
:1009F000C58AD68AE78AF08EE1EAF4E01282138291
:100A00001482158217821686508B4787128A118AA4
:100A1000138A848B3183208380E291EAA7E0B0E0DF
:100A2000858B968BA78BB08F8BE794E00E944C1D33
:100A300087E493E0FF90EF90DF90CF900C94FB1051
:100A4000CF92DF92EF92FF920F931F93CF93DF939A
:100A5000CDB7DEB760970FB6F894DEBF0FBECDBF3F
:100A60006B017C0181E296E10E94110D81319105BB
:100A700010F080E190E0AC01BE016F5F7F4F81E23A
:100A800096E10E94EB0EAC01BE016F5F7F4F81E8E3
:100A900093E00E94411FB701A60187E493E00E9402
:100AA0008C1B81E893E00E94AB1E8C01419710F0F3
:100AB00000E110E0A801BE016F5F7F4F81E893E085
:100AC0000E94252187E493E00E946214A801BE01E0
:100AD0006F5F7F4F81E296E10E94910E60960FB6A4
:100AE000F894DEBF0FBECDBFDF91CF911F910F9164
:100AF000FF90EF90DF90CF900895FC01108211825B
:100B000081E082831586168608951F93CF93DF9325
:100B1000EC018D859AA9911112C0142F9E0148E015
:100B2000849F200D311D1124C901412F82960E94FE
:100B3000123A81E08AAB1BAB9D8589278D87DF91B7
:100B4000CF911F9108950F93FC018685813031F07C
:100B50008685823019F08685833041F400E021E0FB
:100B600046E060E070E080810E9412090F910895D4
:100B7000CF93DF93FC01608382E08283118216862B
:100B8000DF01179686E0ED0119928A95E9F7158A3B
:100B9000148A138A128A118A108A138E128E118E69
:100BA000108E178A168A11A210A2178E168E158E15
:100BB000148E12AA13AADF91CF910895BF92CF92FB
:100BC000DF92EF92FF920F931F93CF93DF931F92C9
:100BD0001F92CDB7DEB76C01B22E69834A8340E025
:100BE000C801B7010E94EF0801E02B2D42E0BE01D1
:100BF0006F5F7F4FF60180810E94FA09982FF601FE
:100C0000818381E0911180E00F900F90DF91CF916F
:100C10001F910F91FF90EF90DF90CF90BF900895BC
:100C20008F929F92AF92BF92CF92DF92EF92FF92FC
:100C30000F931F93CF93DF931F92CDB7DEB76C0155
:100C400069834A015901C801B70140E00E94EF08D9
:100C500001E021E041E0BE016F5F7F4FF60180813E
:100C60000E94FA09F6018183882321F00E94E90895
:100C700080E00DC001E021E04A2DB401F601808141
:100C80000E94120990E0A816B90681F781E00F9042
:100C9000DF91CF911F910F91FF90EF90DF90CF9058
:100CA000BF90AF909F908F900895EF92FF920F9317
:100CB0001F937801890121E030E00E9410061F9106
:100CC0000F91FF90EF9008952F923F924F925F9275
:100CD0006F927F928F929F92AF92BF92CF92DF924C
:100CE000EF92FF920F931F93CF93DF931F92CDB795
:100CF000DEB76C012A013B010E945A0F4B015C01D7
:100D00001982F6018685882311F084E08283F6013A
:100D100082818D7F09F0F1C008EE13E020E030E021
:100D2000AE014F5F5F4F60E0C6010E945506882309
:100D300009F4E7C08981803A09F0E3C01601F3E0C5
:100D40002F0E311C08EE13E020E030E0A10169E332
:100D5000C6010E945506882309F4CFC0F60183819D
:100D6000948182309105A0F06AE070E080E090E02C
:100D70000E948B0F0E945A0FDC01CB018819990940
:100D8000AA09BB0984159505A605B705D8F2B5C013
:100D9000019761F4A6014B5F5F4F08EE13E020E07E
:100DA00030E06AE3C6010E945506A7C018EEE12EA6
:100DB00013E0F12E00E010E021E040E06DE3C60119
:100DC0000E94DE05882309F498C064E170E080E0A9
:100DD00090E00E948B0F21E041E86BE3C6010E9486
:100DE000DE05882309F489C021E040E06EE3C601F6
:100DF0000E94DE05882309F480C021E041E067E01D
:100E0000C6010E94DE05882309F477C021E045E091
:100E100068E0C6010E94DE05882309F46EC021E067
:100E20004AE26AE0C6010E94DE05882309F465C033
:100E300021E040E06BE0C6010E94DE05882309F452
:100E40005CC021E04CE069E0C6010E94DE05882319
:100E500009F453C021E040E067E0C6010E94DE05CE
:100E6000882309F44AC021E047E06DE3C6010E94EF
:100E7000DE05882309F441C06AE070E080E090E07C
:100E80000E948B0F08EE13E020E030E0A10169E33F
:100E9000C6010E945506F82E882379F1F601838158
:100EA00094810097A1F46AE070E080E090E00E94F5
:100EB0008B0F0E945A0FDC01CB0188199909AA09EE
:100EC000BB0984159505A605B705E0F216C0019784
:100ED00039F0F601128261E08AE30E94BB1026C05D
:100EE00008EE13E020E030E0A6014B5F5F4F6AE3BD
:100EF000C6010E9455068111ECCF0E94E908F12C31
:100F000015C06AE070E080E090E00E948B0F0E94C4
:100F10005A0FDC01CB0188199909AA09BB0984156C
:100F20009505A605B70508F4F7CEE7CF8F2D0F90EE
:100F3000DF91CF911F910F91FF90EF90DF90CF90B5
:100F4000BF90AF909F908F907F906F905F904F90E9
:100F50003F902F900895CF92DF92EF92FF920F93E0
:100F60001F93CF93DF9300D000D0CDB7DEB7FC0145
:100F70008685882311F084E08283828181112FC0CD
:100F80006F0118EEE12E13E0F12E00E010E021E0F9
:100F900040E067E0CF010E94DE0518E8E12E13E192
:100FA000F12E00E010E026E030E0AE014F5F5F4F31
:100FB00061E0C6010E941006882371F08981F60164
:100FC00087838A8181878B8180878C819D819387AC
:100FD00082878E81848703C083E0F6018283269610
:100FE0000FB6F894DEBF0FBECDBFDF91CF911F913A
:100FF0000F91FF90EF90DF90CF9008950F93CF93D4
:10100000DF931F92CDB7DEB721E0FC01268728E0F1
:10101000298300E020E041E0BE016F5F7F4F8081C7
:101020000E94FA090F90DF91CF910F910895FC0172
:101030002281211107C02685211104C067871586EA
:101040000C94FE0708950F93CF93DF931F92CDB7B3
:10105000DEB722E0FC01268724E1298300E020E0BE
:1010600041E0BE016F5F7F4F80810E94FA090F90BF
:10107000DF91CF910F910895CF93DF93FC0122A9C7
:10108000222309F44AC0EC01958581E0892798E084
:10109000899FE00DF11D1124B2968E858130C9F42F
:1010A0008BA98630E1F42181808190E0922B998B8D
:1010B000888B2381828190E0922B9B8B8A8B258168
:1010C000848190E0922B9D8B8C8BCE010E94230813
:1010D00023C08E85823001F58BA9863019F084E01B
:1010E0008E871AC02181808190E0922B9F8B8E8BFE
:1010F0002381828190E0922B998F888F2581848132
:1011000090E0922B9B8F8A8F8F85813021F4CE01C6
:101110000E94FE0701C01E861AAADF91CF91089592
:101120001092201681E080931E1610921D1661E029
:1011300084E10E94BB1061E085E10E94BB10E9EBF5
:10114000F0E080818E7F808380818D7F808388E442
:101150008093B80085E48093BC000895ECEBF0E048
:1011600080818A7B808360E084E10E94BB1060E024
:1011700085E10C94BB109B01AC0160E074E284EF4C
:1011800090E00E944136DA01C9014097A109B109F6
:10119000B695A795979587958093B80008959093F5
:1011A00013168093121608959093151680931416B3
:1011B00008959093111680931016089590930F162A
:1011C00080930E16089585ED8093BC001092201632
:1011D000089585EC8093BC0010922016089510921B
:1011E0001716609318167093191680931A16909319
:1011F0001B16409316160895CF93DF9391E09093BA
:101200001716882361F0C091B800D091BA000E94EF
:10121000AE080E949008D093BA00C093B800DF9146
:10122000CF9108954F925F926F927F928F929F928B
:10123000AF92BF92FF920F931F93CF93DF93B82E7D
:10124000162FF72EC42FA22E413208F0C1C00E94E3
:10125000660F2B013C01D0912016DD2331F18091E6
:10126000181690911916A0911A16B0911B16892B79
:101270008A2B8B2B81F30E94660F209118163091D8
:10128000191640911A1650911B16DC01CB018419D6
:101290009509A609B709281739074A075B07D8F641
:1012A000809116160E94FC0893C081E0809320165E
:1012B000A0921E1600931C169FEF9093A8151092F3
:1012C000ED159C0F9093EC1580931F1690911F16AF
:1012D0008B2D880F892B80931F1680911D168130CE
:1012E00089F510921D160E94660F4B015C018091DA
:1012F0001F168093BB008091181690911916A0912B
:101300001A16B0911B16892B8A2B8B2BA9F00E94E1
:10131000660F409018165090191660901A1670902B
:101320001B16DC01CB0188199909AA09BB094816CB
:1013300059066A067B06A8F18091BC0083FDD7CFD1
:1013400085EC01C085EE8093BC00002309F442C007
:101350000E94660F4B015C0180912016813031F5AF
:101360008091181690911916A0911A16B0911B161B
:10137000892B8A2B8B2B81F30E94660F40901816C5
:101380005090191660901A1670901B16DC01CB0154
:1013900088199909AA09BB09481659066A067B06E5
:1013A000D8F6809116160E94FC0815C08091ED15A4
:1013B0008C1710F4C091ED15AEEEB5E1912FE12F31
:1013C000FF2D8E2F891B8C1728F48D918193F9CFD7
:1013D000D0E001C0DC2F8D2FDF91CF911F910F91B5
:1013E000FF90BF90AF909F908F907F906F905F9095
:1013F0004F9008954F925F926F927F928F929F923B
:10140000AF92BF92CF92DF92EF92FF920F931F9312
:10141000CF93DF93413208F0EFC0122FF42ED72E76
:10142000E62ED82F0E94660F4B015C01809120169A
:10143000882371F18091181690911916A0911A16AF
:10144000B0911B16892B8A2B8B2B81F30E94660F80
:10145000409018165090191660901A1670901B162E
:10146000DC01CB0188199909AA09BB09481659065C
:101470006A067B06D8F6ACC08091181690911916B2
:10148000A0911A16B0911B16892B8A2B8B2B39F43D
:101490008091BC00C82FC07184FDEECF16C00E94A1
:1014A000660F409018165090191660901A1670909A
:1014B0001B16DC01CB0188199909AA09BB0948163A
:1014C00059066A067B0620F783C082E080932016C7
:1014D00000931E168FEF8093A8151092ED15F092D1
:1014E000EC159E2DAEEEB5E1EE2DFD2D8E2F891B58
:1014F0008F1518F481918D93F9CF10921F1690914A
:101500001F16DD0FD92BD0931F1680911D16813029
:1015100089F510921D160E94660F6B017C01809167
:101520001F168093BB008091181690911916A091F8
:101530001A16B0911B16892B8A2B8B2BA9F00E94AF
:10154000660F8090181690901916A0901A16B090F9
:101550001B16DC01CB018C199D09AE09BF09881649
:101560009906AA06BB06A0F18091BC0083FDD7CFE7
:1015700085EC01C085EE8093BC000E94660F6B0174
:101580007C01112359F180912016823039F5809128
:10159000181690911916A0911A16B0911B16892B46
:1015A0008A2B8B2B71F30E94660F809018169090F7
:1015B0001916A0901A16B0901B16DC01CB018C19DD
:1015C0009D09AE09BF0988169906AA06BB06C8F68A
:1015D000809116160E94FC08C5E013C08091A815E2
:1015E0008F3F79F08091A815803241F08091A81545
:1015F000803331F0C4E005C0C1E003C0C2E001C0E7
:10160000C3E08C2FDF91CF911F910F91FF90EF904E
:10161000DF90CF90BF90AF909F908F907F906F9012
:101620005F904F9008951F920F920FB60F92112462
:101630000BB60F922F933F934F935F936F937F93CC
:101640008F939F93AF93BF93EF93FF938091B900D4
:10165000887F803609F4D4C078F5883209F45DC0FB
:1016600090F4803109F456C038F4882309F42BC172
:10167000883009F44FC02BC1883109F44EC0803244
:1016800009F478C024C1803409F483C058F480334D
:1016900009F470C0883309F01AC18093A8150E941C
:1016A000E90815C1803509F468C0883509F476C0A9
:1016B000883409F00CC109C1883909F4FAC0A8F4CA
:1016C000883709F49DC038F4883609F499C080370A
:1016D00009F496C0FCC0883809F4EBC0803909F4DD
:1016E00095C0803809F0F3C091C0803B09F4B9C0BF
:1016F00038F4803A09F49CC0883A09F4B2C0E7C0D3
:10170000803C09F4DAC0883C09F4D7C0883B09F46E
:10171000BDC0DDC080911F1610C09091ED15809165
:10172000EC15981770F4E091ED1581E08E0F809321
:10173000ED15F0E0E251FA4E80818093BB0085EC1C
:10174000B9C080911E16882319F00E94E30808C0D2
:1017500081E080931D1684EA8093BC0010922016CD
:10176000809120168111B3C0E0911016F0911116EE
:101770001995ADC08093A815A8C0E091ED1581E042
:101780008E0F8093ED158091BB00F0E0E251FA4E90
:1017900080839091ED158091EC1588C0E091ED1556
:1017A00081E08E0F8093ED158091BB00F0E0E25157
:1017B000FA4E808380911E16882319F00E94E30858
:1017C00008C081E080931D1684EA8093BC001092CB
:1017D000201680911C1681117AC0809120168111EB
:1017E00076C080911716811172C06091ED1570E07E
:1017F000E0910E16F0910F168EEE95E1199567C0E7
:1018000083E0809320161092A91599CF8091A91595
:10181000803208F04EC0E091A91581E08E0F8093D0
:10182000A9158091BB00F0E0E655FA4E808387CF82
:101830000E94E9088091A915803230F4E091A91541
:10184000F0E0E655FA4E10826091A91570E0E09143
:101850001216F09113168AEA95E119951092A915BE
:1018600036C084E0809320161092CB151092CA15D2
:10187000E0911416F091151619958091CA158111F1
:1018800005C081E08093CA151092CC15E091CB156C
:1018900081E08E0F8093CB15F0E0E453FA4E808107
:1018A0008093BB009091CB158091CA15981708F4CE
:1018B00046CF85E88093BC000AC085EC8093BC00CD
:1018C0001092201604C01092A8150E94E308FF9100
:1018D000EF91BF91AF919F918F917F916F915F91A8
:1018E0004F913F912F910F900BBE0F900FBE0F9015
:1018F0001F9018951F920F920FB60F9211240BB6DE
:101900000F922F938F939F93EF93FF93E091311654
:10191000F09132168081E0913716F091381682FDF1
:1019200012C0908180913A168F5F8F7320913B1681
:10193000821751F0E0913A16F0E0EF5DF94E958F85
:1019400080933A1601C08081FF91EF919F918F9112
:101950002F910F900BBE0F900FBE0F901F901895F8
:101960001F920F920FB60F9211240BB60F922F9366
:101970003F934F935F936F937F938F939F93AF9317
:10198000BF93EF93FF9381E296E10E948B0DFF914D
:10199000EF91BF91AF919F918F917F916F915F91E7
:1019A0004F913F912F910F900BBE0F900FBE0F9054
:1019B0001F90189581E296E10E94110D21E0892B7C
:1019C00009F420E0822F0895E1E2F6E11382128209
:1019D00088EE93E0A0E0B0E084839583A683B7838C
:1019E0008DE592E09183808385EC90E095878487F4
:1019F00084EC90E09787868780EC90E0918B808BD9
:101A000081EC90E0938B828B82EC90E0958B848BC1
:101A100086EC90E0978B868B118E128E138E148E2F
:101A20000895FC01918D228D892F90E0805C9F4F5D
:101A3000821B91098F7399270895FC01918D828DE6
:101A4000981731F0828DE80FF11D858D90E0089593
:101A50008FEF9FEF0895FC01918D828D981761F0B3
:101A6000828DDF01A80FB11D5D968C91928D9F5FD5
:101A70009F73928F90E008958FEF9FEF0895FC0180
:101A8000538D448D252F30E0842F90E0821B930BE3
:101A9000541710F0CF960895019708958AED9CE0B1
:101AA000892B41F080E090E0892B21F00E94DA0C34
:101AB000811125C080E090E0892B41F080E090E02A
:101AC000892B21F00E94000081111CC080E090E071
:101AD000892B41F080E090E0892B21F00E940000EA
:101AE000811113C080E090E0892BA1F080E090E0AC
:101AF000892B81F00E94000081110AC008950E9484
:101B00000000D8CF0E940000E1CF0E940000EACF81
:101B10000C9400000895FC01848DDF01A80FB11D15
:101B2000A35ABF4F2C91848D90E001968F73992713
:101B3000848FA689B7892C93A089B1898C918370F1
:101B400080648C93938D848D981306C00288F389EA
:101B5000E02D80818F7D80830895EF92FF920F9317
:101B60001F93CF93DF93EC0181E0888F9B8D8C8D49
:101B7000981305C0E889F989808185FD26C0F62E75
:101B80000B8D10E00F5F1F4F0F731127E02E8C8D10
:101B9000E8120CC00FB607FCFACFE889F9898081FA
:101BA00085FFF5CFCE010E948B0DF1CF8B8DFE010D
:101BB000E80FF11DE35AFF4FF0829FB7F8940B8FA7
:101BC000EA89FB89808180620AC09FB7F894EE8918
:101BD000FF896083E889F9898081837080648083CC
:101BE0009FBF81E090E0DF91CF911F910F91FF9017
:101BF000EF900895CF93DF93EC01888D8823C9F08F
:101C0000EA89FB89808185FD05C0A889B9898C9105
:101C100086FD0FC00FB607FCF5CF808185FFF2CFA0
:101C2000A889B9898C9185FFEDCFCE010E948B0DDB
:101C3000E7CFDF91CF910895CF92DF92EF92FF929D
:101C40001F93CF93DF93EC016A017B01122FE88988
:101C5000F98982E080834115514E61057105B1F02B
:101C600060E079E08DE390E0A70196010E944136A3
:101C7000DA01C9010197A109B109B695A795979510
:101C800087959C01211580E13807A8F0E889F9893A
:101C9000108260E874E88EE190E0A70196010E944E
:101CA0004136DA01C9010197A109B109B695A79595
:101CB000979587959C01EC85FD853083EE85FF85A2
:101CC0002083188EEC89FD891083EA89FB89808145
:101CD00080618083EA89FB89808188608083EA89CA
:101CE000FB89808180688083EA89FB8980818F7D80
:101CF0008083DF91CF911F91FF90EF90DF90CF9085
:101D0000089508950E94C70F0E94810E0E94A302A9
:101D1000CEE4DDE00E9463032097E1F30E944E0DC4
:101D2000F9CFCF92DF92EF92FF920F931F93CF9351
:101D3000DF936C017A018B01C0E0D0E0CE15DF05A6
:101D400081F0D8016D918D01D601ED91FC9101904A
:101D5000F081E02DC6011995892B11F02196EECF67
:101D60007E01C701DF91CF911F910F91FF90EF90FE
:101D7000DF90CF9008950F931F93CF93DF93EC01E3
:101D80000E945A0F688779878A879B87E881F98143
:101D90000284F385E02DCE01199597FF17C00E94AC
:101DA0005A0F088519852A853B85DC01CB01801BEC
:101DB000910BA20BB30B0C811D812E813F818017EB
:101DC0009107A207B30710F38FEF9FEFDF91CF9139
:101DD0001F910F910895CF92DF92EF92FF920F9390
:101DE0001F93CF93DF936C017A018B01C0E0D0E0A9
:101DF000CE15DF0559F0C6010E94BB0E97FD05C048
:101E0000F80181938F012196F3CF7E01C701DF9105
:101E1000CF911F910F91FF90EF90DF90CF90089599
:101E20001F920F920FB60F9211242F933F938F930F
:101E30009F93AF93BF938091BF169091C016A091CE
:101E4000C116B091C2163091BE1623E0230F2D3774
:101E500020F40196A11DB11D05C026E8230F0296AE
:101E6000A11DB11D2093BE168093BF169093C0167E
:101E7000A093C116B093C2168091C3169091C41658
:101E8000A091C516B091C6160196A11DB11D8093F3
:101E9000C3169093C416A093C516B093C616BF91EF
:101EA000AF919F918F913F912F910F900FBE0F9007
:101EB0001F9018952FB7F8946091BF167091C016B7
:101EC0008091C1169091C2162FBF08953FB7F89424
:101ED0008091C3169091C416A091C516B091C616F4
:101EE00026B5A89B05C02F3F19F00196A11DB11D75
:101EF0003FBFBA2FA92F982F8827820F911DA11DB0
:101F0000B11DBC01CD0142E0660F771F881F991FEC
:101F10004A95D1F708958F929F92AF92BF92CF9238
:101F2000DF92EF92FF926B017C010E94660F4B01E2
:101F30005C01C114D104E104F10401F10E94EA1032
:101F40000E94660FDC01CB0188199909AA09BB0917
:101F5000883E9340A105B10560F321E0C21AD10883
:101F6000E108F10888EE880E83E0981EA11CB11CE0
:101F7000C114D104E104F10419F7DBCFFF90EF9015
:101F8000DF90CF90BF90AF909F908F9008957894FE
:101F900084B5826084BD84B5816084BD85B582606E
:101FA00085BD85B5816085BDEEE6F0E0808181600C
:101FB0008083E1E8F0E0108280818260808380810C
:101FC00081608083E0E8F0E0808181608083E1EBE4
:101FD000F0E0808184608083E0EBF0E080818160CC
:101FE0008083E1E9F0E0808182608083808181608C
:101FF0008083E0E9F0E0808181608083E1EAF0E0C5
:10200000808182608083808181608083E0EAF0E06B
:10201000808181608083E1E2F1E080818260808361
:10202000808181608083E0E2F1E080818160808353
:10203000EAE7F0E080818460808380818260808331
:102040008081816080838081806880831092C1005C
:10205000089590E0FC013197E231F10508F04EC09F
:102060008827EE58FF4F8F4F0C9463368091800085
:102070008F7703C0809180008F7D809380000895CA
:1020800080918000877FF9CF84B58F7702C084B5B7
:102090008F7D84BD08958091B0008F7703C08091BB
:1020A000B0008F7D8093B0000895809190008F776D
:1020B00007C0809190008F7D03C080919000877F42
:1020C0008093900008958091A0008F7707C0809141
:1020D000A0008F7D03C08091A000877F8093A00027
:1020E0000895809120018F7707C0809120018F7D16
:1020F00003C080912001877F809320010895CF93B2
:10210000DF9390E0FC01E656FD4F2491FC01E05284
:10211000FD4F8491882361F190E0880F991FFC01A5
:10212000E05CFC4FC591D491FC01EA5DFC4FA591A8
:10213000B491611109C09FB7F894888120958223DA
:102140008883EC912E230BC0623061F49FB7F89422
:102150008881322F309583238883EC912E2B2C930A
:102160009FBF06C08FB7F894E8812E2B28838FBFBE
:10217000DF91CF9108951F93CF93DF93282F30E005
:10218000F901EC5AFD4F8491F901E656FD4FD491C7
:10219000F901E052FD4FC491CC23C1F0162F8111FB
:1021A0000E942910EC2FF0E0EE0FFF1FEA5DFC4FBC
:1021B000A591B4919FB7F894111104C08C91D0955A
:1021C000D82302C0EC91DE2BDC939FBFDF91CF912F
:1021D0001F9108950895FC0181899289892B49F006
:1021E00087859089892B29F081E0258D368D232BD9
:1021F00009F480E00895CF93DF93EC0184E1DE01E0
:102200001D928A95E9F7CE0144960E944C1DFE016D
:10221000FA9683E4DF011D928A95E9F7ED5BFF4FA3
:1022200010821182128213823496108211821282DD
:102230001382349610823196108231961082319634
:10224000108231968BEADF011D928A95E9F7CE0163
:1022500087539F4FDF91CF910C9451338F929F9270
:10226000AF92BF92EF92FF920F931F93CF93DF93A2
:10227000EC018C0109571F4F81E0F80180838F8D9D
:1022800098A1892B31F08DA59EA58097803D9F4F09
:1022900010F0F801108289A19AA1892B31F08FA545
:1022A00098A98097803D9F4F10F0F8011082E12C93
:1022B000F12C812C912C540189A99AA9A0E0B0E0BD
:1022C00088169906AA06BB06A0F4EBA1FCA1EE0DA8
:1022D000FF1D82810E94AD1D811102C0F801108294
:1022E000FFEF8F1A9F0AAF0ABF0A23E0E20EF11C2C
:1022F000E3CFF801908181E08927DF91CF911F9191
:102300000F91FF90EF90BF90AF909F908F900895A6
:102310008F929F92AF92BF92CF92DF92EF92FF92F5
:102320000F931F93CF93DF93EC01FC01EB57FF4F0B
:102330001082319610823296108286E2FB01DE0115
:10234000549601900D928A95E1F74E018AE3880E2A
:10235000911CA88CB98CCA8CDB8C7E01EDE7EE0E4B
:10236000F11C0FA518A929A13AA14DA55EA56F8D55
:1023700078A1C4010E942122CE010E942E11F82EC4
:102380008E01095B1F4F882331F0C4010E94FB219D
:10239000F80110820AC0F8018081882319F000E05A
:1023A00010E016C0C957DF4F1882FF24F39446C0CF
:1023B000EBA5FCA5C801880F991FE80FF91FBE0106
:1023C000808191810E943B1C8111EFCF0F5F1F4FD5
:1023D0008BA990E00817190758F308AD19AD2EA97D
:1023E0003FA94CA95DA9BE01CE0187579F4F0E940E
:1023F0000D2C8111DACFFE01EB5DFE4F11821082B0
:102400003296118210823796108231961082319660
:10241000108232961082319710823296108236974F
:1024200010823997DE01AF5FBE4F8C918083349765
:1024300011821082CE5DDE4F198218828F2DDF91BE
:10244000CF911F910F91FF90EF90DF90CF90BF90B1
:10245000AF909F908F9008954F3FA9F04F3361F058
:102460004F70E1E0F0E001C0EE0F4A95EAF74E2F21
:10247000E150E43010F007C041E0C90150E00E9493
:10248000123A81E0089580E008956F927F928F92D2
:102490009F92AF92BF92CF92DF92EF92FF920F93F3
:1024A0001F93CF93DF936C015B01942E822EE70183
:1024B000802F90E07C0121E0E21AF108880D911D47
:1024C000019723E0959587952A95E1F78F5F0E9404
:1024D000AB1D682EC70133E0959587953A95E1F7D6
:1024E0008F5F0E94AB1D782E8FE0681619F0462D85
:1024F000406101C04FEFE0EF9E1609F4D3C0FFE04A
:102500007F1619F0172D192901C01FEF002309F4B8
:10251000C0C0892D8F7E19F020E39212C6C09E01A3
:10252000B501C6010E942C12882309F4B2C06110C3
:1025300009C0888190E002C0959587958A94E2F75A
:1025400088831FC081E068120AC08881998102C017
:10255000969587958A94E2F79983888312C0E2E082
:102560006E1297C088819981AA81BB8104C0B695FB
:10257000A795979587958A94D2F788839983AA839C
:10258000BB8371101EC0083040F481E090E001C0B0
:10259000880F0A95EAF7815001C08FEF9881982340
:1025A0009883911082C0292F30E002C0359527957D
:1025B000EA94E2F7232B09F478C08095892B88836D
:1025C00074C0F1E07F1225C0003148F481E090E052
:1025D00002C0880F991F0A95E2F7019702C08FEF9A
:1025E0009FEF28813981282339233983288391104B
:1025F0005CC0A90102C056954795EA94E2F7452BC5
:1026000009F453C080959095822B932B99838883EE
:102610004CC082E0882E78103CC0003278F481E013
:1026200090E0A0E0B0E004C0880F991FAA1FBB1F74
:102630000A95D2F70197A109B10903C08FEF9FEF67
:10264000DC01488159816A817B81482359236A23AF
:102650007B23488359836A837B83911026C04A0178
:102660005B0104C0B694A79497948794EA94D2F738
:1026700089288A288B28C9F080959095A095B095D7
:10268000842B952BA62BB72B88839983AA83BB8396
:102690000CC08FEF8C8384E0FE0111928A95E9F7DC
:1026A00080E005C00023A9F31FEF1C8381E0DF91C8
:1026B000CF911F910F91FF90EF90DF90CF90BF903F
:1026C000AF909F908F907F906F900895CF93DF93FE
:1026D000FA012081213099F018F0233039F13BC004
:1026E000FC01EB5DFE4F20813181232B29F0DC01C1
:1026F000A25DBE4F22E02C93718360832CC0FC014D
:10270000EB5DFE4F408151816417750721F0DC01BC
:10271000A25DBE4F2C93EC011182108287579F4F10
:102720000E94E22BCE5CDE4F188215C02181DC01B5
:10273000AC5DBE4F2C934281538114974D935C93B3
:1027400044815581FC01EE5DFE4F5183408324306E
:1027500011F071961082DF91CF910895FC01E25D36
:10276000FE4F2081211150C03997A081B18110976F
:10277000E1F4B4972081B3962083DC01A95DBE4FBC
:10278000ED91FC911197309751F02781211107C0ED
:1027900021E02683F894278378941D921C92FC01F3
:1027A000E15DFE4F108232962EC017962C9117973E
:1027B00021112AC0FC01E05DFE4F2081222361F03F
:1027C00016961C921697F89421E017962C937894FD
:1027D0001082329620830895FC01E15DFE4F208136
:1027E000222311F082E007C0FC01EF5CFE4F8081E4
:1027F000882351F083E016968C931697F89481E025
:1028000017968C93789410820895EF92FF921F93FD
:10281000CF93DF93CDB7DEB762970FB6F894DEBFE4
:102820000FBECDBF7C0110E0F70183A9181708F097
:102830003DC093A584A5E92FF82FE10FF11DE10F0D
:10284000F11D60817181FB018685882369F186E035
:102850003896DE011D9601900D928A95E1F7F89465
:10286000FB011686789486E0FE013D96DE01119606
:1028700001900D928A95E1F786E0FE013196DE0126
:10288000179601900D928A95E1F786E0FE01379642
:10289000DE011D9601900D928A95E1F7AE01435F2E
:1028A0005F4FC7010E9466131F5FBECF62960FB6CF
:1028B000F894DEBF0FBECDBFDF91CF911F91FF9087
:1028C000EF900895EF92FF920F931F93CF93DF93B2
:1028D0007C0125E8E20EF11CF70120812223C1F0E2
:1028E000FF9720812230A1F0EC018C01065C1F4F84
:1028F000C8010E94051FF701108233961082CA5743
:10290000DF4F8881882321F0C8010E94BE221882EF
:10291000DF91CF911F910F91FF90EF9008950F934A
:102920001F93CF93DF93FC01C1A9D2A9A0E0B0E02F
:1029300020E030E02C173D07D1F0FC0103A114A1E9
:10294000F801EA0FFB1F1396008111810617170784
:1029500059F44115510569F080819181A281FA01F4
:1029600080839183A28305C02F5F3F4FE3CF80E038
:1029700001C081E0DF91CF911F910F9108958F9257
:102980009F92AF92BF92CF92DF92EF92FF920F93FE
:102990001F93CF93DF93CDB7DEB72B970FB6F89485
:1029A000DEBF0FBECDBFDB011196EC918E2E912CB8
:1029B000F4013197E930F10508F019C16A018C0181
:1029C0008827EC57FF4F8F4F0C94633681E0898343
:1029D0001A82BE016F5F7F4FC8010E94EC2605C1BD
:1029E000BA01C8010E94012700C1F801868D8983C0
:1029F00084A995A9892B29F086A997A9892B09F083
:102A0000FCC080E08A8381E0D80199962D913C91A9
:102A10009A97232B09F480E08B831C82A601BE01C8
:102A20006F5F7F4FC8010E942527DFC019821A827D
:102A3000BE016F5F7F4FC8010E941027D6C0F8010A
:102A400081A992A99A838983BE016F5F7F4FC801D4
:102A50000E94F027CAC0AE014D5F5F4FC8010E94BF
:102A60004727F82E8111D6C0F801E05AFF4F408168
:102A70005181D60114961C921E921397B6016801DB
:102A8000BBE0CB0ED11CC6010E946225D886CF8246
:102A90008B819C81F80141A952A98417950718F0F0
:102AA00045E0F42EB7C02D813E81280F391F421713
:102AB0005307B0F323A134A13A8329834C01A12CFD
:102AC000B12C8C01000F111F080F191F2B813C81A5
:102AD0008D819E81820F931FA0E0B0E08816990639
:102AE000AA06BB060CF096C069817A81600F711F3F
:102AF0008F8198850E9408260D5F1F4FEF81F88512
:102B00008085811177C0BFEF8B1A9B0AAB0ABB0A85
:102B1000DDCFF80183A98983BE016F5F7F4FC801B4
:102B20000E94022862C0AE014F5F5F4FC8010E9441
:102B30006827D8019B968D919C919C97009709F4EA
:102B4000AFCFD3962C91222309F4AACFB980B21625
:102B500008F0A6CFEB2CF12CEE0CFF1CFC01EE0DC7
:102B6000FF1D80819181DC01ED91FC910190F0814C
:102B7000E02D1995BA828B83D8019B96ED91FC913B
:102B80009C97EE0DFF1DA081B18154969C919C8372
:102B900081110DC080819181DC01ED91FC91028059
:102BA000F381E02D19956D837E838F839887F801DB
:102BB00083A594A5FC01EE0DFF1D0190F081E02D91
:102BC000278530892115310519F1F90180E090E060
:102BD0004191411117C089873B872A87A601BE0111
:102BE0006E5F7F4FC8010E947A27F82E13C092E0D3
:102BF000F92E10C083E0F82E0DC0C80144960E9443
:102C0000751D00CF01968032910511F780E2E3CF68
:102C100080E0E1CF8F2D2B960FB6F894DEBF0FBE6C
:102C2000CDBFDF91CF911F910F91FF90EF90DF907B
:102C3000CF90BF90AF909F908F900895CF92DF92EA
:102C4000EF92FF920F931F93CF93DF93CDB7DEB731
:102C500062970FB6F894DEBF0FBECDBF8C017A012C
:102C6000FB018181833009F46DC028F4813051F07B
:102C7000823069F1E9C0843009F490C0853009F4EC
:102C8000C1C0E2C0AE014F5F5F4FC8010E94E228A1
:102C90008111DFC0F801848D958D9F838E8300970D
:102CA00061F0FC0180E090E02191222339F001964F
:102CB00080349105C9F780E401C080E08D83A701CD
:102CC000BE016B5F7F4FC8010E941128C2C0AE01D8
:102CD0004F5F5F4FC8010E9400298111BAC068018F
:102CE000F0E4CF0ED11C49815A816B817C81F601C1
:102CF00080819181A281B381481759076A077B07B8
:102D000011F081E0A6C06D817E81C801CA960E9443
:102D1000871E8823B1F3F60180819181A281B3815E
:102D20008F839887A987BA878D819E81809590959A
:102D30009C878B87A701BE01695F7F4FC8010E94F6
:102D40004A2887C0F80187A590A99C838B8385A515
:102D500096A59A83898384899589A689B7898D8365
:102D60009E83AF83B88780E593ECA0E0B0E08D87C9
:102D70009E87AF87B88B80E49BE4ACE4B0E08987A2
:102D80009A87AB87BC8782E0898B88E08A8BBE01FB
:102D90006F5F7F4FC8010E946E285BC0AE014F5F1E
:102DA0005F4FC8010E942329811153C0F801E85BDD
:102DB000FF4F808181114AC0C801CA960E948622B5
:102DC000882309F445C0F801E05CFF4F80819181C0
:102DD000A281B38189879A87AB87BC878091AB0238
:102DE0009091AC02A091AD02B091AE028D839E8312
:102DF000AF83B887A701BE016B5F7F4FC8010E94F8
:102E0000BD2827C0AE014F5F5F4FC8010E9438291F
:102E100081111FC0F801E85BFF4F90819923C9F031
:102E20003897C080D180E280F38049815A816B81DC
:102E30007C81C416D506E606F70609F062CFEA5B88
:102E4000FF4F91E0908305C082E003C084E001C0A1
:102E500085E062960FB6F894DEBF0FBECDBFDF915E
:102E6000CF911F910F91FF90EF90DF90CF90089539
:102E7000AF92BF92DF92EF92FF920F931F93CF9387
:102E8000DF93CDB7DEB72D970FB6F894DEBF0FBE38
:102E9000CDBF8C015B017A01DB011196DC90B3E0C0
:102EA000BD1540F0E2E0DE1608F054C0F1E0DF1698
:102EB00051F039C184E0D81609F4BFC0A5E0DA1694
:102EC00009F421C130C10E945E231A83098358018D
:102ED000B0E6AB0EB11CF50140815181D7011496CB
:102EE0001C921E921397055F1F4FB701C8010E94E5
:102EF00062251C830B83E981FA818185882311F087
:102F000081E064C1D5012D913C918681978128177C
:102F10003907C0F483E05AC1BE016B5F7F4F0E9446
:102F2000E622E981FA8181858111EACFBE016B5FDA
:102F30007F4F8B819C810E947225EB81FC81808573
:102F40008111E8CF89819A81FC012085222321F318
:102F500080E03CC1DC015E968C91882309F4E1C0DD
:102F600041E0B3E0DB1240E0B501C8010E94442417
:102F70001A8709875801E0E6AE0EB11CD5014D91C4
:102F80005C91F70114821382055F1F4FB701C801DE
:102F90000E9462251C870B87E985FA85818581114E
:102FA000AFCFD5012D913C918681978128173907A4
:102FB00008F4B0CF89859A85FC0120852111C8CFFE
:102FC000BE016F5F7F4F0E94A323E985FA8581854B
:102FD000811196CFBE016F5F7F4F8B859C850E94CC
:102FE000CE25F3E0DF1203C080E090E009C06D81E0
:102FF0007E814B815C8189819A810E94123ADACF6D
:103000002B813C8182179307A8F6E981FA81E80FAA
:10301000F91F3081AD81BE81A80FB91F2C91AF81FE
:10302000B885A80FB91F4C91542F5095522B2423CB
:10303000232B252320830196E3CFC80144960E94C9
:10304000EB10882309F46FC0B501C8010E948624E3
:103050001A830983F801E05AFF4F40815181D7015B
:1030600014961C921E921397B7017801BBE0EB0EE9
:10307000F11CC7010E946225FC82EB82E981FA8182
:10308000878181113DCF89819A81FC01268121119F
:103090005FCFBE01645F7F4F0E949E24E981FA8169
:1030A000978191112DCF882371F36C857D85AE01B9
:1030B0004B5F5F4FC8010E948F14811102C085E0F1
:1030C00085C06D817E818F81D8019596ED91FC91AF
:1030D000969720E030E0AE01485F5F4F1995882356
:1030E00071F3288539854A855B85BE016B5F7F4F0B
:1030F0008B819C810E944C26EB81FC8180858823FA
:1031000009F4C1CF07CFF80187A190A5892B59F009
:1031100083A194A1892B39F081A992A9892B19F057
:1031200004C086E053C082E051C0A801C8010E94DB
:10313000CE241A830983F801E05AFF4F4081518160
:10314000F70114821382B7017801FBE0EF0EF11C46
:10315000C7010E946225FC82EB82E981FA818185A8
:103160008111CECE89819A81DC0118962C91211192
:10317000EFCEAE01485F5F4FBE016B5F7F4F0E9495
:10318000E324E981FA8191859111BACE882351F324
:103190006D817E818F81D8019796ED91FC919897F2
:1031A00020E030E0AE01485F5F4F1995882309F4B5
:1031B00086CFBE016B5F7F4F8B819C810E94B126C1
:1031C000EB81FC818085882369F2A4CE2D960FB611
:1031D000F894DEBF0FBECDBFDF91CF911F910F914D
:1031E000FF90EF90DF90BF90AF9008958F929F92E5
:1031F000AF92BF92CF92DF92EF92FF920F931F9305
:10320000CF93DF931F921F92CDB7DEB7DC01999663
:103210008D909C909A978114910461F15A01DB0181
:103220001A8219826C01E0E6CE0ED11CF601E08014
:10323000F180FA012781308512964D915C911397A8
:1032400016966D917C9117978E010F5F1F4F119607
:103250008C91F401199589819A81D6012D913C9127
:103260002817390728F0F5019483838380E003C091
:1032700083E001C082E00F900F90DF91CF911F910A
:103280000F91FF90EF90DF90CF90BF90AF909F9005
:103290008F9008954F925F926F927F928F929F923C
:1032A000AF92BF92CF92DF92EF92FF920F931F9354
:1032B000CF93DF93CDB7DEB761970FB6F894DEBF3B
:1032C0000FBECDBFDC01D4962D913C91D597232B19
:1032D00039F0D6962D913C91D7972115310511F4EF
:1032E00082E0D2C16A013B018C01DB011196EC91B5
:1032F0008E2F90E0FC013197E830F10590F022E04C
:10330000F22ED30111968C91823049F48FEF8F0DFC
:103310008E3F28F4C80187579F4F0E94E22B8F2DC4
:10332000B3C18827E357FF4F8F4F0C946336C90111
:10333000A0E0B0E089839A83AB83BC831D8288E0E0
:103340008E83A601BE016F5F7F4FC8010E944E2988
:10335000E4C0F801ED5CFE4F10823E9780819181C0
:10336000892B51F03D968081811188C181E0F8015F
:10337000E05DFE4F808382C16801B9E8CB0ED11CAD
:103380009601AE014F5F5F4FB301C8010E946D2AE5
:10339000F82E8111B6CF8981F80193A9891708F019
:1033A00070C123A594A5E22FF92FE80FF11DE80FB6
:1033B000F11D0190F081E02D8489882309F458C122
:1033C0005801F4E1AF0EB11CE12C46E0542ED601B9
:1033D000D6968C91E816F0F446015E9C800C911C08
:1033E0001124F40185A1833011F0E394F0CFC501DD
:1033F0000E94EB10882361F0D40190966D917C912E
:10340000919740E050E0C8010E948F148111EDCFE8
:1034100095E0F92EE12CF60186ADE816F0F44601B0
:10342000F4E0EF9E800C911C1124D40113968C9132
:10343000813011F0E394EFCFC5010E94EB10882397
:1034400009F41FC1F4016081718140E050E0C801BE
:103450000E948F148111EECF14C1F11052CF8981D7
:10346000D8019B962C919B979C969C91E22FF92FCB
:10347000E80FF11DE80FF11DA080B1804A815B814A
:10348000B5016E5F7F4FC6010E94382CF801F3959D
:103490008081882309F4EFC0B796B182A08231CF32
:1034A000F801EB5DFE4F80819181892B09F4E9C021
:1034B0003D9680818111E5C081E033970EC0F8010F
:1034C000EB5DFE4F80819181892B09F4DAC03D9636
:1034D00080818111D6C081E031978083C7C0F80117
:1034E000EC5DFE4F80818983349780819181A0E0DB
:1034F000B0E08A839B83AC83BD83329680819181C7
:10350000A0E0B0E08E839F83A887B987A601BE01A3
:103510006F5F7F4FC8010E947429F82EF2CEF80128
:10352000EC5DFE4F8081843009F0ABC0C80181534F
:103530009F4FB997208131813A8329833296208128
:1035400031813C832B83FC010190F081E02D228DA1
:10355000222319F04089518902C04289538960E0D1
:1035600070E04D835E836F8378870E941F33A0E0F5
:10357000B0E089879A87AB87BC87F801E950FF4F95
:1035800080819181A0E0B0E08D879E87AF87B88B66
:10359000A601BE016F5F7F4FC8010E94A029BDCF69
:1035A000F801EB5DFE4F80819181892B09F469C0A0
:1035B000319780813F965F01843009F048C07801DF
:1035C000FFECEF0EF11CD5018C91F801E35DFE4F8D
:1035D0004F019801275D3E4F290181110EC0C7019F
:1035E0000E943A3381E0D5018C93F4011082D2011C
:1035F0001D921D921D921C921397F801E550FF4FEA
:10360000808191819A838983FD82EC82F40180819B
:103610008B835F824E82198A9E012F5E3F4FA601E7
:10362000BE016F5F7F4FC8010E94E229F82ED401CE
:103630008C918F5F8C93FF2019F0F501108261CE81
:103640008989882309F45DCED5011C925ACE108257
:1036500018C0F801EB5DFE4F80819181892B09F044
:1036600081CEC80187579F4F0E94E22BF12C49CE93
:1036700036E0F32E46CEFF24F39443CEFF24FA9493
:1036800040CE85E0F82E3DCE61960FB6F894DEBFB1
:103690000FBECDBFDF91CF911F910F91FF90EF90A3
:1036A000DF90CF90BF90AF909F908F907F906F9062
:1036B0005F904F900895CF93DF93EA0118821982AB
:1036C0001A821C821B82FB0120812883218129838D
:1036D0002081233091F038F4213061F0223099F4C8
:1036E0000E941E1611C0243059F0253061F40E944A
:1036F0004A190AC00E94BF1407C00E94381704C0AC
:103700000E94F61801C082E08A83882311F01C828F
:103710001B82DF91CF910895AF92BF92CF92DF923B
:10372000EF92FF920F931F93CF93DF93EC01FC0175
:10373000E957FF4F80818E01065C1F4F811116C033
:103740003297108231961082C8010E94FB21CE016F
:1037500087579F4FDF91CF911F910F91FF90EF906F
:10376000DF90CF90BF90AF900C94E22B5E012DE7DD
:10377000A20EB11CF50180819181A281B381480F15
:10378000591F6A1F7B1F4083518362837383C80163
:103790000E946122CE010E940514CE010E94AE1348
:1037A000FE01EE59FF4F8081882381F16E01F5E81B
:1037B000CF0ED11CF6018081811128C0C8010E9462
:1037C0005C1E7C01AC01B801605F7F4FCE010E949E
:1037D0005B1BF70182818F3F09F040C0F601108228
:1037E0009E0128573F4FF9014081F5018081918169
:1037F000A281B381FE01EF57FF4F41111AC08083B0
:103800009183A283B38381E0F9018083CE010E947A
:103810006214CE010E940514CE01DF91CF911F9159
:103820000F91FF90EF90DF90CF90BF90AF900C94EE
:10383000AE134081518162817381841B950BA60B6D
:10384000B70B80349244AF40B10500F385E0F70137
:103850008283B701C8010E94DD2002C08E3F19F4A7
:1038600081E0F601D2CF81E0F6018083B701C80183
:103870000E94DD20CBCFFC01F89417827894F89455
:1038800016867894138A67577F4F728B618B80E01E
:10389000089526E0FB01DC0101900D922A95E1F7E5
:1038A000F89421E0FC012683789408950F931F93E8
:1038B000CF93DF9300D000D0CDB7DEB78C01FC01F1
:1038C00082819381A481B581480F591F6A1F7B1F94
:1038D000428353836483758387818823A1F086851F
:1038E000811111C03EC0213008F44EC0223009F0D1
:1038F00060C0FC01EE59FF4F208131810217130790
:1039000011F40E94912DF80181899289FC01EE59F0
:10391000FF4F208131810217130709F07EC00E94FA
:10392000482FF8018685811178C021893289F901F3
:10393000E858FF4F9081A801485F5F4F943009F02D
:1039400047C0F8018389811143C082E08983BE01A9
:103950006F5F7F4FCA010E94491C81E0F801838B91
:103960005CC0F8012681F894178278948189928945
:10397000213009F0B8CFFC01EE59FF4F11830083CD
:10398000F801138A19820DC0FC01EE59FF4F8081A6
:1039900091810817190709F0B6CF1182108281E0D2
:1039A0008983BE016F5F7F4FC80108960E94491C42
:1039B000AACF233009F0A7CFFC01EE59FF4F208199
:1039C00031810217130709F09ECF0E949D2D9BCFD6
:1039D00083E089839A839330B1F4F901E459FF4F6E
:1039E000808191819C838B83BC9766897789208DA8
:1039F000318D629FC001639F900D729F900D1124C5
:103A00009E838D8304C01C821B821E821D82BE0188
:103A10006F5F7F4FCA010E94491C26960FB6F8942B
:103A2000DEBF0FBECDBFDF91CF911F910F910895E3
:103A3000FC01458956896789708D0C94561C0C943D
:103A4000561CFC011686158614861386128E118E5E
:103A5000148E138E108A1786168E158E128A118A6E
:103A6000148A138A88E492E09187808710821182F9
:103A700012821382168A158A148215821682178280
:103A800081E08287108E178A178E11A210A213A2CE
:103A900012A215A214A208950C94211D0F931F9336
:103AA000FC0174876387528F418F36872587148F77
:103AB000038F1F910F9108950F931F93FC01708B3B
:103AC0006787568F458F328B218B148B038B1F9109
:103AD0000F910895FC01708F678B478F0895FC014B
:103AE00071A360A353A342A30895DC015F969C9148
:103AF0005F9720E030E0291790F4A901440F551F8B
:103B00005796ED91FC915897E40FF51F0190F081C5
:103B1000E02D84892F5F3F4F882369F3089580E06B
:103B20000895823060F0823061F0853060F0893035
:103B300060F0813160F0813260F08FE0089580E0C4
:103B4000089581E0089582E0089583E0089584E077
:103B5000089585E008950C94911D8F3F11F18F33E6
:103B6000F1F0982F9F7021E030E001C0220F9A956C
:103B7000EAF7322F21502430A0F4982F907F81E073
:103B8000903319F4313069F40EC0903219F43430A6
:103B900041F409C0903139F0992329F002C081E045
:103BA000089580E0089508954F925F926F927F92FA
:103BB0008F929F92AF92BF92CF92DF92EF92FF923D
:103BC0000F931F9378018901E094F094009510956C
:103BD000412C512C3201441655066606770609F42D
:103BE00056C0FC01C190CF01470158018C24FFE071
:103BF0008F229924AA24BB249401220F331F220F61
:103C0000331FF901E559FD4F80809180A280B38078
:103C100098018701F4E03695279517950795FA9551
:103C2000D1F780269126A226B326D12CA4E0D594E4
:103C3000C794AA95E1F70D2C000CEE08FF08C824E4
:103C4000D924EA24FB242FE0C222DD24EE24FF2421
:103C50009601220F331F220F331FF901E559FD4F43
:103C60000081118122813381E4E0B694A794979476
:103C70008794EA95D1F778018901E824F9240A2587
:103C80001B25EFEF4E1A5E0A6E0A7E0AA4CFC8010A
:103C9000B70160957095809590951F910F91FF9059
:103CA000EF90DF90CF90BF90AF909F908F907F90DC
:103CB0006F905F904F900895FC0115A616A617A669
:103CC00011AA10AA8D960895FC018089823091F482
:103CD0008189813079F482899389049758F06689C3
:103CE000778944E050E08FEA92E00E94053A21E0B3
:103CF000892B09F020E0822F0895FC018089823011
:103D000021F481E09189943009F080E008950F93C7
:103D10001F93FC0186858823D9F085858823C1F00F
:103D2000228533852617370719F4978591110FC01F
:103D300091E09787A081B1810D911D912D913C91CA
:103D400002831383248335837387628701C080E0F5
:103D50001F910F910895DC011C962C911C97223025
:103D600061F4FC01E05CFF4FDE968D919C91DF9742
:103D700020813181821B930B089580E090E00895AB
:103D8000EF92FF920F931F93CF93DF9300D01F9278
:103D90001F92CDB7DEB7FB0123813481FC0186A1E0
:103DA00097A18217930728F17B01FB01808189830A
:103DB00081818A8382818B833C832D8300E010E0A4
:103DC000980145E050E060E070E0CE0101960E946D
:103DD000D41D8B019C01F7014381548160E070E0A8
:103DE000878190850E94D41DF70161877287838740
:103DF00094870F900F900F900F900F90DF91CF91BD
:103E00001F910F91FF90EF900895FC01108A118A85
:103E1000138A128A108E118E128E138E11A610A67E
:103E200012A6A081B1818D919D910D90BC91A02D84
:103E3000848F958FA68FB78F12AE13AE14AE15AECA
:103E40008485813009F414860895CF93DF93EC01C3
:103E50008E8581110AC0CE010E94641E811105C0A9
:103E6000CE010E947D1E882339F085E089A781E07C
:103E700088A7DF91CF910895CE01DF91CF910C9467
:103E8000051F2F923F924F925F926F927F928F9277
:103E90009F92AF92BF92CF92DF92EF92FF920F93D9
:103EA0001F93CF93DF93EC018D85811103C082E0D6
:103EB0008AA75BC18C85823009F457C15A016B0116
:103EC000452B31F1E881F98180819181A281B38113
:103ED0004C8D5D8D6E8D7F8D841B950BA60BB70B66
:103EE0008032914AA105B10520F0CE010E94051F44
:103EF0001C86E881F98180819181A281B3818C8FB8
:103F00009D8FAE8FBF8F8C85811102C081E08C8721
:103F1000E12CF12C33E0232E44E0342E552453942D
:103F200056E0452EEA14FB0408F01FC188A5811154
:103F30001CC199A436E0931609F417C182E09816C3
:103F400009F44BC0891500F1992039F1A1E09A12CA
:103F5000E9CFC6018E0D9F1DFC012081298B0AAD82
:103F60001BAD2CAD3DAD41E050E060E070E00E9443
:103F7000D41D6AAF7BAF8CAF9DAFF2E0F9A72FEFF6
:103F8000E21AF20A1BA6CECFB3E09B1609F476C064
:103F9000E4E09E1609F4B1C0C5CF1AAE1BAE1CAE4C
:103FA0001DAEC6018E0D9F1DDC012C9127FF02C0A6
:103FB0002AA66CC0288B00E010E0980141E050E098
:103FC00060E070E00E94D41D6AAF7BAF8CAF9DAF04
:103FD00059A6BFEFEB1AFB0AA5CF4BA5C6018E0D64
:103FE0009F1D0AAD1BAD2CAD3DAD411131C0A501EA
:103FF0004E195F0941305105C1F0DC0111964C9119
:104000001197EC9150E05E2B5B8B4A8B42E050E0C5
:1040100060E070E00E94D41D6AAF7BAF8CAF9DAFB3
:104020009BA6B2E0EB0EF11C98C0FC0140811A8AFD
:104030004B8B41E050E060E070E00E94D41D6AAF1D
:104040007BAF8CAF9DAF5BA6FFEFEF1AFF0A6ACF85
:10405000DC01EC914A895B894E2B5B8B4A8B41E0FA
:1040600050E060E070E00E94D41D6AAF7BAF8CAF7F
:104070009DAF9BA6BFEFEB1AFB0A6FC02A893B8955
:104080008CA19DA18217930718F45AA649A64ACF7E
:104090008BA59CA5281B390B45018E189F08281558
:1040A000390508F4490136016E0C7F1C28A139A19D
:1040B000A401B301820F931F0E94123A0AAD1BADF7
:1040C0002CAD3DADA40160E070E0C3010E94D41DA1
:1040D0006AAF7BAF8CAF9DAF8BA59CA5880D991D5A
:1040E0009CA78BA7E80CF91C2A893B8982179307A8
:1040F00008F418CF1BA639A615CF888D998DAA8DE7
:10410000BB8DBA2FA92F982F8827888F998FAA8FB8
:10411000BB8FF601EE0DFF1D2081822B888F998FBA
:10412000AA8FBB8F2BA52F5F2BA7EFEFEE1AFE0AEE
:10413000243008F4F7CE1C864AAD5BAD6CAD7DAD86
:1041400084179507A607B70721F4CE010E94251F03
:10415000E9CECE010E94051FE5CE8A899B89892B75
:1041600049F21CA61BA629A6DDCEDF91CF911F9197
:104170000F91FF90EF90DF90CF90BF90AF909F9006
:104180008F907F906F905F904F903F902F90089509
:10419000FC0115A616A617A611AA10AA17AE16AEF0
:1041A000DC01A05CBF4F11961C921E9212961C92CD
:1041B0008485823009F414860895EF92FF921F934C
:1041C000CF93DF93EC017C0182E4E80EF11CF70150
:1041D00010821D85111103C083E080832FC08C8560
:1041E000882311F082E00CC0FB01238134818EA171
:1041F0009FA18217930740F4CE010E94C82081E05E
:10420000F701808310E01AC0808180688DA78181CA
:104210008EA782818FA739AB28AB878190859DAB14
:104220008CABBE01635D7F4FCE010E94C01E88A98A
:1042300099A909969FAF8EAF82E08C87812FDF917D
:10424000CF911F91FF90EF9008958F929F92AF9220
:10425000BF92CF92DF92EF92FF920F931F93CF9373
:10426000DF93EC018C85823009F06BC06E0180E435
:10427000C80ED11CAEACBFACD6018D919C91A81AD2
:10428000B90A4A155B0508F45A017B01FB0100E0FD
:1042900010E0D6018D919C918530910518F50A1595
:1042A0001B0509F43FC0009711F48DA50FC08130A4
:1042B000910511F48EA50AC08230910511F48FA5E5
:1042C00005C0039711F489A901C088A980830F5FF5
:1042D0001F4FD6018D919C91119701968D939C93C0
:1042E0003196D7CF0A151B05E8F468A979A99C0176
:1042F000255031092617370748F188A999A99C014B
:104300002B5F3F4FF701E00FF11FAC014A5F5F4F9A
:10431000BC01695F7F4F7C01B8E0EB0EF11C0A1510
:104320001B05C8F1F601208131818EAD9FAD2817A4
:10433000390750F0CE010E94C820CE010E94051F0F
:1043400003C080E090E04AC0C80148C09B012B5FD9
:104350003F4FF901E81BF90BCF014501801A910A83
:10436000E815F90508F44F01681B790B8CA99DA984
:10437000680F791FA401C701800F911F0E94123A94
:10438000080D191DD6018D919C911197880E991ECB
:104390008D929C92B2CFD6018D919C9128173907AE
:1043A00011F489AD0FC08417950711F488AD0AC0C8
:1043B0008617970711F48FA905C08E159F0509F080
:1043C000B1CF8EA98083D6018D919C9111970196D2
:1043D0008D939C930F5F1F4F3196A1CFDF91CF91AB
:1043E0001F910F91FF90EF90DF90CF90BF90AF9013
:1043F0009F908F900895CF93DF93FC0114861386CE
:104400001286178616821782108611861686858573
:104410008823A1F0EF010190F081E02D808191814E
:10442000A281B3818A839B83AC83BD83CE010E942A
:10443000051FCE01DF91CF910C94C820DF91CF9161
:104440000895AF92BF92CF92DF92EF92FF920F93B7
:104450001F93FC0171A360A355A344A333A322A31C
:1044600017A306A3F182E082A092C716B092C816E5
:10447000C092C916D092CA16778B668B558B448B27
:1044800035AB24AB13AB02AB81E0858712AE13AE24
:1044900014AE15AE40525109403D5F4F08F01586ED
:1044A00000521109003D1F4F08F01586CF011F91E2
:1044B0000F91FF90EF90DF90CF90BF90AF900C9452
:1044C000FB210F931F93DC011E962C911E97222334
:1044D000D1F0ED91FC9111974081518162817381FE
:1044E00012960D911D912D913C911597401B510BEA
:1044F000620B730B4038504F6A4F724020F01F918F
:104500000F910C94FB211F910F910895CF93FC0103
:10451000C585CC2381F1868581112CC08091C71679
:104520009091C816A091C916B091CA16AC01BD01F0
:104530004F5F5F4F6F4F7F4F4093C7165093C81622
:104540006093C9167093CA1686839783A087B18734
:1045500081E086871786A081B1818D919D910D9014
:10456000BC91A02D82839383A483B583CF010E9445
:10457000051F01C0C0E08C2FCF910895CF93DF932A
:10458000EC011E821F82188619861E861F860E94D5
:10459000051FCE01DF91CF910C94C820FC016081F2
:1045A0007181828193810E946B3608958F3F51F013
:1045B0008F3351F0982F9F7081E001C0880F9A953A
:1045C000EAF7089580E0089581E008958F929F9220
:1045D000AF92BF92EF92FF920F931F93CF93DF930F
:1045E0001F921F92CDB7DEB7FC018085811159C0A3
:1045F0008185811156C08281938124813581281B58
:10460000390B2430310520F481E08087818749C04F
:104610007B018F0120813181BE016F5F7F4F820F4F
:10462000931F0E941435F801828193819C012E5FB3
:104630003F4F3383228340815181FA01E20FF31F00
:10464000208131813227232732274901A12CB12C27
:10465000F4E08F0E911CA11CB11CF80166817781DA
:104660004FEE5FEF461B570B60E070E048155905B1
:104670006A057B0518F481E0818712C00496F80171
:104680009383828349815A81F70151834083338325
:104690002283F801248135818217930711F481E088
:1046A00080870F900F90DF91CF911F910F91FF9016
:1046B000EF90BF90AF909F908F9008950F931F93AE
:1046C000CF93DF93CDB7DEB728970FB6F894DEBF50
:1046D0000FBECDBF8C01FB0186819781F8019183CC
:1046E0008083FB0182819381F80195838483138207
:1046F00012821186108617821682BE016F5F7F4F6D
:10470000C8010E94E622F801818581110DC08085D3
:1047100081110AC0268137818B819C81820F931F72
:10472000049697838683E9CFF8011382128210865C
:1047300028960FB6F894DEBF0FBECDBFDF91CF91A4
:104740001F910F910895DF92EF92FF920F931F93A5
:10475000CF93DF931F921F92CDB7DEB7FC01808508
:10476000811188C08185811185C0828193812481D6
:104770003581281B390B2430310518F481E08087FE
:1047800055C07B018F0120813181BE016F5F7F4F5A
:10479000820F931F0E941435D80112968D919C911F
:1047A00013979C012E5F3F4F13963C932E931297C5
:1047B0004D915C911197FA01E20FF31F2081318135
:1047C000322723273227049613969C938E931297B1
:1047D00014966D917C911597FB01E81BF90BE2177C
:1047E000F30748F01A96DC90DD2051F0F695E79536
:1047F000E217F30728F481E0F801818780873AC047
:10480000E981FA81D7011196FC93EE93FA01E80F42
:10481000F91F1596FC93EE931497820F931FF801DE
:10482000938382836817790718F481E0818722C017
:10483000DD2069F0480F591FD70117965C934E93FE
:104840001697820F931FF8019383828305C0D701C7
:1048500017961C921E921697F70133832283D80174
:1048600012968D919C9113976817790719F481E03E
:1048700018968C930F900F90DF91CF911F910F910D
:10488000FF90EF90DF9008950F931F93CF93DF93E6
:10489000CDB7DEB728970FB6F894DEBF0FBECDBFF9
:1048A0008C01FB0186819781F80191838083FB0154
:1048B00082819381F80195838483428713821282D7
:1048C0001186108617821682BE016F5F7F4FC80166
:1048D0000E94A323F8018185811109C0808581117F
:1048E00006C086819781049697838683EDCFF80171
:1048F00013821282108628960FB6F894DEBF0FBE80
:10490000CDBFDF91CF911F910F910895FC01DB0185
:1049100016968D919C9117979183808312968C9116
:10492000129713969C918483958313821282178227
:10493000168280FF02C081E087830895FC01868192
:1049400081112AC09781911128C02281338144812D
:104950005581421B530B4230510518F491E0978367
:10496000089580819181DC01A20FB31F8D919C91EC
:10497000982789279827DB018D939C9382819381C7
:10498000029693838283248135818217930711F4E1
:1049900081E0868381E0089580E00895FC01DB01D9
:1049A00016968D919C9117979183808312968D9185
:1049B0009C91139795838483578346831382128235
:1049C000118610860895EF92FF920F931F93CF9355
:1049D000DF93EC01988591116CC0898581116AC0C3
:1049E0008A017B018A819B812C813D81281B390BA7
:1049F0002230310518F481E089875BC0E881F981B4
:104A0000E80FF91F60817181762767277627029664
:104A10009B838A83A7018E819F810E948F148823A4
:104A200051F3F70182810E94D622E82EF12C2A81CF
:104A30003B814C815D81421B530B4E155F05D8F2C3
:104A4000823069F08430C9F0813021F58881998104
:104A5000FC01E20FF31F8081F801808319C0888177
:104A60009981FC01E20FF31F8081918198278927AA
:104A70009827F801918380830BC088819981820FE8
:104A8000931F0E94CE22F8016083718382839383F7
:104A900091E001C090E02A813B81E20EF31EFB828F
:104AA000EA822C813D81E216F30621F481E08887B9
:104AB00001C090E0892FDF91CF911F910F91FF905E
:104AC000EF900895FC0157834683DB0117968D9183
:104AD0009C911897918380837383628315821482DB
:104AE000108608950F931F93CF93DF93EC01DB01A2
:104AF00012968D919C9113978C3EBFEF9B0718F0F7
:104B000081E0888746C02C813D8104964E815F817B
:104B1000421B530B4817590798F38B016881798121
:104B2000620F731FF801808191810E941F35EC8113
:104B3000FD81E80FF11DFD83EC8388819981E80FE9
:104B4000F91FD80112968C91129713969C91139786
:104B5000908381838C819D8102969D838C832881A3
:104B600039816D917C91119712964D915C911397BB
:104B7000820F931F0E94123A2C813D81F80182819D
:104B80009381820F931F9D838C83EA81FB819483A1
:104B90008383DF91CF911F910F9108950F931F93FE
:104BA000CF93DF93EC012C813D818E819F81821B0D
:104BB000930B049718F481E0888725C08B016881E6
:104BC0007981620F731FD8018D919C910E941F35CE
:104BD000EC81FD81E80FF11DFD83EC8388819981D3
:104BE000E80FF91FD80112968C91129713969C9199
:104BF000908381838C819D8102969D838C83EA8141
:104C0000FB8194838383DF91CF911F910F9108954E
:104C10000F931F93CF93DF93EC018E819F812C81A3
:104C20003D81821B930B039718F481E088872FC086
:104C30008B01DB0112968C918F3341F481E00E944D
:104C4000AB1D8F3011F0806301C08FEFE881F981D7
:104C50002C813D81E20FF31FD8019C9111962C917C
:104C6000208391832C813D812E5F3F4F3D832C8398
:104C700048815981FA01E20FF31F80838C819D8165
:104C800001969D838C83EA81FB8194838383DF91EA
:104C9000CF911F910F910895EF92FF920F931F9361
:104CA000CF93DF9300D01F92CDB7DEB78C017B018D
:104CB00029833A834B835C83DB0112968C910E949B
:104CC000D622F80124813581682F70E06E5F7F4F16
:104CD00046815781421B530B4617570718F481E052
:104CE000808734C09FEF980F923010F0843071F5B8
:104CF000D801ED91FC91E20FF31FD7019C91119621
:104D00002C9120839183F801448155814E5F5F4F40
:104D10005583448320813181420F531F682FCE0178
:104D200001960E942435D80114962D913C91159737
:104D3000F901E80FF11DCF011596FC93EE9314973E
:104D40001296ED91FC911397948383830F900F90AB
:104D50000F900F90DF91CF911F910F91FF90EF90E7
:104D600008950F931F93CF93DF93EC018B01DB0129
:104D700012968C910E94D6222C813D814E815F81BA
:104D8000421B530B4330510518F481E088871FC044
:104D9000E881F981E20FF31FD8019C9111962C91C3
:104DA000208391832C813D812E5F3F4F3D832C8357
:104DB00048815981FA01E20FF31F80838C819D8124
:104DC00001969D838C83EA81FB8194838383DF91A9
:104DD000CF911F910F910895CF93DF93FA0182E055
:104DE00090E094838383A781B085EB0188818C93C5
:104DF0000780F085E02D8981818380E0DF91CF916C
:104E0000089580E190E0FB0194838383A781B085BE
:104E1000E3EBF2E001900D928A95E1F780E00895CE
:104E2000CF93DF93FA01A781B085EB0188818C9342
:104E3000A781B085898111968C9382E090E094835C
:104E4000838380E0DF91CF910895CF93DF93FB01BF
:104E5000EA01AF81B8858081811102C090E001C074
:104E600090E88181811180E4892B9281911190E2F7
:104E7000892B9381911190E1892B8C9381E090E0B3
:104E8000FA019483838380E0DF91CF910895DB0161
:104E900012968D919C9113970497C1F41696ED91FB
:104EA000FC91179780819181982789279827DA01AB
:104EB00011969C938E9382819381982789279827B6
:104EC00013969C938E93129780E0089581E0089545
:104ED000DB0112968D919C911397019749F41696D8
:104EE000ED91FC9117978081FA01808380E008950D
:104EF00081E00895EF92FF920F931F93CF93DF937A
:104F0000FB01DA011796CD91DC9118978081888397
:104F10001796CD91DC911897818189831796CD9151
:104F2000DC9118971A828281882339F01796CD91E7
:104F3000DC9118978A8180688A838181882331F087
:104F4000813009F045C083E090E016C015968D9140
:104F50009C911697079710F483E03BC01796CD916C
:104F6000DC91189783819481258136813B832C8342
:104F70009D838E8387E090E02781213208F020E234
:104F8000022F10E0A8014F5F5F4F480F591F159681
:104F90006D917C91169764177507F0F2ED017C0115
:104FA0003FEFE31AF30A4F815885DA01A80FB91FC2
:104FB0002C938F81988560857185A8018E0D9F1D2A
:104FC0000E94123A0E0D1F1D1C830B8380E001C04E
:104FD00085E0DF91CF911F910F91FF90EF900895A1
:104FE000DA011796ED91FC911897DB018C911196DF
:104FF0009C919083818382E090E0FA019483838383
:1050000080E00895DA011796ED91FC911897DB0185
:105010008C91808381E090E0FA019483838380E027
:105020000895CF93DF93EA01FB018081813408F07A
:1050300080E4482F50E09A012D5E3F4F2132310528
:1050400028F0ED81FE81E217F30700F13C832B830A
:10505000EF81F88591E09083EF81F8851182AF812F
:10506000B88590E1E3EBF2E0129601900D929A95EB
:10507000E1F7EF81F885828B8F819885FB01618153
:10508000728143960E94123A80E001C083E0DF9172
:10509000CF910895CF93DF93FB01EA0186E090E082
:1050A0009C838B83AF81B8858081918122813381FC
:1050B0003C9311962C93119712969C9312971396EA
:1050C0008C93AF81B8858481958114969C931497B5
:1050D00015968C9380E0DF91CF910895CF93DF9365
:1050E000FB01DA0182E190E014969C938E93139772
:1050F0001796CD91DC91189780819181988389834F
:105100001796CD91DC911897828193819A838B8336
:105110001796CD91DC9118978481958126813781EE
:105120003C832D839E838F831796CD91DC911897B6
:105130008085918522853385388729879A878B8753
:105140001796CD91DC9118978485958526853785AE
:105150003C872D879E878F871796CD91DC91189776
:105160008089888B17960D90BC91A02D81895196CE
:105170008C9380E0DF91CF910895CF93DF93EB0183
:1051800088E090E0DA0114969C938E93139717961B
:105190000D90BC91A02D84E0FB0101900D928A95A9
:1051A000E1F7DA011796ED91FC9118978C819D81BA
:1051B0002E813F81348325839683878380E0DF912E
:1051C000CF910895FB01828193810497B1F4CA01C4
:1051D0000680F781E02D24E0DA0101900D922A95F6
:1051E000E1F744E050E0BC018FEA92E00E94053A0A
:1051F00021E0892B19F420E001C021E0822F0895DD
:105200000F931F93CF93DF93FB01828193810697C6
:10521000A1F4EA0106811781C8010E94CE226883A9
:1052200079838A839B83F8018481958198278927D4
:1052300098279D838C8380E001C081E0DF91CF912E
:105240001F910F910895DB0112968D919C911397F8
:10525000049761F41696ED91FC91179784E0DA01BA
:1052600001900D928A95E1F780E0089581E008951C
:10527000CF93DF93FB0182819381049759F4EA0174
:10528000868197810E94CE22688379838A839B835B
:1052900080E001C081E0DF91CF910895CF93DF934B
:1052A000FB01DA011796CD91DC91189780819181ED
:1052B00022813381388329839A838B831796CD91FA
:1052C000DC91189784818C831796CD91DC91189787
:1052D00085818D8386E090E014969C938E9313973E
:1052E00080E0DF91CF910895CF93DF93FB01DA0146
:1052F0001796CD91DC911897808188831796CD9170
:10530000DC911897818192812381348139832A83AA
:105310009B838C831796CD91DC911897858196811C
:10532000278130853D832E839F83888789E090E0A5
:1053300014969C938E93139780E0DF91CF910895FC
:10534000CF93DF93FB01DA011796CD91DC9118978B
:1053500080819181988389831796CD91DC911897EC
:10536000828193819A838B831796CD91DC911897D4
:1053700084819581268137813C832D839E838F8311
:105380001796CD91DC91189780859185228533857C
:10539000388729879A878B871796CD91DC91189744
:1053A00084859585268537853C872D879E878F87C1
:1053B00080E190E014969C938E93139780E0DF91A8
:1053C000CF910895AF92BF92CF92DF92EF92FF926A
:1053D0000F931F93CF93DF937B01EA016901D901FA
:1053E0001C92EF81F885DB0112968C9112978183D4
:1053F000EF81F8858C9111969C911197928383830C
:105400004D815E81445051096F8178856C5F7F4F7B
:1054100013968D919C9114970E9496329C012C5F5B
:105420003F4F3C832B83F701A580B680D5010D91BA
:105430001D912D913C91AC0160E070E08F819885C9
:1054400004960E94D41DF501608371838283938347
:10545000D7011396ED91FC9114978481882361F113
:105460008B819C812D813E81245031092817390779
:1054700018F1EF81F885AF01480F591FF701A58199
:10548000B6818C9111969C91119712962C9112973E
:1054900013963C91DA013C9311962C931197129636
:1054A0009C93129713968C938B819C8104969C837A
:1054B0008B8381E0F6018083EF81F885D6018C91A2
:1054C000808380E0DF91CF911F910F91FF90EF904B
:1054D000DF90CF90BF90AF900895AF92BF92CF92E0
:1054E000DF92EF92FF920F931F93CF93DF93FB0115
:1054F00082819381409708F451C17901FA01EB014F
:10550000AE81BF818C918083AE81BF8111968D91D8
:105510009C911297982789279827928381831396C5
:105520008D919C911497982789279827F90195AF19
:1055300084AF15968C9187AF0E811F81C8010696A6
:105540000E94CE22F70160AF71AF82AF93AFF80136
:105550008285F70187ABC8010B960E94CE22F70126
:1055600062AB73AB84AB95ABF8018785F70186AB73
:10557000843030F4B12C00E110E086E0A82E2AC07F
:1055800083E00DC18417950708F408C1EE81FF81FF
:10559000E00FF11F8081AB9CB00111246701C60EA2
:1055A000D71EF60185A38130D1F1F0F40B5F1F4FB8
:1055B0008A819B818017910708F4F0C08E819F81BA
:1055C000840F951F0E94CE22F60160A371A382A3CF
:1055D00093A3B394F70126A98A819B81A8014F5F09
:1055E0005F4FB21678F26DC08230C1F1833009F09E
:1055F000D5C00D5F1F4F8A819B818017910708F4EA
:10560000CDC08E819F81FC01E40FF51F80819181C7
:10561000982789279827F60191A380A3DACF2A81BA
:105620003B81C80104962817390708F4B7C00E5FFC
:105630001F4F8E819F81FC01E40FF51F8081F601D1
:1056400082A3605E7F4F6E0D7F1D8E819F81800FD4
:10565000911F0E941435080F111DBBCF2A813B8179
:10566000C80106962817390708F498C00E5F1F4F27
:105670008E819F81FC01E40FF51F8081F60182A3DA
:10568000605E7F4F6E0D7F1D8E819F81800F911F09
:105690000E9414359801280F311DC901EE81FF8148
:1056A000E20FF31F2081F60123A38C010E5F1F4F31
:1056B0002E813F81F901E80FF91F8181F60184A352
:1056C00088CF8417950708F469C08E819F81FC01FB
:1056D000E00FF11F8081F70186AF893008F050CFCD
:1056E000D12CF70186AD2A813B81D81608F050C035
:1056F0008A010F5F1F4F2017310708F44FC0EE815A
:10570000FF81E40FF51F80815701F4E0DF9EA00CBC
:10571000B11C1124F5018383813011F118F082301E
:10572000A1F13CC04C5F5F4F8A819B818417950734
:10573000A8F18E819F81B501800F911F0E941435C1
:105740009801280F311DC90189010F5F1F4F2E815C
:105750003F81F901E80FF91F8081F501828315C0AF
:105760004D5F5F4F8A819B8184179507B8F02E812A
:105770003F81F901E00FF11F20813181322723277A
:105780003227F501318320838A01D394A801A9CF60
:1057900081E02417350719F480E001C081E0DF9132
:1057A000CF911F910F91FF90EF90DF90CF90BF901E
:1057B000AF90089524E0FC0111922A95E9F7FC01CD
:1057C00014820895FC01E858FF4F10823F96108222
:1057D000349710821182128213823A9729E231E3C0
:1057E0003183208332961182108232961082739711
:1057F000118210823497108211821282138236969F
:10580000118210823B961082319710823697118256
:10581000108232971182108208950F931F93CF93B5
:10582000DF93EC01FC01EC59FF4F11821082349799
:105830007183608334973183208332961183008390
:1058400034961182108289019A01AC01805C9F4FCD
:105850000E94EE34FE01EE58FF4F11821082CE01FD
:105860000E94E22B80E0DF91CF911F910F9108956C
:105870007F928F929F92AF92BF92CF92DF92EF92E0
:10588000FF920F931F93CF93DF93EC015B016A01AB
:105890000E94E22B8E0109581F4F81E0D8018C93A2
:1058A0007E01B4E6EB0EF11CF701B182A082709686
:1058B000D182C0828EAD8150883010F0D8011C9208
:1058C0009EA9943010F0F8011082EFA9E93070F42D
:1058D00085E08E9FF0011124E75FFD4FDE01A758A0
:1058E000BF4F01900D928A95E1F702C0D8011C923A
:1058F000FE01E358FF4F8081981711F0F8011082E4
:105900008CAD9DAD892B11F4D8011C92F8018081DA
:10591000882309F4CCC0B12C36E0A32E77247394ED
:105920006E01F0E6CF0ED11C8EA9B81630F0D12C46
:105930005E0120E6A20EB11CB1C08B2C912CFE01A1
:10594000AB9CE00DF11D112485A1811113C080A134
:1059500091A1A2A1B3A127E1B695A79597958795A7
:105960002A95D1F799278F3F910509F06CC0D8018E
:105970001C9269C0833019F5D601ED91FC9185A187
:1059800096A1892B09F4B9C083A194A1892B09F4AC
:10599000B4C081A992A9892B09F4AFC0A89CD001F9
:1059A000A99CB00D1124AC0FBD1F90966D917C91F8
:1059B000919740E050E0CF010E948F1405C08130E4
:1059C00031F482A10E94AD1D81113DC0D0CF823043
:1059D00071F683A1883018F484A1893010F0F801A1
:1059E0001082A89CF001A99CF00D1124EC0FFD1F62
:1059F00082A10E94AD1D811102C0D8011C92A89CF9
:105A0000F001A99CF00D1124EC0FFD1F83A124A12E
:105A100030E0280F311D82A18F3F51F08F3351F0BC
:105A20008F70B72D01C0BB0F8A95EAF78B2F03C08B
:105A300080E001C081E0E8E08E9FC0011124821760
:105A400093070CF494CFB3946FCFF4E0DF9EC001C2
:105A50001124FE01E80FF91F2381213019F5D5012A
:105A6000ED91FC9125A136A1232B09F449C023A176
:105A700034A1232B09F444C021A932A9232B09F412
:105A80003FC0DE01A80FB91F6D917C9140E050E04E
:105A9000CF010E948F14882339F0D3948EADD8168D
:105AA000A0F205C02D7FC9F3F8011082F6CFD8010E
:105AB0008C918E0108581F4F8823D9F0F7018081FF
:105AC0009181FE01E25BFF4F91838083BD9601903F
:105AD000F081E02D309721F0CE0182589F4F19952B
