:020000040800F2
:1000000000000220A9FF0008511400085314000842
:100010005D1400085F14000861140008000000006F
:100020000000000000000000000000006314000851
:100030006514000800000000671400086914000837
:10004000F9FF0008F9FF0008F9FF0008F9FF0008B0
:10005000F9FF0008F9FF0008F9FF0008F9FF0008A0
:10006000F9FF0008F9FF0008F9FF0008F9FF000890
:10007000F9FF0008F9FF0008F9FF0008F9FF000880
:10008000F9FF0008F9FF0008F9FF00080000000070
:10009000000000000000000000000000F9FF000860
:1000A000F9FF0008F9FF0008F9FF0008F9FF000850
:1000B000F9FF000881030008F9FF0008F9FF0008B4
:1000C000F9FF0008F9FF0008F9FF0008F9FF000830
:1000D000F9FF0008F9FF0008F9FF00080000000020
:1000E000F9FF0008F9FF0008F9FF00080000000010
:1000F000000000000000000000000000F9FF000800
:1001000000000000F9FF0008F9FF0008F9FF0008EF
:1001100000000000000000000000000000000000DF
:10012000F9FF0008F9FF0008F9FF0008F9FF0008CF
:10013000F9FF0008000000000000000000000000BF
:100140000000000000000000000000006D14000826
:10015000F9FF0008F9FF0008F9FF0008F9FF00089F
:10016000F9FF0008F9FF000800000000000000008F
:10017000000000000000000000000000000000007F
:1001800000000000F9FF000800000000000000006F
:08019000F9FF0008F9FF000867
:100198000348044B834202D0034B03B1184770470E
:1001A800BC010020BC0100200000000005480649F1
:1001B8000B1AD90F01EBA301491002D0034B03B16D
:1001C80018477047BC010020BC0100200000000057
:1001D80010B5064C237843B9FFF7DAFF044B13B187
:1001E8000448AFF300800123237010BDBC01002038
:1001F80000000000E400010808B5044B1BB10449E5
:100208000448AFF30080BDE80840CFE700000000D5
:10021800C0010020E40001082D4B37B51C682046BA
:100228000FF0F8F921460BF019FF2A4C206010B99D
:10023800012003B030BD284B1D6828460FF0EAF9AD
:1002480029460BF01BFF60600028F1D0234B1D6886
:1002580028460FF0DFF9224A29460BF061FFA0601B
:100268000028E5D01F4B1D6828460FF0D3F91E4B18
:1002780042F2107229460BF03EFFE0600028D7D00A
:10028800A368C4E904304FF400730093606804F174
:1002980018034FF4807204F506710BF0FAFE134947
:1002A80060684FF480420BF006FF0222606804F198
:1002B80010010BF0FCFE0E4960680BF004FFD4E956
:1002C80000010BF0D7FE003818BF0120B1E700BFCE
:1002D80038010108D8010020340101082C01010867
:1002E800080201083001010812020108F404002084
:1002F8001702010870B51D4DD5F81843C5F8180345
:100308000A23041B5C43A86890B021460BF018FF31
:10031800174800F0FEFB064670B1402269461448B3
:1003280000F069FC00F0F0FA402E28BF402628684B
:10033800B2B269460BF0CEFE286821460BF09CFE4F
:1003480028680BF0D5FE78B1402828BF402082B23B
:100358000446694628680BF0C0FE064822466946EE
:1003680000F03EFB00F0A4FA10B070BDD8010020E8
:10037800D2610020D871002010B5084C01228021DC
:10038800204603F051FD064808F0E2FD2046002211
:10039800BDE81040802103F047BD00BF00080240BF
:1003A800F44400200268084B9A420CD14FF0804375
:1003B8005A6A064B996C9A64511A0A235943044B9A
:1003C80018680BF0ABBE704700040040F4440020EE
:1003D800E401002072B6FEE730B5044689B0142265
:1003E800002103A80FF0F2F92368B3F1A04F36D12A
:1003F8001C4C1D4800250195236B43F00103236322
:10040800236B03F001030193019B03A94FF40073CD
:10041800039303F0BFFB4FF4E0520223CDE903231B
:1004280003210A23CDE906130F48059503A903F014
:10043800B1FB636B43F0800363630295636C43F421
:1004480080436364636C03F48043029343202A4629
:100458002946029B04F046F8432004F075F809B0D9
:1004680030BD00BF003802400000024008B50368F4
:10047800B3F1A04F0ED1084A0848536B23F080030C
:1004880053634FF4F05103F04DFCBDE8084043209E
:1004980004F068B808BD00BF003802400000024000
:1004A80000F29C41D0F8E0040AF08BBF242303FB40
:1004B8000103D0F8E004D3F860220AF0B2BF242385
:1004C80003FB0103D0F8E0041A6A0AF0E4BFD0F88D
:1004D800E0040BF084B810B5C379022B044601D0B0
:1004E800FFF778FFD4F8E00401210BF05CF8D4F8AA
:1004F800E004BDE810400BF026B810B50446D0F86B
:10050800E0040BF053F82268D2F8003E43F00103F0
:10051800C2F8003EE37A23B1024A136943F00603A6
:10052800136110BD00ED00E0D0F8E0040BF04CB80A
:10053800D0F8E0040BF074B8D0F8E0040BF05CB825
:10054800D0F8E0040BF080B8D0F8E0040BF07EB8E7
:1005580008B5027803462ABB1348C0F8E034C3F84C
:10056800C8024FF0A0430360042303714FF40073E3
:10057800C3800223437201234281C381027301F0C5
:10058800BCF808B1FFF726FF8021074801F0A4FE58
:1005980040220021044801F07FFE03488022012107
:1005A80001F07AFE002008BDF045002011F0800F10
:1005B800D0F8C8324FF024021BBF01F07F0102FBC4
:1005C800013102FB0131887D08BF91F8560270475E
:1005D800D0F8C80201F046BA00487047D44A002053
:1005E800704704F073B903289ABF024B185C0320C4
:1005F800704700BFFC00010808B5D0F8C80201F038
:10060800EFF8BDE80840FFF7EEBF08B5D0F8C8021C
:1006180001F0FBF8BDE80840FFF7E5BF08B5D0F8E2
:10062800C80201F011F9BDE80840FFF7DCBF10B5BA
:100638001446D0F8C8021A46234601F08EF9BDE8E0
:100648001040FFF7D0BF08B5D0F8C80201F0BEF9D6
:10065800BDE80840FFF7C7BF08B5D0F8C80201F0E9
:10066800E6FDBDE80840FFF7BEBF08B5D0F8C802F0
:1006780001F01AFABDE80840FFF7B5BF08B5D0F891
:10068800C80201F048FABDE80840FFF7ACBF08B55A
:10069800D0F8C80201F04EF9BDE80840FFF7A3BF43
:1006A80008B5D0F8C80201F0E5F9BDE80840FFF741
:1006B8009ABF08B5D0F8C80201F0B6F9BDE80840FD
:1006C800FFF791BF08B50F490F4800220AF012FE44
:1006D80008B1FFF77FFE0D490B480AF038FE08B154
:1006E800FFF778FE0A4908480BF05EFC08B1FFF7EF
:1006F80071FE05480AF044FE18B1BDE80840FFF74E
:1007080069BE08BD34000020F44C00201C01002004
:100718005C000020122301480B8070470000002075
:10072800042301480B80704714000020002370B593
:100738004D1C1E46040FB0F1204F34BF30343734FF
:1007480001F8134005F813600133DCB2A2424FEA06
:100758000010EFD870BD1A2310B50B80094BD3F8E1
:10076800100AD3F8182A80180AD0D3F8144A064970
:100778000822FFF7DBFF042210312046FFF7D6FFDF
:10078800024810BD0070FF1F1A000020180000204A
:1007980010B5044C04480A4621460BF0C9F9204616
:1007A80010BD00BFD04F00202402010810B5044C32
:1007B80004480A4621460BF0BBF9204610BD00BF8D
:1007C800D04F00203702010810B5044C04480A46EF
:1007D80021460BF0ADF9204610BD00BFD04F0020D8
:1007E8004D02010810B5044C04480A4621460BF096
:1007F8009FF9204610BD00BFD04F002058020108C5
:100808000020704721280CD022281BD0202806D190
:10081800114B0A791A714A795A718A799A710020AA
:1008280070470D4B1A680A701A68120A4A705A887B
:100838008A70DA78CA701A790A715A794A719B797A
:100848008B71ECE74B88054A03F001011170C3F383
:10085800400311785370E2E750000020D051002087
:1008680008B5094800F092F8084800F0FDF8074874
:1008780000F003F9014606480BF0AFFB054B0122D7
:100888001A72002008BD00BFD8710020D261002074
:10089800F44C002050000020044BD3F8BC32D3F8AD
:1008A8001402003818BF0120704700BFF44C002024
:1008B8001FB50E4CD4F8BC32D3F814329BB90C488F
:1008C8000DF10E0100F0B0F8BDF80E305BB10190EB
:1008D80003F0DAFFBDF80E20019920460BF06FFBFC
:1008E80020460BF086FB04B010BD00BFF44C00207E
:1008F800D871002008B5034800F0ADF8FFF7D8FF1D
:10090800002008BDD871002038B50A4D2B7A0BB1EC
:10091800002038BD084800F0B0F801460028F7D09C
:10092800012406482C720BF058FB04480BF07CFBA2
:100938002046EEE750000020D2610020F44C002051
:10094800D0F8D422B03208B550F8223033B10023A1
:100958001A460121FFF7ADFE002008BD0320FCE781
:1009680008B50988064800F0BCF8064B00221A7240
:10097800FFF7CAFF10B90448FFF7E2FF002008BDDF
:10098800D261002050000020F44C002000F5805077
:10099800002343800380704700F580504388008817
:1009A8009BB280B2181A00F6FF704342C3F30B03E0
:1009B800C0F30B0058BF584280B2704700F5805012
:1009C800038840889BB282B203F58050801A434264
:1009D800C3F30B03C0F30B0058BF584280B27047F3
:1009E8002DE9F04100F58056054634883088A4B2D8
:1009F800C4F580549442884617460BD915FA80F0FE
:100A08000EF04AFE338817FA83F2C2F30B023280E3
:100A1800BDE8F081224615FA80F00EF03DFE3A1B43
:100A280008EB04012846EBE700F5805210B514885E
:100A38005388A4B29BB29C422BBF13885388548816
:100A4800C3F5805328BF1B1B9BB20B809380538830
:100A580010FA83F010BD00F5805042888388134453
:100A6800C3F30B034380704700F580500023438095
:100A780003804FF480538380704700F5805382B021
:100A88005A8892B2ADF806201988BDF8062089B2B6
:100A980092B291421A8892B21BD3B2F57C6F08D3F6
:100AA8001A8892B2B2F57C6F08D1BDF8062092B2CE
:100AB80022B11B8810FA83F002B07047BDF80620F7
:100AC80092B2402A0BD91A8892B29A8000221A80D0
:100AD800EFE7BDF80610403289B28A42E9D3002018
:100AE800EAE700F58050038811FA83F189B20180A2
:100AF8000288838892B29BB29A4224BF4FF48053F3
:100B0800838003889BB2B3F5805F24BF00230380F2
:100B1800704700F5805282B013889BB2ADF804305C
:100B280093889BB2ADF806305188BDF8043089B27D
:100B38009BB2994206D8BDF804005388C01A80B207
:100B480002B07047BDF80630BDF80400528880B284
:100B580010FA83F0801AF2E700F5805382B01A8801
:100B680092B2ADF804209A8892B2ADF8062059885E
:100B7800BDF8062089B292B2914204BF00225A8081
:100B88005988BDF8042089B292B2914210D05A888F
:100B980092B2511C89B259805988805CBDF80620F0
:100BA80089B292B2914201D300225A8002B07047B2
:100BB800FF20FBE700F5805382B01A8892B2ADF8A7
:100BC80004209A8892B2ADF806205988BDF806200C
:100BD80089B292B2914224BF00225A805988BDF846
:100BE800042089B292B291421BBF5B889BB2FF205E
:100BF800C05C02B0704773B5064606F580550846D6
:100C08002B889BB2ADF80430AB889BB2ADF80630A8
:100C18006988BDF8063089B29BB2994224BF002387
:100C28006B806988BDF8043089B29BB2994294BF41
:100C3800BDF80430BDF806306C8869881B1B9CB26F
:100C4800944228BF1446224616FA81F10EF024FD7C
:100C58006B8814FA83F39BB26B806A88BDF8063000
:100C680092B29BB29A4228BF0023204628BF6B80CD
:100C780002B070BDF7B500F58054089E2588ADB266
:100C8800ADF80450A588ADB2ADF806506788BDF838
:100C98000650BFB2ADB2AF4224BF00256580678859
:100CA800BDF80450BFB2ADB2AF4294BFBDF8045016
:100CB800BDF806506788ED1BADB26788AB4210FAE5
:100CC80087F728BF2B46002085B2AB4210D8338067
:100CD800628813FA82F39BB263806288BDF806309B
:100CE80092B29BB29A424FF0000028BF608014E095
:100CF80017F800C08C4512D163889BB201332B448E
:100D08009BB263806288BDF8063092B29BB29A4269
:100D180024BF002363800120358003B0F0BD02F8B2
:100D280000C00130D0E7704708B500F004FB33205D
:100D380008BD08B52421322000F047FB60F07F0091
:100D4800C2B2BDE808402421322000F03DBB10B5F6
:100D5800044600F0F0FAFFF7ECFFE2B2202132205F
:100D680000F032FB220A2321BDE81040322000F0B7
:100D78002BBB10B521210446322000F026FB00F0E1
:100D88000C0040EA04022121BDE81040322000F0A6
:100D98001BBB10B521210446322000F016FB00F0E1
:100DA800F70040EA04022121BDE81040322000F09B
:100DB8000BBB2DE9F04723210746322000F005FB45
:100DC80024218046322000F000FB2821322000F048
:100DD800FCFA292145B2322000F0F7FA2A214FFA0D
:100DE80080FA322000F0F1FA2B2144B2322000F0D0
:100DF800ECFA2C214FFA80F9322000F0E6FA2D2186
:100E080046B2322000F0E1FA18F0400F43B208F081
:100E180030021DBF0AEB052509EB042403EB062667
:100E280005EB0A2504BF04EB092406EB0326202A58
:100E38000DD0302A0DD0102A14BF012302235D43A0
:100E48005C4373433D607C60BB60BDE8F08704236E
:100E5800F5E70C23F3E710B521210446322000F012
:100E6800B4FA00F0FB0040EA04022121BDE810407A
:100E7800322000F0A9BA10B522210446322000F031
:100E8800A4FA2043C2B2BDE810402221322000F06B
:100E98009BBA10B522210446322000F096FA20EAC7
:100EA8000400C2B2BDE810402221322000F08CBA02
:100EB80010B525210446322000F087FA2043C2B23B
:100EC800BDE810402521322000F07EBA10B525215A
:100ED8000446322000F079FA20EA0400C2B2BDE8E4
:100EE80010402521322000F06FBA38B505460C466F
:100EF8003220302100F069FA2C430443E2B2302159
:100F0800BDE83840322000F05FBA38B505460C46D7
:100F18003220302100F059FA2C4320EA0404E2B2CE
:100F28003021BDE83840322000F04EBA38B50546C9
:100F38000C463220342100F048FA2C430443E2B234
:100F48003421BDE83840322000F03EBA38B50546B5
:100F58000C463220342100F038FA2C4320EA0404ED
:100F6800E2B23421BDE83840322000F02DBA10B585
:100F780038210446322000F028FA2043C2B2382132
:100F8800322000F021FA0A223A21322000F01CFA1D
:100F980005223B21322000F017FA05223C2132209D
:100FA80000F012FA3222BDE810403D21104600F050
:100FB8000BBA08B500F0E0F98020FFF75CFF0420C9
:100FC800FFF749FFBDE808401020FFF7D0BF10B574
:100FD80038210446322000F0F8F920EA0400C2B2B1
:100FE800BDE810403821322000F0EEB970B52D4D23
:100FF80088B0284606F03CFF044600284FD12A4B0B
:101008002B604323EB60294B294E0190C5E9013041
:101018004FF48043C5E90430C5E906002862336C03
:1010280043F400133364336C03F400130193019BFE
:101038000290336B43F002033363336B059403F080
:1010480002030293029B4FF4107012234FF0020C1C
:10105800CDE9030303A904231648CDE906C302F02A
:1010680099FD336A43F400133362336A23F400139F
:10107800336222460F211F2003F034FA1F2003F0A9
:1010880063FA22460F21202003F02CFA202003F0D7
:101098005BFA284608B0BDE8704003F09BBE08B074
:1010A80070BD00BFE081002000540040A086010010
:1010B80000380240000402407FB500238DF8173045
:1010C8000B4B1B6802930A4601230DF1170100918F
:1010D80001930146074804F0CBFE20B1054803F010
:1010E80022FFFFF783FF9DF8170007B05DF804FBA8
:1010F800A4000020E08100207FB50C4B8DF817205C
:101108001B6802930DF117020123009201930A460E
:101118000146074804F01CFE20B1054803F003FF10
:10112800FFF764FF07B05DF804FB00BFA4000020D0
:10113800E0810020004870470005000130B58BB001
:1011480008BB274B01901A6B42F008021A631B6B0D
:1011580003F008030193019B224C234B04EB80040A
:1011680033F81050606805950123CDE9063305A9C9
:101178000223089302F00EFD60680022294602F05F
:1011880053FE0BB030BD01280CD100230293144B41
:101198001A6B42F008021A631B6B03F008030293F0
:1011A800029BD9E702280CD1002303930C4B1A6B3E
:1011B80042F008021A631B6B03F008030393039BB6
:1011C800CAE70328C8D100230493054B1A6B42F0E1
:1011D80008021A631B6B03F008030493049BBBE724
:1011E80000380240A400002000010108044B054912
:1011F80003EB800331F810105868012202F014BE86
:10120800A400002000010108044B054903EB8003FA
:1012180031F810105868002202F006BEA400002021
:1012280000010108044B054A03EB800332F8101053
:10123800586802F0FEBD00BFA400002000010108AC
:1012480010B586B050B9194B00901A6B42F00102E4
:101258001A631B6B03F001030093009B71B9012310
:10126800CDE901310223CDE90333114B03EB8000B3
:1012780001A9406902F08EFC06B010BD0129FBD11E
:1012880000244FF48813CDE90234094B019103EB94
:10129800800001A9406902F07DFC22460F2106204A
:1012A80003F020F9062003F04FF9E5E70038024083
:1012B800A400002008B5044B03EB8000012140691D
:1012C80002F0ACFD08BD00BFA4000020F0B587B057
:1012D8000026154B00961A6B144C42F008021A634C
:1012E8001B6B03F008030093102501A92046009BFF
:1012F80001270223CDE90363CDE9015702F04AFC37
:10130800FFF774FE32462946204602F08DFD05207F
:1013180003F0DCFA3A462946204602F085FD05200E
:1013280003F0D4FA07B0F0BD00380240000C0240C8
:101338007047E1E6C0E67FB500230D4A0093116BC4
:101348000C4841F010011163126B039302F0100274
:101358000092009A0422CDE901230DEB0201022339
:10136800049302F017FCFFF741FE07B05DF804FB99
:10137800003802400010024010B586B00024104B1F
:1013880000941A6B0F4842F010021A631B6B03F0AB
:1013980010030093009B30224FF48813CDE90123FA
:1013A80001A90223CDE9034302F0F4FB22460F21F1
:1013B8000A2003F097F80A2003F0C6F806B010BD1B
:1013C800003802400010024096E675E638B5094C30
:1013D800A368984733280BD1074D23682C6041F642
:1013E800770098472B6890209B6A9847002038BD63
:1013F8000120FCE77000002034820020024B1B68AB
:10140800DB6803B11847704734820020024B1B6821
:101418005B6903B1184770473482002038B5084D1E
:101428002B681B6B04464BB19847064B2A689A42B7
:1014380001BFD4E900325B422260636038BD00BF5F
:101448003482002070000020FEE708B50020FFF776
:10145800E9FEFEE7FEE7FEE7FEE7704770477047E4
:1014680003F006BA014800F09BBB00BFF04500201E
:1014780082B00D4B002100915A6C42F480425A64AC
:101488005A6C02F480420092009A01911A6C42F060
:1014980080521A641B6C03F080530193019B072050
:1014A80002B003F00DB800BF0038024030B5044662
:1014B80089B01422002103A80EF088F92268144B81
:1014C8009A4222D1134C144800250195236B43F00E
:1014D80002032363236B03F002030193019B4FF480
:1014E80010721223CDE903230123059303A90423D2
:1014F800079302F04FFB0295236C43F40013236417
:10150800236C03F400130293029B09B030BD00BFA3
:1015180000540040003802400004024008B5026848
:10152800094B9A420FD1094A0948136C23F4001356
:101538001364402102F0F6FBBDE8084004484FF46C
:10154800007102F0EFBB08BD0054004000380240B3
:10155800000402400B4A116810B5034609B90A494C
:101568001160106809490A4C0344091B8B4206D9CB
:101578000EF026F80C2303604FF0FF3010BD136007
:10158800FCE700BF388200205882002000000220BB
:101598000004000070470120704708B50EF010F8ED
:1015A800162303604FF0FF3008BD08B50EF008F8A9
:1015B80016230360FEE770B50D4614460E46731BEE
:1015C8009C4201DC204670BDAFF3008006F8010B99
:1015D800F5E770B50D4614460E46731B9C4201DCB8
:1015E800204670BD16F8010BAFF30080F5E74FF009
:1015F800FF3070474FF400534B60002070470120C4
:101608007047002070470EB44FF0FF3003B07047AA
:1016180008B50DF0D5FF0A2303604FF0FF3008BD71
:1016280008B50DF0CDFF022303604FF0FF3008BD71
:101638004FF0FF3070474FF400534B600020704765
:1016480008B50DF0BDFF1F2303604FF0FF3008BD44
:1016580008B50DF0B5FF0B2303604FF0FF3008BD50
:1016680008B50DF0ADFF0C2303604FF0FF3008BD47
:10167800034AD2F8883043F47003C2F888307047C0
:1016880000ED00E0174A1849936803F00C03042B97
:101698000DD0082B0DD0154B0B60124B144A9B68CC
:1016A800C3F30313D25C0B68D3400B607047114B34
:1016B800F2E75368506813F4800F00F03F00536856
:1016C80014BF0C4A094AB2FBF0F0064A5268C2F34A
:1016D8000142C3F38813013243435200B3FBF2F3D0
:1016E800DAE700BF00380240C00000200024F40000
:1016F8000C01010800127A007047F7B5044610B3D0
:1017080090F89534056803F0FF021BB980F894241B
:10171800FEF762FE0323B5F1A04F84F8953404BFA9
:101728000023A371206800F0BFFE237C8DF80030F1
:10173800251D95E80E00206800F0FCFD014620B14B
:10174800022384F89534012546E0206800F0B2FEB3
:101758000028F5D1267904F1140301270246C1B205
:101768008E4203F1240317D8002104F515730A46A5
:10177800C8B2864203F124031CD8237C8DF80030BC
:1017880095E80E00206800F010FF01230546E8B137
:10179800022284F89524D6E723F80A0C43E90722A5
:1017A80003F8237C03F8241C03F8202C43F8142C9A
:1017B8000130D4E743E9072203F8232C03F8240C6B
:1017C80003F8202C43F8142C0131D1E76074206809
:1017D80084F8953401F0BCFA284603B0F0BD704790
:1017E80038B5044610B90125284638BD032380F8CA
:1017F8009534006801F06EFA05460028F3D12046BA
:10180800FEF734FE84F89554EEE710B504460068F8
:1018180094F89434012B15D0012384F89434C368C8
:101828005B0606D5637B012B02BF836B43F48033D1
:10183800836300F033FE206801F07CFA002084F80E
:10184800940410BD0220FCE738B590F89434012BBD
:1018580004461BD00568012380F89434284600F01C
:1018680023FE206801F074FA2068102100F052FE6F
:10187800EB685B0606D5637B012B02BFAB6B23F4D9
:101888008033AB63002084F8940438BD0220FCE761
:101898000368B3F1A04F044B0CBF4FF480224FF400
:1018A80080125A61704700BF003C01407047704782
:1018B8007047704770477047704770477047704768
:1018C800704710B50446006894F89434012B12D080
:1018D800012384F89434C3685B0606D5637B012B27
:1018E80002BF836B43F48033836301F023FA002043
:1018F80084F8940410BD0220FCE738B590F89434BD
:10190800012B044614D00568012380F89434284636
:1019180001F01EFAEB685B0606D5637B012B02BF5C
:10192800AB6B23F48033AB63002084F8940438BD98
:101938000220FCE710B590F89424012A04460AD046
:10194800012280F894244174006801F0E3F9002032
:1019580084F8940410BD0220FCE770B501F00F066E
:1019680006EBC60411F0800F05464FEA84044FF0D9
:10197800240020D000FB065004F11401012429445E
:101988004475C2F30A028A604A780E700B7102B17C
:101998004E83022B04BF00234B7195F89434012B1E
:1019A80012D00123286885F8943400F0C4FE002082
:1019B80085F8940470BD00FB065004F515710024E9
:1019C800294480F85542DCE70220F3E710B50446C5
:1019D80001F00F0000EBC00311F0800F4FEA830302
:1019E8004FF0240215D002FB004203F11401012339
:1019F80021445375087094F89434012B12D00123B4
:101A0800206884F8943400F013FF002084F89404CC
:101A180010BD02FB004203F515710023214482F832
:101A28005532E7E70220F3E738B501F00F05242423
:101A380004FB050104FB0504C4E998230023C4F84A
:101A4800683284F8553284F8545283790068012B3F
:101A580008BFC4F8702201F515711A4600F0D6FFC8
:101A6800002038BD01F00F01242303FB0100D0F84A
:101A78006802704738B501F00F05242404FB0501FE
:101A880004FB0504C4E908230023A362012363754A
:101A9800257583790068012B08BF226314311A4623
:101AA80000F0B4FF002038BD38B5037901F00F0508
:101AB800AB4204462BD311F0800F4FF024001DD009
:101AC80000FB054200FB0541012314315375012336
:101AD8008B700D7094F894249A421AD0206884F878
:101AE800943401F0A3F82DB9A179206804F29C423E
:101AF80001F08BF9002084F8940438BD00FB014301
:101B08001A4603F51571002382F85532DFE70120E4
:101B1800F3E70220F1E738B5037901F00F029342A9
:101B2800044629D302EBC20311F0800F4FEA830366
:101B38004FF0240017D000FB024003F114010123E9
:101B48002144437500258D700A7094F89434012B54
:101B580014D00123206884F8943401F092F884F8B2
:101B68009454284638BD00FB024003F51571002344
:101B7800214480F85532E5E70120F3E70220F1E738
:101B880001F00F0303EBC3030A064FEA83034CBFBC
:101B980003F1140103F515710144006800F0E1BE7A
:101BA8002DE9F04F066889B00446304601F019F96E
:101BB8000390002840F05481206801F0D7F80028ED
:101BC80000F04E81D6F808382068C3F30D23C4F816
:101BD800D43401F0CBF8870748BF2268206842BF99
:101BE800536903F00203536101F0C0F8C00606F51B
:101BF80000652CD52268936923F010039361D6F809
:101C08002080C8F34343022B08F00F0740F02B81D4
:101C180047F6F07318EA030F14D0242303FB074791
:101C2800C8F30A19D7F860124A46304600F0DEFFBA
:101C3800D7F860324B44C7F86032D7F868324B4463
:101C4800C7F868322268936943F0100393612068EB
:101C580001F08CF8010300F11881206801F086F882
:101C680042030CD5206801F095F82746049006F544
:101C7800106A4FF00009049B002B40F0D2812068C5
:101C880001F074F8002813DA6B6823F001036B6025
:101C980094F8CC34012B40F06B82002184F8CC14EA
:101CA800204600F01DFB2268536903F0004353618E
:101CB800206801F05BF807050AD5AB68D80702D59C
:101CC8002046FEF71AFC2268536903F40063536147
:101CD800206801F04BF8C10433D56B68206823F005
:101CE80001036B60102100F015FC207906F51063E4
:101CF8004FF67F31039A904200F23E82EB6943F03F
:101D08000113EB61E37B002B00F05282D5F884309D
:101D180043F00B03C5F884306B6C43F00B036B6422
:101D2800D6F80038206823F4FE63C6F8003804F2B9
:101D38009C42A17901F069F82268536903F4805341
:101D48005361206801F012F8820416D5206801F06A
:101D58004CF8206800F0E4FCE071276801F07EFE92
:101D6800E2790146384600F029FB2046FEF7B3FB2E
:101D78002268536903F400535361206800F0F6FFAA
:101D8800030707D52046FEF7A2FB2268536903F034
:101D980008035361206800F0E9FF070600F1138289
:101DA800206800F0E3FFC0020CD5A04606F51269D2
:101DB80001272379BB4200F21F822268536903F48A
:101DC80080135361206800F0D1FF81022BD594F86D
:101DD80004E0234606F532614FF0010CE6451DD9B3
:101DE80093F87C720868012F40F01C82002880F26A
:101DF8001982D4F8D42482EA1040C20700F1128272
:101E080083F87B72B06940F08000B06170690006A9
:101E180000F108826B6843F400736B6022685369B1
:101E280003F400135361206800F0A0FF410007D5B8
:101E38002046FEF785FB2268536903F0804353610F
:101E4800206800F093FF42070AD523685D686B0796
:101E580002D52046FEF778FB226853682B4353606F
:101E680009B0BDE8F08F062B7FF4ECAE082204F22F
:101E78009C41304600F0BAFE242303FB0747C8F311
:101E88000A18D7F868324344DAE6206800F07AFF87
:101E980006F530680490A2460027049B002B3FF407
:101EA800DCAE049BDB0779D55FFA87FB20685946CF
:101EB80000F078FF10F0010F81461FD0D4F800E041
:101EC8000123C8F8083094F806C0DEF840100EF573
:101ED800306303EB4713BCF1010F9A6840F08C8024
:101EE800100707D5B048814208D9120406D54FF427
:101EF800004202E090065AD520229A6019F0080F95
:101F080021D00823C8F808302368A7481A6C03F5BD
:101F1800306303EB47138242996804D9090444BF2C
:101F28004FF40041996020460592FEF7B9FA9E4B9E
:101F3800059A9A4207D9A179012904D1206804F2A7
:101F48009C4200F062FF19F0100F1CBF1023C8F864
:101F5800083019F0020F14D073691A0642BF6B6873
:101F680043F480636B609AF85732012B06D1002343
:101F78008AF8573259462046FEF7DAFA0223C8F89B
:101F8800083019F0200F1CBF2023C8F8083019F4B6
:101F9800005F1CBF4FF40053C8F80830049B5B086F
:101FA8000137049308F120080AF1240A75E712F0B2
:101FB800280FA3D17C48814201D9100497D41A690B
:101FC800DAF87432C2F312029B1ACAF8683277B987
:101FD800D4F8642232B904F29C420121704600F020
:101FE80014FF04E0D4F860221344C4F86032594660
:101FF8002046FEF75BFA81E76C48814207D111045D
:102008003FF575AF9006F2D520229A60EFE7002FD2
:10201800EDD1D4F86432002BE9D104F29C42394660
:10202800DCE7049BDB0740F19A805FFA89FB2068B4
:10203800594600F0C0FE10F0010F804620D0012163
:102048006B6B09F00F0201FA02F223EA02036B63D9
:10205800CAF808100B46A17999420DD1D7E9072390
:1020680013443B62B9F1000F06D1636A23B92068B3
:1020780004F29C4200F0C9FE59462046FEF71FFABA
:1020880018F0080F1CBF0823CAF8083018F0100F02
:102098001CBF1023CAF8083018F0400F1CBF40239B
:1020A800CAF8083018F0020F10D04946304600F040
:1020B80031FAFB7D012B06D14FF00003FB75594621
:1020C8002046FEF739FA0223CAF8083018F0800FC4
:1020D80045D0D7E909329A4241D89B1AFA69216852
:1020E8000591934228BF134603339B08069301F5D5
:1020F800106303EB49130793079B0698996989B204
:102108008142D7E9093228D393420CD8059B09F0BC
:102118000F01D3F83428012000FA01F122EA010264
:10212800C3F834281BE0A3EB0208FB69059898451F
:1021380028BF984608F103039B080693A3790093E8
:10214800396A1FFA88F35A4600F04DFC3B6A43444B
:102158003B62BB6A4344BB62CEE79342D6D9049B39
:102168005B0809F10109049324370AF1200A82E582
:102178002046FEF7D9F996E599601A6822F400120C
:102188001A60C3F80812D3F8002222F40012C3F828
:102198000022D3F8002242F00062C3F80022039A1A
:1021A800013203922033A5E50A30544F0A31544FC7
:1021B8006B6943F4005343F02B036B612B6943F0C5
:1021C8000B032B61ACE5B36923F08003B3610127EE
:1021D80004F257284FF024092379BB427FF6E0AD7B
:1021E80009FB07F318F80330012B03D1F9B2204695
:1021F800FFF7C6FC0137EFE798F83C30D9F8002024
:10220800012B09D1002A07DA67F07F0188F83B30F3
:10221800C9B22046FFF7B4FC013708F1240809F1D8
:102228002009C6E50CF1010C24332031D6E510B5A0
:1022380090F89434012B044610D0012380F894348C
:102248000B06006807D501F00F0100F063F90020C4
:1022580084F8940410BD00F080F9F8E70220F9E74B
:10226800006801F013B9006801F01CB990F89504F2
:1022780070474B1E042B0CD80368D3F8042822F0AF
:102288007002C3F80428D3F8042842EA0111C3F8FD
:1022980004180020704700BF006870B51204446A33
:1022A80019B922438262002070BD836A4D1E04EB77
:1022B800134400235E1CDBB29D4205D83F3100EB7E
:1022C800810022434260EEE7403300EB83035B6802
:1022D80004EB13443346EDE7036800205962704766
:1022E8007047704782B000230193019B013301932B
:1022F800019BB3F1706F1BD80369002BF5DA0A2331
:102308000193019B8BB9036943F001030361019BAE
:1023180001330193019BB3F1706F09D8036913F07E
:102328000103F4D1184602B07047019B013BE7E76F
:102338000320F8E784B038B505AD85E80E009DF8B0
:102348001930012B044627D1836B23F48033836330
:10235800C36823F4840323F04003C360C36823F4F1
:102368004013C3609DF82030012B02BFC36843F4BB
:102378008013C360FFF7B6FF9DF81630012B07D115
:10238800A36843F00603A360A36843F02003A36097
:10239800BDE8384004B07047C36843F04003C360E9
:1023A800FFF7A0FF9DF81D3023B9A36B43F48033DA
:1023B800A363E1E7A36B23F48033F9E7022A4AD148
:1023C800274B284A0B44934239D9274B274A0B44B9
:1023D800934236D9264AA1F57403A3F510539342C4
:1023E80031D9244AA1F18373A3F5E74393422CD34F
:1023F800214B224A0B44934229D9214B214A0B44B1
:10240800934226D3204B214A0B44934223D3204A9C
:10241800A1F1B773A3F5585393421ED31D4B1E4A1F
:102428000B44934234BF07230623C26822F4705238
:10243800C260C26842EA8323C360002070470F234A
:10244800F3E70E23F1E70D23EFE70C23EDE70B236A
:10245800EBE70A23E9E70923E7E70823E5E700BFF5
:10246800405327FFFF340C00401E1BFF3F420F0064
:102478007F4F120020D6130060B6E5FE5FE316001A
:1024880000D3CEFE40771B00C05BB3FEC091210095
:1024980020753800E05459FEE09C4100836843F001
:1024A8000103836000207047836823F00103836081
:1024B8000020704738B5C368012923F0C04305469A
:1024C800C36010D1C36843F00053C36000240A20DE
:1024D80002F0FCF96B69D90704F10A0415D4C82C79
:1024E800F5D1012038BD0029FBD1C36843F08043F2
:1024F800C3600C460A2002F0E9F96B69DA0704F1B7
:102508000A0402D5C82CF5D1EBE7A4F1C803584258
:102518005841E7E782B000230193019B01330193FF
:10252800019BB3F1706F16D80369002BF5DA8901A6
:10253800002341F0200101930161019B01330193C4
:10254800019BB3F1706F06D8036913F02003F4D12F
:10255800184602B070470320FBE782B000230193BE
:10256800019B01330193019BB3F1706F14D8036988
:10257800002BF5DA0023019310230361019B01333B
:102588000193019BB3F1706F06D8036913F0100330
:10259800F4D1184602B070470320FBE7D0F80038A2
:1025A8001943C0F800180020704784B02DE9F8439B
:1025B800044609A880E80E0000239DF824609DF8D1
:1025C8002E50194603F1400204EB820201330F2B0F
:1025D8005160F7D104F50067002D6CD17B6843F09A
:1025E80002037B60A36B43F40013A363A36B23F480
:1025F8000023A363A36B23F48023A3630023C4F8FD
:10260800003E9DF82930012B5FD19DF82710002945
:1026180059D12046FFF7C2FF10212046FFF77AFF65
:1026280002462046FFF799FF1043C0B20023003846
:102638003B6118BF01207B6104F51062FB611946FC
:102648004FF0904C4FF0006E4FF67F389E423ED8C8
:10265800002204F5306311464FF0904C4FF0006EA5
:102668004FF67F38964245D83B6923F480733B6127
:102678000023A3616FF0804363619DF826301BB986
:10268800A36943F01003A361A269244B1343A36118
:102698009DF82A301BB1A36943F00803A361012DFB
:1026A80001BFA36943F0804343F00403A361BDE87D
:1026B800F84304B07047A36B23F40013A363A36B20
:1026C80043F4002399E71946A3E70321A1E7D2F8C9
:1026D8000090B9F1000F0BDA3BB9C2F800E01161C4
:1026E8000133C2F808802032B0E7C2F800C0F6E72C
:1026F8001160F4E7D3F80090B9F1000F0BDA3AB99A
:10270800C3F800E019610132C3F808802033A9E753
:10271800C3F800C0F6E71960F4E700BF00383C8052
:10272800D0F8083813F0060004D013F0020F14BFD5
:1027380002200F20704730B50D78012405F00F03F3
:102748009C404B7800F50062012B00EB4510D369E3
:1027580018D11C43D461D0F800391A0410D48A68FF
:10276800D0F80049C2F30A030A79234343EA8243B3
:1027780043EA855343F0805343F40043C0F80039DB
:10278800002030BD43EA0444D461D0F8003B1B0468
:10279800F6D48B68D0F8002BC3F30A0313430A79E5
:1027A80043EA824343F0805343F40043C0F8003BBC
:1027B800E6E74B78F0B50E78012B00EB461406F0EF
:1027C8000F0500F500601CD1D4F800391A0410D4A4
:1027D8008A68D4F80079C2F30A030A793B4343EACA
:1027E800824343EA865343F0805343F40043C4F8DA
:1027F8000039C26B012303FA05F51543C5630020B0
:10280800F0BDD4F8003B1B040ED48A68D4F8003B12
:10281800C2F30A0213430A7943EA824343EA86531E
:1028280043F40043C4F8003BC26B4FF48033E2E743
:1028380010B50A784978012900EB421300F50060C9
:1028480002F00F0222D1D3F8001900290BDAD3F8CD
:10285800001941F00061C3F80019D3F8001941F0DC
:102868008041C3F80019C46B012101FA02F224EA7D
:102878000204C463C16921EA0202C261D3F80019E3
:10288800144A0A40C3F80029002010BDD3F8001BE1
:1028980000290BDAD3F8001B41F00061C3F8001BD4
:1028A800D3F8001B41F08041C3F8001BC46B4FF400
:1028B800803101FA02F224EA0204C463C16921EA00
:1028C8000202C261D3F8001B034A0A40C3F8002B76
:1028D800DAE700BF007833EC0078F3EF0A7849783C
:1028E800012900EB421300F5006002F00F021ED12F
:1028F800D3F8001900290BDAD3F8001941F0006168
:10290800C3F80019D3F8001941F08041C3F8001941
:10291800D3F8001921F40041C3F80019C369012153
:1029280001FA02F223EA0202C26100207047D3F8DA
:10293800001B00290BDAD3F8001B41F00061C3F833
:10294800001BD3F8001B41F08041C3F8001BD3F8EB
:10295800001B21F40041C3F8001BC3694FF4803108
:10296800DEE782B000234A7801930B78012A4FEA08
:1029780043131ED100F51060C118C258002A02DBAB
:10298800002002B07047C25842F00062C250C258DC
:1029980042F08042C25042F21072019B013301930F
:1029A800019B934201D90120EBE70B68002BF4DB74
:1029B800E6E700F53060C118C258002AE0DAC258CC
:1029C80042F00062C250C25842F08042C25042F205
:1029D8001072019B01330193019B9342E3D80B686A
:1029E800002BF6DBCCE710B59DF8084044B903335B
:1029F80001329B0800EB023001EB83038B4201D1CB
:102A0800002010BD51F8042B0260F7E72DE9F341CF
:102A18004B7891F800C00C690E79DFF8C8E1DFF84F
:102A2800C881012B00EB4C1540F08A8005F5106732
:102A38003B6944BB03EA0E033B613B6943F4002353
:102A48003B613B6903EA0803012A3B614ED1CB692C
:102A580003B17B61012E0CD1D0F8083813F4807FC4
:102A6800D5F800390CBF43F0005343F08053C5F844
:102A78000039D5F8003943F00443C5F8003900207F
:102A880002B0BDE8F08103EA08033B613B6903EA51
:102A98000E033B618B68BCF1000F0CD19C4288BFD0
:102AA8000B613B6943F400233B610B693C69C3F349
:102AB80012032343C8E71C44013CB4FBF3F4484B1E
:102AC800D7F810E01FFA84F803EAC44444EA0E0475
:102AD800012E3C61E9D13B6923F0C0433B613C696D
:102AE8004FEA487303F0C0432343DDE7D5F80039C4
:102AF800012E43F00443C5F800390B690CD0002BB4
:102B0800BDD0D0F834380CF00F0C012202FA0CF2C8
:102B18001A43C0F83428B2E7D0F8084814F4807F84
:102B2800D5F800490CBF44F0005444F08054C5F86F
:102B380000490092C9689BB26246FFF754FF9EE7BE
:102B4800D5F8103B03EA0803C5F8103BD5F8103B4D
:102B580003EA0E0305F530673B618B68BCF1000F93
:102B680026D104B10B610B623C69C3F31203234302
:102B78003B613B6943F40023012A3B6102D1CB68E6
:102B880003B17B61012E0CD1D0F8083813F4807F93
:102B9800D5F8003B0CBF43F0005343F08053C5F811
:102BA800003BD5F8003B43F00443C5F8003B66E71B
:102BB800002CD9D01C44DFF828C0D7F810E0013C1D
:102BC800B4FBF3F4A4B263430CEAC44444EA0E042D
:102BD8000B623C613C69C3F312032343CCE700BF9B
:102BE8000000F81FFFFF07E00000F8FF034670B57C
:102BF8009008002402F0030203F58055844210D3A4
:102C080001EB800062B103F580531C680023D900F2
:102C180024FA01F1C154013399B28A42F7D1104420
:102C280070BD2E6841F824600134E7E74A780B78D4
:102C3800012A00EB431012D1D0F80029002A06DB44
:102C48002BB1D0F8003923F08043C0F80039D0F810
:102C5800003943F40013C0F8003900207047D0F859
:102C6800002B002A06DB2BB1D0F8003B23F0804371
:102C7800C0F8003BD0F8003B43F40013C0F8003B19
:102C8800EBE70B784A7800EB43100B79012AA3F1A4
:102C98000203DBB20FD1D0F80029012B22F4001275
:102CA800C0F8002905D8D0F8003943F08053C0F89F
:102CB800003900207047D0F8002B22F40012012BB5
:102CC800C0F8002B9EBFD0F8003B43F08053C0F8FB
:102CD800003BEEE710B5024600F510634FF67F3172
:102CE80000F52E609960C3F8081220338342F9D1A9
:102CF8000021C2F810181046C2F81418C2F81C189F
:102D0800FFF72BFC28B9BDE8104010211046FFF74B
:102D180001BC10BDD0F8003823F4FE63C0F80038B9
:102D2800D0F80038090101F4FE611943C0F8001811
:102D380000207047D0F8003E23F00303C0F8003E9F
:102D4800D0F8043823F00203C0F804380020704794
:102D5800D0F8003E23F00303C0F8003ED0F8043852
:102D680043F00203C0F804380020704742698069C4
:102D78001040704700EB4111D1F80805D1F80C3527
:102D880018407047D0F8183800F50060C06918403E
:102D9800000C7047D0F8183800F50060C06918407A
:102DA80080B2704700EB411100F50060D1F8082BA4
:102DB80040691040704710B5D0F81048D0F8343842
:102DC80000EB411001F00F01CB4000F51060DB0172
:102DD8008068DBB22343184010BD43691940416144
:102DE8007047406900F001007047D0F8003923F4BB
:102DF800FF6323F00703C0F80039D0F8043843F420
:102E08008073C0F804380020704730B5056C114C49
:102E1800A54200F5306303D9D0F8004B002C16DB2F
:102E280000241C611C6944F400241C611C6944F0E2
:102E380018041C611C69012944F0C0441C6101BFCD
:102E48005A61D0F8003B43F08023C0F8003B0020D3
:102E580030BD00BF0A30544F84B070B5044605A891
:102E680080E80E000023C4F8003EA36B43F400136F
:102E7800A363A36B23F40023A363A36B23F480232E
:102E8800A363E3685B063AD49DF81730012BD4F8A6
:102E9800003436D143F00403C4F80034102120462E
:102EA800FFF738FB02462046FFF757FB1043C0B236
:102EB80000384FF000039DF8156018BF012004F595
:102EC800A0621D464FF0FF319E421DD88023A561A8
:102ED8006161636203F5C003A3620E4BC4F800315D
:102EE8009DF816301BB9A36943F01003A361A269CA
:102EF800094B1343A361BDE8704004B07047D4F890
:102F0800003423F00403C7E791600133D560203211
:102F1800DAE700BFE0004000080020A3D0F8003442
:102F280023F0030310B5C0F80034D0F8004401F0D2
:102F380003032343012900F58062C0F8003404D15B
:102F48004BF680335360002010BD022902D141F2B4
:102F58007073F7E70120F7E737B500250195D0F83A
:102F680040340193019B23F02E030193019B43F40A
:102F780080730446C0F84034642001F0A7FC019B2C
:102F880023F48073C4F840340A2001F09FFC2846DB
:102F980003B030BD82B000230193D0F840340193D0
:102FA800019B23F02E030193019BDA0406D4012927
:102FB80002BF019B43F48053C0F84034019BDB04FB
:102FC80005D521B9019B23F48053C0F84034002073
:102FD80002B0704782B000230193D0F840340193C7
:102FE8000198C0F3414002B0704700F580608068E6
:102FF80080B270472DE9F84300EB411707F5A06C44
:103008009DF824501C464FF0FF33CCF808304FFA97
:1030180082FE032D6BD8DFE805F0025E025B40F20A
:103028009D43BEF1000FCCF80C3005DADCF80C300B
:1030380043F48073CCF80C3000264FF00008CCF82D
:103048000480DCF80C3043F00203CCF80C30D0F8E4
:10305800189401F00F030121994041EA0901C0F8D1
:103068001814836943F00073C6458361B4BF4FF4F5
:1030780000414146FFF7AEFF9DF82030022B03D1F7
:10308800022818BF4FF40038A305BDF82840C4F340
:103098000A0444EA080403F0FE53D202234302F46C
:1030A800F0421343AA0402F4402213430B4343F4AF
:1030B800801305F0FD05C7F80035012D02BFD7F8CC
:1030C800003543F00053C7F800353046BDE8F883B3
:1030D80040F29D63A5E740F22523BEF1000FCCF82E
:1030E8000C30A9DADCF80C3043F4C073A2E70126EF
:1030F800A3E72DE9F0438E7991F80190CD78012E60
:1031080085B0944640F09E8015B18B8ACB6112E061
:103118008C7C0B6A012C40F08C80CC68BC2B04F1B1
:10312800FF347FD98B8A012CC1E9073302D80223E7
:10313800CB6000E0CE60012491F816E0CA694FEA3E
:103148004E7E00EB49170EF0C04EC2F3120807F589
:10315800A0634EEA080E4EEAC4441C61BCF1000F9D
:1031680001D08C695C61D0F80844D7F8008528F054
:103178000058C7F80085E443D7F80085640704F0D1
:10318800005444EA0804012E00F5806EC7F8004593
:103198007CD14E7C0C7C44EAC61444F000445C604C
:1031A800DC6844F06004DC60CC79012C08D13DB9BE
:1031B8005E6846F480365E60DE6846F04006DE6093
:1031C8008E7C012E00F08980032E07D1012C05D1B9
:1031D800012D03D15C6844F480345C60D7F8003575
:1031E8000393039B23F080430393039B002D4FD04D
:1031F80043F400430393039B43F000430393039B6F
:10320800C7F800355CEA050357D10B6A002B54D088
:10321800CC79002C51D18C7C032C47D8DFE804F002
:103228003B513B51012CCB6101D9042380E7032397
:103238007EE7012A7FF46AAF8C8A9C42BFF466AFAE
:10324800CC6178E70B6A7BB18F8A5C1E3C44B4FB87
:10325800F7F4A4B2B4F5807F28BF4FF480740DB1A1
:103268008B8A6343CB6167E70124F8E75C6844F421
:103278000044B2E75C6844F00E04AEE75C6844F4CE
:103288008044AAE75C6844F44044A6E70024A4E725
:1032980023F40043AEE7C56ADC1CADB2C4F38F0467
:1032A800A54203D2846944F0200484610024009478
:1032B80089699BB24A46FFF796FB002005B0BDE836
:1032C800F083DEF81050DC1CADB2C4F38F04A542C5
:1032D800ECD2846944F08064E7E7012C02D1012D27
:1032E8003FF478AF002D7FF479AFCC68013C032C14
:1032F8003FF674AF01A252F824F000BF75320008FF
:103308007D320008853200088D32000800F58060A3
:10331800406980B2704773B500EB4111002301F595
:10332800A0620193D1F80035D1F800455568866848
:10333800B6064FEA934308D5002D06DB002C01DAC8
:10334800DD0704D5002002B070BDDC072AD4D1F80F
:10335800003543F08043C1F8003583689B061AD4D2
:10336800C36A13F47F0FD1F8003516D123F0004358
:10337800C1F80035D1F8003543F00043C1F80035F5
:10338800019B01330193019BB3F57A7FDAD8136867
:10339800002BF5DBD6E7D1F8003543F00043C1F840
:1033A8000035CFE7D1F8003543F08043C1F8003548
:1033B800D0F8103413F47F0FD1F80035EDD123F095
:1033C8000043C1F80035D1F8003543F00043C1F897
:1033D8000035019B01330193019BB3F57A7FB1D886
:1033E8001368002BF5DBADE700EB4111064AC1F885
:1033F8001025D1F8003523F0804343F00043C1F88D
:1034080000350020704700BF0000088037B5002352
:103418000193836823F00103836010210246FFF7BC
:1034280079F801461046FFF798F80843C0B200380B
:1034380002F5A06318BF012002F5E0651C4621686B
:1034480021F0802141F0804144F8201BAC42F6D1A4
:10345800196821F4004141F0404119600199013196
:1034680001910199B1F57A7F02D819680029F5DB35
:103478002033AB42ECD14FF0FF33C2F81434536120
:10348800936843F00103936003B030BDD0F8083867
:1034980000F50060DB0742BF436843F00103436067
:1034A80000207047D0F8043823F00103C0F804382E
:1034B80000207047002070472DE9F341044640B3CF
:1034C8000368DD0710D4236898075ED423681A07B9
:1034D80000F1A08023685B0700F1C080A069002884
:1034E80040F0288100202BE08F4B9A6802F00C02F4
:1034F800042A07D09A6802F00C02082A0BD15A68ED
:10350800510208D5884B1B689A03DCD56368002BE9
:10351800D9D1012014E06268B2F5803F13D11A684E
:1035280042F480321A6001F0AFF97F4E05463368E5
:103538009B03C8D401F0A8F9401B6428F7D90320DD
:1035480002B0BDE8F081784DB2F5A02F2B6807D105
:1035580043F480232B602B6843F480332B60E2E72D
:1035680023F480332B602B6823F480232B60002AFC
:10357800D9D101F089F906462B689F03A3D501F03C
:1035880083F9801B6428F7D9D9E7674B9A6812F04A
:103598000C0F07D09A6802F00C02082A11D15B6858
:1035A8005E020ED4604A13689D0702D5E368012BBA
:1035B800AFD11368216923F0F80343EAC10313600C
:1035C80084E7E268594BB2B101221A6001F05CF954
:1035D800554D06462B68980707D52B68226923F0B6
:1035E800F80343EAC2032B6070E701F04DF9801B32
:1035F8000228EFD9A3E71A6001F046F94A4E0546BA
:10360800336899077FF562AF01F03EF9401B022845
:10361800F6D994E76269454B82B10122C3F8802E3E
:1036280001F032F9404E0546736F9F073FF552AFE0
:1036380001F02AF9401B0228F6D980E7C3F8802E4A
:1036480001F022F9384E0546736F98077FF542AFAF
:1036580001F01AF9401B0228F6D970E7324B1A6CB0
:1036680012F0805228D101921A6C42F080521A64EA
:103678001B6C03F080530193019B01272C4D2B6891
:10368800D9051BD5A368284D012B27D12B6F43F0F3
:1036980001032B6701F0F8F8234E054641F28838FC
:1036A800336F9B0739D5002F3FF418AF1E4A136CB0
:1036B80023F08053136411E70027DFE72B6843F4F6
:1036C80080732B6001F0E0F806462B68DA05D9D440
:1036D80001F0DAF8801B0228F7D930E7052B04D16E
:1036E8002B6F43F004032B67D0E72A6F22F0010207
:1036F8002A672A6F22F004022A67002BCAD101F038
:10370800C3F841F2883806462B6F9807CBD501F0ED
:10371800BBF8801B4045F7D911E701F0B5F8401B0D
:103728004045BDD90BE700BF0038024000004742C2
:1037380000700040364DAB6803F00C03082B3DD0F9
:10374800344B002202281A662BD101F09DF8064658
:103758002B6899011FD4D4E907321343626A43EAFC
:103768008213E26A43EA0263A26A5208013A43EA10
:1037780002436B60274B264D01221A6601F084F83C
:1037880004462B689A013FF5ADAE01F07DF8001BA9
:103798000228F6D9D3E601F077F8801B0228D7D99A
:1037A800CDE601F071F804462B689B017FF59AAECF
:1037B80001F06AF8001B0228F6D9C0E601283FF498
:1037C800BFAE6B68E26903F4800191427FF4A1AE59
:1037D800216A03F03F028A427FF49BAE616A47F692
:1037E800C0721A40B2EB811F7FF493AEA26A5208EE
:1037F80003F44031013AB1EB024F7FF48AAEE26A3A
:1038080003F07063B3EB026F3FF46CAE81E600BF68
:10381800003802400000474270B5224C88B00E467E
:103828001546F8B90190236B43F001032363236B1A
:10383800079003F001030193019B4FF4807C02235E
:10384800CDE903C30323CDE9050303A9164800F016
:10385800A1F9A36823F0EC6343EA06012943A160B8
:1038680008B070BD00230293226B104842F0040296
:103878002263226B079302F004020292029A4FF429
:1038880000710222CDE90312032203A9CDE9053212
:1038980000F080F9A36823F0784343EA060141EA7F
:1038A800C501DCE700380240000002400008024081
:1038B800014B0122DA64704700004742014B0022A5
:1038C800DA64704700004742134908B58B6803F073
:1038D8000C03042B1CD0082B1CD14A684B68496880
:1038E80013F4800314BF0D480D48C1F3881118BFA5
:1038F800002302F03F02A1FB00010BF0D7FC064BAE
:103908005B68C3F3014301335B00B0FBF3F008BD10
:103918000248FCE70248FAE70038024000127A0041
:103928000024F4002DE9F0410D46044610B90120A9
:10393800BDE8F081444B1A6802F007028A4228D396
:10394800226897072DD4D00741D43F4B1A6802F05C
:103958000702AA4266D8226851076CD4130707D514
:103968003A4A2169936823F4604343EAC1039360A8
:10397800FFF7AAFF354B364A9B68C3F30313D35CA2
:10398800D840344B1860344B186800F035FF0020DD
:10399800CEE7CAB21A701B6803F007038B42C6D180
:1039A800CEE72A4B12F0040F1EBF996841F4E0518C
:1039B8009960160742BF996841F4604199602349AC
:1039C800A0688B6823F0F00303438B60BBE7626851
:1039D8001E4B012A1CD11B6813F4003FA7D01B4EB5
:1039E800B36823F003031343B36000F04DFF41F2C3
:1039F80088380746B368626803F00C03B3EB820F9C
:103A0800A3D000F041FFC01B4045F3D903208FE746
:103A1800911E01291B6802D813F0007FDEE713F01E
:103A2800020FDBE7EAB21A701B6803F00703AB4228
:103A38007FF47DAF8FE70549E0688B6823F4E05396
:103A480003438B608AE700BF003C02400038024015
:103A58000C010108C0000020C8000020014B1868B4
:103A6800704700BFC0000020044B054A9B68C3F3A1
:103A78008223D35C034A1068D8407047003802405C
:103A88001C010108C0000020044B054A9B68C3F3D1
:103A98004233D35C034A1068D8407047003802406C
:103AA8001C010108C00000200F230360224B1A6884
:103AB800510333D54FF4A02242601A6802F0010284
:103AC800C2601A68C2F3C40202611A6F52072CD589
:103AD80005238360184B5A6F02F0010242611A688D
:103AE80012F0807F14BF0222012282615A6802F418
:103AF8008002C2615A6802F03F0202625A68C2F349
:103B0800881242625A6802F4403202F58032D20BBF
:103B180082625B68C3F30363C36270471A6812F476
:103B2800803218BF4FF48032C6E71B6F13F00103D1
:103B380018BF0123CDE700BF003802400F23036000
:103B48000B4B9A6802F0030242609A6802F0F00296
:103B580082609A6802F4E052C2609B68DB0803F452
:103B6800E0530361034B1B6803F007030B607047C6
:103B780000380240003C0240704710B5044CE3682E
:103B88001B0603D5FFF7F8FF8023A37310BD00BF02
:103B9800003802402DE9F74FDFF884915E4A002390
:103BA8000D6801249C4004EA050CAC4340F0A58054
:103BB8004D6805F003044FEA43080326671E06FA1A
:103BC80008F6012F6FEA060634D8876807EA060E5A
:103BD800CF6807FA08F747EA0E078760476827EAB9
:103BE8000C0EC5F300179F4047EA0E074760C768E9
:103BF80007EA060E8F6807FA08F747EA0E07022C4D
:103C0800C76019D14FEAD30A00EB8A0A03F0070B01
:103C1800DAF820704FEA8B0B4FF00F0E0EFA0BFEFE
:103C280027EA0E0E0F6907FA0BF747EA0E07CAF8DC
:103C3800207001E0032CDAD1076804FA08F43E404A
:103C4800264315F4403F066057D04FF0000ACDF8E0
:103C580004A0D9F84460314C46F48046C9F8446061
:103C6800D9F8446006F480460196019E23F00306C5
:103C780006F1804606F59C3603F0030ED6F8088058
:103C88004FEA8E0E0F2707FA0EF7A04228EA070719
:103C98003AD004F58064A04238D004F58064A0428C
:103CA80036D004F58064A04234D004F58064A04284
:103CB8000CBF0424072404FA0EF43C43B46094684F
:103CC8006FEA0C06EF0254BF34404CEA04049460D7
:103CD800D468AF0254BF34404CEA0404D46054683A
:103CE800AF0354BF34404CEA040454601468ED0335
:103CF80054BF34404CEA040414600133102B7FF4A1
:103D08004FAF03B0BDE8F08F5446D4E70124D2E7A3
:103D18000224D0E70324CEE7003C01400000024023
:103D2800003802403B4A2DE9F04F00234FF0010ACA
:103D38004FF00F084FF0030B0AFA03FC3CEA0104AA
:103D48000CEA010658D123F0030404F1804404F579
:103D58009C3403F00307A568BF0008FA07F909EACD
:103D6800050E2D4DA8424CD005F58065A8424AD0D5
:103D780005F58065A84248D005F58065A84246D07B
:103D880005F58065A8420CBF04250725BD4075458B
:103D980013D1156825EA06051560556825EA060554
:103DA8005560D56825EA0605D560956825EA0605B3
:103DB8009560A56825EA0905A56005685C000BFA09
:103DC80004F4DE0825EA040500EB8606056003F026
:103DD8000705376AAD0008FA05F527EA05053562D3
:103DE800C56825EA0405C560456825EA0C054560EF
:103DF800856825EA040484600133102B9CD1BDE852
:103E0800F08F0025C2E70125C0E70225BEE703259C
:103E1800BCE700BF003C01400000024003691942B2
:103E280014BF0120002070470AB18161704709045E
:103E3800FBE7436901EA030221EA030141EA02417F
:103E48008161704782B04FF480330193019B0B432B
:103E58000193019BC361C161019BC361C369019364
:103E6800C06980F48030C0F3004002B070477047EA
:103E7800044A5169014208B502D05061FFF7F7FFC3
:103E880008BD00BF003C0140036810B5084C02465D
:103E9800D9B210391820B1FBF0F0205CD06523F4BA
:103EA8007F7020F003005F2988BF0430906510BD43
:103EB8002401010870B5044600F0E6FC0546002C14
:103EC80073D0022384F835302268002384F8343014
:103ED800136823F00103136021680B68D8072FD4F7
:103EE8000B68334DA0691D40D4E901231343E268F0
:103EF80013432269134362691343E269034313437B
:103F0800226A1343626A042A43EA050302BFD4E91A
:103F18000B5635432B430B604B69042A23F00703E8
:103F280043EA020333D1A26AE56A13437DB390B929
:103F3800012A21D032F0020229D1EA0127D51EE058
:103F480000F0A2FC401B0528C6D920236365032086
:103F580084F8350070BDB0F5005F14D1032A16D877
:103F680001A050F822F000BF873F0008433F000837
:103F7800873F0008813F0008B5F1C07F07D1402383
:103F880063650120E4E7022AF9D9032AD5D04B61F9
:103F98002046FFF779FFE26D3F23934083600020BE
:103FA8000123606584F83530D4E70120D2E700BFEB
:103FB8003F8010F038B5054620B390F83530022B15
:103FC800DCB21DD003681A6822F0010200241A60CE
:103FD80021221C605C609C60DC601C615A61FFF7F8
:103FE80053FFEA6D3F239340C5E90F44C5E91144E7
:103FF800C5E9134483606C6585F8344085F835401D
:10400800204638BD0124FBE730B590F83440012C38
:1040180022D0012480F8344090F83540012C4FF02C
:1040280000054FF0020415D180F835400468456555
:10403800256825F48025256063608368402B0BBFC5
:10404800A260A160E160E260236843F0010323609D
:10405800002030BD80F834500220FAE770B590F89F
:104068003440866D012C31D0012480F8344090F81A
:104078003540012C4FF000054FF0020424D180F8A0
:10408800354004684565256825F48025256063600A
:104098008368402B0EBFA260A160E260C26D08BFBA
:1040A800E1603F239340B360236843F01603236025
:1040B800036C1BB1236843F008032360236843F0B3
:1040C80001032360002070BD80F834500220FAE715
:1040D80070B50446866D00F0D7FB94F83530022B96
:1040E800054606D080236365002384F83430012018
:1040F80070BD23681A6822F016021A605A6922F005
:1041080080025A61226C0AB9A26C1AB11A6822F0AC
:1041180008021A601A6822F001021A6023681B68F4
:1041280013F001030AD1E16D3F228A40B2600122F7
:1041380084F8352084F834301846D9E700F0A4FB19
:10414800401B0528EAD9202363650320002384F84F
:10415800350084F83430CBE790F83530022B03D0A3
:1041680080234365012070470268052380F83530B5
:10417800136823F001031360002070472DE9F84FFE
:1041880004460D46904600F07FFB94F83530022B2C
:10419800814608D080236365002384F834300125E4
:1041A8002846BDE8F88F23681B68D90503D54FF466
:1041B80080736365F3E7E76D0DBB2023A66D316857
:1041C80003FA07F74FF0080A4FF0010B0F4202D12C
:1041D800636DDA0715D5636D002B46D0636DDB0779
:1041E80043D52046FFF774FFE26D30239340B36058
:1041F8000125002384F8355084F83430D0E71023A3
:10420800DCE7B8F1FF3F12D0B8F1000F09D1202345
:104218006365012384F83530002384F8343003259E
:10422800BEE700F031FBA0EB09004045EFD8E36D95
:1042380031680AFA03F20A421FBF606D40F00100BC
:104248006065B2600BFA03F20A421FBF606D40F06E
:1042580002006065B260042202FA03F30B421FBF3A
:10426800606D10436065B360B0E7E26D45B9302317
:104278009340B360012384F8353084F834508FE7D5
:1042880010239340B36000258AE7F7B50023019314
:104298005B4B856D1F68C36D2E6808229A403242B9
:1042A80004460CD001680868400708D5086820F063
:1042B80004000860AA60626D42F001026265012292
:1042C8009A40324208D021684969090641BFAA606C
:1042D800626D42F00202626504229A40324208D0BE
:1042E80021680968880741BFAA60626D42F004022C
:1042F800626510229A40324210D023681968090773
:104308000CD5AA601A68500337D51B68190301D465
:10431800236C00E0A36C0BB120469847E16D202286
:104328008A4032423AD023681868C60636D5AA6051
:1043380094F83520052A1A6827D122F016021A6047
:104348005A6922F080025A61226C0AB9A26C1AB129
:104358001A6822F008021A603F238B40AB600123E1
:1043680084F83530002384F83430236D002B45D091
:10437800204603B0BDE8F04018471A68D2055EBF72
:104388001A6822F008021A60C2E7500327D51B6892
:10439800190331D4636C0BB120469847636D6BB336
:1043A800636DDA0719D522684FF41653B7FBF3F794
:1043B800052384F83530136823F001031360019B4B
:1043C8000133BB42019302D81368DB07F7D40123FA
:1043D80084F83530002384F83430E36CC6E71A6873
:1043E80012F4807208D1196821F0100119600123B4
:1043F80084F8353084F83420E36BCCE703B0F0BDA3
:10440800C000002010B590F83430012B1FD090F870
:104418003540012CE3B218D1052906D8DFE801F0B0
:10442800030A0D0F1113C2630B46002280F83420D3
:10443800184610BD02640023F7E74264FBE7826474
:10444800F9E7C264F7E70265F5E70123EDE7022320
:10445800EEE710B590F83430012B29D090F83540AC
:1044680001239C4280F83430E2B21FD10023062990
:1044780007D8DFE801F0040B0E1012191400C3630B
:104488000A46002380F83430104610BD0364002229
:10449800F7E74364FBE78364F9E7C364F7E7C0E938
:1044A8000F33C0E91133C3640365F0E71A46E8E740
:1044B8000222E9E790F835007047406D704700BF69
:1044C8000749CA6822F4E0620302120403F4E063B5
:1044D800120C134343F0BF6343F40033CB607047BF
:1044E80000ED00E0164B30B5DC68C4F30224C4F1DB
:1044F8000705231D042D28BF0425062B4FF0FF3385
:104508008CBF033C002403FA05F521EA0501A3400A
:1045180022EA0302A140002841EA0203ACBF00F1ED
:104528006040084A4FEA0313B8BF00F00F00DBB23F
:10453800AABF00F56140135480F8003330BD00BFB6
:1045480000ED00E014ED00E0002808DB012342093B
:1045580000F01F0003FA00F0014B43F822007047F7
:1045680000E100E000280DDB4309012200F01F00F4
:1045780002FA00F02033044A42F82300BFF34F8FB9
:10458800BFF36F8F704700BF00E100E0BFF34F8FAC
:104598000549064BCA6802F4E0621343CB60BFF3D7
:1045A8004F8F00BFFDE700BF00ED00E00400FA05F3
:1045B8000138B0F1807F0BD24FF0E023054A5861F3
:1045C800F02182F823100020072298611A617047B1
:1045D8000120704700ED00E0BFF35F8F044B5A6A7B
:1045E80022F480325A620022C3F89420704700BF38
:1045F80000ED00E0064B40F00100C3F894005A6A51
:1046080042F480325A62BFF34F8FBFF36F8F704707
:1046180000ED00E0044BC3F89800D3F8A02042F066
:104628000102C3F8A020704700ED00E0044BC3F876
:104638009800D3F8A02022F00102C3F8A020704708
:1046480000ED00E0144A4378C2F89830D2F8A03060
:1046580023F00103C2F8A0304368C2F89C30C37A43
:10466800017B1B0643EA017301780B43817A43EA15
:10467800C143417B43EA8143817B43EA4143C17B98
:1046880043EA0143417A43EA0123017A43EA4103B9
:10469800C2F8A030704700BF00ED00E040BF20BF67
:1046A8007047024BD868C0F30220704700ED00E065
:1046B80070B50028AEBF00F16040134C00F00F0049
:1046C80001F00701AABF00F56140205C90F80003E3
:1046D800C1F107040D1D042C28BF0424062D4FEA40
:1046E80010108CBF033900214FF0FF3520FA01F676
:1046F80005FA04F405FA01F126EA040420EA0100A7
:104708001460186070BD00BF14ED00E0002809DBDC
:104718004309012200F01F0002FA00F04033024A68
:1047280042F82300704700BF00E100E00028A1BF65
:1047380043094033054A52F82330A3BF00F01F0055
:1047480023FA00F000F001000020704700E100E0CB
:10475800002809DB4309012200F01F0002FA00F0DB
:104768006033024A42F82300704700BF00E100E0CE
:104778000028A1BF43098033054A52F82330A3BF5C
:1047880000F01F0023FA00F000F00100002070473D
:1047980000E100E04FF0E02304281A690CBF42F062
:1047A800040222F004021A617047704708B5FFF747
:1047B800FCFF08BD704770470B4B0C4A10B51A62D6
:1047C80000240B4A1C625A620A4A5C621A618022FF
:1047D8001C615A614FF0FF325C619A619C61FFF77E
:1047E800EAFF204610BD00BF003802400FC8E210A3
:1047F800317917009F10600070B50E4A0E4E0546BD
:104808004FF47A733078B3FBF0F31068B0FBF3F031
:10481800FFF7CEFE044650B90F2D08D802462946A8
:104828004FF0FF30FFF75EFE7560204670BD012037
:10483800FCE700BFC0000020C400002008B50B4BF7
:104848001A6842F400721A601A6842F480621A60A8
:104858001A6842F480721A600320FFF731FE0020C4
:10486800FFF7CAFFFCF704FE002008BD003C024029
:10487800034A044B11681B780B441360704700BF50
:104888003C820020C4000020014B1868704700BF1C
:104898003C820020014B5868704700BFC4000020CC
:1048A80038B5064C2578854206D020706068FFF739
:1048B800A3FF00B1257038BD0020FCE7C40000202C
:1048C800014B1878704700BFC400002038B5044673
:1048D800FFF7DAFF631C1CBF054B1B78054618BFA2
:1048E800E418FFF7D1FF431BA342FAD338BD00BF3A
:1048F800C40000204FF0E022136923F00203136183
:1049080070474FF0E022136943F0020313617047C8
:104918000048704700050801014B1868000C7047F3
:10492800002004E0024B1868C0F30B00704700BF7A
:10493800002004E0024A536843F0010353607047C3
:10494800002004E0024A536823F0010353607047D3
:10495800002004E0024A536843F0020353607047A2
:10496800002004E0024A536823F0020353607047B2
:10497800002004E0024A536843F004035360704780
:10498800002004E0024A536823F004035360704790
:10499800002004E0024B0122C3F80024704700BF46
:1049A80000002742024B0022C3F80024704700BFD2
:1049B80000002742014BD3F8100A70470070FF1F10
:1049C800014BD3F8140A70470070FF1F014BD3F84E
:1049D800180A70470070FF1F01684B6913F4806361
:1049E8004FF0000210D06FF480634B612023026304
:1049F80080F83D3080F83E20036C80F83C2043F07E
:104A08000403036401207047184670472DE9F846EF
:104A180006460F4691461D464FEA114A3368BAF1D9
:104A2800010F0CBF5C699C6927EA0404A4B2B4FABC
:104A380084F46409A14501D0002025E06A1CEED069
:104A4800FFF722FF089BC01AA84201D8002DE5D124
:104A58003368BAF1010F0CBF5B699B6927EA03034E
:104A68009BB2B3FA83F35B099945D7D1002320227F
:104A7800336386F83D2086F83E30326C86F83C3049
:104A880042F0200232640120BDE8F8862DE9F041A9
:104A980004460F46164698462568686927EA0000C6
:104AA80080B2B8B16B695A0516D52B6843F4007308
:104AB8002B606FF480636B6120220023236384F8EA
:104AC8003D2084F83E30226C42F00402226484F8CF
:104AD8003C300120BDE8F081731CDED0FFF7D4FE26
:104AE800A0EB0800B04201D8002ED5D123685A693E
:104AF80027EA020292B2002ACED0002320222363A2
:104B080084F83D2084F83E30226C42F02002DDE734
:104B180070B504460D46164623685B691B0601D529
:104B2800002070BD2046FFF757FFC8B96A1CF3D0B4
:104B3800FFF7AAFE801BA84201D8002DECD12368FC
:104B48005B6913F08003E7D12022236384F83D20BA
:104B580084F83E30226C84F83C3042F02002226413
:104B68000120DEE72DE9F0431546026885B0DDE94E
:104B78000C789946136843F4807313600E463B46DD
:104B8800CDF8008000224FF001110446FFF73EFFE8
:104B9800236838B11B68DB0502D54FF40073236422
:104BA80003200AE006F0FE061E61194943463A460C
:104BB8002046FFF76BFF18B1012005B0BDE8F08370
:104BC800236803905A6903929B69039342463946C6
:104BD8002046039BFFF79CFF40B1236C042B01BFC9
:104BE8002268136843F400731360E5E7B9F1010F15
:104BF800236802D1EDB21D61DFE72A0A1A6139463E
:104C080042462046FFF784FF0028E6D12368F1E7F3
:104C1800020001002DE9FF479A46036815461A6805
:104C280042F480621A601A68DDE90C7842F48072F6
:104C38001A600E463B46CDF8008000224FF0011165
:104C48000446FFF7E3FE236848B11B68DB0502D57D
:104C58004FF400732364032004B0BDE8F0875FFAC3
:104C680086F906F0FE061E612A4943463A46204662
:104C7800FFF70CFF08B10120EEE7236803905A699B
:104C880003929B690393424639462046039BFFF7EC
:104C98003FFF40B1236C042B01BF2268136843F423
:104CA80000731360E7E7BAF1010F23681AD1EDB278
:104CB8001D61424639462046FFF72AFF0028E9D100
:104CC8002268136843F4807313604FF001110246A1
:104CD800CDF800803B462046FFF798FE226860B179
:104CE8001368B3E72A0A1A61394642462046FFF795
:104CF8000FFF0028CED12368D9E749F001031361DB
:104D0800044943463A462046FFF7C0FE003818BF1C
:104D18000120A1E70200010070B504460D461646C1
:104D280023685B695B0701D5002070BD2046FFF74B
:104D380053FEC8B96A1CF3D0FFF7A6FD801BA84232
:104D480001D8002DECD123685B6913F00403E7D187
:104D58002022236384F83D2084F83E30226C84F8B6
:104D68003C3042F0200222640120DEE770B50446A0
:104D78000D46164621684B6913F0400301D0002008
:104D880010E04A69D2060ED56FF010024A6120225F
:104D9800236384F83D2084F83E30226C226484F832
:104DA8003C30012070BDFFF76FFD801BA84201D881
:104DB800002DDFD123685B6913F04003DAD120228C
:104DC800236384F83D2084F83E30226C42F02002B0
:104DD800E4E7704770B5044608B9012070BD90F843
:104DE8003D3003F0FF021BB980F83C20FCF75EFB66
:104DF800242384F83D3023681A6822F001021A60DF
:104E08001A6842F400421A601A6822F400421A60D2
:104E1800FEF72AFE3F4B65689D4294BF3E4B3F4BD1
:104E280098428CBF00230123002BD6D12268394E2B
:104E380053683B49B0FBF1F123F03F030B43B54204
:104E4800536088BF4FF49676136A88BF714323F086
:104E58003F0384BF4FF47A76B1FBF6F10131194371
:104E68001162D169431E2B4821F44F41854221F03C
:104E7800FF0132D86D0040F6FC70B3FBF5F3013347
:104E8800034242D0C3F30B030B43D361D4E9073089
:104E98001168034321F0C0010B4313609168D4E902
:104EA800030321F40341034321F0FF010B43936003
:104EB800D4E90530D168034321F0FF010B43D360E7
:104EC800136843F00103136000202023206484F852
:104ED8003D30206384F83E0080E7A06850B905EBB8
:104EE8004505B3FBF5F30133C3F30B037BB143F47F
:104EF8000043C9E719204543B3FBF5F30133C3F376
:104F08000B0323B143F44043BEE70423BCE701236A
:104F1800BAE700BFA08601007F841E00FF083D009D
:104F280040420F00704710B5044698B10268242328
:104F380080F83D30136823F001031360FCF7EEFAA4
:104F48000020206484F83C0084F83D00206384F845
:104F58003E0010BD0120FCE72DE9F043044685B072
:104F680098460C9F0D469146FFF78EFC94F83D300D
:104F7800202B064604D00225284605B0BDE8F0835C
:104F880000905D49192301222046FFF73FFD0028C4
:104F9800F1D194F83C30012BEDD02168012384F83D
:104FA8003C300B68DA075EBF0B6843F001030B6007
:104FB8000B6823F400630B60212384F83D30102331
:104FC80084F83E3000232364A4F82A80638D238567
:104FD8004A4BE362E36AC4F82490082B04D0012BFF
:104FE80002D013F5803F04D10B6843F480730B6043
:104FF80002E0236B122BF7D0002200963B464FF0BD
:1050080001112046FFF702FD226838B11368DB055D
:1050180044BF4FF4007323640125ADE72369B3F55A
:10502800804F21D105F0FE051561354933463A46D2
:105038002046FFF72BFD05460028EDD12368039095
:105048005A6903929B690393039B238DF3B92168E3
:105058000A6842F400720A60202284F83D2084F82D
:105068003C3084F83E3087E7EB1103F0060343F049
:10507800F0031361234933463A462046FFF706FDFD
:105088000028C9D12368EDB21D61CEE73246394602
:105098002046FFF73DFD40B1236C042BBCD12268AC
:1050A800136843F400731360B6E7636A20681A460E
:1050B80012F8011B01616262628D013A92B2628547
:1050C800228DD0F814C0511E89B21CF0040F21851E
:1050D8000AD049B15978016102336362638D013B9B
:1050E8009BB2023A63852285324639462046FFF74D
:1050F80013FE0028A9D0CFE7020010000000FFFF30
:1051080002000100080001002DE9F043044689B0BF
:105118009846109F0E469146FFF7B6FB94F83D302F
:10512800202B054604D00226304609B0BDE8F0839E
:1051380000909A49192301222046FFF767FC0028AE
:10514800F1D194F83C30012BEDD02168012384F88B
:105158003C300B68DB075EBF0B6843F001030B6054
:105168000B6823F400630B60222384F83D3010237E
:1051780084F83E3000232364A4F82A80638D2385B5
:10518800874BE362E36A0A68C4F8249042F48062B9
:10519800082B0A6004D0012B02D013F5803F04D1FC
:1051A8000B6843F480730B6002E0236B112BF7D07C
:1051B8003B46009500224FF001112046FFF726FCE0
:1051C800236838B11B68DD0502D54FF400732364EA
:1051D8000126A9E72269B2F5804F27D146F00106DA
:1051E800F6B21E616F492B463A462046FFF74EFC41
:1051F80006460028ECD1238D2168002B4BD1039063
:105208004B6903938B690393039B0B6843F4007307
:105218000B60DFF89881238D002B64D1202284F85D
:105228003D2084F83C3084F83E307DE74FEAE618AC
:1052380008F0060848F0F0021A615B492B463A4626
:105248002046FFF723FC0028C2D123685549F6B24F
:105258001E613A462B462046FFF718FC0028B7D1B6
:10526800236807905A6907929A690792079A1A68F9
:1052780042F480721A604FF00111024600953B46D5
:105288002046FFF7C3FB226808B113689BE748F084
:10529800F1031361A6E7012B0AD10B6823F480639D
:1052A8000B6004904B6904938B690493049BACE7EF
:1052B800022B0B680DD123F480630B600B6843F459
:1052C80000630B6005904B6905938B690593059BFB
:1052D8009FE743F480630B6006904B6906938B69E4
:1052E8000693069B95E7032B62D8012B16D12A4615
:1052F80039462046FFF73AFD00287FF469AF236856
:105308001A69636A1A70636A01336362238D013B09
:105318002385638D013B9BB263857CE7022B009557
:105328003B464FF00002414620461AD1FFF76EFB7C
:1053380000287FF44DAF23681A6842F400721A609F
:105348001A69636A1A70626A531C6362238D013B8F
:105358002385638D013B9BB2638523681B6953706A
:10536800D1E7FFF753FB00287FF432AF23681A68B0
:1053780022F480621A601A69636A1A70636A009577
:1053880001336362238D013B2385638D013B9BB20F
:10539800638502463B4641462046C7E702001000A7
:1053A8000000FFFF020001000800010004000100E6
:1053B8002A4639462046FFF7D9FC00287FF408AF73
:1053C80023681A69636A1A70628D616A013A92B237
:1053D8004B1C628522686362238D5069013B9BB236
:1053E800400723857FF517AF032B02BF136823F40B
:1053F8008063136013694B7085E72DE9F043044619
:1054080085B01E4689469046FFF73EFA94F83D302F
:10541800202B074640F09A80B9F1000F03D10120F4
:1054280005B0BDE8F083B8F1000FF8D094F83C302F
:10543800012B00F08B8025684549012384F83C3016
:105448002B68DB075EBF2B6843F001032B602B68DA
:1054580023F400632B60212384F83D3000222023AD
:1054680084F83E302264A4F82A80638D2385394B62
:10547800E3622B68C4F8249043F480632B600090A7
:1054880033462046FFF7C2FA0028C8D123680290A5
:105498005A6902929B690293029B2369B3F5404FB4
:1054A8000FD102462A49009733462046FFF7AEFA45
:1054B8000028B4D1236803905A6903929B69039327
:1054C800039B228DC2B9009733464FF482312046A0
:1054D800FFF79CFA0028A2D123686FF480625A6112
:1054E8001A6822F480621A60202384F83D3084F818
:1054F8003C0084F83E0093E73A4631462046FFF7E1
:1055080007FB226820B1136823F48063136086E7E1
:10551800636A194611F8010B10616162618D0139E6
:1055280089B26185218D5569481E80B26D07208535
:10553800C7D50028C5D05878106102336362638DDF
:10554800013B9BB2023963852185BAE7022067E7F0
:10555800020001000000FFFF2DE9F043044685B07A
:105568001F4689461646FFF78FF994F83D30202BE1
:10557800804640F0AC80B9F1000F04D101252846DF
:1055880005B0BDE8F083002EF8D094F83C30012B2C
:1055980000F09D8025684F49012384F83C302B6832
:1055A800DB075EBF2B6843F001032B602B6823F4F5
:1055B80000632B60222384F83D300022202384F8E6
:1055C8003E3022646685638D2385434BE3622B68F6
:1055D800C4F8249043F480632B6000903B46204637
:1055E800FFF714FA05460028C8D1236802905A69C3
:1055F80002929B690293029B238DC3B92668736943
:10560800DB0641D50023039372690392326842F0A6
:1056180001023260039A326822F4806232602022EA
:1056280084F83D2084F83C3084F83E30A7E74246B1
:1056380039462046FFF79AFB236820B11A6822F4FE
:1056480080621A609AE71A69636A1A70628D616AE1
:10565800013A92B24B1C628522686362238D5069BD
:10566800013B9BB240072385C6D5002BC4D01369E4
:105678004B70636A01336362238D013B2385638D1D
:10568800013B9BB26385B7E72046FFF7A5F9C0B990
:10569800FFF7FAF8A0EB0800874201D3002FADD13D
:1056A80023685B6913F01003A8D12022236384F8D0
:1056B8003D2084F83E30226C84F83C3042F02002D1
:1056C80022642268136823F48063136056E7022576
:1056D80055E700BF020001000000FFFF37B50024B6
:1056E800019490F83D40202C02D0022003B030BD38
:1056F800234C46F2A8152468B4FBF5F419256C432D
:105708000194019C013C0194019C54B92023046339
:1057180080F83D3080F83E40036C43F0200303647A
:10572800E3E70468A569AD07EBD490F83C50012D78
:10573800DBD02568ED075EBF256845F001052560CB
:10574800256825F400652560212580F83D50102541
:1057580080F83E50002505644385438D0385094B39
:10576800C36280F83C5041646368426243F4E0637A
:105778006360236843F4807323602846B6E700BF5C
:10578800C00000200000FFFF37B50024019490F806
:105798003D40202C02D0022003B030BD254C46F2FB
:1057A800A8152468B4FBF5F419256C430194019CF1
:1057B800013C0194019C54B92023046380F83D30D6
:1057C80080F83E40036C43F020030364E3E7046879
:1057D800A569AD07EBD490F83C50012DDBD02568C6
:1057E800ED075EBF256845F001052560256825F4AD
:1057F80000652560222580F83D50102580F83E5030
:10580800002505644385438D03850B4BC36280F8EF
:105818003C5041646368426243F4E0636360236818
:1058280043F480632360236843F48073236028462D
:10583800B2E700BFC00000200000FFFF10B590F8DD
:105848003D30202B2DD151B34AB390F83C30012B79
:1058580027D004682368DB075EBF236843F0010391
:105868002360236823F400632360212380F83D30FC
:10587800202380F83E30002303644285428D028550
:10588800094AC2622268416242F48062226080F85A
:105898003C30626842F4E0626260184610BD012044
:1058A800FCE70220FAE700BF0000FFFF10B590F800
:1058B8003D30202B2DD151B34AB390F83C30012B09
:1058C80027D004682368DB075EBF236843F0010321
:1058D8002360236823F400632360222380F83D308B
:1058E800202380F83E30002303644285428D0285E0
:1058F800094AC2622268416242F48062226080F8EA
:105908003C30626842F4E0626260184610BD0120D3
:10591800FCE70220FAE700BF0000FFFFF7B50F46DB
:1059280011460022019290F83D20202A044602D018
:10593800022003B0F0BD464A106846F2A812B0FB38
:10594800F2F0192250430190019A013A0192019A0A
:1059580052B92023226384F83D3084F83E20236C1A
:1059680043F020032364E3E72568AA699007EBD492
:1059780094F83C20012ADBD0012284F83C202A68D4
:10598800D2075EBF2A6842F001022A602A6822F420
:1059980000622A60212284F83D200026102284F823
:1059A8003E2026646385608D2A4AE26283B2616282
:1059B80023856764002B3BD0606BC0B1264AC26365
:1059C800264AC264C0E910668664066505F11002BD
:1059D800FEF744FBC0B1202384F83D3084F83E60D4
:1059E800236C84F83C6043F0100323640AE020230E
:1059F80084F83D3084F83E00236C84F83C0043F082
:105A080080032364012094E7236884F83C005A68E3
:105A180042F440725A605A6842F400625A601A6846
:105A280042F480621A601A6842F480721A6080E751
:105A38002A6842F480622A602A6842F480722A60E6
:105A480084F83C306A6842F4E0626A60184670E79D
:105A5800C00000200000FFFF3F710008FB70000835
:105A680073B504460020019094F83D00202802D028
:105A7800022002B070BD464846F2A8150068B0FB87
:105A8800F5F01925684301900198013801900198B3
:105A980050B92023206384F83D3084F83E00236CFD
:105AA80043F020032364E3E72568A8698607EBD45D
:105AB80094F83C000128DBD0012084F83C002868D9
:105AC800C0075EBF286840F001002860286820F4FD
