:020000040800F2
:1000000000000220C51D0008591C00085B1C0008E8
:10001000651C0008671C0008691C0008000000003F
:100020000000000000000000000000006B1C000841
:100030006D1C0008000000006F1C0008711C000807
:10004000151E0008151E0008151E0008151E0008C4
:10005000151E0008151E0008151E0008151E0008B4
:10006000151E0008151E0008151E0008151E0008A4
:10007000151E0008151E0008151E0008151E000894
:10008000151E0008151E0008151E000800000000BF
:10009000000000000000000000000000151E000825
:1000A000151E0008151E0008151E0008151E000864
:1000B000151E0008C50D0008151E0008151E0008B5
:1000C000151E0008151E0008151E0008151E000844
:1000D000151E0008151E0008151E0008000000006F
:1000E000151E0008151E0008151E0008000000005F
:1000F000000000000000000000000000151E0008C5
:1001000000000000151E0008151E0008151E00083E
:1001100000000000000000000000000000000000DF
:10012000151E0008151E0008151E0008151E0008E3
:10013000151E000800000000000000000000000084
:10014000000000000000000000000000751C000816
:10015000151E0008151E0008151E0008151E0008B3
:10016000151E0008151E0008000000000000000019
:10017000000000000000000000000000000000007F
:1001800000000000151E0008000000000000000034
:08019000151E0008151E0008F1
:100198000348044B834202D0034B03B1184770470E
:1001A800B4010020B4010020000000000548064901
:1001B8000B1AD90F01EBA301491002D0034B03B16D
:1001C80018477047B4010020B40100200000000067
:1001D80010B5064C237843B9FFF7DAFF044B13B187
:1001E8000448AFF300800123237010BDB401002040
:1001F80000000000F086000808B5044B1BB1044954
:100208000448AFF30080BDE80840CFE700000000D5
:10021800B8010020F086000853B94AB9002908BF80
:1002280000281CBF4FF0FF314FF0FF3000F074B9C9
:10023800ADF1080C6DE904CE00F006F8DDF804E035
:10024800DDE9022304B070472DE9F047089D044614
:100258008E46002B4DD18A42944669D9B2FA82F271
:1002680052B101FA02F3C2F1200120FA01F10CFAAD
:1002780002FC41EA030E94404FEA1C48210CBEFBE5
:10028800F8F61FFA8CF708FB16E341EA034306FB6E
:1002980007F199420AD91CEB030306F1FF3080F0FD
:1002A8001F81994240F21C81023E63445B1AA4B24A
:1002B800B3FBF8F008FB103344EA034400FB07F7EC
:1002C800A7420AD91CEB040400F1FF3380F00A812D
:1002D800A74240F207816444023840EA0640E41B22
:1002E80000261DB1D4400023C5E900433146BDE8CE
:1002F800F0878B4209D9002D00F0EF800026C5E970
:10030800000130463146BDE8F087B3FA83F6002E87
:100318004AD18B4202D3824200F2F980841A61EBFF
:10032800030301209E46002DE0D0C5E9004EDDE71D
:1003380002B9FFDEB2FA82F2002A40F09280A1EB05
:100348000C014FEA1C471FFA8CFE0126200CB1FB5A
:10035800F7F307FB131140EA01410EFB03F0884253
:1003680008D91CEB010103F1FF3802D2884200F2E0
:10037800CB804346091AA4B2B1FBF7F007FB101172
:1003880044EA01440EFB00FEA64508D91CEB040410
:1003980000F1FF3102D2A64500F2BB800846A4EB6B
:1003A8000E0440EA03409CE7C6F12007B34022FA56
:1003B80007FC4CEA030C20FA07F401FA06F31C4385
:1003C800F9404FEA1C4900FA06F3B1FBF9F8200C92
:1003D8001FFA8CFE09FB181140EA014108FB0EF0D8
:1003E800884202FA06F20BD91CEB010108F1FF3A28
:1003F80080F08880884240F28580A8F10208614434
:10040800091AA4B2B1FBF9F009FB101144EA014141
:1004180000FB0EFE8E4508D91CEB010100F1FF34EC
:100428006CD28E456AD90238614440EA0840A0FB84
:100438000294A1EB0E01A142C846A64656D353D05A
:100448005DB1B3EB080261EB0E0101FA07F722FA7E
:1004580006F3F1401F43C5E9007100263146BDE8A7
:10046800F087C2F12003D8400CFA02FC21FA03F30A
:10047800914001434FEA1C471FFA8CFEB3FBF7F08B
:1004880007FB10360B0C43EA064300FB0EF69E42B0
:1004980004FA02F408D91CEB030300F1FF382FD249
:1004A8009E422DD9023863449B1B89B2B3FBF7F6F1
:1004B80007FB163341EA034106FB0EF38B4208D9CA
:1004C8001CEB010106F1FF3816D28B4214D9023E0B
:1004D8006144C91A46EA004638E72E46284605E729
:1004E8000646E3E61846F8E64B45A9D2B9EB0208FA
:1004F80064EB0C0E0138A3E74646EAE7204694E78A
:100508004046D1E7D0467BE7023B614432E73046BC
:1005180009E76444023842E7704700BF08B506207F
:1005280000F0BEFA012001F043FC00BF014B18683F
:10053800704700BF0000002070B50D4E0D4D761BB2
:10054800B61006D0002455F8043B01349847A6425B
:10055800F9D1094E094D761B08F0C6F8B61006D039
:10056800002455F8043B01349847A642F9D170BDE0
:10057800A0880008A0880008A4880008A0880008AF
:10058800024B0146186800F08BB900BF000000203C
:10059800024B0146186800F021B900BF0000002096
:1005A800032A70B515D940EA010C1CF0030F044664
:1005B8000B4621D1194620460E680568B54204F15C
:1005C800040403F1040317D1043A032A2046194608
:1005D800F0D8541EA2B100F1FF3C013901E0C31864
:1005E8000CD01CF801EF11F8012F9645A4EB0C0371
:1005F800F5D0AEEB020070BD541EECE7184670BD96
:10060800104670BD844641EA000313F003036DD120
:10061800403A41D351F8043B40F8043B51F8043BBD
:1006280040F8043B51F8043B40F8043B51F8043BC4
:1006380040F8043B51F8043B40F8043B51F8043BB4
:1006480040F8043B51F8043B40F8043B51F8043BA4
:1006580040F8043B51F8043B40F8043B51F8043B94
:1006680040F8043B51F8043B40F8043B51F8043B84
:1006780040F8043B51F8043B40F8043B51F8043B74
:1006880040F8043B51F8043B40F8043B51F8043B64
:1006980040F8043B403ABDD2303211D351F8043B04
:1006A80040F8043B51F8043B40F8043B51F8043B44
:1006B80040F8043B51F8043B40F8043B103AEDD2B3
:1006C8000C3205D351F8043B40F8043B043AF9D204
:1006D800043208D0D2071CBF11F8013B00F8013BD7
:1006E80001D30B8803806046704700BF082A13D3E4
:1006F8008B078DD010F003038AD0C3F10403D21AFC
:10070800DB071CBF11F8013B00F8013B80D331F82F
:10071800023B20F8023B7BE7043AD9D3013A11F8AF
:10072800013B00F8013BF9D20B7803704B7843701A
:100738008B78837060467047830730B548D0541E65
:10074800002A3FD0CAB2034601E0013C3AD303F87D
:10075800012B9D07F9D1032C2DD9CDB245EA0525EA
:100768000F2C45EA054536D9A4F1100222F00F0CEA
:1007780003F1200EE6444FEA121C03F1100242E98D
:10078800045542E9025510327245F8D10CF10102C4
:1007980014F00C0F03EB021204F00F0C13D0ACF1A1
:1007A800040323F003030433134442F8045B934225
:1007B800FBD10CF003042CB1CAB21C4403F8012B82
:1007C8009C42FBD130BD64461346002CF4D1F9E7B6
:1007D80003461446BFE71A46A446E0E7002958D066
:1007E80030B551F8043C83B0002BA1F10404B8BF24
:1007F800E418019000F01EFA284A0198136833B1F2
:10080800A3420DD9216804EB010C63452FD0636026
:10081800146003B0BDE8304000F00EBAA34210D80F
:100828001A465B68002BF9D1116802EB010C64458C
:1008380019D02FD36360546003B0BDE8304000F096
:10084800FBB9116802EB010CA44516D022D8216827
:1008580004EB010C6345EDD11D685B682944C4E9CC
:1008680000135460D5E7236819441160D1E71D6867
:100878005B682944C4E90013CAE724682144541872
:10088800A3421160C5D1D3E900432144C2E9001352
:10089800BFE770470C230360BBE700BFD00100200F
:1008A800F8B5CD1C25F0030508350C2D38BF0C25EF
:1008B800002D064623DBA94221D8254F00F0BAF9BE
:1008C8003A6822B3144603E063682246FBB11C462B
:1008D80023685B1BF8D40B2B15D8636894420CBFB4
:1008E8003B605360304600F0A7F904F10B00231D6C
:1008F80020F00700C21A01D01B1AA350F8BD0C2320
:1009080033600020F8BD23601C442560EAE779685D
:10091800C9B12946304600F01DF8431C0CD0C41C50
:1009280024F00304A04205D0211A304600F012F842
:10093800013001D02560D5E70C233046336000F044
:100948007BF90020F8BD304600F004F87860E0E755
:10095800D001002038B5074D0022044608462A6019
:1009680001F0FCF9431C00D038BD2B68002BFBD0EC
:10097800236038BDD801002038B5446C0CB1002084
:1009880038BD80210546FFF78BFF0246686430B109
:10099800031F7C3243F8044F9342FBD1EFE74FF03B
:1009A800FF3038BD1F29F8B5054608D8466C0C46F7
:1009B80017464EB156F8240046F82470F8BD1623A1
:1009C80003604FF0FF30F8BD8021FFF769FF06464E
:1009D800686440B1031F00F17C05002143F8041F3F
:1009E8009D42FBD1E6E74FF0FF30F8BD1F2938B52F
:1009F800054620D8426C0C466AB152F8213053B1F2
:100A0800012B16D0591C10D00025204642F824503E
:100A18009847284638BD284600F0F8F8224601468F
:100A28002846BDE8384000F0DBB8162303600120F3
:100A380038BD002038BD162303604FF0FF3038BDA5
:100A48001F292AD8426C38B50C46054682B152F89F
:100A5800243002EB84024BB1591C19D0012B15D05C
:100A68000025204615609847284638BD012038BD26
:100A78008021FFF715FF0246686458B1031F002163
:100A88007C3043F8041F9842FBD1E0E7032038BDCF
:100A9800022038BD4FF0FF3038BD4FF0FF307047AF
:100AA80038B5144B1F281D681FD86A6C044662B1FC
:100AB80052F820304BB1012B15D0591C0FD000250E
:100AC80042F820509847284638BD284600F09EF83E
:100AD800224601462846BDE8384000F081B8162372
:100AE8002B60012038BD002038BD16232B604FF045
:100AF800FF3038BD00000020124B1F2870B51E685B
:100B080008D80D46716C044649B151F8240041F8E3
:100B1800245070BD162333604FF0FF3070BD802124
:100B28003046FFF7BDFE0146706440B1031F00F177
:100B38007C0C002243F8042F6345FBD1E5E74FF016
:100B4800FF3070BD0000002038B50B4B1D686C6C81
:100B58000CB1002038BD80212846FFF7A1FE68644B
:100B680038B1031F00F17C0243F8044F9342FBD1D4
:100B7800EFE74FF0FF3038BD0000002038B5174BC5
:100B88001F281D6826D86A6C044682B152F82430A2
:100B980002EB84024BB1591C1AD0012B16D0002548
:100BA800204615609847284638BD012038BD802169
:100BB8002846FFF775FE0246686458B1031F0021F6
:100BC8007C3043F8041F8342FBD1DFE7032038BDA4
:100BD800022038BD4FF0FF3038BD00BF00000020B4
:100BE80070B50C46084D03460026204611461C46A3
:100BF8002E6001F0D5F8431C00D070BD2B68002B87
:100C0800FBD0236070BD00BFD801002001F0C6B83A
:100C180071B1034600EB010C01E0634506D01A46AA
:100C2800013311780029F8D1101A7047181A704743
:100C380008467047704700BF704700BF2D4BF7B597
:100C48001C682D4D2046FFF79BFC214604F060FCF4
:100C5800286010B9012003B0F0BD284B1C6820465D
:100C6800FFF78EFC214604F063FC254C2060002829
:100C7800F0D0244B244F1E683046FFF781FC234AEE
:100C8800314604F093FC38600028E3D0204B1E68FE
:100C98003046FFF775FC1F4B42F21072314604F0E4
:100CA80071FC1D4B18600028D4D03B681B4E1C49B2
:100CB800C6E900304FF4007300932068194B4FF4D5
:100CC800807204F040FC184920684FF4804204F018
:100CD80044FC02222068314604F03DFC1349206898
:100CE80004F03DFC2168286804F01EFC003818BF99
:100CF8000120B0E7C8870008E0010020BC87000891
:100D0800E4010020C4870008F44400200887000894
:100D1800C087000812870008F0440020E84100203E
:100D2800F0410020F0420020E80100201787000869
:100D38001D4B70B51C6818600A221C4B1C4E041B06
:100D48005443186890B0214604F040FC194800F05C
:100D58000AFD054670B140226946164800F026FD96
:100D680000F020FC402D28BF40253068AAB2694613
:100D780004F0F7FB3068214604F0D8FB306804F033
:100D8800FEFB78B1402828BF402082B2044669465D
:100D9800306804F0E9FB08482246694600F04AFC3E
:100DA80000F0D4FB10B070BDDC010020F44400203A
:100DB800E0010020D4510020DA61002010B5084C71
:100DC80001228021204602F04BFE064803F0E8FB92
:100DD80020460022BDE81040802102F041BE00BF3D
:100DE80000080240A04500200268084B9A420CD136
:100DF8004FF080435A6A064B19681A60511A0A2341
:100E08005943044B186804F0CFBB704700040040F6
:100E1800F0450020F04400202DE9F0419AB002F09E
:100E2800B7FE1022002110A8FFF786FC142200212B
:100E380009A8FFF781FC9E4C00220792236C43F01F
:100E480080532364236C03F080530793079B994BCB
:100E580008921A6842F440421A601B6803F440433F
:100E68000893089B01264FF48033CDE90E630225D1
:100E78004FF48003CDE91453C0220423CDE9163280
:100E880018930EA80823199302F010FA08B172B645
:100E9800FEE70F23CDE909354FF4A053CDE90C3017
:100EA8000B90032109A802F0DFFB054608B172B6D2
:100EB800FEE7014614220EA8FFF73EFC0295236BBD
:100EC8007D4843F010032363236B03F01003029360
:100ED800029B0395236B43F004032363236B03F006
:100EE80004030393039B0495236B43F0800323635C
:100EF800236B03F080030493049B0595236B43F055
:100F080001032363236B03F001030593059B0695F7
:100F1800236B43F002032363236B03F0020306935E
:100F2800069B0995236B43F008032363236B03F0A7
:100F380008032A4609934FF47041099B02F090FD7B
:100F48004FF490135D480E960EA9CDE90F3502F0C7
:100F58003DFC4FF4704358480EA9CDE90E36CDE953
:100F6800105502F033FC4FF4307355480EA9CDE903
:100F78000E36CDE9105502F029FC52485249534B20
:100F88000562C0E900134FF48043C0E90255C0E987
:100F98000435C0E9065503F039F8064608B172B6BB
:100FA800FEE700F0E3F90196236C494D43F0010395
:100FB8002364236CAE6003F001030193019BAE61CF
:100FC8002F234FF08042C5E9002328464FF0FF3316
:100FD800C5E9033603F0CAFB08B172B6FEE7284636
:100FE80003F07AFA08B172B6FEE7FFF727FE08B1F8
:100FF80072B6FEE700F0FEFD08B172B6FEE70E908D
:10100800236C43F002032364236C324C03F0020385
:101018000E930E9B304BA060C4E900304BF67F3333
:10102800C4E90330A061204603F0A0FB024608B1E2
:1010380072B6FEE701461D2002F032FD1D2002F0C7
:1010480061FD204603F076FA80BBDFF874801B4F01
:10105800194D224C40464FF4007102F006FD4FF046
:101068008043012138465E6A02F0F4FC2070627801
:1010780028464FF4005102F0F3FCA27828464FF4BA
:10108800805102F0EDFCE27828464FF4804102F0EE
:10109800E7FC22794FF40041284602F0E1FC1048B1
:1010A80000F0C0FD3046FFF743FED2E772B6FEE718
:1010B8000038024000700040000C0240000002406E
:1010C800000802400445002000540040A0860100AA
:1010D80058450020A045002000040040E8450020B5
:1010E800F844002072B6FEE730B5044689B01422F1
:1010F800002103A8FFF720FB2368B3F1A04F36D1E6
:101108001C4C1D4800250195236B43F00103236304
:10111800236B03F001030193019B03A94FF40073B0
:10112800039302F053FB4FF4E0520223CDE903236B
:1011380003210A23CDE906130F48059503A902F0F8
:1011480045FB636B43F0800363630295636C43F470
:1011580080436364636C03F48043029343202A460C
:101168002946029B02F09CFC432002F0CBFC09B00C
:1011780030BD00BF003802400000024000F29C4130
:10118800D0F8E00403F05EBB242303FB0103D0F88E
:10119800E004D3F8602203F085BB242303FB01039A
:1011A800D0F8E0041A6A03F0B7BBD0F8E00403F003
:1011B80057BC10B5C379022B044601D0FFF792FF44
:1011C800D4F8E004012103F02FFCD4F8E004BDE8D2
:1011D800104003F0F9BB000010B50446D0F8E00455
:1011E80003F025FC2268D2F8003E43F00103C2F860
:1011F800003EE37A23B1034A136943F006031361FF
:1012080010BD00BF00ED00E0D0F8E00403F01DBC05
:10121800D0F8E00403F045BCD0F8E00403F02DBC9E
:10122800D0F8E00403F051BCD0F8E00403F04FBC60
:1012380008B5027803462ABB1348C0F8E034C3F85F
:10124800C8024FF0A0430360042303714FF40073F6
:10125800C3800223437201234281C381027300F0D9
:10126800E1FD08B1FFF73EFF8021074801F00AFBC6
:1012780040220021044801F0E5FA034880220121B8
:1012880001F0E0FA002008BDF445002011F0800FBD
:10129800D0F8C8324FF024021BBF01F07F0102FBD7
:1012A800013102FB0131887D08BF91F85602704771
:1012B800D0F8C80200F0DFBE00487047D84A0020C6
:1012C8007047000003289ABF014B185C0320704741
:1012D8002487000808B5D0F8C80200F015FEBDE85C
:1012E8000840FFF7EFBF10B51446D0F8C8021A46F9
:1012F800234600F03BFEBDE81040FFF7E3BF08B50A
:10130800D0F8C80200F06BFEBDE80840FFF7DABF6E
:1013180008B5D0F8C80200F0D0FEBDE80840FFF7D5
:10132800D1BF08B5D0F8C80200F0FEFEBDE80840FD
:10133800FFF7C8BF08B5D0F8C80200F004FEBDE842
:101348000840FFF7BFBF08B5D0F8C80200F09BFE01
:10135800BDE80840FFF7B6BF08B5D0F8C80200F0EE
:101368006CFEBDE80840FFF7ADBF000008B50F49A7
:101378000F48002203F028FA08B1FFF7B3FE0D4921
:101388000B4803F034FA08B1FFF7ACFE0A490848E5
:1013980004F045F808B1FFF7A5FE054803F040FA48
:1013A80018B1BDE80840FFF79DBE08BD64000020E5
:1013B800F84C002028010020BC000020122301481E
:1013C8000B80704780000020042301480B80704781
:1013D80094000020002370B54D1C1E46040FB0F188
:1013E800204F34BF3034373401F8134005F8136008
:1013F8000133DCB2A2424FEA0010EFD870BD000002
:101408001A2310B50B800A4BD3F8100AD3F8182A00
:1014180080180AD0D3F8144A06490822FFF7DAFFE1
:10142800042210312046FFF7D5FF034810BD00BF46
:101438000070FF1F9A0000209800002010B5044C8F
:1014480004480A46214603F0AFFD204610BD00BF00
:10145800D44F00202887000810B5044C04480A46D9
:10146800214603F0A1FD204610BD00BFD44F002047
:101478003B87000810B5044C04480A46214603F08F
:1014880093FD204610BD00BFD44F002051870008AF
:1014980010B5044C04480A46214603F085FD204651
:1014A80010BD00BFD44F00205C87000800207047A3
:1014B80021280CD022281BD0202806D1124B0A79CB
:1014C8001A714A795A718A799A71002070470E4BBD
:1014D8001A680A701A68120A4A705A888A70DA7882
:1014E800CA701A790A715A794A719B798B71ECE73B
:1014F8004B88064A03F0010111701278044AC3F3BD
:1015080040031370E1E700BFB4000020E071002041
:10151800E171002008B5094800F086F8084800F095
:10152800CDF8074800F0D3F80146064803F090FFCD
:10153800054B01221A70002008BD00BFDA610020A7
:10154800D4510020F84C0020D00000201FB50E4CCC
:10155800D4F8BC32D3F814329BB90C480DF10E0103
:1015680000F08CF8BDF80E305BB1019002F036FB4C
:10157800BDF80E200199204603F05CFF204603F0D9
:1015880073FF04B010BD00BFF84C0020DA610020E2
:1015980008B5034800F089F8FFF7D8FF002008BD18
:1015A800DA61002038B50A4D2B780BB1002038BD20
:1015B800084800F08CF801460028F7D001240648B6
:1015C8002C7003F045FF044803F069FF2046EEE75E
:1015D800D0000020D4510020F84C0020D0F8D422AC
:1015E800B03208B550F8223033B100231A46012131
:1015F800FFF7B2FE002008BD0320FCE708B5098804
:10160800064800F098F8064B00221A70FFF7CAFF48
:1016180010B90448FFF7E2FF002008BDD4510020AC
:10162800D0000020F84C002000F5805000234380B3
:10163800038070472DE9F04100F58056054634884F
:101648003088A4B2C4F580549442884617460BD912
:1016580015FA80F0FEF7D6FF338817FA83F2C2F343
:101668000B023280BDE8F081224615FA80F0FEF7C1
:10167800C9FF3A1B08EB04012846EBE700F5805246
:1016880010B514885388A4B29BB29C422BBF138810
:1016980053885488C3F5805328BF1B1B9BB20B800B
:1016A8009380538810FA83F010BD00F5805042886B
:1016B80083881344C3F30B034380704700F58050BD
:1016C8000023438003804FF480538380704700F5E4
:1016D800805382B05A8892B2ADF806201988BDF8B6
:1016E800062089B292B291421A8892B21BD3B2F5FF
:1016F8007C6F08D31A8892B2B2F57C6F08D1BDF816
:10170800062092B222B11B8810FA83F002B070470B
:10171800BDF8062092B2402A0BD91A8892B29A8054
:1017280000221A80EFE7BDF80610403289B28A42DB
:10173800E9D30020EAE700F58050038811FA83F125
:1017480089B201800288838892B29BB29A4224BFF0
:101758004FF48053838003889BB2B3F5805F24BF26
:1017680000230380704700F5805282B013889BB233
:10177800ADF8043093889BB2ADF806305188BDF8B7
:10178800043089B29BB2994206D8BDF80400538848
:10179800C01A80B202B07047BDF80630BDF8040028
:1017A800528880B210FA83F0801AF2E773B50646C1
:1017B80006F5805508462B889BB2ADF80430AB88F7
:1017C8009BB2ADF806306988BDF8063089B29BB285
:1017D800994224BF00236B806988BDF8043089B220
:1017E8009BB2994294BFBDF80430BDF806306C88AE
:1017F80069881B1B9CB2944228BF1446224616FADD
:1018080081F1FEF7FFFE6B8814FA83F39BB26B80BD
:101818006A88BDF8063092B29BB29A4228BF00236C
:10182800204628BF6B8002B070BD704708B500F035
:1018380093F9332008BD08B52421322000F0D8F9E7
:1018480060F07F00C2B2BDE808402421322000F0D9
:10185800CDB910B5044600F07FF9FFF7ECFFE2B20E
:101868002021322000F0C2F9220A2321BDE81040CD
:10187800322000F0BBB910B521210446322000F017
:10188800B7F900F00C0040EA04022121BDE810403D
:10189800322000F0ABB910B521210446322000F007
:1018A800A7F900F0F70040EA04022121BDE8104042
:1018B800322000F09BB92DE9F0472321074632205A
:1018C80000F096F924218046322000F091F9282171
:1018D800322000F08DF9292145B2322000F088F934
:1018E8002A214FFA80FA322000F082F92B2144B2E3
:1018F800322000F07DF92C214FFA80F9322000F0D7
:1019080077F92D2146B2322000F072F918F0400F15
:1019180043B208F030021DBF0AEB052509EB042489
:1019280003EB062605EB0A2504BF04EB092406EBA6
:101938000326202A0DD0302A0DD0102A14BF0123E7
:1019480002235D435C4373433D607C60BB60BDE83C
:10195800F0870423F5E70C23F3E710B521210446AB
:10196800322000F045F900F0FB0040EA0402212192
:10197800BDE81040322000F039B910B522210446E4
:10198800322000F035F92043C2B2BDE810402221D0
:10199800322000F02BB910B538210446322000F06F
:1019A80027F92043C2B23821322000F01FF90A2259
:1019B8003A21322000F01AF905223B21322000F0AA
:1019C80015F905223C21322000F010F93222BDE839
:1019D80010403D21104600F009B908B500F0DEF8C6
:1019E8008020FFF7CAFF0420FFF7B7FFBDE80840D3
:1019F8001020FFF7D0BF000070B52D4D88B02846E5
:101A080002F066FD044600284FD12A4B2B60432381
:101A1800EB60294B294E0190C5E901304FF4804312
:101A2800C5E90430C5E906002862336C43F40013A5
:101A38003364336C03F400130193019B0290336BFE
:101A480043F002033363336B059403F002030293FC
:101A5800029B4FF4107012234FF0020CCDE90303E0
:101A680003A904231648CDE906C301F0AFFE336A83
:101A780043F400133362336A23F4001333622246BB
:101A88000F211F2002F00CF81F2002F03BF822461D
:101A98000F21202002F004F8202002F033F8284615
:101AA80008B0BDE8704002F0B1BA08B070BD00BF20
:101AB800E471002000540040A08601000038024074
:101AC800000402407FB500238DF817300B4B1B68CC
:101AD80002930A4601230DF1170100910193014673
:101AE800074802F0E5FB20B1054802F037FBFFF795
:101AF80083FF9DF8170007B05DF804FB180100206C
:101B0800E47100207FB50C4B8DF817201B680293F9
:101B18000DF117020123009201930A460146074876
:101B280002F036FB20B1054802F018FBFFF764FF0E
:101B380007B05DF804FB00BF18010020E471002025
:101B4800034B33F81010034B53F8200001F08DBFFE
:101B58006A870008080100207FB500230D4A00931A
:101B6800116B0D4841F010011163126B039302F0E1
:101B780010020092009A0422CDE901230DEB020124
:101B88000223049301F022FEFFF736FF07B05DF849
:101B980004FB00BF003802400010024010B586B0B8
:101BA8000024104B00941A6B0F4842F010021A637D
:101BB8001B6B03F010030093009B30224FF4881333
:101BC800CDE9012301A90223CDE9034301F0FEFD7C
:101BD80022460F210A2001F063FF0A2001F092FF3C
:101BE80006B010BD0038024000100240FFF78ABF5F
:101BF800FFF768BF38B5094CA368984733280BD15D
:101C0800074D23682C6041F6770098472B68902091
:101C18009B6A9847002038BD0120FCE7D4000020CB
:101C28003872002038B5084D2B681B6B04464BB141
:101C38009847064B2A689A4201BFD4E900325B42B2
:101C48002260636038BD00BF38720020D4000020D5
:101C5800FEE708B50020FFF773FFFEE7FEE7FEE7A3
:101C6800FEE770477047704701F0ACBF014800F0CD
:101C7800A1BA00BFF445002082B00D4B00210091AD
:101C88005A6C42F480425A645A6C02F480420092C0
:101C9800009A01911A6C42F080521A641B6C03F08E
:101CA80080530193019B072002B001F0E7BE00BFFB
:101CB8000038024030B5044689B01422002103A838
:101CC800FEF73AFD2268144B9A4222D1134C14486D
:101CD80000250195236B43F002032363236B03F074
:101CE80002030193019B4FF410721223CDE90323E1
:101CF8000123059303A90423079301F067FD0295C7
:101D0800236C43F400132364236C03F4001302933D
:101D1800029B09B030BD00BF0054004000380240AB
:101D28000004024008B50268094B9A420FD1094ADB
:101D38000948136C23F400131364402101F00EFECC
:101D4800BDE8084004484FF4007101F007BE08BD23
:101D58000054004000380240000402400B4A116859
:101D680010B5034609B90A491160106809490A4CB7
:101D78000344091B8B4206D9FEF7D8FB0C230360EA
:101D88004FF0FF3010BD1360FCE700BF3C7200202D
:101D9800507200200000022000040000012070475B
:101DA80008B5FEF7C3FB162303604FF0FF3008BDEC
:101DB80008B5FEF7BBFB16230360FEE7DFF834D057
:101DC80000F026F80C480D490D4A002302E0D458CB
:101DD800C4500433C4188C42F9D30A4A0A4C00236D
:101DE80001E013600432A242FBD3FEF7A5FBFFF724
:101DF80013F870470000022000000020B401002002
:101E0800A8880008B40100204C720020FEE70000FA
:101E1800034AD2F8883043F47003C2F88830704718
:101E280000ED00E0F7B5044610B390F89534056866
:101E380003F0FF021BB980F89424FFF755F9032338
:101E4800B5F1A04F84F8953404BF0023A37120682E
:101E580000F000FE237C8DF80030251D95E80E006B
:101E6800206800F03CFD014620B1022384F8953437
:101E7800012546E0206800F0F3FD0028F5D1267919
:101E880004F1140301270246C1B28E4203F1240370
:101E980017D8002104F515730A46C8B2864203F123
:101EA80024031CD8237C8DF8003095E80E002068A8
:101EB80000F052FE01230546E8B1022284F8952479
:101EC800D6E723F80A0C43E9072203F8237C03F832
:101ED800241C03F8202C43F8142C0130D4E743E9E0
:101EE800072203F8232C03F8240C03F8202C43F8CA
:101EF800142C0131D1E76074206884F8953401F01E
:101F08005DF9284603B0F0BD10B50446006894F8A2
:101F18009434012B15D0012384F89434C3685B06EC
:101F280006D5637B012B02BF836B43F48033836345
:101F380000F08AFD206801F033F9002084F8940449
:101F480010BD0220FCE710B590F89424012A04463D
:101F58000AD0012280F894244174006801F010F935
:101F6800002084F8940410BD0220FCE770B501F04D
:101F78000F0606EBC60411F0800F05464FEA8404ED
:101F88004FF0240020D000FB065004F11401012476
:101F980029444475C2F30A028A604A780E700B71AC
:101FA80002B14E83022B04BF00234B7195F8943481
:101FB800012B12D00123286885F8943400F091FE93
:101FC800002085F8940470BD00FB065004F51571D7
:101FD8000024294480F85542DCE70220F3E710B5D5
:101FE800044601F00F0000EBC00311F0800F4FEA28
:101FF80083034FF0240215D002FB004203F11401C1
:10200800012321445375087094F89434012B12D09D
:102018000123206884F8943400F0A2FE002084F89C
:10202800940410BD02FB004203F5157100232144FE
:1020380082F85532E7E70220F3E738B501F00F05DB
:10204800242404FB050104FB0504C4E998230023A8
:10205800C4F8683284F8553284F854528379006899
:10206800012B08BFC4F8702201F515711A4600F05B
:1020780023FF002038BD01F00F01242303FB0100DA
:10208800D0F86802704738B501F00F05242404FB26
:10209800050104FB0504C4E908230023A362012306
:1020A8006375257583790068012B08BF2263143195
:1020B8001A4600F001FF002038BD38B5037901F059
:1020C8000F05AB4204462BD311F0800F4FF02400CC
:1020D8001DD000FB054200FB054101231431537557
:1020E80001238B700D7094F894249A421AD02068BA
:1020F80084F8943400F0F0FF2DB9A179206804F237
:102108009C4201F0ADF8002084F8940438BD00FB2F
:1021180001431A4603F51571002382F85532DFE7AB
:102128000120F3E70220F1E738B5037901F00F0247
:102138009342044629D302EBC20311F0800F4FEA01
:1021480083034FF0240017D000FB024003F1140171
:1021580001232144437500258D700A7094F8943446
:10216800012B14D00123206884F8943400F0DFFF99
:1021780084F89454284638BD00FB024003F51571D5
:102188000023214480F85532E5E70120F3E70220D7
:10219800F1E701F00F0303EBC3030A064FEA8303D9
:1021A8004CBF03F1140103F515710144006800F0F8
:1021B8002DBE00002DE9F04F066889B00446304670
:1021C80001F039F80390002840F05481206801F0AC
:1021D80003F8002800F04E81D6F808382068C3F3C9
:1021E8000D23C4F8D43400F0F7FF870748BF2268EE
:1021F800206842BF536903F00203536100F0ECFF0B
:10220800C00606F500652CD52268936923F01003F3
:102218009361D6F82080C8F34343022B08F00F07D8
:1022280040F02B8147F6F07318EA030F14D02423EB
:1022380003FB0747C8F30A19D7F860124A46304625
:1022480000F02AFFD7F860324B44C7F86032D7F85D
:1022580068324B44C7F868322268936943F0100328
:102268009361206800F0B8FF010300F1188120682D
:1022780000F0B2FF42030CD5206800F0B9FF2746F2
:10228800049006F5106A4FF00009049B002B40F0FB
:10229800D281206800F0A0FF002813DA6B6823F0D1
:1022A80001036B6094F8CC34012B40F06B82002161
:1022B80084F8CC14204600F0E9FA2268536903F048
:1022C80000435361206800F087FF07050AD5AB6813
:1022D800D80702D52046FEF77FFF2268536903F42A
:1022E80000635361206800F077FFC10433D56B6841
:1022F800206823F001036B60102100F0E1FB2079D6
:1023080006F510634FF67F31039A904200F23E8241
:10231800EB6943F00113EB61E37B002B00F0528281
:10232800D5F8843043F00B03C5F884306B6C43F068
:102338000B036B64D6F80038206823F4FE63C6F8F4
:10234800003804F29C42A17900F08AFF22685369A0
:1023580003F480535361206800F03EFF820416D5D1
:10236800206800F06CFF206800F0B0FCE07127687E
:1023780001F016FAE2790146384600F0F5FA2046EF
:10238800FEF717FF2268536903F40053536120686E
:1023980000F022FF030707D52046FEF706FF226854
:1023A800536903F008035361206800F015FF07061E
:1023B80000F11382206800F00FFFC0020CD5A04680
:1023C80006F5126901272379BB4200F21F822268B1
:1023D800536903F480135361206800F0FDFE810205
:1023E8002BD594F804E0234606F532614FF0010C32
:1023F800E6451DD993F87C720868012F40F01C82CD
:10240800002880F21982D4F8D42482EA1040C20746
:1024180000F1128283F87B72B06940F08000B061ED
:102428007069000600F108826B6843F400736B6002
:102438002268536903F400135361206800F0CCFE4E
:10244800410007D52046FEF7EBFE2268536903F0EA
:1024580080435361206800F0BFFE42070AD5236815
:102468005D686B0702D52046FEF7DEFE22685368DA
:102478002B43536009B0BDE8F08F062B7FF4ECAE18
:10248800082204F29C41304600F006FE242303FB98
:102498000747C8F30A18D7F868324344DAE62068D1
:1024A80000F09EFE06F530680490A2460027049BC3
:1024B800002B3FF4DCAE049BDB0779D55FFA87FB82
:1024C8002068594600F09CFE10F0010F81461FD08D
:1024D800D4F800E00123C8F8083094F806C0DEF804
:1024E80040100EF5306303EB4713BCF1010F9A68F7
:1024F80040F08C80100707D5B048814208D91204F3
:1025080006D54FF4004202E090065AD520229A6080
:1025180019F0080F21D00823C8F808302368A74805
:102528001A6C03F5306303EB47138242996804D9A8
:10253800090444BF4FF40041996020460592FEF714
:102548001DFE9E4B059A9A4207D9A179012904D10B
:10255800206804F29C4200F083FE19F0100F1CBFA3
:102568001023C8F8083019F0020F14D073691A063E
:1025780042BF6B6843F480636B609AF85732012B53
:1025880006D100238AF8573259462046FEF740FE06
:102598000223C8F8083019F0200F1CBF2023C8F800
:1025A800083019F4005F1CBF4FF40053C8F8083016
:1025B800049B5B080137049308F120080AF1240AF8
:1025C80075E712F0280FA3D17C48814201D9100485
:1025D80097D41A69DAF87432C2F312029B1ACAF84D
:1025E800683277B9D4F8642232B904F29C420121E6
:1025F800704600F035FE04E0D4F860221344C4F8B5
:10260800603259462046FEF7BFFD81E76C4881429B
:1026180007D111043FF575AF9006F2D520229A60D4
:10262800EFE7002FEDD1D4F86432002BE9D104F2A2
:102638009C423946DCE7049BDB0740F19A805FFA4D
:1026480089FB2068594600F0E4FD10F0010F804630
:1026580020D001216B6B09F00F0201FA02F223EA84
:1026680002036B63CAF808100B46A17999420DD191
:10267800D7E9072313443B62B9F1000F06D1636A17
:1026880023B9206804F29C4200F0EAFD594620462E
:10269800FEF783FD18F0080F1CBF0823CAF808309E
:1026A80018F0100F1CBF1023CAF8083018F0400F9C
:1026B8001CBF4023CAF8083018F0020F10D0494652
:1026C800304600F0FDF9FB7D012B06D14FF00003E9
:1026D800FB7559462046FEF79FFD0223CAF80830CD
:1026E80018F0800F45D0D7E909329A4241D89B1A91
:1026F800FA6921680591934228BF134603339B0862
:10270800069301F5106303EB49130793079B06989B
:10271800996989B28142D7E9093228D393420CD802
:10272800059B09F00F01D3F83428012000FA01F1C4
:1027380022EA0102C3F834281BE0A3EB0208FB6974
:102748000598984528BF984608F103039B08069307
:10275800A3790093396A1FFA88F35A4600F098FB68
:102768003B6A43443B62BB6A4344BB62CEE7934245
:10277800D6D9049B5B0809F10109049324370AF1AF
:10278800200A82E52046FEF73FFD96E599601A6823
:1027980022F400121A60C3F80812D3F8002222F4B7
:1027A8000012C3F80022D3F8002242F00062C3F8F6
:1027B8000022039A013203922033A5E50A30544FD0
:1027C8000A31544F6B6943F4005343F02B036B6198
:1027D8002B6943F00B032B61ACE5B36923F080034D
:1027E800B361012704F257284FF024092379BB422B
:1027F8007FF6E0AD09FB07F318F80330012B03D18E
:10280800F9B22046FFF7C5FC0137EFE798F83C30EE
:10281800D9F80020012B09D1002A07DA67F07F01D7
:1028280088F83B30C9B22046FFF7B3FC013708F1FE
:10283800240809F12009C6E50CF1010C24332031E4
:10284800D6E500BF006870B51204446A19B922437E
:102858008262002070BD836A4D1E04EB134400237E
:102868005E1CDBB29D4205D83F3100EB810022435C
:102878004260EEE7403300EB83035B6804EB1344EC
:102888003346EDE70368002059627047704782B00D
:1028980000230193019B01330193019BB3F1706FF6
:1028A8001BD80369002BF5DA0A230193019B8BB926
:1028B800036943F001030361019B01330193019B09
:1028C800B3F1706F09D8036913F00103F4D1184606
:1028D80002B07047019B013BE7E70320F8E784B0AB
:1028E80038B505AD85E80E009DF81930012B044672
:1028F80027D1836B23F480338363C36823F4840371
:1029080023F04003C360C36823F44013C3609DF8F9
:102918002030012B02BFC36843F48013C360FFF764
:10292800B6FF9DF81630012B07D1A36843F00603C4
:10293800A360A36843F02003A360BDE8384004B057
:102948007047C36843F04003C360FFF7A0FF9DF8DA
:102958001D3023B9A36B43F48033A363E1E7A36B72
:1029680023F48033F9E70000022A4AD1274B284A8A
:102978000B44934239D9274B274A0B44934236D903
:10298800264AA1F57403A3F51053934231D9244A7A
:10299800A1F18373A3F5E74393422CD3214B224A39
:1029A8000B44934229D9214B214A0B44934226D305
:1029B800204B214A0B44934223D3204AA1F1B773F9
:1029C800A3F5585393421ED31D4B1E4A0B44934202
:1029D80034BF07230623C26822F47052C260C2685B
:1029E80042EA8323C360002070470F23F3E70E23D6
:1029F800F1E70D23EFE70C23EDE70B23EBE70A23C1
:102A0800E9E70923E7E70823E5E700BF405327FF85
:102A1800FF340C00401E1BFF3F420F007F4F120087
:102A280020D6130060B6E5FE5FE3160000D3CEFEA5
:102A380040771B00C05BB3FEC091210020753800B1
:102A4800E05459FEE09C4100836843F00103836031
:102A580000207047836823F00103836000207047DB
:102A680038B5C368012923F0C0430546C36010D1B7
:102A7800C36843F00053C36000240A2001F0B4F88F
:102A88006B69D90704F10A0415D4C82CF5D10120C3
:102A980038BD0029FBD1C36843F08043C3600C46AE
:102AA8000A2001F0A1F86B69DA0704F10A0402D5DB
:102AB800C82CF5D1EBE7A4F1C80358425841E7E721
:102AC80082B000230193019B01330193019BB3F171
:102AD800706F16D80369002BF5DA8901002341F0DD
:102AE800200101930161019B01330193019BB3F123
:102AF800706F06D8036913F02003F4D1184602B0AA
:102B080070470320FBE782B000230193019B013348
:102B18000193019BB3F1706F14D80369002BF5DAA8
:102B28000023019310230361019B01330193019B4F
:102B3800B3F1706F06D8036913F01003F4D1184687
:102B480002B070470320FBE7D0F800381943C0F8FB
:102B5800001800207047000084B02DE9F8430446AF
:102B680009A880E80E0000239DF824609DF82E50E7
:102B7800194603F1400204EB820201330F2B516026
:102B8800F7D104F50067002D6CD17B6843F0020390
:102B98007B60A36B43F40013A363A36B23F40023AC
:102BA800A363A36B23F48023A3630023C4F8003E2C
:102BB8009DF82930012B5FD19DF82710002959D1A4
:102BC8002046FFF7C1FF10212046FFF779FF024694
:102BD8002046FFF798FF1043C0B2002300383B613E
:102BE80018BF01207B6104F51062FB6119464FF0A4
:102BF800904C4FF0006E4FF67F389E423ED8002230
:102C080004F5306311464FF0904C4FF0006E4FF6CC
:102C18007F38964245D83B6923F480733B61002393
:102C2800A3616FF0804363619DF826301BB9A369E7
:102C380043F01003A361A269234B1343A3619DF8DA
:102C48002A301BB1A36943F00803A361012D01BF1A
:102C5800A36943F0804343F00403A361BDE8F8434C
:102C680004B07047A36B23F40013A363A36B43F46E
:102C7800002399E71946A3E70321A1E7D2F80090BA
:102C8800B9F1000F0BDA3BB9C2F800E0116101336A
:102C9800C2F808802032B0E7C2F800C0F6E7116039
:102CA800F4E7D3F80090B9F1000F0BDA3AB9C3F89A
:102CB80000E019610132C3F808802033A9E7C3F89E
:102CC80000C0F6E71960F4E700383C80D0F808380F
:102CD80013F0060004D013F0020F14BF02200F20D7
:102CE800704730B50D78012405F00F039C404B78F0
:102CF80000F50062012B00EB4510D36918D11C4385
:102D0800D461D0F800391A0410D48A68D0F8004980
:102D1800C2F30A030A79234343EA824343EA855309
:102D280043F0805343F40043C0F80039002030BD1D
:102D380043EA0444D461D0F8003B1B04F6D48B6802
:102D4800D0F8002BC3F30A0313430A7943EA8243FA
:102D580043F0805343F40043C0F8003BE6E700002B
:102D680010B50A784978012900EB421300F5006094
:102D780002F00F0222D1D3F8001900290BDAD3F898
:102D8800001941F00061C3F80019D3F8001941F0A7
:102D98008041C3F80019C46B012101FA02F224EA48
:102DA8000204C463C16921EA0202C261D3F80019AE
:102DB800144A0A40C3F80029002010BDD3F8001BAC
:102DC80000290BDAD3F8001B41F00061C3F8001B9F
:102DD800D3F8001B41F08041C3F8001BC46B4FF4CB
:102DE800803101FA02F224EA0204C463C16921EACB
:102DF8000202C261D3F8001B034A0A40C3F8002B41
:102E0800DAE700BF007833EC0078F3EF82B00023F4
:102E18004A7801930B78012A4FEA43131ED100F533
:102E28001060C118C258002A02DB002002B07047A7
:102E3800C25842F00062C250C25842F08042C250AA
:102E480042F21072019B01330193019B934201D915
:102E58000120EBE70B68002BF4DBE6E700F53060B8
:102E6800C118C258002AE0DAC25842F00062C250C3
:102E7800C25842F08042C25042F21072019B0133A4
:102E88000193019B9342E3D80B68002BF6DBCCE758
:102E980010B59DF8084044B9033301329B0800EB94
:102EA800023001EB83038B4201D1002010BD51F8A1
:102EB800042B0260F7E700002DE9F3414B7891F805
:102EC80000C00C690E79DFF8C8E1DFF8C881012B72
:102ED80000EB4C1540F08A8005F510673B6944BB50
:102EE80003EA0E033B613B6943F400233B613B6902
:102EF80003EA0803012A3B614ED1CB6903B17B6128
:102F0800012E0CD1D0F8083813F4807FD5F8003999
:102F18000CBF43F0005343F08053C5F80039D5F88F
:102F2800003943F00443C5F80039002002B0BDE879
:102F3800F08103EA08033B613B6903EA0E033B6146
:102F48008B68BCF1000F0CD19C4288BF0B613B69B8
:102F580043F400233B610B693C69C3F31203234329
:102F6800C8E71C44013CB4FBF3F4484BD7F810E025
:102F78001FFA84F803EAC44444EA0E04012E3C61B3
:102F8800E9D13B6923F0C0433B613C694FEA487390
:102F980003F0C0432343DDE7D5F80039012E43F0A1
:102FA8000443C5F800390B690CD0002BBDD0D0F80C
:102FB80034380CF00F0C012202FA0CF21A43C0F854
:102FC8003428B2E7D0F8084814F4807FD5F80049CF
:102FD8000CBF44F0005444F08054C5F800490092F6
:102FE800C9689BB26246FFF753FF9EE7D5F8103BCE
:102FF80003EA0803C5F8103BD5F8103B03EA0E03B3
:1030080005F530673B618B68BCF1000F26D104B130
:103018000B610B623C69C3F3120323433B613B69B9
:1030280043F40023012A3B6102D1CB6803B17B61E1
:10303800012E0CD1D0F8083813F4807FD5F8003B66
:103048000CBF43F0005343F08053C5F8003BD5F85C
:10305800003B43F00443C5F8003B66E7002CD9D099
:103068001C44DFF828C0D7F810E0013CB4FBF3F4A7
:10307800A4B263430CEAC44444EA0E040B623C6104
:103088003C69C3F312032343CCE700BF0000F81FD9
:10309800FFFF07E00000F8FF034670B59008002422
:1030A80002F0030203F58055844210D301EB80003F
:1030B80062B103F580531C680023D90024FA01F19A
:1030C800C154013399B28A42F7D1104470BD2E68B9
:1030D80041F824600134E7E74A780B78012A00EBCD
:1030E800431012D1D0F80029002A06DB2BB1D0F802
:1030F800003923F08043C0F80039D0F8003943F490
:103108000013C0F8003900207047D0F8002B002ABF
:1031180006DB2BB1D0F8003B23F08043C0F8003B1E
:10312800D0F8003B43F40013C0F8003BEBE70B7802
:103138004A7800EB43100B79012AA3F10203DBB2B2
:103148000FD1D0F80029012B22F40012C0F8002971
:1031580005D8D0F8003943F08053C0F80039002072
:103168007047D0F8002B22F40012012BC0F8002B76
:103178009EBFD0F8003B43F08053C0F8003BEEE719
:10318800D0F8003823F4FE63C0F80038D0F80038CF
:10319800090101F4FE611943C0F8001800207047C6
:1031A800D0F8003E23F00303C0F8003ED0F80438FE
:1031B80023F00203C0F8043800207047D0F8003E1E
:1031C80023F00303C0F8003ED0F8043843F00203AC
:1031D800C0F8043800207047426980691040704781
:1031E800D0F8183800F50060C0691840000C704726
:1031F800D0F8183800F50060C069184080B27047F0
:1032080000EB411100F50060D1F8082B406910402F
:10321800704710B5D0F81048D0F8343800EB41109A
:1032280001F00F01CB4000F51060DB018068DBB2D4
:103238002343184010BD406900F001007047D0F8E2
:10324800003923F4FF6323F00703C0F80039D0F8EE
:10325800043843F48073C0F8043800207047000035
:1032680030B5056C104CA54200F5306303D9D0F891
:10327800004B002C16DB00241C611C6944F400245C
:103288001C611C6944F018041C611C69012944F084
:10329800C0441C6101BF5A61D0F8003B43F0802351
:1032A800C0F8003B002030BD0A30544F2DE9F341EF
:1032B800044640B30368DD0710D4236898075ED43A
:1032C80023681A0700F1A08023685B0700F1C0801B
:1032D800A069002840F0288100202BE08F4B9A68D5
:1032E80002F00C02042A07D09A6802F00C02082A9D
:1032F8000BD15A68510208D5884B1B689A03DCD554
:103308006368002BD9D1012014E06268B2F5803FD0
:1033180013D11A6842F480321A6000F05FFC7F4EC5
:10332800054633689B03C8D400F058FC401B64284A
:10333800F7D9032002B0BDE8F081784DB2F5A02F8F
:103348002B6807D143F480232B602B6843F4803328
:103358002B60E2E723F480332B602B6823F480236F
:103368002B60002AD9D100F039FC06462B689F0350
:10337800A3D500F033FC801B6428F7D9D9E7674B45
:103388009A6812F00C0F07D09A6802F00C02082A0B
:1033980011D15B685E020ED4604A13689D0702D59E
:1033A800E368012BAFD11368216923F0F80343EADE
:1033B800C103136084E7E268594BB2B101221A6075
:1033C80000F00CFC554D06462B68980707D52B686E
:1033D800226923F0F80343EAC2032B6070E700F088
:1033E800FDFB801B0228EFD9A3E71A6000F0F6FB6B
:1033F8004A4E0546336899077FF562AF00F0EEFB49
:10340800401B0228F6D994E76269454B82B1012234
:10341800C3F8802E00F0E2FB404E0546736F9F070D
:103428003FF552AF00F0DAFB401B0228F6D980E7DF
:10343800C3F8802E00F0D2FB384E0546736F98070C
:103448007FF542AF00F0CAFB401B0228F6D970E7AF
:10345800324B1A6C12F0805228D101921A6C42F049
:1034680080521A641B6C03F080530193019B01275F
:103478002C4D2B68D9051BD5A368284D012B27D1C6
:103488002B6F43F001032B6700F0A8FB234E054682
:1034980041F28838336F9B0739D5002F3FF418AFB6
:1034A8001E4A136C23F08053136411E70027DFE7EB
:1034B8002B6843F480732B6000F090FB06462B6862
:1034C800DA05D9D400F08AFB801B0228F7D930E747
:1034D800052B04D12B6F43F004032B67D0E72A6F29
:1034E80022F001022A672A6F22F004022A67002BC1
:1034F800CAD100F073FB41F2883806462B6F980753
:10350800CBD500F06BFB801B4045F7D911E700F0E5
:1035180065FB401B4045BDD90BE700BF00380240A2
:103528000000474200700040364DAB6803F00C03C2
:10353800082B3DD0344B002202281A662BD100F00C
:103548004DFB06462B6899011FD4D4E90732134373
:10355800626A43EA8213E26A43EA0263A26A520891
:10356800013A43EA02436B60274B264D01221A6653
:1035780000F034FB04462B689A013FF5ADAE00F02D
:103588002DFB001B0228F6D9D3E600F027FB801B91
:103598000228D7D9CDE600F021FB04462B689B0111
:1035A8007FF59AAE00F01AFB001B0228F6D9C0E698
:1035B80001283FF4BFAE6B68E26903F480019142D1
:1035C8007FF4A1AE216A03F03F028A427FF49BAEEA
:1035D800616A47F6C0721A40B2EB811F7FF493AE5E
:1035E800A26A520803F44031013AB1EB024F7FF46A
:1035F8008AAEE26A03F07063B3EB026F3FF46CAE1D
:1036080081E600BF0038024000004742134908B570
:103618008B6803F00C03042B1CD0082B1CD14A68C0
:103628004B68496813F4800314BF0D480D48C1F373
:10363800881118BF002302F03F02A1FB0001FCF72C
:10364800EBFD064B5B68C3F3014301335B00B0FB42
:10365800F3F008BD0248FCE70248FAE700380240E8
:1036680000127A000024F4002DE9F0410D460446CA
:1036780010B90120BDE8F081444B1A6802F0070236
:103688008A4228D3226897072DD4D00741D43F4BCC
:103698001A6802F00702AA4266D8226851076CD459
:1036A800130707D53A4A2169936823F4604343EA2C
:1036B800C1039360FFF7AAFF354B364A9B68C3F3F3
:1036C8000313D35CD840344B1860344B186800F0AF
:1036D8003BFA0020CEE7CAB21A701B6803F0070352
:1036E8008B42C6D1CEE72A4B12F0040F1EBF996851
:1036F80041F4E0519960160742BF996841F460416E
:1037080099602349A0688B6823F0F00303438B601A
:10371800BBE762681E4B012A1CD11B6813F4003FEB
:10372800A7D01B4EB36823F003031343B36000F024
:1037380055FA41F288380746B368626803F00C030B
:10374800B3EB820FA3D000F049FAC01B4045F3D970
:1037580003208FE7911E01291B6802D813F0007F10
:10376800DEE713F0020FDBE7EAB21A701B6803F01A
:103778000703AB427FF47DAF8FE70549E0688B68AC
:1037880023F4E05303438B608AE700BF003C024008
:1037980000380240728700081C0100202401002024
:1037A800014B1868704700BF1C010020044B054AF4
:1037B8009B68C3F38223D35C034A1068D8407047E0
:1037C80000380240828700081C0100202DE9F74FCD
:1037D800DFF884915E4A00230D6801249C4004EAC6
:1037E800050CAC4340F0A5804D6805F003044FEA92
:1037F80043080326671E06FA08F6012F6FEA060635
:1038080034D8876807EA060ECF6807FA08F747EA48
:103818000E078760476827EA0C0EC5F300179F401C
:1038280047EA0E074760C76807EA060E8F6807FA77
:1038380008F747EA0E07022CC76019D14FEAD30AE6
:1038480000EB8A0A03F0070BDAF820704FEA8B0BBB
:103858004FF00F0E0EFA0BFE27EA0E0E0F6907FA4D
:103868000BF747EA0E07CAF8207001E0032CDAD1FB
:10387800076804FA08F43E40264315F4403F066002
:1038880057D04FF0000ACDF804A0D9F84460314C65
:1038980046F48046C9F84460D9F8446006F4804686
:1038A8000196019E23F0030606F1804606F59C3634
:1038B80003F0030ED6F808804FEA8E0E0F2707FA9A
:1038C8000EF7A04228EA07073AD004F58064A04220
:1038D80038D004F58064A04236D004F58064A04254
:1038E80034D004F58064A0420CBF0424072404FAF1
:1038F8000EF43C43B46094686FEA0C06EF0254BFC0
:1039080034404CEA04049460D468AF0254BF344095
:103918004CEA0404D4605468AF0354BF34404CEA02
:10392800040454601468ED0354BF34404CEA0404A2
:1039380014600133102B7FF44FAF03B0BDE8F08F54
:103948005446D4E70124D2E70224D0E70324CEE783
:10395800003C014000000240003802403B4A2DE98B
:10396800F04F00234FF0010A4FF00F084FF0030B00
:103978000AFA03FC3CEA01040CEA010658D123F0D8
:10398800030404F1804404F59C3403F00307A5689C
:10399800BF0008FA07F909EA050E2D4DA8424CD0D8
:1039A80005F58065A8424AD005F58065A84248D04B
:1039B80005F58065A84246D005F58065A8420CBF8C
:1039C80004250725BD40754513D1156825EA060568
:1039D8001560556825EA06055560D56825EA060587
:1039E800D560956825EA06059560A56825EA090564
:1039F800A56005685C000BFA04F4DE0825EA0405F6
:103A080000EB8606056003F00705376AAD0008FA83
:103A180005F527EA05053562C56825EA0405C56088
:103A2800456825EA0C054560856825EA0404846034
:103A38000133102B9CD1BDE8F08F0025C2E701258A
:103A4800C0E70225BEE70325BCE700BF003C0140F4
:103A5800000002400369194214BF0120002070478A
:103A68000AB1816170470904FBE7436901EA03026F
:103A780021EA030141EA0241816170470749CA68A6
:103A880022F4E0620302120403F4E063120C13430D
:103A980043F0BF6343F40033CB60704700ED00E0B0
:103AA800164B30B5DC68C4F30224C4F10705231DA6
:103AB800042D28BF0425062B4FF0FF338CBF033C91
:103AC800002403FA05F521EA0501A34022EA0302CE
:103AD800A140002841EA0203ACBF00F16040084A57
:103AE8004FEA0313B8BF00F00F00DBB2AABF00F51E
:103AF8006140135480F8003330BD00BF00ED00E092
:103B080014ED00E0002808DB0123420900F01F0043
:103B180003FA00F0014B43F82200704700E100E08F
:103B28000138B0F1807F0BD24FF0E023054A58618D
:103B3800F02182F823100020072298611A6170474B
:103B48000120704700ED00E038B50E4A0E4B0546DF
:103B580018784FF47A73B3FBF0F31068B0FBF3F006
:103B6800FFF7DEFF044658B90F2D09D8024629464B
:103B78004FF0FF30FFF794FF044B20461D6038BD1F
:103B88000120FCE71C010020200100202401002066
:103B980008B50B4B1A6842F400721A601A6842F4AE
:103BA80080621A601A6842F480721A600320FFF774
:103BB80065FF0020FFF7C8FFFEF75EF8002008BD8C
:103BC800003C0240034A044B11681B780B44136005
:103BD800704700BF4072002020010020014B186888
:103BE800704700BF4072002038B50446FFF7F6FF63
:103BF800631C1CBF054B1B78054618BFE418FFF76C
:103C0800EDFF431BA342FAD338BD00BF20010020BB
:103C180001684B6913F480634FF0000210D06FF411
:103C280080634B612023026380F83D3080F83E209A
:103C3800036C80F83C2043F00403036401207047C0
:103C4800184670472DE9F84606460F4691461D4628
:103C58004FEA114A3368BAF1010F0CBF5C699C69DD
:103C680027EA0404A4B2B4FA84F46409A14501D093
:103C7800002025E06A1CEED0FFF7B0FF089BC01AB1
:103C8800A84201D8002DE5D13368BAF1010F0CBF65
:103C98005B699B6927EA03039BB2B3FA83F35B0969
:103CA8009945D7D100232022336386F83D2086F832
:103CB8003E30326C86F83C3042F0200232640120FB
:103CC800BDE8F8862DE9F04104460F4616469846A9
:103CD8002568686927EA000080B2B8B16B695A059F
:103CE80016D52B6843F400732B606FF480636B6107
:103CF80020220023236384F83D2084F83E30226C80
:103D080042F00402226484F83C300120BDE8F081CE
:103D1800731CDED0FFF762FFA0EB0800B04201D8A9
:103D2800002ED5D123685A6927EA020292B2002AE6
:103D3800CED000232022236384F83D2084F83E302F
:103D4800226C42F02002DDE770B504460D461646A7
:103D580023685B691B0601D5002070BD2046FFF76C
:103D680057FFC8B96A1CF3D0FFF738FF801BA84279
:103D780001D8002DECD123685B6913F08003E7D1EB
:103D88002022236384F83D2084F83E30226C84F896
:103D98003C3042F0200222640120DEE72DE9F043A6
:103DA8001546026885B0DDE90C789946136843F436
:103DB800807313600E463B46CDF8008000224FF01A
:103DC80001110446FFF73EFF236838B11B68DB0585
:103DD80002D54FF40073236403200AE006F0FE06C0
:103DE8001E61194943463A462046FFF76BFF18B152
:103DF800012005B0BDE8F083236803905A69039257
:103E08009B690393424639462046039BFFF79CFF74
:103E180040B1236C042B01BF2268136843F400737C
:103E28001360E5E7B9F1010F236802D1EDB21D6116
:103E3800DFE72A0A1A61394642462046FFF784FF1F
:103E48000028E6D12368F1E7020001002DE9FF47C9
:103E58009A46036815461A6842F480621A601A681E
:103E6800DDE90C7842F480721A600E463B46CDF8C4
:103E7800008000224FF001110446FFF7E3FE23689B
:103E880048B11B68DB0502D54FF400732364032097
:103E980004B0BDE8F0875FFA86F906F0FE061E61F9
:103EA8002A4943463A462046FFF70CFF08B101204D
:103EB800EEE7236803905A6903929B69039342468D
:103EC80039462046039BFFF73FFF40B1236C042B84
:103ED80001BF2268136843F400731360E7E7BAF17F
:103EE800010F23681AD1EDB21D61424639462046BA
:103EF800FFF72AFF0028E9D12268136843F480738A
:103F080013604FF001110246CDF800803B46204671
:103F1800FFF798FE226860B11368B3E72A0A1A61AE
:103F2800394642462046FFF70FFF0028CED12368C6
:103F3800D9E749F001031361044943463A4620464C
:103F4800FFF7C0FE003818BF0120A1E702000100FA
:103F580070B504460D46164623685B695B0701D5B4
:103F6800002070BD2046FFF753FEC8B96A1CF3D085
:103F7800FFF734FE801BA84201D8002DECD123683E
:103F88005B6913F00403E7D12022236384F83D2002
:103F980084F83E30226C84F83C3042F020022264DF
:103FA8000120DEE770B504460D46164621684B69C8
:103FB80013F0400301D0002010E04A69D2060ED564
:103FC8006FF010024A612022236384F83D2084F8B0
:103FD8003E30226C226484F83C30012070BDFFF72B
:103FE800FDFD801BA84201D8002DDFD123685B6945
:103FF80013F04003DAD12022236384F83D2084F8AB
:104008003E30226C42F02002E4E7000070B504461E
:1040180008B9012070BD90F83D3003F0FF021BB9CC
:1040280080F83C20FDF746FE242384F83D302368C1
:104038001A6822F001021A601A6842F400421A60F3
:104048001A6822F400421A60FFF7B0FB3F4B65681C
:104058009D4294BF3E4B3F4B98428CBF00230123A7
:10406800002BD6D12268394E53683B49B0FBF1F199
:1040780023F03F030B43B542536088BF4FF4967655
:10408800136A88BF714323F03F0384BF4FF47A76E5
:10409800B1FBF6F1013119431162D169431E2B4876
:1040A80021F44F41854221F0FF0132D86D0040F6DE
:1040B800FC70B3FBF5F30133034242D0C3F30B03A7
:1040C8000B43D361D4E907301168034321F0C001E1
:1040D8000B4313609168D4E9030321F403410343BC
:1040E80021F0FF010B439360D4E90530D168034305
:1040F80021F0FF010B43D360136843F00103136001
:1041080000202023206484F83D30206384F83E009A
:1041180080E7A06850B905EB4505B3FBF5F301331B
:10412800C3F30B037BB143F40043C9E719204543AC
:10413800B3FBF5F30133C3F30B0323B143F440435B
:10414800BEE70423BCE70123BAE700BFA08601004D
:104158007F841E00FF083D0040420F0010B5044652
:1041680098B10268242380F83D30136823F00103D6
:104178001360FDF7D7FD0020206484F83C0084F824
:104188003D00206384F83E0010BD0120FCE70000DC
:104198002DE9F743044699460C9E0F469046FFF7D3
:1041A8001DFD94F83D30202B054603D0022003B0B6
:1041B800BDE8F08300903C49192301222046FFF70F
:1041C80041FD0028F2D194F83C30012BEED0206854
:1041D800012384F83C300368D9075EBF036843F0C5
:1041E80001030360036823F400630360212384F858
:1041F8003D30402384F83E30002323640A9B6362E9
:10420800BDF82C306385638D2385284BE362CDE9A7
:1042180000654B46424639462046FFF7BFFD002859
:104228002AD00120C3E7FFF78FFD40B1236C042B90
:1042380001BF2268136843F400731360F1E7636AEF
:1042480027681A4612F8011B39616262628D218D56
:10425800013A92B262857A69481E80B25207208577
:104268000AD548B15A783A6102336362638D013BDB
:1042780002399BB221856385238D2A463146204623
:10428800002BD0D1FFF764FE0028CFD12268136835
:1042980043F400731360202384F83D3084F83C0015
:1042A80084F83E0083E700BF020010000000FFFF13
:1042B8002DE9F043044687B09946109F0D46904675
:1042C800FFF78CFC94F83D30202B064604D00225DD
:1042D800284607B0BDE8F08300907A4919230122E7
:1042E8002046FFF7AFFC0028F1D194F83C30012BB1
:1042F800EDD02068012384F83C300368DB075EBFFB
:10430800036843F001030360036823F40063036058
:10431800222384F83D30402384F83E300023236470
:104328000E9B6362BDF83C306385638D2385664BC5
:10433800E3622946CDE900764B4642462046FFF720
:1043480085FD054608B10125C2E7228D2368B2B96B
:1043580002905A6902929A690292029A1A6842F481
:1043680000721A60DFF86481238D002B2CD1202283
:1043780084F83D2084F83C3084F83E30A8E7012AD0
:104388000AD11A6822F480621A6003905A6903926B
:104398009A690392039AE1E7022A0ED11A6822F475
:1043A80080621A601A6842F400621A6004905A69BE
:1043B80004929B690493049BD4E705905A6905927B
:1043C8009B690593059BCDE7032B56D8012B15D187
:1043D800324639462046FFF7E5FD0028B3D1236869
:1043E8001A69636A1A70636A01336362238D013B39
:1043F8002385638D013B9BB26385B5E7022B00964D
:104408003B464FF000024146204619D1FFF71AFCFF
:10441800002898D123681A6842F400721A601A6951
:10442800636A1A70626A531C6362238D013B238599
:10443800638D013B9BB2638523681B695370D2E788
:10444800FFF700FC00287FF47EAF23681A6822F487
:1044580080621A601A69636A1A70636A0096013387
:104468006362238D013B2385638D013B9BB263858A
:1044780002463B4641462046C8E732463946204672
:10448800FFF790FD00287FF45EAF23681A69636A1E
:104498001A70628D616A013A92B24B1C6285226879
:1044A8006362238D5069013B9BB2400723857FF5EA
:1044B8005BAF032B02BF136823F480631360136997
:1044C8004B7090E7020010000000FFFF040001009D
:1044D80090F83D007047704790F83D30012B24D18B
:1044E8000223134A80F83D300368934212D0B3F197
:1044F800804F0FD0A2F57C4293420BD002F5806228
:10450800934207D002F58062934203D002F59A32B3
:10451800934204D19A6802F00702062A03D01A6867
:1045280042F001021A60002070470120704700BF66
:104538000000014090F83D30012B28D1022380F87B
:104548003D300368DA6842F00102DA60114A9342AA
:1045580012D0B3F1804F0FD0A2F57C4293420BD01A
:1045680002F58062934207D002F58062934203D03D
:1045780002F59A32934204D19A6802F00702062A99
:1045880003D01A6842F001021A6000207047012027
:10459800704700BF00000140704770477047704780
:1045A800036870B5DD681E69B10704460DD5AA0712
:1045B8000BD56FF002021A61012202779B699B07F3
:1045C80069D0FFF7EAFF00232377710710D56A0740
:1045D8000ED523686FF004021A61022222779B69C4
:1045E80013F4407F20465CD0FFF7D7FF00232377E2
:1045F80033070FD528070DD523686FF008021A6115
:1046080004222277DB699907204650D0FFF7C5FFBF
:1046180000232377F20610D5EB060ED523686FF03A
:1046280010021A6108222277DB6913F4407F2046C2
:1046380043D0FFF7B2FF00232377F00708D5E90737
:1046480006D523686FF001021A612046FCF7CCFBFF
:10465800320608D52B0606D523686FF080021A614A
:10466800204600F0B0F8700608D5690606D523681C
:104678006FF040021A612046FFF791FFB20622D57B
:10468800AB0620D523686FF0200220461A61BDE8EA
:10469800704000F097B8FFF77FFF2046FFF77EFFD6
:1046A80091E7FFF779FF2046FFF778FF9EE7FFF7CE
:1046B80073FF2046FFF772FFAAE7FFF76DFF20465A
:1046C800FFF76CFFB7E770BD264A036890420ED02B
:1046D800B0F1804F0BD0A2F57C42904207D002F592
:1046E8008062904203D002F58062904215D14A68F8
:1046F80023F0700313431B4A904219D0B0F1804F46
:1047080016D0A2F57C42904212D002F58062904207
:104718000ED002F5806290420AD0134A904207D028
:1047280002F58062904203D002F58062904203D184
:10473800CA6823F4407313434A6923F08003134380
:104748008A68C2620A688262064A904204BF0A699D
:104758000263026842F004020260012242610360BF
:10476800704700BF000001400040014010B50446FA
:1047780030B390F83D3003F0FF021BB980F83C20BD
:10478800FFF7A9FE0223206884F83D30211DFFF7BA
:104798009BFF012384F84630002084F83E3084F8DB
:1047A8003F3084F8403084F8413084F8423084F84F
:1047B800433084F8443084F8453084F83D3010BDE7
:1047C8000120FCE77047704778B10023C0F8B83281
:1047D800C0F8C432C0F8D03209B1C0F8B41201230D
:1047E80080F89C320270FCF723BD0320704713B594
:1047F80000230446ADF8063081B1CB6AC0F8B81280
:1048080023B10DF106009847C4F8D002D4F8D83285
:104818000133C4F8D832002002B010BD0320FBE7F2
:10482800FCF758BDD0F8B8320BB11B6818471846CA
:10483800704708B5D0F8B8325B689847002818BFA9
:10484800032008BD38B5044600F2AA25284600F022
:1048580095FB012394F8AA12C4F89432B4F8B03244
:10486800C4F8983201F01F03012B08D0022B0CD09A
:104878008BB929462046BDE8384000F059B9294689
:104888002046BDE8384000F0A9BA29462046BDE8D0
:10489800384000F0D2BA204601F08001BDE8384027
:1048A800FCF736BD70B5044639BBD0F89432032BFB
:1048B80012D1D0F85831B0F8602193420ED9D0F80F
:1048C80064119B1A11449A42C0F85831C0F8641117
:1048D80038BF1A4600F0ABFB002070BD90F89C3240
:1048E800032B06D1D0F8B8321B6913B1C0F8D41223
:1048F8009847204600F0A3FBEEE790F89C32032B84
:10490800EAD1D0F8B8329B69002BE5D00022BDE887
:104918007040C0F8D422184737B50446002943D15F
:10492800D0F89422022A11D18269058CAA4216D99C
:104938000191416A521B29448261416200F05EFB89
:10494800019B1A4619462046FCF706FD94F8A0324A
:1049580013B1002384F8A032002003B030BD0ED17B
:104968004569AA420BD8D0F89822954207D20A4640
:10497800019100F043FB019BC4F89832E1E794F8F9
:104988009C32032B08D1D4F8B832DB6823B100225B
:10499800C4F8D4222046984780212046FCF7B8FC6A
:1049A800204600F057FBD1E790F89C32032BD3D177
:1049B800D0F8B8325B69002BCED00022C0F8D422E0
:1049C80003B0BDE830401847F8B5012380F89C32A1
:1049D800D0F8B83200210446C0F894124160C0F8FB
:1049E800A41280F8A012BBB9002600224025114667
:1049F800012740232046FCF776FC84F86371A4F86D
:104A080060512B46002280212046FCF76CFC84F87C
:104A1800237025843046F8BD5B68002BE4D09847A6
:104A28000028E1D00326E0E701740020704790F8E1
:104A38009C32042B1EBF90F89C32DBB280F89D326A
:104A4800042380F89C320020704790F89C32042B95
:104A580002BF90F89D32DBB280F89C32002070478C
:104A680008B590F89C22032A05D1D0F8B83213B1C2
:104A7800DB6903B19847002008BDD0F8D422AE32D4
:104A880008B550F8222042B190F89C32032B02D18D
:104A9800136A23B19847002000E0032008BD184698
:104AA800FCE7D0F8D422AE3208B550F8222042B143
:104AB80090F89C32032B02D1536A23B19847002007
:104AC80000E0032008BD1846FCE7002070470122DB
:104AD80008B580F89C22D0F8B8220AB9002008BD91
:104AE8005268017990470028F8D00320F7E70020A2
:104AF80070470020704710B5428803789A420AD957
:104B08000478204423444478052C9BB2F6D1847859
:104B18008C42F3D110BD0020FCE710B5802104467B
:104B2800FCF7F6FB20460021BDE81040FCF7F0BB7F
:104B38002DE9F3410D7805F06005202D04460E4659
:104B480014D0402D12D0002D40F00A814F78092F43
:104B580000F20681DFE817F00B013401040123019C
:104B68000401860016000401F300A200D4F8D43230
:104B7800AE33314654F823309B68204602B0BDE876
:104B8800F04118470023ADF806304B881A0A013A5D
:104B9800062A37D8DFE802F0041C293636515B00B4
:104BA800D0F8B4321B68207C0DF106019847F288D2
:104BB800002A00F00181BDF806301BB39A4228BFD5
:104BC8001A46ADF806200146204600F009FA1CE016
:104BD800027CD0F8B83232B99B6A0DF106009847CA
:104BE80002234370E3E7DB6AF7E7DBB2052B09D85A
:104BF800DFE803F0030F13171B1FD0F8B4325B680C
:104C0800002BD0D12046FFF788FF284602B0BDE828
:104C1800F081D0F8B4329B68F2E7D0F8B432DB68A0
:104C2800EEE7D0F8B4321B69EAE7D0F8B4325B6932
:104C3800E6E7D0F8B4329B69E2E7037C002BE1D1C8
:104C4800D0F8B8320DF106005B6B9847AFE7037CEC
:104C5800002BD7D1D0F8B8320DF106001B6B98475E
:104C68000723BEE78B88002BCCD1CB88002BC9D17A
:104C78004E887F2EC6D890F89C32032BC2D0F1B252
:104C880080F89E12FCF756FB204600F0D8F91EB1BA
:104C9800022384F89C32B8E70123FAE78E784E4F56
:104CA800012E3E7003D9FFF738FF0325ADE790F8D2
:104CB8009C32022B5FFA83F809D0B8F1030F18D0A1
:104CC800FFF72BFF39782046FFF7B3FDEDE7002EFD
:104CD80072D001214160FFF7A5FD0546204625B1A8
:104CE800FFF71BFF84F89C828FE700F0A8F90323E5
:104CF800CFE75EB9022380F89C3246603146FFF761
:104D080098FD204600F09BF935467EE74168012969
:104D180052D0C9B2FFF78DFD397861602046FFF7A0
:104D280081FD0646002847D02046FFF7F6FE217988
:104D38002046FFF77EFD022384F89C32E4E7CA8808
:104D4800012A7FF45FAF90F89C120229CBB205D8F4
:104D580033B10146002341F8083F35E7032B04D05F
:104D68002046FFF7DAFE00254FE7011D2CE790F8F3
:104D78009C32013B022BF3D8CB88022B7FF442AF45
:104D88000123C360D0F8A4320BB10323C36002220D
:104D980004F10C01204600F023F93D4635E74B8825
:104DA800012B02D1C4F8A43206E0022B7FF42AAF0B
:104DB8008B881B0A80F8A032204600F040F924E7CF
:104DC80090F89C32013B022BCAD84B88012B7FF408
:104DD8001CAF0023E6E700BF4472002070B50B78D3
:104DE80003F06002402A04460E4601D05B061FD439
:104DF80094F89C32013B022B1AD8317901292046BC
:104E080017D8FFF774FE88B9D4F8B8329B686BB12D
:104E1800C4F8D4023146204698470546F3881BB9A2
:104E280015B9204600F00BF9284670BD0325F5E7B3
:104E38002046FFF772FE0025F6E770B50B788A88E2
:104E48000E7903F06003202B04460D4655D0402B05
:104E580053D073BB4B78012B3DD0032B22D043BBDF
:104E680090F89C32022BD9B263D0032921D106F0E5
:104E78000F0312F0800F4FF0140202FB030368D0F7
:104E880093F82330ABB106F07F05013505EB8505B6
:104E980000EB850516F07F0367D1AB73022205F19D
:104EA8000E0152E090F89C32022BDAB237D0032A76
:104EB80003D02046FFF731FE0BE04B8833B971066B
:104EC80004D0EB8813B93146FCF722FA204600F0EB
:104ED800B6F8002070BD90F89C32022BDAB21ED0D2
:104EE800032AE6D14B88002BF3D1730602D0314652
:104EF800FCF717FA204600F0A2F831462046FFF7E3
:104F0800F8FD0028E5D1D4F8B832C4F8D4029B687B
:104F1800002BDED029462046BDE8704018477206AF
:104F2800C7D03146FCF7F4F980212046FCF7F0F9A8
:104F3800CFE77106BDD113064CBF00F1140100F58F
:104F4800AA71002301F80E3F0222204600F048F81B
:104F5800BFE793F86331002BABD006F07F0514232D
:104F680003FB050505F5AA7594E731462046FCF7CD
:104F78008DF908B1012390E7A8738FE70B780370C8
:104F88004B7843704B8843808B888380CB88C38061
:104F9800704710B580210446FCF7BAF92046002175
:104FA800BDE81040FCF7B4B930B588B10024013829
:104FB80023460134055D002DFAD1DBB201335B00D5
:104FC80013800B7003234B70022310F8012F02B9D2
:104FD80030BDCA545A1CD2B202338D54DBB2F4E746
:104FE80010B50223C0F894324261134641628261CF
:104FF8000A460021FCF7A7F9002010BD08B51346A2
:105008000A460021FCF79FF9002008BD10B50323CC
:10501800C0F89432C0F854211346C0F86411C0F89F
:1050280058210A460021FCF797F9002010BD08B561
:1050380013460A460021FCF78FF9002008BD08B581
:1050480004220023C0F8942219461A46FCF77BF97B
:10505800002008BD08B505220023C0F8942219468F
:105068001A46FCF779F9002008BDD0F8D43200EBD5
:10507800830010B5D0F8C04284B1D0F8C4325BB117
:1050880094F80002FF2807D09B6894F80122214673
:105098009847FF2384F80032002000E0032010BD69
:1050A8000A23038000487047A401002070B58221BC
:1050B80006460F48FFF71FFD012105460C48FFF77C
:1050C8001AFD812104460A48FFF715FD0DB110228B
:1050D800AA711CB1402222710022627118B14022CB
:1050E80002710022427143230148338070BD00BF22
:1050F80060010020FFF7DABF70B5822106460F482D
:10510800FFF7F9FC012105460C48FFF7F4FC812163
:1051180004460A48FFF7EFFC0DB11022AA711CB132
:10512800002222710222627118B100220271022249
:10513800427143230148338070BD00BF60010020E5
:1051480038B5D0F8D432B033044650F823508DB176
:10515800FCF7AEF8C5F80C02D4F8D40204EB8004CE
:1051680005F50371D4F8C432D5F80402DB68984712
:10517800002038BD0320FCE7F8B5D0F8D46200EB76
:1051880086060A46D6F8C05245B301F00F0C14271C
:1051980007FB0C077C6994B1D0F8C8324FF0240E95
:1051A8000EFB0C33DB69B4FBF3FC03FB1C4434B982
:1051B8007C6123462246FCF7C6F820460DE0D6F867
:1051C800C4321C690027C5F81472002CF5D0D5F834
:1051D800080205F50471A0473846F8BD0320FCE72E
:1051E800D0F8D4322DE9F34100EB83034FF00008E7
:1051F800D3F8C0728DF8058005460E46ADF80680D6
:10520800002F6ED00A7812F060042ED0202C64D1C2
:10521800CC8891F801C00CB3120613D5D3F8C43268
:10522800224639469B6860469847F288072A28BF75
:10523800072239462846FFF7D3FE4446204602B0E7
:10524800BDE8F081402C28BF402487F800C287F8C9
:10525800014222463946FFF7D9FEEEE7D3F8C432B9
:1052680022469B6860469847E8E74F780B2F34D86A
:1052780001A353F827F000BFB152000845520008B7
:10528800E3520008E3520008E3520008E352000822
:10529800E3520008E3520008E3520008E352000812
:1052A800C7520008DB52000890F89C32032B14D137
:1052B80002220DF10601FFF793FE3C46BEE790F887
:1052C8009C32032B09D101220DF10501FFF788FE5D
:1052D800B4E790F89C32032BB0D031462846FFF74C
:1052E80058FE0324AAE700BF38B5044600258121EB
:1052F800FCF705F8012184F837502046FBF7FFFF3B
:1053080084F8775182212046FBF7F9FFD4F8D4328C
:1053180084F84B5004EB83036564D3F8C0228AB148
:10532800D3F8C4325B689847D4F8D432B03354F811
:105338002300FBF7C5FFD4F8D432B03344F8235028
:10534800C4F8BC52002038BDF8B504464FF40770C5
:10535800FBF7B2FF054630B9D4F8D432B03344F87D
:105368002300022547E04FF407720021FBF7E4F918
:10537800D4F8D432B03344F82350237CC4F8BC5258
:10538800002B3AD14FF400730222812120460126D6
:10539800FBF7A9FF84F837604FF400733146022207
:1053A8002046FBF7A0FF1023032284F8776163648B
:1053B800822108232046FBF796FFD4F8D432012730
:1053C80004EB830384F84B70D3F8C43200261B68BF
:1053D800C5F804629847D5F80422C5F81462C5F8E0
:1053E8001862002ABDD0257C95B94FF40073394660
:1053F8002046FBF7B1FF2846F8BD40230222812151
:1054080020460126FBF76FFF84F837604023C5E785
:10541800402339462046FBF79FFF3546EBE739B175
:10542800D0F8D43200EB8300C0F8C41200207047D3
:1054380003207047D0F8D432B03350F823302BB162
:10544800C3F80812C3F810220020704703207047E1
:10545800D0F8D432B03350F823301BB1C3F804125B
:105468000020704703207047D0F8D432B03310B50D
:1054780050F823207AB1D2F8144201236CB9C2F84B
:105488001432D2F810328362D2F808228121FBF755
:105498005AFF204610BD0320FCE71846FAE7D0F86B
:1054A800D422B03210B550F8222082B1047CD2F850
:1054B800042234B94FF400730121FBF74DFF204655
:1054C80010BD40230121FBF747FF0024F7E7032421
:1054D800F5E700207047006A7047002070470120F8
:1054E80070470000094A026000224260BFF35B8FE8
:1054F8004272BFF35B8FBFF35B8F8274BFF35B8F26
:10550800C0E905124FF480728283704794870008BF
:10551800B1F5567F10B5044604D308B100F064F81D
:10552800204610BD0024FBE700F0E7B801F000B802
:10553800572910B5044604D908B101F01BF92046D3
:1055480010BD0024FBE710B4BDF8044001945DF8D9
:10555800044B01F013B901F018B901F01AB98160D0
:105568007047043001F030BA38B50446043001F011
:1055780041FB0546204600F06FF9284638BD043047
:1055880001F0B1B9232938B50446154608D928B120
:105598001946FFF7A7FF034B23602562204638BD55
:1055A8000024FBE7A487000801F0BFB81F2910B545
:1055B800044607D920B11146FFF794FF024B236038
:1055C800204610BD0024FBE7B487000801F0AFB8FF
:1055D800836B33B1036B23B1808E003818BF012071
:1055E800704718467047000038B50446002529461C
:1055F8005C2240F8045BFBF79FF8A4F8605004F1C4
:10560800640001F0B7F82946A4F8BC50C4F8C050AB
:10561800202204F1C400FBF78FF84FF41D722946CD
:1056280004F1E400FBF788F804F5337002F0BCFEDF
:105638000E4BC4F80C330E4BC4F810330D4BC4F8A2
:1056480014330D4BC4F818330C4BC4F81C330C4BF3
:10565800C4F820330B4BC4F824330B4BC4F828335D
:105668000A4BC4F82C33204638BD00BFDC8700083D
:1056780018880008408800087C880008048800080A
:105688006888000854880008F08700082C880008FB
:1056980038B5012380F8BC30436F04463BB1B0F8FD
:1056A8007830203B9BB24FF6CF72934202D9002349
:1056B80084F8BC30E36F3BB1B4F88030203B9BB238
:1056C8004FF6CF72934202D9002384F8BC300025EC
:1056D800B4F89830AB420BD9D4F8943003EB850377
:1056E800987801F084F808B984F8BC000135EFE730
:1056F80094F8BC0080F0010038BD7FB50446002551
:10570800A0F8605080F8BD5058226430FAF77AFF4C
:10571800A36EB4F87820616FCDE90143261DB4F873
:10572800803000933046E36F01F006FB2046FFF718
:10573800AFFF30B1304601F0ECFA6572012004B0D9
:1057480070BD637A13B984F8BC30F7E7054694F85E
:10575800A820ABB29A420AD9D4F8A430214653F80B
:10576800250000F049FF01350028F0D0E6E7D4F81D
:10577800B8300093D4F8B020B4F8B430214604F11E
:10578800E40002F079F80028D8D194F8F430C4F88D
:105798004C03C4E9D100A4F8500384F8520384F8F8
:1057A8003C33A4F83E03A4F84003C8E738B513789F
:1057B800012B04460BD0032B18D03BB9D0F8443347
:1057C80013B1022380F84C33C4F8441338BDD0F821
:1057D800442300258A4218BF80F84C33C0F844534C
:1057E800E43002F037F884F85053EFE79378918863
:1057F80080F83C33042BD288A0F83E1318BF00234E
:10580800A0F8402318BF80F85133DFE773B50024B0
:105818000546264695F8A830A3421BD9D5F8A430EA
:1058280053F82430BFF35B8F9A7CBFF35B8F7AB158
:10583800D3F80A00D3F80E106A4603C2BFF35B8F91
:105848009E746A4619462846BFF35B8FFFF7AEFF82
:105858000134DFE702B070BD90F8603037B5044618
:105868009BB1037A022B10D00430019001F087F825
:1058780094F861300198002584F8605084F8BD5090
:105888001BB101F0A7FA84F8615003B030BD10B520
:10589800B0F8984000239AB2944209D9D0F89420DD
:1058A80032F823208A4203F10103F4D1012010BD0C
:1058B8000020FCE7F0B5B0F8987000239CB2A7422E
:1058C8000DD9D0F894509C0005EB83062C5B8C42D4
:1058D80003F10103F2D1336813600120F0BD002009
:1058E800FCE72DE9F0414B78013B86B005461646AA
:1058F800082B00F20781DFE803F00512193A487E09
:1059080088BAC4000123324601A9C430ADF8043076
:1059180001F08BFC0446204606B0BDE8F081314614
:10592800C43006B0BDE8F04101F08ABC90F8703090
:10593800D0F8B0008DF8043030B1B5F8B40018B123
:1059480005F1640000F029FFD5F8AC308DF80500AA
:10595800003B18BF01238DF806303246002301A909
:1059680005F1C4008DF8073001F09BFCD2E790F8F0
:1059780090308DF80430324690F888308DF8053034
:1059880001A9C43001F06CFCC4E700F1C40701AA06
:10599800384601F0A9FC04460028BCD19DF8043023
:1059A800EBB9D5F88C200AB90524B4E79DF80510A1
:1059B80095F890008842F7D902EBC10052F83120DF
:1059C8000392426804928DF8083032469DF80530FB
:1059D8008DF8093002A9384601F04CFC9AE7012BF2
:1059E80040F09280D5F88420002ADDD09DF805107B
:1059F80095F88800DEE7B0F89830ADF80430324604
:105A080001A9C43001F0CDFC84E700F1C40702AA63
:105A1800384601F070FC044600287FF47CAF2A8DDC
:105A28003146384601F096FDBDF80860B5F8982073
:105A380003909642B8D2BDF80A3033449342B3DC9F
:105A4800D5F894300193BDF80830BDF80A20134406
:105A5800B3427FF760AF0199039801EB860101F02B
:105A6800E3FA039B1B7B002B50D10136EBE790F840
:105A7800A8308DF80430324601A9C43001F09AFCF0
:105A880048E700F1C40401AA204601F042FCD5F819
:105A9800A430002B88D095F8A820002A84D09DF83F
:105AA8000480904580D80FFA88F753F827000368D8
:105AB8001B689847D5F8A4308DF8088053F827302C
:105AC8008DF809005A7F8DF80A2020B91A681846FF
