:020000040800F2
:1000000000000220C1180008B5170008B717000843
:10001000C1170008C3170008C5170008000000003A
:10002000000000000000000000000000C7170008EA
:10003000C917000800000000CB170008CD17000802
:1000400011190008111900081119000811190008E8
:1000500011190008111900081119000811190008D8
:1000600011190008111900081119000811190008C8
:1000700011190008111900081119000811190008B8
:1000800011190008111900081119000800000000DA
:10009000000000000000000000000000111900082E
:1000A0001119000811190008111900081119000888
:1000B0001119000811190008111900081119000878
:1000C0001119000811190008111900081119000868
:1000D000111900081119000811190008000000008A
:1000E000111900081119000811190008000000007A
:1000F00000000000000000000000000011190008CE
:100100000000000011190008111900081119000859
:1001100000000000000000000000000000000000DF
:100120001119000811190008111900081119000807
:10013000111900080000000000000000000000008D
:10014000000000000000000000000000D1170008BF
:1001500011190008111900081119000811190008D7
:10016000111900081119000800000000000000002B
:10017000000000000000000000000000000000007F
:10018000000000001119000800000000000000003D
:08019000111900081119000803
:1001C0000348044B834202D0034B03B118477047E6
:1001D0005401002054010020000000000548064B97
:1001E0001B1AD90F01EBA301491002D0034B03B135
:1001F00018477047540100205401002000000000FF
:1002000010B5064C237843B9FFF7DAFF044B13B15E
:100210000448AFF300800123237010BD5401002077
:1002200000000000DC7C000808B5044B1BB1044949
:100230000448AFF30080BDE80840CFE700000000AD
:1002400058010020DC7C000853B94AB9002908BFD6
:1002500000281CBF4FF0FF314FF0FF3000F088B98D
:10026000ADF1080C6DE904CE00F006F8DDF804E00D
:10027000DDE9022304B070472DE9F047089D0F46E1
:1002800004468C46002B48D18A42164661D9B2FA00
:1002900082F34BB1C3F1200201FA03FC20FA02F20F
:1002A0009E4042EA0C0C9C404FEA164EB7B2BCFB93
:1002B000FEF1220C0EFB11CC42EA0C4201FB07F0CE
:1002C000904209D9B21801F1FF3C80F0EE809042D3
:1002D00040F2EB8002393244121AA4B2B2FBFEF0B3
:1002E0000EFB102244EA024400FB07F7A74209D99B
:1002F000341900F1FF3280F0DA80A74240F2D78053
:100300003444023840EA0140E41B00211DB1DC40C6
:100310000023C5E90043BDE8F0878B4206D90DB143
:10032000C5E9000100210846BDE8F087B3FA83F172
:10033000002948D1BB4202D3824200F20781841ACD
:1003400067EB030201209446002DE4D0C5E9004C80
:10035000E1E7002A00F09280B2FA82F3002B40F02D
:10036000A8808A1A4FEA164E1FFA86FC0121200C3B
:10037000B2FBFEF70EFB172240EA02420CFB07F02D
:10038000904207D9B21807F1FF3802D2904200F22A
:10039000E2804746121AA4B2B2FBFEF00EFB102216
:1003A00044EA02440CFB00FCA44507D9341900F1CF
:1003B000FF3202D2A44500F2CB801046A4EB0C041D
:1003C00040EA0740A2E7C1F120068B4022FA06FC72
:1003D0004CEA030C07FA01F420FA06F3F7404FEA5F
:1003E0001C49234300FA01F81FFA8CFEB7FBF9F011
:1003F0001C0C09FB107744EA074400FB0EF7A742E8
:1004000002FA01F20AD91CEB040400F1FF3A80F071
:100410009B80A74240F2988002386444E41B9FB25C
:10042000B4FBF9F309FB134447EA044403FB0EFE53
:10043000A64509D91CEB040403F1FF3780F0828044
:10044000A6457FD9023B644443EA0040A4EB0E0476
:10045000A0FB02E7BC427346B94663D360D05DB1EE
:10046000B8EB030264EB090404FA06F622FA01F37E
:100470001E43CC40C5E9006400214CE762084808EF
:1004800042EAC1710B0C43EA00438AB242EA0342DA
:10049000B3FBF6F1E407B4463746B6461F23B0FB7C
:1004A000F6F0D21B41EA004161E7614614E71046CD
:1004B00028E7C3F1200120FA01F29E4027FA01F15A
:1004C0009F403A434FEA164E1FFA86FCB1FBFEF7F7
:1004D0000EFB1710110C41EA004107FB0CF8884590
:1004E00004FA03F43AD9711807F1FF3001D28845B4
:1004F0001FD8A1EB0801B1FBFEF808FB0CF70EFBBF
:10050000181192B242EA0142BA422FD2B21808F14F
:10051000FF31C6D2BA42C4D2A8F102013244C0E7C8
:10052000F0459CD2BEEB020367EB0C070138B946DD
:1005300095E7A6EB08084144B81EB1FBFEF808FB9E
:100540000CF7DCE73B467FE7504667E70846FBE6EB
:100550003444023832E7023F32441BE7A1EB080182
:100560003846B1FBFEF808FB0CF7C8E7414698E7B0
:10057000704700BF70B50F4B0F4DAB42A3EB0506A4
:1005800007D0B610002455F8043B01349847A64222
:10059000F9D807F0A3FB094D094B5E1BAB424FEAAC
:1005A000A60606D0002455F8043B01349847A6421D
:1005B000F9D870BD707E0008707E0008707E00085B
:1005C000787E0008830730B547D0541E002A3ED0FD
:1005D000CAB2034601E0013C39D303F8012B9D0761
:1005E000F9D1032C2CD9CDB205EB05250F2C05EB49
:1005F000054535D9A4F1100222F00F0C03F1100EBD
:10060000E6444FEA121C1A46C2E90055C2E90255F7
:1006100010327245F8D10CF1010214F00C0F03EB0B
:10062000021204F00F0C13D0ACF1040323F0030307
:100630000433134442F8045B9342FBD10CF00304EF
:100640002CB1C9B21C4403F8011BA342FBD130BD3D
:1006500064461346002CF4D1F9E703461446C0E77C
:100660001A46A446E0E700BF032A30B415D941EA90
:100670000004A40784460B4604D0541E0FE0043A3D
:10068000032A08D91946604653F8044B5CF8045B0A
:10069000A542F4D0F1E760461946541E7AB1431ED4
:1006A0000139021901E09A4209D013F8010F11F83B
:1006B00001CF6045F7D0A0EB0C0030BC70470020A4
:1006C00030BC7047844641EA000313F003036DD148
:1006D000403A41D351F8043B40F8043B51F8043B05
:1006E00040F8043B51F8043B40F8043B51F8043B0C
:1006F00040F8043B51F8043B40F8043B51F8043BFC
:1007000040F8043B51F8043B40F8043B51F8043BEB
:1007100040F8043B51F8043B40F8043B51F8043BDB
:1007200040F8043B51F8043B40F8043B51F8043BCB
:1007300040F8043B51F8043B40F8043B51F8043BBB
:1007400040F8043B51F8043B40F8043B51F8043BAB
:1007500040F8043B403ABDD2303211D351F8043B4B
:1007600040F8043B51F8043B40F8043B51F8043B8B
:1007700040F8043B51F8043B40F8043B103AEDD2FA
:100780000C3205D351F8043B40F8043B043AF9D24B
:10079000043208D0D2071CBF11F8013B00F8013B1E
:1007A00001D30B8803806046704700BF082A13D32B
:1007B0008B078DD010F003038AD0C3F10403D21A43
:1007C000DB071CBF11F8013B00F8013B80D331F877
:1007D000023B20F8023B7BE7043AD9D3013A11F8F7
:1007E000013B00F8013BF9D20B7803704B78437062
:1007F0008B788370604670470000000000000000A6
:1008000030B490F800F020F007016FF0000C10F009
:10081000070491F820F040F048804FF000046FF09A
:100820000700D1E9002391F840F000F1080082FAB6
:100830004CF2A4FA8CF283FA4CF3A2FA8CF34BBB81
:10084000D1E9022382FA4CF200F10800A4FA8CF2FA
:1008500083FA4CF3A2FA8CF3E3B9D1E9042382FAC8
:100860004CF200F10800A4FA8CF283FA4CF3A2FADD
:100870008CF37BB9D1E9062301F1200182FA4CF215
:1008800000F10800A4FA8CF283FA4CF3A2FA8CF37C
:10089000002BC6D0002A04BF04301A4612BAB2FA9E
:1008A00082F200EBD20030BC7047D1E9002304F0A3
:1008B0000305C4F100004FEAC50514F0040F91F8D8
:1008C00040F00CFA05F562EA05021CBF63EA050375
:1008D00062464FF00004AAE771B1034600EB010C39
:1008E00001E0634506D01A46013311780029F8D19A
:1008F000101A7047181A70470846704730B50446FA
:1009000089B01422002103A8FFF75CFE2368B3F12D
:10091000A04F36D11C4C1D4800250195236B43F098
:1009200001032363236B03F001030193019B03A9DC
:100930004FF40073039302F0B3FC4FF4E052022330
:10094000CDE9032303210A23CDE906130F480595BA
:1009500003A902F0A5FC636B43F080036363029577
:10096000636C43F480436364636C03F480430293D9
:1009700043202A462946029B02F0F4FD432002F060
:1009800023FE09B030BD00BF003802400000024025
:1009900000F29C41D0F8E00403F049BB242303FBA0
:1009A0000103D0F8E004D3F8602203F070BB2423E5
:1009B00003FB0103D0F8E0041A6A03F0A2BBD0F8ED
:1009C000E00403F03EBC10B5C379022B044601D00D
:1009D00000F0EEFED4F8E004012103F016FCD4F898
:1009E000E004BDE8104003F0E0BB000010B5044691
:1009F000D0F8E00403F00CFC2268D2F8003E43F08B
:100A00000103C2F8003EE37A23B1034A136943F0BD
:100A10000603136110BD00BF00ED00E0D0F8E00454
:100A200003F004BCD0F8E00403F02BBCD0F8E004E1
:100A300003F014BCD0F8E00403F036BCD0F8E004B6
:100A400003F034BC08B5027803462ABB1348C0F84B
:100A5000E034C3F8C8024FF0A043036004230371DD
:100A60004FF40073C3800223437201234281027357
:100A7000C38100F059FF08B100F09AFE80210748B9
:100A800001F06FFC40220021044801F04BFC0348B8
:100A90008022012101F046FC002008BD90030020C7
:100AA00011F0800FD0F8C8324FF024021BBF01F0C4
:100AB0007F0102FB013302FB0133987D08BF93F8ED
:100AC00056027047D0F8C80201F04BB80048704792
:100AD00070010020704718B102280CBF01200320CC
:100AE000704708B5D0F8C80200F08DFFBDE8084097
:100AF000FFF7F1BF10B51446D0F8C8021A462346D6
:100B000000F0B3FFBDE81040FFF7E5BF08B5D0F82F
:100B1000C80200F0DFFFBDE80840FFF7DCBF08B502
:100B2000D0F8C80201F03FF8BDE80840FFF7D3BF96
:100B300008B5D0F8C80201F06DF8BDE80840FFF72D
:100B4000CABF08B5D0F8C80200F07CFFBDE8084075
:100B5000FFF7C1BF08B5D0F8C80201F00AF8BDE838
:100B60000840FFF7B8BF08B5D0F8C80200F0DCFFB6
:100B7000BDE80840FFF7AFBF08B50F490F48002296
:100B800003F017FA08B100F013FE0D490B4803F00B
:100B900023FA08B100F00CFE0A49084804F02CF8CA
:100BA00008B100F005FE054803F02FFA18B1BDE8C2
:100BB000084000F0FDBD08BD34000020740800208E
:100BC0001001002050000020122301480B807047C4
:100BD00020000020042301480B8070471C000020E7
:100BE000002370B54D1C1E46040FB0F1204F34BFDA
:100BF0003034373401F8134005F813600133DCB2A8
:100C0000A2424FEA0010EFD870BD00001A2310B5C1
:100C10000B800A4BD3F8100AD3F8182A80180AD090
:100C2000D3F8144A06490822FFF7DAFF04221031EC
:100C30002046FFF7D5FF034810BD00BF0070FF1F1F
:100C4000020000200000002008B50A4602480349BF
:100C500003F0AAFD014808BDF47C0008500B0020F9
:100C600008B50A460248034903F09EFD014808BD45
:100C7000077D0008500B002008B50A4602480349CA
:100C800003F092FD014808BD1D7D0008500B0020B7
:100C900008B50A460248034903F086FD014808BD2D
:100CA000287D0008500B00200020704721280CD020
:100CB00022281BD0202806D1124B0A791A714A79B2
:100CC0005A718A799A71002070470E4B1A680A701F
:100CD0001A68120A4A705A888A70DA78CA701A79C1
:100CE0000A715A794A719B798B71ECE74B88064AF5
:100CF00003F0010111701278044AC3F3400313702A
:100D0000E1E700BF64000020510D0020500D0020DD
:100D100008B5094800F086F8084800F0CDF8074803
:100D200000F0D3F80146064803F07FFF054B01228F
:100D30001A70002008BD00BF581D0020520D002071
:100D4000740800206C00002037B50E4CD4F8BC327B
:100D5000D3F814329BB90C480DF1060100F08CF861
:100D6000BDF80630054653B102F09AFCBDF80620E6
:100D70002946204603F04BFF204603F062FF03B0F4
:100D800030BD00BF74080020581D002008B503487E
:100D900000F089F8FFF7D8FF002008BD581D00209B
:100DA00038B50A4D2B780BB1002038BD084800F04B
:100DB0008CF801460028F7D0012406482C7003F077
:100DC00034FF044803F058FF2046EEE76C00002093
:100DD000520D002074080020D0F8D422B03208B59B
:100DE00050F8223033B100231A460121FFF7BBFE31
:100DF000002008BD0320FCE708B50988064800F07C
:100E000098F8064B00221A70FFF7CAFF10B9044881
:100E1000FFF7E2FF002008BD520D00206C0000200B
:100E20007408002000F58050002343800380704741
:100E30002DE9F04100F58056054634883088A4B28B
:100E4000C4F580549442884617460BD915FA80F0B1
:100E5000FFF738FC328817FA82F2C2F30B023280B5
:100E6000BDE8F081224615FA80F0FFF72BFC3A1B13
:100E700008EB04012846EBE700F5805210B5148812
:100E80005388A4B29BB29C422BBF138853885488CA
:100E9000C3F5805328BF1B1B9BB20B8093805388E4
:100EA00010FA83F010BD00F5805042888388134407
:100EB000C3F30B034380704700F580500023438049
:100EC00003804FF480538380704700F5805382B0D5
:100ED0005A8892B2ADF806201988BDF8062089B26A
:100EE00092B291421A8892B21BD3B2F57C6F08D3AA
:100EF0001A8892B2B2F57C6F08D1BDF8062092B282
:100F000022B11B8810FA83F002B07047BDF80620AA
:100F100092B2402A0BD91A8892B29A8000221A8083
:100F2000EFE7BDF80610403289B28A42E9D30020CB
:100F3000EAE700F58050038811FA83F39BB203803F
:100F40000288838892B29BB29A4224BF4FF48053A6
:100F5000838003889BB2B3F5805F24BF00230380A6
:100F6000704700F5805382B01A8892B2ADF8042021
:100F70009A8892B2ADF806205988BDF8042089B24B
:100F800092B2914285BFBDF80600BDF80420BDF8BD
:100F900004005B8892BF5B8892B212FA80F0C01A9C
:100FA00080B202B07047034637B503F58055084656
:100FB000298889B2ADF80410A98889B2ADF8061065
:100FC0006C88BDF80610A4B289B28C4224BF0021FF
:100FD00069806C88BDF80410A4B289B28C4294BFB9
:100FE000BDF80440BDF806406988641AA4B2944272
:100FF000698828BF1446224613FA81F1FFF762FB85
:101000006B8814FA83F39BB26B806A88BDF8063054
:1010100092B29BB29A4228BF0023204628BF6B8021
:1010200003B030BD704708B500F094F9332008BD17
:1010300008B52421322000F0D9F960F07F02BDE824
:101040000840D2B22421322000F0CEB910B50446B7
:1010500000F080F9FFF7ECFFE2B22021322000F02F
:10106000C3F9220A2321BDE81040322000F0BCB9A8
:1010700010B521210446322000F0B8F900F00C022E
:1010800022432121BDE81040322000F0ADB910B557
:1010900021210446322000F0A9F900F0F702224392
:1010A0002121BDE81040322000F09EB92DE9F04723
:1010B00023210646322000F099F9242107463220E8
:1010C00000F094F92821322000F090F929210546FA
:1010D000322000F08BF92A218246322000F086F976
:1010E0002B210446322000F081F92C218146322048
:1010F00000F07CF92D218046322000F077F96AB2A9
:1011000063B24FFA8AFC44B24FFA89F578064FFA77
:1011100088F107F0300743BF0CEB022205EB0323F5
:1011200004EB012402EB0C225CBF03EB052301EB73
:101130000424202F0DD0302F0DD0102F0CBF0221F2
:1011400001214A434B43614332607360B160BDE8A3
:10115000F0870421F5E70C21F3E710B521210446BF
:10116000322000F043F900F0FB0222432121BDE8C8
:101170001040322000F038B910B522210446322048
:1011800000F034F92043C2B2BDE8104022213220E1
:1011900000F02AB910B538210446322000F026F9B3
:1011A0002043C2B23821322000F01EF90A223A212F
:1011B000322000F019F905223B21322000F014F909
:1011C00005223C21322000F00FF93222BDE8104008
:1011D0003D21104600F008B908B500F0DDF8802088
:1011E000FFF7CAFF0420FFF7B8FFBDE80840102052
:1011F000FFF7D0BF70B52D4D88B0284602F0D6FE5F
:10120000044600284FD12A4B2B604323EB60294B27
:10121000294E0190C5E901304FF48043C5E90430FF
:10122000C5E906002862336C43F400133364336C61
:1012300003F400130193019B0290336B43F002030C
:101240003363336B059403F002030293029B4FF464
:10125000107012234FF0020CCDE9030303A90423FD
:101260001648CDE906C302F01BF8336A43F40013B5
:101270003362336A23F40013336222460F211F20A6
:1012800002F070F91F2002F09FF922460F21202062
:1012900002F068F9202002F097F9284608B0BDE86E
:1012A000704002F023BC08B070BD00BF602D00206C
:1012B00000540040A08601000038024000040240B3
:1012C0007FB500238DF817300B4B1B6802930A463D
:1012D00001230DF11701009101930146074802F027
:1012E00057FD20B1054802F0A9FCFFF783FF9DF8E8
:1012F000170007B05DF804FBA4000020602D00205B
:101300007FB50C4B8DF817201B6802930DF1170267
:101310000123009201930A460146074802F0A8FC07
:1013200020B1054802F08AFCFFF764FF07B05DF8C2
:1013300004FB00BFA4000020602D0020034B33F805
:101340001010034B53F8200002F0F1B84C7D000858
:10135000A80000207FB500230D4A0093116B0D48B3
:1013600041F010011163126B039302F0100200921E
:10137000009A0422CDE901230DEB0201022304931C
:1013800001F08EFFFFF736FF07B05DF804FB00BFEA
:10139000003802400010024010B586B00024104B07
:1013A00000941A6B0F4842F010021A631B6B03F093
:1013B00010030093009B30224FF48813CDE90123E2
:1013C00001A90223CDE9034301F06AFF22460F2160
:1013D0000A2002F0C7F80A2002F0F6F806B010BDA5
:1013E0000038024000100240FFF78ABFFFF768BFD5
:1013F00038B5094CA368984733280BD1074D2368AB
:101400002C6041F6770098472B6890209B6A98479C
:10141000002038BD0120FCE770000020B42D002022
:1014200038B5084D2B681B6B04464BB19847064BEB
:101430002A689A4201BFD4E900325B4222606360AD
:1014400038BD00BFB42D0020700000200020704780
:10145000006A70470020704701207047094A026007
:1014600000224260BFF35B8F4272BFF35B8FBFF31A
:101470005B8F8274BFF35B8FC0E905124FF48072FB
:10148000828370475C7D000807B54FF400730093BA
:101490000D490E4B0E484FF4807204F0B5FC0D4917
:1014A0000B484FF4804204F0BAFC0B490848022272
:1014B00004F0B1FC064A094B09489360114603B099
:1014C0005DF804EB03F07BBCB4730020B471002022
:1014D00018310020B4310020B8000020367D00080B
:1014E000C02D0020254B70B51C68254E0A22041B18
:1014F000544388B0054618602146224804F05DFC3C
:10150000336842F20F72EB1A934203D91E4804F07B
:1015100051FC35601D48FFF724FD054670B12022BF
:1015200069461A48FFF73FFDFFF73AFC202D28BF18
:1015300020251748AAB2694604F084FD21461548C3
:1015400004F044FB124804F014FD2028024604462F
:1015500010D868B169460E4804F087FE0D4803F0C4
:10156000DCFC0D4822466946FFF762FCFFF7ECFB06
:1015700008B070BD20221446ECE700BFBC2D00204F
:10158000B82D00209431002070310020520D002031
:10159000C42D0020C02D0020581D002008B50C4986
:1015A0000C48FFF75BFF0B4A0B4B0C490C481360D0
:1015B000FFF754FF0A4A0B4B13600B480B4B1362A7
:1015C00004F01EFCBDE80840094803F075BB00BFED
:1015D000417D0008943100207C7D0008467D000894
:1015E000703100206C7D000818310020A0860100B9
:1015F000C02D002070B598B002F02CF81022002108
:101600000EA8FEF7DFFF1422002107A8FEF7DAFF7D
:101610005F4C00220592236C43F080532364236CBB
:1016200003F080530593059B5A4B06921A6842F4C7
:1016300040421A601B6803F440430693069B012650
:101640004FF48033CDE90C6302254FF48003CDE9DC
:101650001253C0220423CDE9143216930CA8082398
:10166000179301F091FB08B172B6FEE70F23CDE9A5
:1016700007354FF4A053CDE90A300990032107A89C
:1016800001F05EFD054608B172B6FEE70146142280
:101690000CA8FEF797FF0095236B3F4843F010031B
:1016A0002363236B03F010030093009B0195236BCE
:1016B00043F004032363236B03F004030193019BB2
:1016C0000295236B43F080032363236B03F08003B5
:1016D0000293029B0395236B43F001032363236B67
:1016E00003F001030393039B0495236B43F0020370
:1016F0002363236B03F002030493049B0795236B7E
:1017000043F008032363236B03F008032A4607937F
:101710004FF47041079B01F005FF4FF490131F48F1
:101720000C960CA9CDE90D3501F0BAFD4FF47043CC
:1017300019480CA9CDE90C36CDE90E5501F0B0FDE4
:101740001748184B184A0562C0E900234FF480433C
:10175000C0E90255C0E90435C0E9065502F0C6F9F2
:1017600008B172B6FEE7FFF707FAFFF741FE08B1CE
:1017700072B6FEE7FFF788FE4FF47A7401F090FF2F
:101780006043FFF7AFFE0948FFF74AFEF6E700BFE8
:101790000038024000700040000C0240000002408F
:1017A000C0740020A086010000540040B4740020E2
:1017B00072B6FEE7FEE708B50020FFF7BFFDFEE7C3
:1017C000FEE7FEE7FEE770477047704701F05CBF39
:1017D000014800F05FBA00BF9003002082B00D4BBB
:1017E000002100915A6C42F480425A645A6C02F40F
:1017F00080420092009A01911A6C42F080521A6461
:101800001B6C03F080530193019B072002B001F091
:1018100097BE00BF0038024030B5044689B014229C
:10182000002103A8FEF7CEFE2268144B9A4222D173
:10183000134C144800250195236B43F002032363E6
:10184000236B03F002030193019B4FF410721223E8
:10185000CDE903230123059303A90423079301F092
:101860001FFD0295236C43F400132364236C03F4DF
:1018700000130293029B09B030BD00BF005400402A
:10188000003802400004024008B50268094B9A4241
:101890000FD1094A0948136C23F400131364402143
:1018A00001F0C4FDBDE8084004484FF4007101F0A8
:1018B000BDBD08BD00540040003802400004024095
:1018C000DFF834D000F026F80C480D490D4A00230B
:1018D00002E0D458C4500433C4188C42F9D30A4AE5
:1018E0000A4C002301E013600432A242FBD3FEF74E
:1018F00041FEFFF77FFE704700000220000000203D
:10190000540100207C7E0008540100202075002036
:10191000FEE70000034AD2F8883043F47003C2F8AF
:101920008830704700ED00E0F7B5044610B390F83A
:101930009534056803F0FF021BB980F89424FEF784
:10194000DDFF0323B5F1A04F84F8953404BF0023D5
:10195000A371206800F0ECFD237C8DF80030251D7C
:1019600095E80E00206800F029FD014630B1022301
:1019700084F895340125284603B0F0BD206800F0B6
:10198000DDFD0028F3D1267904F114030127024676
:10199000C1B28E4203F124031BD8002104F5157354
:1019A0000A46C8B2864203F1240320D8237C8DF86E
:1019B000003095E80E00206800F03CFE0546002847
:1019C000D5D101236074206884F8953401F067F95B
:1019D000D1E723F80A0C43E9072203F8237C03F834
:1019E000241C03F8202C43F8142C0130D0E743E9E1
:1019F000072203F8232C03F8240C03F8202C43F8C7
:101A0000142C0131CDE710B50446006894F89434E5
:101A1000012B15D0012384F89434C3685B0606D5E6
:101A2000637B012B02BF836B43F48033836300F03D
:101A300079FD206801F025F9002084F8940410BD98
:101A40000220FCE710B590F89424012A04460AD03D
:101A5000012280F894244174006801F002F900200A
:101A600084F8940410BD0220FCE770B505462424D8
:101A700001F00F0011F0800F00FB04F414BF04F11B
:101A8000140104F5157105EB040615BF4919491930
:101A90000124002414BF747586F85542C2F30A026B
:101AA0008A604A7808700B7102B14883022B04BF28
:101AB00000234B7195F89434012B09D00123286839
:101AC00085F8943400F07BFE002085F8940470BD06
:101AD0000220FCE701F00F02242311F0800F02FB2B
:101AE00003F310B514BF03F1140103F51571044697
:101AF00018BF091918440BBF0919012300234375A6
:101B000008BF80F855320A7094F89434012B09D03C
:101B10000123206884F8943400F090FE002084F8BB
:101B2000940410BD0220FCE738B51546242401F0CA
:101B30000F02544304F515710444C4E9985300237B
:101B400084F8553284F85422C4F868328279012A24
:101B5000014408BFC4F87052006800F01BFF002069
:101B600038BD01F00F01242303FB0100D0F8680207
:101B7000704738B51546242401F00F02544304F190
:101B800014010444C4E908530023A36201236375CC
:101B9000227582799A42014408BF2563006800F0EB
:101BA000F9FE002038BD38B5037901F00F05AB42CE
:101BB00004462BD311F0800F4FF024031DD06B434C
:101BC00003F114010344012201445A7501238B706F
:101BD0000D7094F894249A421AD0206884F89434B2
:101BE00000F0EBFF2DB9A179206804F29C4201F0CE
:101BF000A5F8002084F8940438BD4B4303F5157113
:101C000003440022014483F85522DFE70120F3E773
:101C10000220F1E738B5037901F00F029342044640
:101C200025D3242311F0800F02FB03F314BF03F12B
:101C3000140103F51571184415BF09190919012379
:101C400000234FF0000514BF437580F855328D70A6
:101C50000A7094F89434012B0BD00123206884F887
:101C6000943400F0D5FF84F89454284638BD012000
:101C7000FCE70220FAE701F00F03242253430A068F
:101C80004CBF03F1140103F515710144006800F025
:101C90002BBE00002DE9F04F066889B0044630469F
:101CA00001F039F80390002840F05481206801F0D9
:101CB00004F8002800F04E81D6F808382068C3F3F5
:101CC0000D23C4F8D43400F0F8FF2368870742BF1F
:101CD0005A6902F002025A61184600F0EEFFC0068F
:101CE00006F500652DD52268936923F010039361F2
:101CF000D6F8208008F4F013B3F5802F08F00F0712
:101D000040F02B8147F6F07318EA030F14D0242318
:101D100003FB0747C8F30A19D7F860124A46304652
:101D200000F02AFFD7F860324B44C7F86032D7F88A
:101D300068324B44C7F868322268936943F0100355
:101D40009361206800F0B9FF010300F11981206858
:101D500000F0B3FF42030CD5206800F0BAFF27461D
:101D6000049006F5106B4FF0000A049B002B40F026
:101D7000D181206800F0A1FF002813DA6B6823F0FE
:101D800001036B6094F8CC34012B40F06A8200218F
:101D900084F8CC14204600F0E8FA2268536903F076
:101DA00000435361206800F088FF07050AD5AB683F
:101DB000D80702D52046FEF719FE2268536903F4BE
:101DC00000635361206800F078FFC10433D56B686D
:101DD000206823F001036B60102100F0DFFB207905
:101DE00006F510634FF67F31039A904200F23D8270
:101DF000EB6943F00113EB61E37B002B00F05282AF
:101E0000D5F8843043F00B03C5F884306B6C43F095
:101E10000B036B64D6F80038206823F4FE63C6F821
:101E2000003804F29C42A17900F088FF22685369CF
:101E300003F480535361206800F03FFF820416D5FD
:101E4000206800F06CFF206800F0AEFCE0712768AD
:101E500001F010FAE2790146384600F0F3FA204624
:101E6000FEF7B1FD2268536903F400535361206803
:101E700000F023FF030707D52046FEF7A0FD2268E8
:101E8000536903F008035361206800F016FF07064A
:101E900000F11382206800F010FFC0020CD5A046AC
:101EA00006F5126901272379BB4200F21F822268DE
:101EB000536903F480135361206800F0FEFE810231
:101EC0002BD594F804E0234606F532614FF0010C5F
:101ED000E6451DD993F87C720868012F40F01C82FA
:101EE000002880F21982D4F8D42482EA1040C20774
:101EF00000F1128283F87B72B06940F08000B0611B
:101F00007069000600F108826B6843F400736B602F
:101F10002268536903F400135361206800F0CDFE7A
:101F2000410007D52046FEF785FD2268536903F07E
:101F300080435361206800F0C0FE42070AD5236841
:101F40005D686B0702D52046FEF778FD226853686E
:101F50002B43536009B0BDE8F08FB3F5402F7FF4F9
:101F6000EBAE082204F29C41304600F005FE24232B
:101F700003FB0747C8F30A18D7F868324344D9E689
:101F8000206800F09EFE06F530680490A246002707
:101F9000049B002B3FF4DBAE049BDB0779D55FFA93
:101FA00087FB2068594600F09CFE10F0010F814627
:101FB0001FD020680123C8F8083094F806C0016CCF
:101FC00000F5306303EB4713BCF1010F9A6840F052
:101FD0008B8012F0080F07D0B048814209D9120453
:101FE00007D54FF4004203E012F0200F5AD0202210
:101FF0009A6019F0080F21D00823C8F80830236828
:10200000A6491A6C03F5306303EB47138A429868BC
:1020100004D9010444BF4FF4004098602046059263
:10202000FEF7B6FC059A9D498A4207D9A179012994
:1020300004D1206804F29C4200F080FE19F0100FD9
:102040001CBF1023C8F8083019F0020F14D07369B0
:102050001A0642BF6B6843F480636B609AF857328C
:10206000012B06D100238AF8573259462046FEF745
:10207000D9FC0223C8F8083019F0200F1CBF202318
:10208000C8F8083019F4005F1CBF4FF40053C8F8BB
:102090000830049B5B080137049308F120080AF11B
:1020A000240A75E7DFF8F4C1614501D9120498D418
:1020B0001A69DAF87432C2F312029B1ACAF868324B
:1020C0006FB9D4F864222AB904F29C42012100F0CD
:1020D00035FE04E0D4F860221A44C4F86022594660
:1020E0002046FEF75BFC84E7DFF8B4C1614507D109
:1020F00011043FF576AF9006F1D520229A60EEE705
:10210000002FECD1D4F86432002BE8D104F29C42C9
:102110003946DCE7049BDB0740F19A805FFA8AF3DB
:1021200020680793194600F0E5FD10F0010F804686
:1021300020D06B6B01210AF00F0201FA02F223EAB0
:1021400002036B63CBF80810A17901290DD1D7E9FF
:10215000072313443B62BAF1000F06D1636A23B927
:10216000206804F29C4200F0E9FD5FFA8AF1204603
:10217000FEF71DFC18F0080F1CBF0823CBF8083031
:1021800018F0100F1CBF1023CBF8083018F0400FC8
:102190001CBF4023CBF8083018F0020F10D0514676
:1021A000304600F0FBF9FB7D012B06D10023FB75C7
:1021B0005FFA8AF12046FEF739FC0223CBF808309B
:1021C00018F0800F44D0D7E909329A4240D8A3EBE7
:1021D0000208FB6921680591984528BF984601F5DA
:1021E000106308F1030803EB4A134FEA98080693BB
:1021F000069B99697B6A89B2414527D39A420BD3E2
:10220000059B0AF00F00D3F834280121814022EA0F
:102210000102C3F834281BE0A3EB0209FB69079A0B
:102220000598994528BF9946A3790093396A1FFA02
:1022300089F300F09BFB3B6ABA6A09F103084B443F
:102240004A444FEA98083B62BA62D1E79A42D7D231
:10225000049B5B080AF1010A049324370BF1200B5D
:1022600083E52046FEF7DAFB97E599601A6822F4C9
:1022700000121A60C3F80812D3F8002222F40012E8
:10228000C3F80022D3F8002242F00062C3F8002213
:10229000039A013203922033A6E500BF0A30544F5F
:1022A0000A31544F6B6943F4005343F02B036B61C5
:1022B0002B6943F00B032B61ACE5B36923F080037A
:1022C000B361012704F257284FF024092379BB4258
:1022D0007FF6E0AD09FB07F318F80330012B03D1BB
:1022E000F9B22046FFF7C7FC0137EFE798F83C301A
:1022F000D9F80020012B09D1002A07DA67F07F0105
:1023000088F83B30C9B22046FFF7B5FC013708F129
:10231000240809F12009C6E50CF1010C2433203111
:10232000D6E500BF006870B5436A120419B91343BB
:102330008362002070BD846A4E1E03EB14430024A8
:10234000B44205D33F3100EB810013434360F0E713
:1023500004F1400500EB850501346D6803EB15437E
:10236000EEE70368002059627047704782B000238F
:1023700002460193019B01330193019BB3F1706FFE
:102380001AD81369002BF5DA0A230193019B83B94C
:10239000136943F001031361019B01330193019B16
:1023A000B3F1706F08D8106910F00100F4D102B0D9
:1023B0007047019B013BE8E70320F8E784B038B59C
:1023C00005AD85E80E009DF81930012B044627D194
:1023D000836B23F480338363C36823F4840323F083
:1023E0004003C360C36823F44013C3609DF82030EA
:1023F000012B02BFC36843F48013C360FFF7B6FF2D
:102400009DF81630012B07D1A36843F00603A360A3
:10241000A36843F02003A360BDE8384004B07047D0
:10242000C36843F04003C360FFF7A0FF9DF81D3071
:1024300023B9A36B43F48033A363E1E7A36B23F4D5
:102440008033F9E7022A4AD1274B284A0B449342AA
:1024500039D9274B274A0B44934236D9264AA1F54E
:102460007403A3F51053934231D9244AA1F1837325
:10247000A3F5E74393422CD3214B224A0B449342CA
:1024800029D9214B214A0B44934226D3204B214A80
:102490000B44934223D3204AA1F1B773A3F55853B9
:1024A00093421ED31D4B1E4A0B4493422CBF06235E
:1024B0000723C26822F47052C260C26842EA8323D2
:1024C000C360002070470F23F3E70E23F1E70D23CD
:1024D000EFE70C23EDE70B23EBE70A23E9E70923FA
:1024E000E7E70823E5E700BF405327FFFF340C0070
:1024F000401E1BFF3F420F007F4F120020D61300EB
:1025000060B6E5FE5FE3160000D3CEFE40771B0009
:10251000C05BB3FEC091210020753800E05459FE25
:10252000E09C4100836843F0010383600020704712
:10253000836823F0010383600020704738B5C368C7
:10254000012923F0C04305460C46C36014D1C3687B
:1025500043F00053C36000240A2001F0A7F86B6920
:10256000D90704F10A0402D4C82CF5D1C824A4F177
:10257000C8035842584138BD71B9C36843F080431D
:10258000C3600A2001F092F86B69DA0704F10A04CB
:10259000EDD5C82CF5D1E9E70120ECE782B00023A6
:1025A00002460193019B01330193019BB3F1706FCC
:1025B00015D81369002BF5DA8901002341F02001B9
:1025C00001931161019B01330193019BB3F1706F82
:1025D00005D8106910F02000F4D102B07047032034
:1025E000FBE782B0002302460193019B0133019374
:1025F000019BB3F1706F13D81369002BF5DA002338
:10260000019310231361019B01330193019BB3F1EB
:10261000706F05D8106910F01000F4D102B0704747
:102620000320FBE7D0F800381943C0F80018002059
:102630007047000084B02DE9F843044609A880E8FB
:102640000E0000239DF824609DF82E50194603F1DA
:10265000400204EB820201330F2B5160F7D104F5E5
:102660000067002D6CD17B6843F002037B60A36B95
:1026700043F40013A363A36B23F40023A363A36BAE
:1026800023F48023A3630023C4F8003E9DF829307F
:10269000012B5FD19DF82710002959D12046FFF763
:1026A000C1FF10212046FFF779FF01462046FFF7C2
:1026B00098FF0843C0B2002300383B6118BF0120D7
:1026C0007B6104F51062FB6119464FF0904C4FF0AE
:1026D000006E4FF67F389E423ED8002204F53063EC
:1026E00011464FF0904C4FF0006E4FF67F389642F7
:1026F00045D83B6923F480733B610023A3616FF0ED
:10270000804363619DF826301BB9A36943F0100331
:10271000A361A269234B1343A3619DF82A301BB127
:10272000A36943F00803A361012D01BFA36943F02E
:10273000804343F00403A361BDE8F84304B070474D
:10274000A36B23F40013A363A36B43F4002399E763
:102750001946A3E70321A1E7D2F80090B9F1000FD1
:102760000BDA3BB9C2F800E011610133C2F808800E
:102770002032B0E7C2F800C0F6E71160F4E7D3F802
:102780000090B9F1000F0BDA3AB9C3F800E0196113
:102790000132C3F808802033A9E7C3F800C0F6E788
:1027A0001960F4E700383C80D0F8083813F00600D0
:1027B00004D013F0020F14BF02200F20704730B571
:1027C0000C78012204F00F05AA404D78012D00F588
:1027D000006300EB441019D1DD692A43DA61D0F8B7
:1027E00000391A0410D48A68D0F80059C2F30A03D9
:1027F0000A792B4343EA824343EA845343F08053EC
:1028000043F40043C0F80039002030BDDC6944EADD
:102810000242DA61D0F8003B1B04F5D48B68D0F893
:10282000002BC3F30A0313430A7943EA824343F0BC
:10283000805343F40043C0F8003BE5E710B50A7845
:102840004978012900EB421300F5006002F00F0205
:1028500022D1D3F8001900290BDAD3F8001941F07E
:102860000061C3F80019D3F8001941F08041C3F8A2
:102870000019C46B012101FA02F224EA0204C463C4
:10288000C16921EA0202C261D3F80019144A0A4060
:10289000C3F80029002010BDD3F8001B00290BDA73
:1028A000D3F8001B41F00061C3F8001BD3F8001BF4
:1028B00041F08041C3F8001BC46B4FF4803101FA32
:1028C00002F224EA0204C463C16921EA0202C2617D
:1028D000D3F8001B034A0A40C3F8002BDAE700BF15
:1028E000007833EC0078F3EF82B000234A7801934C
:1028F0000B78012A4FEA43131ED100F51060C1186E
:10290000C258002A02DB002002B07047C25842F0D1
:102910000062C250C25842F08042C25042F210726D
:10292000019B01330193019B934201D90120EBE705
:102930000B68002BF4DBE6E700F53060C118C258E5
:10294000002AE0DAC25842F00062C250C25842F097
:102950008042C25042F21072019B01330193019BED
:102960009342E3D80B68002BF6DBCCE710B59DF85B
:10297000084044B9033301329B0800EB023001EBFD
:102980008303994201D1002010BD51F8042B02604D
:10299000F7E700002DE9F7434B7891F800E091F854
:1029A00004C0724C012B1746714B0A6900EB4E159F
:1029B00040F08D8005F5106642BB326913403361EB
:1029C000336943F400233361336923403361012FBA
:1029D00052D1CB6903B17361BCF1010F0CD1D0F8B6
:1029E000083813F4807FD5F800390CBF43F000534A
:1029F00043F08053C5F80039D5F8003943F004435B
:102A0000C5F80039002003B0BDE8F083D6F8108087
:102A100008EA040434613469234033618B68BEF1F1
:102A2000000F0DD193423CBF0B611A46336943F44A
:102A3000002333613369C2F312041C433461C6E7D7
:102A40009C18013CB4FBF3F44A4BD6F810801FFAF3
:102A500084F903EAC44444EA0804BCF1010F346178
:102A6000E8D1336923F0C043336134694FEA4973D5
:102A700003F0C0432343DCE7D5F80039BCF1010F74
:102A800043F00443C5F800390B690CD0002BB9D0D2
:102A9000D0F834280EF00F0E012303FA0EF313437F
:102AA000C0F83438AEE7D0F8082812F4807FD5F8A3
:102AB00000290CBF42F0005242F08052C5F80029B4
:102AC0000097C9689BB27246FFF750FF9AE7D5F8A6
:102AD000108B08EA0404C5F8104BD5F8104B2340BE
:102AE00005F5306633618B68BEF1000F27D102B166
:102AF0000B610B623269C3F3120313433361336911
:102B000043F40023012F336102D1CB6803B1736119
:102B1000BCF1010F0CD1D0F8083813F4807FD5F840
:102B2000003B0CBF43F0005343F08053C5F8003B1B
:102B3000D5F8003B43F00443C5F8003B62E7002AA8
:102B4000D8D09C180B4AD6F810E0013CB4FBF3F443
:102B5000A4B202EAC442634342EA0E020B6232614B
:102B60003269C3F312031343CCE700BF0000F8FF40
:102B7000FFFF07E00000F81F70B50023940800F580
:102B8000805502F00302A34204D301EB840132B961
:102B9000084670BD2E6841F823600133F3E700F565
:102BA000805000230468D80024FA00F05854013300
:102BB00098B28242F7D15018EBE74A780B78012A95
:102BC00000EB431012D1D0F80029002A06DB2BB10C
:102BD000D0F8003923F08043C0F80039D0F800392C
:102BE00043F40013C0F8003900207047D0F8002BE0
:102BF000002A06DB2BB1D0F8003B23F08043C0F85D
:102C0000003BD0F8003B43F40013C0F8003BEBE777
:102C10000B784A7800EB43100B79012AA3F10203E9
:102C2000DBB20FD1D0F80029012B22F40012C0F83A
:102C3000002905D8D0F8003943F08053C0F8003996
:102C400000207047D0F8002B22F40012012BC0F8AE
:102C5000002B9EBFD0F8003B43F08053C0F8003BF0
:102C6000EEE7D0F8003823F4FE63C0F80038D0F85F
:102C70000038090101F4FE611943C0F80018002072
:102C80007047D0F8003E23F00303C0F8003ED0F8B0
:102C9000043823F00203C0F8043800207047D0F84D
:102CA000003E23F00303C0F8003ED0F8043843F0A0
:102CB0000203C0F804380020704742698069104060
:102CC0007047D0F8183800F50060C0691840000C53
:102CD0007047D0F8183800F50060C069184080B21D
:102CE000704700EB411100F50060D1F8082B4069F6
:102CF00010407047D0F81028D0F8343800EB41105D
:102D000001F00F01CB4000F51060DB018068DBB201
:102D1000134318407047406900F001007047D0F835
:102D200000396FF30A03C0F80039D0F8043843F4CF
:102D30008073C0F8043800207047000030B5056C7F
:102D4000104CA54200F5306303D9D0F8004B002C9D
:102D500016DB00241C611C6944F400241C611C69FE
:102D600044F018041C611C69012944F0C0441C6132
:102D700001BF5A61D0F8003B43F08023C0F8003B0C
:102D8000002030BD0A30544F2DE9F341044640B3D2
:102D90000368DE0710D423689D075BD423681907F6
:102DA00000F19D8023685A0700F1BD80A369002BC4
:102DB00040F0248100202CE08D4B9A6802F00C0238
:102DC000042A07D09A6802F00C02082A0BD15B682B
:102DD000590208D5864B1B689A03DCD56368002B23
:102DE000D9D1012015E06368814DB3F5803F13D13F
:102DF0002B6843F480332B6000F052FC7C4E054678
:102E000033689B03C7D400F04BFC401B6428F7D900
:102E1000032002B0BDE8F081B3F5A02F04D12B68E8
:102E200043F480232B60E3E72A6822F480322A608F
:102E30002A6822F480222A60002BDDD100F030FCC9
:102E400006462B689F03A6D500F02AFC801B642849
:102E5000F7D9DDE7664B9A6812F00C0F07D09A6835
:102E600002F00C02082A11D15B685D020ED4604AA0
:102E70001368990702D5E368012BB2D11368216961
:102E800023F0F80343EAC103136087E7E268594B74
:102E9000B2B101221A6000F003FC554D06462B68C2
:102EA0009B0707D52B68226923F0F80343EAC20386
:102EB0002B6073E700F0F4FB801B0228EFD9A7E733
:102EC0001A6000F0EDFB4A4E054633689F077FF518
:102ED00065AF00F0E5FB401B0228F6D998E7626970
:102EE000444B82B10122C3F8802E00F0D9FB404E42
:102EF0000546736F9B073FF555AF00F0D1FB401BB4
:102F00000228F6D984E7C3F8802E00F0C9FB384EBA
:102F10000546736F9F077FF545AF00F0C1FB401B6F
:102F20000228F6D974E7324B1A6C12F0805228D17D
:102F300001921A6C42F080521A641B6C03F08053A9
:102F40000193019B01272C4D2B68D8051BD5A36845
:102F5000274D012B27D12B6F43F001032B6700F086
:102F60009FFB234E054641F28838336F9A0739D5C7
:102F7000002F3FF41BAF1E4A136C23F080531364E1
:102F800014E70027DFE72B6843F480732B6000F021
:102F900087FB06462B68D905D9D400F081FB801B3E
:102FA0000228F7D934E7052B04D12B6F43F0040333
:102FB0002B67D0E72A6F22F001022A672A6F22F0DE
:102FC00004022A67002BCAD100F06AFB41F288385C
:102FD00006462B6F9B07CBD500F062FB801B40455C
:102FE000F7D915E700F05CFB401B4045BDD90FE762
:102FF000003802400000474200700040374DAA6888
:1030000002F00C02082A3ED0022B354B4FF0000292
:103010001A662BD100F044FB06462B6899011FD499
:10302000D4E907321343626A43EA8213E26A43EA4D
:103030000263A26A5208013A43EA02436B60284BDA
:10304000264D01221A6600F02BFB04462B689A01DC
:103050003FF5B0AE00F024FB001B0228F6D9D7E6FE
:1030600000F01EFB801B0228D7D9D1E600F018FB28
:1030700004462B689B017FF59DAE00F011FB001B01
:103080000228F6D9C4E6012B3FF4ABAE6B68E269C7
:1030900003F4800191427FF4A4AE216A03F03F0261
:1030A0008A427FF49EAE616A47F6C0721A40B2EB64
:1030B000811F7FF496AEA26A520803F44031013AB0
:1030C000B1EB024F7FF48DAEE26A03F07063B3EBB5
:1030D000026F14BF012000209BE600BF00380240B1
:1030E00000004742134908B58B6803F00C03042B1A
:1030F0001CD0082B1CD14A684B68496813F4800324
:1031000014BF0D480D48C1F3881118BF002302F009
:103110003F02A1FB0001FDF797F8064B5B68C3F384
:10312000014301335B00B0FBF3F008BD0248FCE74C
:103130000248FAE70038024000127A000024F40046
:103140002DE9F0410D46044610B90120BDE8F0819B
:10315000434B1A6802F007028A4228D321688F077E
:103160002DD4C80740D43E4B1A6802F00702AA4289
:1031700065D8226851076BD4130707D5394A2169EE
:10318000936823F4604343EAC1039360FFF7AAFF07
:10319000344B354A9B68C3F30313D35CD840334B9D
:1031A0001860334B186800F031FA0020CEE7CAB23D
:1031B0001A701B6803F007038B42C6D1CEE7294B78
:1031C00011F0040F1EBF9A6842F4E0529A600E0795
:1031D00042BF9A6842F460429A609A68A06822F0FE
:1031E000F00202439A60BCE762681E4B012A1CD1C0
:1031F0001B6813F4003FA8D01A4EB36823F00303F2
:103200001343B36000F04CFA41F288380746B368C4
:10321000626803F00C03B3EB820FA4D000F040FA15
:10322000C01B4045F3D9032090E7911E01291B687C
:1032300002D813F0007FDEE713F0020FDBE7EAB2FB
:103240001A701B6803F00703AB427FF47EAF90E770
:103250000449E0688B6823F4E05303438B608BE7F9
:10326000003C0240003802408C7D0008C000002075
:10327000C8000020014B1868704700BFC000002044
:10328000044B054A9B68C3F38223D35C034A10684E
:10329000D840704700380240847D0008C0000020FC
:1032A0002DE9F74FDFF880915D4A00230D68012476
:1032B0009C4004EA0506AC4340F0A3804D68032718
:1032C00005F003044FEA430807FA08FC671E012FC4
:1032D0006FEA0C0C34D8876807EA0C0ECF6807FA3F
:1032E00008F747EA0E078760476827EA060EC5F326
:1032F00000179F4047EA0E074760C76807EA0C0EB1
:103300008F6807FA08F747EA0E07022CC76019D141
:103310004FEAD30A00EB8A0A03F0070BDAF82070B1
:103320004FEA8B0B4FF00F0E0EFA0BFE27EA0E0E34
:103330000F6907FA0BF747EA0E07CAF8207001E099
:10334000032CDAD1076804FA08F407EA0C073C43B7
:1033500015F4403F046054D000240194D9F844404F
:1033600044F48044C9F84440D9F8444023F00307AA
:1033700007F1804704F4804407F59C37019403F07B
:10338000030C019CD7F808E04FEA8C0C0F2404FAD8
:103390000CF42EEA040E234CA04239D004F58064CC
:1033A000A04237D004F58064A04235D004F5806493
:1033B000A04233D004F58064A04214BF0724042443
:1033C00004FA0CF444EA0E04BC609468F74315F464
:1033D000801F0CBF3C4034439460D46815F4001F38
:1033E0000CBF3C403443D460546815F4003F0CBF1C
:1033F0003C40344354601468ED0354BF3C403443B4
:1034000014600133102B7FF451AF03B0BDE8F08F8F
:103410000024D5E70124D3E70224D1E70324CFE732
:10342000003C014000000240003802403B4A2DE9C8
:10343000F04F00234FF0010A4FF00F084FF0030B3D
:103440000AFA03FC3CEA01040CEA010658D123F015
:10345000030404F1804404F59C3403F00307A568D9
:10346000BF0008FA07F909EA050E2D4DA8424CD015
:1034700005F58065A8424AD005F58065A84248D088
:1034800005F58065A84246D005F58065A84214BFC1
:1034900007250425BD40754513D1156825EA0605A5
:1034A0001560556825EA06055560D56825EA0605C4
:1034B000D560956825EA06059560A56825EA0905A1
:1034C000A56005685C000BFA04F4DE0825EA040533
:1034D00000EB8606056003F00705376AAD0008FAC1
:1034E00005F527EA05073762C56825EA0405C560C2
:1034F000456825EA0C054560856825EA0404846072
:103500000133102B9CD1BDE8F08F0025C2E70125C7
:10351000C0E70225BEE70325BCE700BF003C014031
:10352000000002400AB1816170470904FBE743696A
:1035300001EA030221EA030141EA02418161704785
:103540000749CA6822F4E0620302120403F4E0634C
:10355000120C134343F0BF6343F40033CB60704756
:1035600000ED00E0164B30B5DC68C4F30224C4F172
:103570000703251D042B28BF0423062D4FF0FF351C
:103580008CBF033C002405FA03F321EA0303A540A2
:1035900022EA0502A340002843EA0203ACBF00F17F
:1035A0006040084A4FEA0313B8BF00F00F00DBB2D7
:1035B000AABF00F56140135480F8003330BD00BF4E
:1035C00000ED00E014ED00E0002807DB044A4109AB
:1035D000012300F01F00834042F82130704700BFF4
:1035E00000E100E00138B0F1807F0BD24FF0E02322
:1035F000054A5861F02182F82310002007229861C3
:103600001A6170470120704700ED00E038B50E4B9D
:103610001A784FF47A73B3FBF2F30C4A054610683C
:10362000B0FBF3F0FFF7DEFF044658B90F2D09D8C1
:10363000024629464FF0FF30FFF794FF044B204627
:103640001D6038BD0120FCE7C4000020C000002040
:10365000C800002008B50B4B1A6842F400721A60CB
:103660001A6842F480621A601A6842F480721A6022
:103670000320FFF765FF0020FFF7C8FFFEF7AEF855
:10368000002008BD003C0240034A044B11681B782F
:103690000B441360704700BF14750020C400002065
:1036A000014B1868704700BF1475002038B50446F8
:1036B000FFF7F6FF631C1CBF054B1B78054618BFC0
:1036C000E418FFF7EDFF431BA342FAD338BD00BF58
:1036D000C400002001684B6913F480634FF00002BE
:1036E00010D06FF480634B612023026380F83D307B
:1036F00080F83E20036C80F83C2043F00403036410
:1037000001207047184670472DE9F84606460F46D7
:1037100091461D464FEA114A3368BAF1010F39D17B
:103720005C6927EA0404A4B2B4FA84F46409A145EC
:1037300001D0002024E06A1CEFD0FFF7B1FF089B06
:10374000C01AA84201D8002DE6D1BAF1010F3368A2
:1037500018D15B6927EA03039BB2B3FA83F35B09D1
:103760009945D9D100232022336386F83D2086F87D
:103770003E30326C86F83C3042F020023264012048
:10378000BDE8F8869B69DB43C3F3400383F0010384
:10379000DBB2E5E79C69E443C4F3400484F0010430
:1037A000E4B2C4E72DE9F04104460F4616469846B8
:1037B0002568686927EA000080B2C0B16B695A05C4
:1037C00017D52B6843F400732B606FF480636B6133
:1037D00020220023236384F83D2084F83E30236CAC
:1037E00043F004032364002384F83C300120BDE847
:1037F000F081731CDDD0FFF753FFA0EB0800B0424F
:1038000001D8002ED4D123685A6927EA020292B265
:10381000002ACDD000232022236384F83D2084F8A1
:103820003E30236C1343DDE770B504460D46164663
:1038300023685B691B0601D500201EE02046FFF7C8
:1038400049FFC8B96A1CF3D0FFF72AFF801BA842C2
:1038500001D8002DECD123685B6913F08003E7D118
:103860002022236384F83D2084F83E30226C84F8C3
:103870003C3042F020022264012070BD2DE9F0436B
:103880001546026885B0DDE90C789946136843F463
:10389000807313600E463B46CDF8008000224FF047
:1038A00001110446FFF730FF236838B11B68DB05C0
:1038B00002D54FF400732364032620E006F0FE06D1
:1038C0001E611A4943463A462046FFF76BFFA8B9E6
:1038D000236803905A6903929B69039342463946D1
:1038E0002046039BFFF7A0FF064660B1236C042B24
:1038F00001BF2268136843F4007313600126304649
:1039000005B0BDE8F083B9F1010F236802D1EDB233
:103910001D61F4E72A0A1A61394642462046FFF73C
:1039200083FF0028E2D12368F1E700BF0200010015
:103930002DE9FF479A46036815461A6842F48062EB
:103940001A601A68DDE90C7842F480721A600E463B
:103950003B46CDF8008000224FF001110446FFF7EE
:10396000D3FE236838B11B68DB0544BF4FF40073F6
:103970002364032021E05FFA86F906F0FE061E614B
:103980002A4943463A462046FFF70CFFA0B9236870
:1039900003905A6903929B69039342463946204635
:1039A000039BFFF741FF58B1236C042B01BF226832
:1039B000136843F400731360012004B0BDE8F0877E
:1039C000BAF1010F23681AD1EDB242461D613946A2
:1039D0002046FFF729FF02460028E5D121680B6841
:1039E00043F480730B602046CDF800803B464FF0D7
:1039F0000111FFF789FE226860B11368B4E72A0A53
:103A00001A61394642462046FFF70EFF0028CBD107
:103A10002368D9E749F0010304491361204643466E
:103A20003A4604B0BDE8F047FFF7BCBE0200010013
:103A300070B504460D46164623685B695B0701D5E1
:103A400000201EE02046FFF745FEC8B96A1CF3D0EF
:103A5000FFF726FE801BA84201D8002DECD1236879
:103A60005B6913F00403E7D12022236384F83D202F
:103A700084F83E30226C84F83C3042F0200222640C
:103A8000012070BD70B504460D46164621684B698D
:103A900013F0400301D0002011E04A69D2060FD58F
:103AA0006FF010024A612022236384F83D2084F8DD
:103AB0003E30236C2364002384F83C30012070BD29
:103AC000FFF7EEFD801BA84201D8002DDED1236850
:103AD0005B6913F04003D9D12022236384F83D2091
:103AE00084F83E30236C1343E4E7000070B50446CD
:103AF00008B9012070BD90F83D3003F0FF021BB9FA
:103B000080F83C20FDF788FE242384F83D302368AC
:103B10001A6822F001021A601A6842F400421A6020
:103B20001A6822F400421A60FFF7AAFB3F4B65684F
:103B30009D4294BF3E4B3F4B98428CBF00230123D4
:103B4000002BD6D12268394E51683B4BB0FBF3F3C2
:103B500021F03F011943B542516088BF4FF496767A
:103B6000116A88BF734321F03F0184BF4FF47A7616
:103B7000B3FBF6F301330B431362D169431E2B48A9
:103B800021F44F41854221F0FF0132D86D0040F60B
:103B9000FC70B3FBF5F30133034242D0C3F30B03D4
:103BA0001943D161D4E907301168034321F0C00102
:103BB0000B4313609168D4E9030321F403410343E9
:103BC00021F0FF010B439360D4E90530D168034332
:103BD00021F0FF010B43D360136843F0010313602E
:103BE00000202023206484F83D30206384F83E00C8
:103BF00080E7A06850B905EB4505B3FBF5F3013349
:103C0000C3F30B037BB143F40043C9E719206843B6
:103C1000B3FBF0F30133C3F30B0323B143F440438D
:103C2000BEE70423BCE70123BAE700BFA08601007A
:103C30007F841E00FF083D0040420F0010B504467F
:103C400098B10268242380F83D30136823F0010303
:103C50001360FDF719FE0020206484F83C0084F80E
:103C60003D00206384F83E0010BD0120FCE7000009
:103C70002DE9F743044699460C9E0F469046FFF700
:103C80000FFD94F83D30202B054603D0022003B0F1
:103C9000BDE8F08300903C49192301222046FFF73C
:103CA00033FD0028F2D194F83C30012BEED020688F
:103CB000012384F83C300368D9075EBF036843F0F2
:103CC00001030360036823F400630360212384F885
:103CD0003D30402384F83E30002323640A9B636216
:103CE000BDF82C306385638D2385284BE362424603
:103CF000CDE900654B4639462046FFF7BFFD002859
:103D00002AD00120C3E7FFF78FFD40B1236C042BBD
:103D100001BF2268136843F400731360F1E7636A1C
:103D200027681A4612F8011B39616262628D218D83
:103D3000013A92B262857A69481E80B252072085A4
:103D40000AD548B15A783A6102336362638D013B08
:103D500002399BB221856385238D2A463146204650
:103D6000002BD0D1FFF764FE0028CFD12268136862
:103D700043F400731360202384F83D3084F83C0042
:103D800084F83E0083E700BF020010000000FFFF40
:103D90002DE9F043044687B09946109F0D469046A2
:103DA000FFF77EFC94F83D30202B064604D0022518
:103DB000284607B0BDE8F083009079491923012215
:103DC0002046FFF7A1FC0028F1D194F83C30012BEC
:103DD000EDD02068012384F83C300368DB075EBF28
:103DE000036843F001030360036823F40063036086
:103DF000222384F83D30402384F83E30002323649E
:103E00000E9B6362BDF83C306385638D2385654BF3
:103E1000E3622946CDE900764B4642462046FFF74D
:103E200087FD054608B10125C2E7228D2368A2B9A6
:103E300002905A6902929A690292029A1A6842F4AE
:103E400000721A60238D002B2CD1202284F83D2093
:103E500084F83C3084F83E30AAE7012A0AD11A6877
:103E600022F480621A6003905A6903929A6903925D
:103E7000039AE3E7022A0ED11A6822F480621A60DC
:103E80001A6842F400621A6004905A6904929B69AD
:103E90000493049BD6E705905A6905929B690593A4
:103EA000059BCFE7032B56D8012B15D13246394657
:103EB0002046FFF7E7FD0028B5D123681A69636A39
:103EC0001A70636A01336362238D013B2385638D1E
:103ED000013B9BB26385B5E7022B334900963B4615
:103EE0004FF00002204619D1FFF70EFC00289AD1AE
:103EF00023681A6842F400721A601A69636A1A70B9
:103F0000626A531C6362238D013B2385638D013BF1
:103F10009BB2638523681B695370D2E7FFF7F4FBFC
:103F2000024600287FF47FAF2368196821F480617E
:103F300019601969636A1970636A1B490133636206
:103F4000238D013B2385638D013B9BB26385204616
:103F500000963B46C8E7324639462046FFF792FDB9
:103F600000287FF460AF23681A69636A1A70628D53
:103F7000616A013A92B24B1C628522686362238DAA
:103F80005069013B9BB2400723857FF55BAF032B54
:103F900002BF136823F48063136013694B7090E7CA
:103FA000020010000000FFFF0400010090F83D0037
:103FB000704778B10023C0F8B832C0F8C432C0F8F6
:103FC000D03209B1C0F8B412012380F89C320270DB
:103FD000FCF738BD0320704713B500230446ADF845
:103FE000063081B1CB6AC0F8B81223B10DF10600DA
:103FF0009847C4F8D002D4F8D8320133C4F8D83284
:10400000002002B010BD0320FBE7FCF76ABDD0F82A
:10401000B8320BB11B6818471846704708B5D0F87E
:10402000B8325B689847002818BF032008BD38B530
:10403000044600F2AA25284600F0A0FB012394F8CC
:10404000AA12C4F89432B4F8B032C4F8983201F02D
:104050001F03012B08D0022B0CD08BB92946204618
:10406000BDE8384000F054B929462046BDE8384044
:1040700000F0B2BA29462046BDE8384000F0DBBA6D
:10408000204601F08001BDE83840FCF748BD70B51E
:10409000044639BBD0F89432032B12D1D0F85831F2
:1040A000B0F8602193420ED9D0F864119B1A1144E4
:1040B0009A42C0F85831C0F8641138BF1A4600F06F
:1040C000B6FB002070BD90F89C32032B06D1D0F8CF
:1040D000B8321B6913B1C0F8D4129847204600F0DB
:1040E000AEFBEEE790F89C32032BEAD1D0F8B83261
:1040F0009B69002BE5D00022BDE87040C0F8D422B7
:10410000184770B504460D4600293FD1D0F89432C7
:10411000022B10D18269038C9A4214D9416AD21AB7
:1041200019448261416200F069FB2B462A46294608
:104130002046FCF718FD94F8A03213B1002384F850
:10414000A032002070BD0CD143699A4209D8D0F842
:104150009822934205D20A4600F050FBC4F89852C8
:10416000E3E794F89C32032B08D1D4F8B832DB682B
:1041700023B10022C4F8D42220469847802120464B
:10418000FCF7CDFC204600F065FBD4E790F89C32AC
:10419000032BD6D1D0F8B8325B69002BD1D00022E6
:1041A000BDE87040C0F8D4221847F8B5012380F864
:1041B0009C32D0F8B83200210446C0F89412416015
:1041C000C0F8A41280F8A012BBB900260022402536
:1041D0001146012740232046FCF78CFC84F86371CC
:1041E000A4F860512B46002280212046FCF782FC77
:1041F00084F8237025843046F8BD5B68002BE4D03A
:1042000098470028E1D00326E0E7017400207047BA
:1042100090F89C32042B1EBF90F89C32DBB280F8E1
:104220009D32042380F89C320020704790F89C3225
:10423000042B02BF90F89D32DBB280F89C32002044
:10424000704708B590F89C22032A05D1D0F8B832FF
:1042500013B1DB6903B19847002008BDD0F8D42220
:10426000AE3208B550F822204AB190F89C32032BA8
:1042700001D1136A0BB9002008BD9847FBE7032062
:10428000FAE7D0F8D422AE3208B550F822204AB16D
:1042900090F89C32032B01D1536A0BB9002008BD62
:1042A0009847FBE70320FAE700207047012208B592
:1042B00080F89C22D0F8B8220AB9002008BD5268C4
:1042C000017990470028F8D00320F7E700207047D5
:1042D0000020704710B5428803789A420AD90478C2
:1042E000204423444478052C9BB2F6D184788C4238
:1042F000F3D110BD0020FCE710B580210446FCF787
:104300000EFC20460021BDE81040FCF708BC000070
:1043100073B50B7803F06003202B04460D4609D0DB
:10432000402B07D093B12046FFF7E6FF0025284633
:1043300002B070BDD4F8D432AE33294654F82330DD
:104340009B68204602B0BDE8704018474B78092BA7
:10435000E9D801A252F823F079450008BD450008CC
:1043600027430008A14500082743000873440008BC
:1043700081430008274300084D450008B544000864
:104380000023ADF806304B881A0A013A062ACAD82B
:1043900001A151F822F000BFB5430008E74300082F
:1043A000014400082743000827430008454400084B
:1043B0005B440008D0F8B4321B68207C0DF1060184
:1043C0009847EA88002A00F0A480BDF80630002B48
:1043D000A9D09A4228BF1A46ADF8062001462046C9
:1043E00000F0FEF9A2E7027CD0F8B83232B99B6A3D
:1043F0000DF10600984702234370E2E7DB6AF7E716
:10440000DBB2052B8FD8DFE803F003090D11151976
:10441000D0F8B4325B68002BCFD184E7D0F8B43247
:104420009B68F8E7D0F8B432DB68F4E7D0F8B43230
:104430001B69F0E7D0F8B4325B69ECE7D0F8B4322E
:104440009B69E8E7037C002B7FF46DAFD0F8B832AE
:104450000DF106005B6B9847B3E7037C002B7FF4FC
:1044600062AFD0F8B8320DF106001B6B98470723F6
:10447000C2E78B88002B7FF456AFCB88002B7FF4EC
:1044800052AF4D887F2D3FF64EAF90F89C32032BF4
:104490003FF449AFEDB280F89E522946FCF751FB3C
:1044A000204600F0CCF91DB1022384F89C323DE790
:1044B0000123FAE78978474D0129297003D9FFF7CD
:1044C0001BFF032533E790F89C32022BDEB208D0A5
:1044D000032E17D0FFF710FF29782046FFF79EFD27
:1044E000EFE7B1B101214160FFF791FD054620469C
:1044F00025B1FFF701FF84F89C6218E700F09FF9EF
:104500000323D2E749B9022380F89C324160FFF7C8
:1045100085FD204600F093F908E741680129F8D0AD
:10452000C9B2FFF77BFD297861602046FFF76FFD78
:1045300005460028EDD02046FFF7DEFE2179204613
:10454000FFF76CFD022384F89C32F0E6CA88012A4A
:104550007FF4E9AE90F89C120229CBB207D8002B69
:104560003FF4E1AE0146002341F8083F37E7032B53
:104570007FF4D9AE011D32E790F89C32013B022B4B
:104580003FF6D1AECA88022A7FF4CDAED0F8A4326D
:104590000146002B0CBF0123032341F80C3F1EE70B
:1045A0004B88012B02D1C4F8A432B2E7022B7FF46E
:1045B000BAAE8B881B0A80F8A032AAE790F89C322A
:1045C000013B022B3FF6AFAE4B88012B7FF4AEAE22
:1045D0000023E8E71875002070B50B7803F060023F
:1045E0005B0604460E4601D5402A1FD194F89C3242
:1045F000013B022B1AD831790129204617D8FFF741
:1046000065FE88B9D4F8B8329B686BB1C4F8D4029F
:104610003146204698470546F3881BB915B9204610
:1046200000F00DF9284670BD0325F5E72046FFF799
:1046300063FE0025F6E770B50B788A880D7903F0E4
:104640006003202B04460E4658D0402B56D01BB199
:104650002046FFF751FE3DE04B78012B3CD0032B69
:1046600025D0002BF4D190F89C32022BD9B261D026
:104670000329EDD105F00F0312F0800F4FF0140263
:1046800002FB030366D093F82330002BE0D005F043
:104690007F03142603FB0666802D064466D0294658
:1046A0002046FCF7FDF9002866D001235FE090F872
:1046B0009C32022BDAB233D0032AC9D14B8833B9EA
:1046C000690604D0F38813B92946FCF728FA204676
:1046D00000F0B5F8002070BD90F89C32022BDAB2E1
:1046E0001ED0032AB4D14B88002BF3D16B0602D025
:1046F0002946FCF71DFA204600F0A1F8294620467D
:10470000FFF7E6FD0028E5D1D4F8B832C4F8D402AA
:104710009B68002BDED031462046BDE8704018472C
:104720006A0695D02946FCF7FAF980212046FCF765
:10473000F6F9CFE769068BD113064CBF00F11401DF
:1047400000F5AA71002301F80E3F0222204600F076
:1047500047F8BFE793F86331002B3FF479AF142695
:1047600006FB050606F5AA76002D98D10023B37343
:10477000022206F10E01E9E7B073F9E70B78037046
:104780004B7843704B8843808B888380CB88C38071
:10479000704710B580210446FCF7C1F9204600217E
:1047A000BDE81040FCF7BBB970B50D46164604468F
:1047B00070B1FCF725F8C3B201335B0033802B7076
:1047C00003236B70013C0223002114F8012F02B96E
:1047D00070BDEA545A1CD2B20233A954DBB2F4E7DA
:1047E00010B513460222C0F8942243610A46416282
:1047F00083610021FCF7AEF9002010BD08B5134617
:104800000A460021FCF7A6F9002008BD10B51346A2
:104810000322C0F89422C0F854310A46C0F864114B
:10482000C0F858310021FCF79EF9002010BD08B5F2
:1048300013460A460021FCF796F9002008BD08B58A
:1048400004220023C0F8942219461A46FCF782F984
:10485000002008BD08B505220023C0F8942219469F
:104860001A46FCF780F9002008BDD0F8D43200EBDE
:10487000830010B5D0F8C0428CB1D0F8C4321BB15F
:1048800094F80002FF2801D1002010BD9B6894F825
:10489000012221469847FF2384F80032F4E70320E1
:1048A000F3E700000A230380004870474801002016
:1048B00070B5822106460F48FFF70CFD0121054621
:1048C0000C48FFF707FD812104460A48FFF702FD67
:1048D0000DB11022AA711CB1402222710022627116
:1048E00018B14022027100224271432301483380F3
:1048F00070BD00BFCC000020FFF7DABF70B5822189
:1049000006460F48FFF7E6FC012105460C48FFF775
:10491000E1FC812104460A48FFF7DCFC0DB11022BE
:10492000AA711CB1002222710222627118B1002208
:1049300002710222427143230148338070BD00BFDF
:10494000CC00002038B5D0F8D432B033044650F84B
:1049500023508DB1FCF7B6F8D4F8D432C5F80C0268
:1049600004EB8304D5F80402D4F8C43205F50371CE
:10497000DB689847002038BD0320FCE7F8B5D0F885
:10498000D46200EB86060A46D6F8C05235B301F071
:104990000F0C142707FB0C077B698BB1D0F8C842BA
:1049A0004FF0240E0EFB0C44E469B3FBF4FC04FB53
:1049B0001C332BB97B611A46FCF7CCF80020F8BDFC
:1049C0000023C5F81432D6F8C4321B69002BF5D089
:1049D000D5F8080205F504719847EFE70320EEE7E4
:1049E000D0F8D432F7B500EB83030022D3F8C062CD
:1049F0008DF8052004460D46ADF80620002E65D042
:104A000091F800C01CF0600229D0202A5AD1CA882F
:104A10004F78F2B11CF0800F0ED0D3F8C43231467B
:104A20009B6838469847EA88072A28BF07223146FC
:104A30002046FFF7D5FE09E0402A28BF402286F82D
:104A4000007286F801223146FFF7E0FE002003B035
:104A5000F0BDD3F8C43238469B689847F6E74B78E8
:104A60000B2B2FD801A252F823F000BF9D4A00085B
:104A70004D4A0008C54A0008C54A0008C54A000852
:104A8000C54A0008C54A0008C54A0008C54A0008CA
:104A9000C54A0008AD4A0008BD4A000890F89C329B
:104AA000032B0FD102220DF10601C1E790F89C32D1
:104AB000032B07D101220DF10501B9E790F89C32D3
:104AC000032BC3D029462046FFF763FE0320BEE731
:104AD00038B5044600258121FCF718F8012184F837
:104AE00037502046FCF712F884F87751822120468F
:104AF000FCF70CF8D4F8D43284F84B5004EB830361
:104B00006564D3F8C0228AB1D3F8C4325B68984791
:104B1000D4F8D432B03354F82300FBF7DBFFD4F8D9
:104B2000D432B03344F82350C4F8BC52002038BD0E
:104B3000F8B504464FF40770FBF7C8FF054630B9D7
:104B4000D4F8D432B03344F82300022046E04FF4C6
:104B500007720021FBF736FDD4F8D432B03344F8A5
:104B60002350237CC4F8BC52CBBB4FF4007381218B
:104B700002222046FBF7BEFF012184F837104FF4D4
:104B8000007302222046FBF7B5FF01261023032203
:104B900063648221082384F877612046FBF7AAFF2B
:104BA000D4F8D43284F84B6004EB83030027D3F8A5
:104BB000C432C5F804721B689847D5F80422C5F8BA
:104BC0001472C5F81872002ABFD0237C93B94FF431
:104BD000007331462046FBF7C6FF0020F8BD402396
:104BE000812102222046FBF785FF012184F837103E
:104BF0004023C6E74023ECE739B1D0F8D43200EBCC
:104C00008300C0F8C4120020704703207047D0F81A
:104C1000D432B03350F823302BB1C3F80812C3F8A4
:104C200010220020704703207047D0F8D432B033F0
:104C300050F823301BB1C3F8041200207047032042
:104C40007047D0F8D432B03310B550F823207AB181
:104C5000D2F8144201236CB9C2F81432D2F81032DF
:104C60008362D2F808228121FBF774FF204610BD31
:104C70000320FCE71846FAE7D0F8D422B03208B592
:104C800050F8222062B1037CD2F8042233B94FF4E9
:104C900000730121FBF767FF002008BD4023F8E700
:104CA0000320FAE70346806B28B1186B18B1988E81
:104CB000003818BF0120704738B504460025294642
:104CC0005C2240F8045BFBF77DFC256604F1640080
:104CD00001F096F82946A4F8BC50C4F8C050202230
:104CE00004F1C400FBF76EFC4FF41D72294604F179
:104CF000E400FBF767FC04F5337002F064FE0E4B32
:104D0000C4F80C330D4BC4F810330D4BC4F81433F6
:104D10000C4BC4F818330C4BC4F81C330B4BC4F8C1
:104D200020330B4BC4F824330A4BC4F828330A4B06
:104D3000C4F82C33204638BDAC7D0008C07D000887
:104D4000D47D0008E87D0008FC7D0008107E000886
:104D5000247E0008387E00084C7E000838B5012308
:104D600080F8BC30436F04463BB1B0F87830203B4C
:104D70009BB24FF6CF72934202D9002384F8BC3025
:104D8000E36F3BB1B4F88030203B9BB24FF6CF725B
:104D9000934202D9002384F8BC300025B4F898303F
:104DA000AB4200D838BDD4F8943003EB8503987833
:104DB00001F064F808B984F8BC000135EEE77FB56E
:104DC00004460025A0F8605080F8BD505822643099
:104DD000FBF778FCA36ECDE90143B4F88030009373
:104DE000261DE36FB4F87820616F304601F0DCFADD
:104DF0002046FFF7B3FF94F8BC3033B9304601F0DA
:104E0000C0FA657284F8BC5002E0637A002BF9D0D6
:104E1000002594F8A820ABB29A421ED8D4F8B83036
:104E20000093B4F8B430D4F8B020214604F1E40083
:104E300002F036F894F8F42084F83C230023C4E907
:104E4000D133C4F84C33A4F8503384F85233A4F867
:104E50003E33A4F8403304B070BDD4F8A4302146EA
:104E600053F8250000F016FF0135D2E738B5137866
:104E7000012B04460BD0032B18D03BB9D0F8443398
:104E800013B1022380F84C33C4F8441338BDD0F872
:104E9000442300258A4218BF80F84C33C0F844539D
:104EA000E43001F0EBFF84F85053EFE793789188FA
:104EB00080F83C33042BD288A0F83E1318BF00239F
:104EC000A0F8402318BF80F85133DFE773B5002402
:104ED0000546264695F8A830A34201D802B070BD19
:104EE000D5F8A43053F82430BFF35B8F9A7CBFF31E
:104EF0005B8FD2B27AB1D3F80A00D3F80E106A46AB
:104F000003C2BFF35B8F9E74BFF35B8F6A46194683
:104F10002846FFF7ABFF0134DCE790F8603070B54E
:104F200004469BB1037A022B10D0061D304601F0D7
:104F300064F894F86130002584F8605084F8BD501E
:104F400023B1304601F07AFA84F8615070BD10B593
:104F5000B0F8984000239AB2944201D8002010BDC6
:104F6000D0F8942032F823208A4203F10103F2D1D1
:104F70000120F4E7F0B5B0F8986000239CB2A64297
:104F800001D800200AE09C00D0F894502F5B8F429B
:104F900003F10103F2D12B5913600120F0BDF0B5EC
:104FA0004B78013B87B005461646082B00F202817C
:104FB000DFE803F005111839477B85B7C1000123ED
:104FC000324601A9C430ADF8043001F05DFC04465E
:104FD000204607B0F0BD3146C43007B0BDE8F04010
:104FE00001F05CBC90F87030D0F8B0008DF804305F
:104FF00030B1B5F8B40018B105F1640000F013FF4A
:10500000D5F8AC308DF80500003B18BF01238DF8B2
:1050100006303246002301A905F1C4008DF807309F
:1050200001F06DFCD3E790F890308DF804303246F3
:1050300090F888308DF8053001A9C43001F03EFCAD
:10504000C5E700F1C40701AA384601F07BFC04461D
:105050000028BDD19DF80420DAB9D5F88C1009B923
:105060000524B5E79DF8053095F890009842F7D9EA
:1050700001EBC30051F833100391416804918DF89E
:10508000082002A9324638468DF8093001F020FC8C
:105090009DE7012A40F09080D5F884100029DFD0E8
:1050A0009DF8053095F88800E0E7B0F89830ADF845
:1050B0000430324601A9C43001F09EFC87E700F1BC
:1050C000C40702AA384601F044FC044600287FF4D5
:1050D0007FAF2A8D3146384601F064FDBDF8086087
:1050E000B5F8982003909642BAD2BDF80A303344FE
:1050F0009342B5DCD5F894300193BDF80830BDF883
:105100000A201344B3427FF763AF0199039801EB80
:10511000860101F0BDFA039B1B7B002B4ED10136AB
:10512000EBE790F8A8308DF80430324601A9C4307E
:1051300001F06BFC4BE700F1C40401AA204601F02A
:1051400016FCD5F8A430002B8AD095F8A820002AA8
:1051500086D09DF80470974282D853F827000368E0
:105160001B689847D5F8A4208DF80900034652F82B
:1051700027008DF80870427F8DF80A201BB903685C
:105180005B6898470390D5F8A43053F827305A69E4
:1051900072B10023D15C11B10133202BFAD10592F9
:1051A00002A9324620468DF8103001F0EAFB0EE7E6
:1051B0001346F4E702240BE7012409E7032407E779
:1051C000F0B54E78731E87B004461546042B00F2E6
:1051D0008280DFE803F003183A566F0000F1C4063E
:1051E00001AA304601F086FC58B9E06E03904021D8
:1051F000FBF772FB2A468DF8080002A9304601F041
:105200000BFC07B0F0BD00F1C40601AA304601F066
:1052100085FC0028F5D1E368019A9A4201D001206B
:10522000EFE7BDF80810201D00F090FE0028F6D032
:10523000E3680393BDF808302A46DB4303A93046F0
:10524000ADF8103001F016FCDBE7B0F88030ADF8B7
:105250000630B0F87830ADF80430436E02934CF26B
:105260005033039303F5970303F5FE63049304237C
:105270002A460DEB0301C4308DF8143001F009FC0F
:10528000BFE700F1C40701AA384601F058FC002826
:10529000B7D1237C0BBB201D01F0B8F8F8B1E3684F
:1052A0000393104B2A461B68029302A9384601F06B
:1052B00012FCA6E701AAC43001F04BFC0028A0D1E3
:1052C000237C002B9DD0E368019A9A42A7D1012349
:1052D00084F8613095E7022093E7304691E7052096
:1052E0008FE700BF9C7D00080346D0F88400F0B52E
:1052F00038B193F888600A44044600239E4201D8DE
:105300000020F0BD50F833508D4202D867688F42BC
:1053100007D2954202D86568954202D2013308341B
:10532000ECE70120EDE738B50D4611461A461C465C
:10533000FFF7DAFF28B922462846FBF7C3F9012018
:1053400038BD0020FCE7FF2A10B51C460ED002F045
:105350000F02012393405A1ED2B2032A06D80A46EE
:10536000DBB22146FFF7DFFF08B92060002010BD47
:105370002DE9F74F9846DDE90C3A03F1FF39CDE905
:10538000000108EB0900C0080130144600F05DFD83
:1053900006464FEAD900013000F057FD0F2E1ABF24
:1053A00046F0100B5FFA8BFB4FF0FF0B302C0546DD
:1053B00032D100280CBF3027FF270F2E1FBF06F069
:1053C0000F0101228A40D2B208BF0022DDE90001AC
:1053D000FFF78AFF002840F08C800C9B002B00F028
:1053E000888014F0EF0F01D0302C46D1DDE90001A8
:1053F00053465A46FFF7A7FF00287AD0B6B99AF865
:10540000002042FA08F28AF80020D5B3012D53D1CA
:1054100040F2FF1209213CE0F02C05D00F2803D008
:1054200040EA0407FFB2C8E7FF27C6E7012E06D10E
:10543000BAF8002042FA08F2AAF80020E5E7022EA6
:1054400057D1DAF8002022FA08F2CAF80020DCE787
:1054500000FA01F52A4301310C9B9942F8D19AF8E0
:105460000010D0B20A408AF8002034B952FA09F28A
:1054700003D061EA00018AF800100E9B01201F7022
:105480003DE0012211461046E6E705FA01F002432D
:1054900001310C9B9942F8D3BAF8001090B20A403F
:1054A000AAF80020002CE8D152FA09F2E5D061EA0E
:1054B0000001AAF80010E0E7022D1AD111491122CB
:1054C000012003E000FA02F5294301320C9B9A42C5
:1054D000F8D3DAF8002002EA0100CAF80000002C34
:1054E000CBD130FA09F0C8D062EA0102CAF8002034
:1054F000C3E70E9BFF2200201A70CAF8000003B019
:10550000BDE8F08FFFFF01008A880968FFF7ECBE55
:105510000346D0F88C00F0B538B193F890600A4497
:10552000044600239E4201D80020F0BD50F83350BD
:105530008D4202D867688F4207D2954202D86568CB
:10554000954202D201330834ECE70120EDE78A8866
:105550000968FFF7DDBF2DE9F0414E78731E86B074
:1055600004460F469046042B00F21281DFE813F048
:1055700005003A003A009200D20000F1C405284626
:1055800001F0F4FA228D00904146284601F0F2FA2B
:10559000009B0190DA7A1AB1012006B0BDE8F081D3
:1055A0001A89238D9A4217D90320F6E702A900F041
:1055B0007BFF009BDB7A002BEED102A92046FFF790
:1055C000A3FF08B10620E8E7019802A901F00BF853
:1055D000019B1B7B002BE7D10098837A002BE5D041
:1055E0000020DAE790F87030002BEBD0F31E5A421F
:1055F00000F1C4055A41284601F0C6FA228D0490F4
:105600004146284601F0C4FA049B0590DA7A002A44
:10561000C2D11A89238D9A42C6D80498837A002B66
:10562000DED1694600F097FF049BDB7A002BB3D1F3
:1056300069462046FFF768FF0028C3D16946204627
:10564000FFF785FF05460028BCD10598694600F0A4
:10565000FDFF032E1CD0BDF8042002990098FBF733
:1056600031F8DAE782B20299039F009D895CBF5C42
:10567000AB5C01EA070C43EA0C0361EA07010B404B
:10568000AB540130BDF8042083B29A42EAD8C4E793
:105690002846F7E76430FFF705FB002878D004F1CF
:1056A000C4053946284601F091FA228D0090414602
:1056B000284601F081FA009B01905B7A002B7FF471
:1056C0006BAF0098037A002B8AD104A901F06AF825
:1056D000009B5D7A002D7FF45FAF0028F1D0BDF80C
:1056E000101002AA2046FFF745FC08B9052054E730
:1056F000D4F89C3002982A4603A998470028F5D090
:10570000039A019802A900F0E1FF019B1B7B002B8B
:10571000D7D049E7D0F8A030002B39D0D0F894305A
:10572000002B35D0B0F89830002B31D000F1C405F3
:105730000246284601F058FA228D0090414628463C
:1057400001F048FA009B01905B7A002B7FF424AFB4
:105750000098037A002B7FF443AF03AA02A901F05B
:105760003EF8009B5A7A002A7FF416AF0028EFD04B
:10577000D4F8A030029803A998470028B6D0019821
:1057800002A900F0D8FF019B1B7B002BE0D00BE7A8
:10579000022002E7F0B5054685B0D5F8AC700846A2
:1057A0001646B7B12B8D01930DF10E030093002423
:1057B000936840784A88ADF80E408968B847BDF8CC
:1057C0000E302A8D9A4226BFB3802046032005B0B2
:1057D000F0BD0220FBE72DE9F04FD0F8B03089B0E2
:1057E00004460F461546002B00F06281B0F8B42045
:1057F000002A00F05D814B78013B072B00F25481B9
:10580000DFE813F008001400BE00CB00D700E7006B
:105810000601490104924FF400532A4604A9C430FA
:10582000ADF8143001F0EAF9054647E0002380F8AE
:105830005133D0F844333BB194F8503313B90123BA
:1058400084F84E33FF2539E000F5827304AA394607
:10585000C43001F04DFA054680BB9DF8103094F835
:10586000A8209A4240F21581D4F8A42052F823804F
:1058700098F81D30002B6DD094F89132019304F10B
:10588000640A2646A3468146019B4B4525D894F8D9
:1058900084B24FF00009CB4551D87DB9BDF8122034
:1058A00008F1040104F1E40001F014FB94F8C8329B
:1058B000002B00F0FB80C4F8488300257B78022B86
:1058C00007D16B1EDBB2FD2B03D804F1E40001F01D
:1058D000D5FA284609B0BDE8F08F9BF89822012A36
:1058E00010D19BF8A002DBF89C12FF281DBF00F02E
:1058F0000F008240D2B200222046FFF7F5FCB8B17B
:105900000625C4E7022A07D19BF8A1129BF8A22220
:105910000A44DBF89C12EFE7032A09D15046FFF74F
:10592000C1F950B1BBF89C122046FFF710FB20B123
:1059300009F101090BF10C0BA6E70525A7E796F87D
:1059400004314BB996F80C21D6F808112046FFF720
:10595000CBFC88B10625B1E7012B0DD15046FFF7EE
:10596000A1F9002800F09580B6F808112046FFF74D
:10597000EEFA002800F08D8009F101090C368AE763
:10598000D0F84433002B00F0848090F85033002B83
:105990007FD1012380F84D338FE7D0F84433002BBB
:1059A00077D090F85033002B73D1012380F84F3318
:1059B00083E790F83C338DF81030B0F83E33059310
:1059C0002A46B0F84033069304A9C43001F026F902
:1059D0002AE790F83C33042B5BD1B0F8FA32ADF8EB
:1059E0001030B0F8FC32ADF81230D0F8D83200F5F3
:1059F0003670DB8C059301F0D1FFB4F8FE320690CF
:105A00002A4604A904F1C400079301F01AF90BE730
:105A1000D0F84433002B3CD090F83C33042B35D1E4
:105A200090F8516300F536784EB9404601F0C2FF58
:105A3000012384F8513384F85263C4F85463B4F8F2
:105A4000FA32ADF8103094F852338DF8123004F574
:105A5000557306932A460DF10F03002604A904F19D
:105A6000C400CDF814808DF80F6001F009F994F8A6
:105A70005233013384F85233054610B184F8516330
:105A80001CE79DF80F30002BF8D117E7002380F8B2
:105A90005133052512E7D0F84433002B7FF4CCAE08
:105AA000E43001F0EBF908E7022507E7012505E7F7
:105AB00002250EE7002310B5937093800B781370C6
:105AC0001446013B4A786270042B04D8DFE803F0E7
:105AD000080F131B17000223A3700023A38005E007
:105AE0002246FFF75CFAA0700028F6D110BD2246CE
:105AF000FFF766FBF7E72246FFF72DFDF3E72246A7
